Archive member included to satisfy reference by file (symbol)

d:/ide/mounriver/mounriver_studio/toolchain/risc-v embedded gcc/bin/../lib/gcc/riscv-none-embed/8.2.0/rv32imac/ilp32\libgcc.a(adddf3.o)
                              ./zf_device/zf_device_oled.o (__adddf3)
d:/ide/mounriver/mounriver_studio/toolchain/risc-v embedded gcc/bin/../lib/gcc/riscv-none-embed/8.2.0/rv32imac/ilp32\libgcc.a(eqdf2.o)
                              ./zf_common/zf_common_function.o (__nedf2)
d:/ide/mounriver/mounriver_studio/toolchain/risc-v embedded gcc/bin/../lib/gcc/riscv-none-embed/8.2.0/rv32imac/ilp32\libgcc.a(gedf2.o)
                              ./zf_device/zf_device_oled.o (__gtdf2)
d:/ide/mounriver/mounriver_studio/toolchain/risc-v embedded gcc/bin/../lib/gcc/riscv-none-embed/8.2.0/rv32imac/ilp32\libgcc.a(ledf2.o)
                              ./zf_device/zf_device_ips114.o (__ltdf2)
d:/ide/mounriver/mounriver_studio/toolchain/risc-v embedded gcc/bin/../lib/gcc/riscv-none-embed/8.2.0/rv32imac/ilp32\libgcc.a(muldf3.o)
                              ./zf_device/zf_device_oled.o (__muldf3)
d:/ide/mounriver/mounriver_studio/toolchain/risc-v embedded gcc/bin/../lib/gcc/riscv-none-embed/8.2.0/rv32imac/ilp32\libgcc.a(subdf3.o)
                              ./zf_device/zf_device_oled.o (__subdf3)
d:/ide/mounriver/mounriver_studio/toolchain/risc-v embedded gcc/bin/../lib/gcc/riscv-none-embed/8.2.0/rv32imac/ilp32\libgcc.a(fixdfsi.o)
                              ./zf_common/zf_common_function.o (__fixdfsi)
d:/ide/mounriver/mounriver_studio/toolchain/risc-v embedded gcc/bin/../lib/gcc/riscv-none-embed/8.2.0/rv32imac/ilp32\libgcc.a(fixunsdfsi.o)
                              ./zf_device/zf_device_oled.o (__fixunsdfsi)
d:/ide/mounriver/mounriver_studio/toolchain/risc-v embedded gcc/bin/../lib/gcc/riscv-none-embed/8.2.0/rv32imac/ilp32\libgcc.a(floatsidf.o)
                              ./zf_common/zf_common_function.o (__floatsidf)
d:/ide/mounriver/mounriver_studio/toolchain/risc-v embedded gcc/bin/../lib/gcc/riscv-none-embed/8.2.0/rv32imac/ilp32\libgcc.a(addsf3.o)
                              ./zf_common/zf_common_function.o (__addsf3)
d:/ide/mounriver/mounriver_studio/toolchain/risc-v embedded gcc/bin/../lib/gcc/riscv-none-embed/8.2.0/rv32imac/ilp32\libgcc.a(divsf3.o)
                              ./zf_common/zf_common_function.o (__divsf3)
d:/ide/mounriver/mounriver_studio/toolchain/risc-v embedded gcc/bin/../lib/gcc/riscv-none-embed/8.2.0/rv32imac/ilp32\libgcc.a(eqsf2.o)
                              ./zf_common/zf_common_function.o (__eqsf2)
d:/ide/mounriver/mounriver_studio/toolchain/risc-v embedded gcc/bin/../lib/gcc/riscv-none-embed/8.2.0/rv32imac/ilp32\libgcc.a(lesf2.o)
                              ./zf_common/zf_common_function.o (__ltsf2)
d:/ide/mounriver/mounriver_studio/toolchain/risc-v embedded gcc/bin/../lib/gcc/riscv-none-embed/8.2.0/rv32imac/ilp32\libgcc.a(mulsf3.o)
                              ./zf_common/zf_common_function.o (__mulsf3)
d:/ide/mounriver/mounriver_studio/toolchain/risc-v embedded gcc/bin/../lib/gcc/riscv-none-embed/8.2.0/rv32imac/ilp32\libgcc.a(subsf3.o)
                              ./zf_common/zf_common_function.o (__subsf3)
d:/ide/mounriver/mounriver_studio/toolchain/risc-v embedded gcc/bin/../lib/gcc/riscv-none-embed/8.2.0/rv32imac/ilp32\libgcc.a(fixsfsi.o)
                              ./zf_common/zf_common_function.o (__fixsfsi)
d:/ide/mounriver/mounriver_studio/toolchain/risc-v embedded gcc/bin/../lib/gcc/riscv-none-embed/8.2.0/rv32imac/ilp32\libgcc.a(floatsisf.o)
                              ./zf_common/zf_common_function.o (__floatsisf)
d:/ide/mounriver/mounriver_studio/toolchain/risc-v embedded gcc/bin/../lib/gcc/riscv-none-embed/8.2.0/rv32imac/ilp32\libgcc.a(extendsfdf2.o)
                              ./user_c/main.o (__extendsfdf2)
d:/ide/mounriver/mounriver_studio/toolchain/risc-v embedded gcc/bin/../lib/gcc/riscv-none-embed/8.2.0/rv32imac/ilp32\libgcc.a(_clzsi2.o)
                              d:/ide/mounriver/mounriver_studio/toolchain/risc-v embedded gcc/bin/../lib/gcc/riscv-none-embed/8.2.0/rv32imac/ilp32\libgcc.a(adddf3.o) (__clzsi2)
d:/ide/mounriver/mounriver_studio/toolchain/risc-v embedded gcc/bin/../lib/gcc/riscv-none-embed/8.2.0/rv32imac/ilp32\libgcc.a(_clz.o)
                              d:/ide/mounriver/mounriver_studio/toolchain/risc-v embedded gcc/bin/../lib/gcc/riscv-none-embed/8.2.0/rv32imac/ilp32\libgcc.a(_clzsi2.o) (__clz_tab)
d:/ide/mounriver/mounriver_studio/toolchain/risc-v embedded gcc/bin/../lib/gcc/riscv-none-embed/8.2.0/../../../../riscv-none-embed/lib/rv32imac/ilp32\libg_nano.a(lib_a-memcpy.o)
                              ./zf_device/zf_device_bluetooth_ch9141.o (memcpy)
d:/ide/mounriver/mounriver_studio/toolchain/risc-v embedded gcc/bin/../lib/gcc/riscv-none-embed/8.2.0/../../../../riscv-none-embed/lib/rv32imac/ilp32\libg_nano.a(lib_a-memset.o)
                              ./zf_device/zf_device_bluetooth_ch9141.o (memset)
d:/ide/mounriver/mounriver_studio/toolchain/risc-v embedded gcc/bin/../lib/gcc/riscv-none-embed/8.2.0/../../../../riscv-none-embed/lib/rv32imac/ilp32\libg_nano.a(lib_a-nano-vfprintf_float.o)
                              (_printf_float)
d:/ide/mounriver/mounriver_studio/toolchain/risc-v embedded gcc/bin/../lib/gcc/riscv-none-embed/8.2.0/../../../../riscv-none-embed/lib/rv32imac/ilp32\libg_nano.a(lib_a-nano-vfprintf_i.o)
                              d:/ide/mounriver/mounriver_studio/toolchain/risc-v embedded gcc/bin/../lib/gcc/riscv-none-embed/8.2.0/../../../../riscv-none-embed/lib/rv32imac/ilp32\libg_nano.a(lib_a-nano-vfprintf_float.o) (_printf_common)
d:/ide/mounriver/mounriver_studio/toolchain/risc-v embedded gcc/bin/../lib/gcc/riscv-none-embed/8.2.0/../../../../riscv-none-embed/lib/rv32imac/ilp32\libg_nano.a(lib_a-printf.o)
                              ./zf_common/zf_common_debug.o (printf)
d:/ide/mounriver/mounriver_studio/toolchain/risc-v embedded gcc/bin/../lib/gcc/riscv-none-embed/8.2.0/../../../../riscv-none-embed/lib/rv32imac/ilp32\libg_nano.a(lib_a-puts.o)
                              ./sdk/Peripheral/ch32v30x_eth.o (puts)
d:/ide/mounriver/mounriver_studio/toolchain/risc-v embedded gcc/bin/../lib/gcc/riscv-none-embed/8.2.0/../../../../riscv-none-embed/lib/rv32imac/ilp32\libg_nano.a(lib_a-strlen.o)
                              ./zf_device/zf_device_bluetooth_ch9141.o (strlen)
d:/ide/mounriver/mounriver_studio/toolchain/risc-v embedded gcc/bin/../lib/gcc/riscv-none-embed/8.2.0/../../../../riscv-none-embed/lib/rv32imac/ilp32\libg_nano.a(lib_a-strncmp.o)
                              ./zf_device/zf_device_bluetooth_ch9141.o (strncmp)
d:/ide/mounriver/mounriver_studio/toolchain/risc-v embedded gcc/bin/../lib/gcc/riscv-none-embed/8.2.0/../../../../riscv-none-embed/lib/rv32imac/ilp32\libg_nano.a(lib_a-wbuf.o)
                              d:/ide/mounriver/mounriver_studio/toolchain/risc-v embedded gcc/bin/../lib/gcc/riscv-none-embed/8.2.0/../../../../riscv-none-embed/lib/rv32imac/ilp32\libg_nano.a(lib_a-puts.o) (__swbuf_r)
d:/ide/mounriver/mounriver_studio/toolchain/risc-v embedded gcc/bin/../lib/gcc/riscv-none-embed/8.2.0/../../../../riscv-none-embed/lib/rv32imac/ilp32\libg_nano.a(lib_a-wsetup.o)
                              d:/ide/mounriver/mounriver_studio/toolchain/risc-v embedded gcc/bin/../lib/gcc/riscv-none-embed/8.2.0/../../../../riscv-none-embed/lib/rv32imac/ilp32\libg_nano.a(lib_a-puts.o) (__swsetup_r)
d:/ide/mounriver/mounriver_studio/toolchain/risc-v embedded gcc/bin/../lib/gcc/riscv-none-embed/8.2.0/../../../../riscv-none-embed/lib/rv32imac/ilp32\libg_nano.a(lib_a-dtoa.o)
                              d:/ide/mounriver/mounriver_studio/toolchain/risc-v embedded gcc/bin/../lib/gcc/riscv-none-embed/8.2.0/../../../../riscv-none-embed/lib/rv32imac/ilp32\libg_nano.a(lib_a-nano-vfprintf_float.o) (_dtoa_r)
d:/ide/mounriver/mounriver_studio/toolchain/risc-v embedded gcc/bin/../lib/gcc/riscv-none-embed/8.2.0/../../../../riscv-none-embed/lib/rv32imac/ilp32\libg_nano.a(lib_a-fflush.o)
                              d:/ide/mounriver/mounriver_studio/toolchain/risc-v embedded gcc/bin/../lib/gcc/riscv-none-embed/8.2.0/../../../../riscv-none-embed/lib/rv32imac/ilp32\libg_nano.a(lib_a-wbuf.o) (_fflush_r)
d:/ide/mounriver/mounriver_studio/toolchain/risc-v embedded gcc/bin/../lib/gcc/riscv-none-embed/8.2.0/../../../../riscv-none-embed/lib/rv32imac/ilp32\libg_nano.a(lib_a-findfp.o)
                              d:/ide/mounriver/mounriver_studio/toolchain/risc-v embedded gcc/bin/../lib/gcc/riscv-none-embed/8.2.0/../../../../riscv-none-embed/lib/rv32imac/ilp32\libg_nano.a(lib_a-printf.o) (__sinit)
d:/ide/mounriver/mounriver_studio/toolchain/risc-v embedded gcc/bin/../lib/gcc/riscv-none-embed/8.2.0/../../../../riscv-none-embed/lib/rv32imac/ilp32\libg_nano.a(lib_a-fwalk.o)
                              d:/ide/mounriver/mounriver_studio/toolchain/risc-v embedded gcc/bin/../lib/gcc/riscv-none-embed/8.2.0/../../../../riscv-none-embed/lib/rv32imac/ilp32\libg_nano.a(lib_a-findfp.o) (_fwalk)
d:/ide/mounriver/mounriver_studio/toolchain/risc-v embedded gcc/bin/../lib/gcc/riscv-none-embed/8.2.0/../../../../riscv-none-embed/lib/rv32imac/ilp32\libg_nano.a(lib_a-impure.o)
                              d:/ide/mounriver/mounriver_studio/toolchain/risc-v embedded gcc/bin/../lib/gcc/riscv-none-embed/8.2.0/../../../../riscv-none-embed/lib/rv32imac/ilp32\libg_nano.a(lib_a-fflush.o) (_global_impure_ptr)
d:/ide/mounriver/mounriver_studio/toolchain/risc-v embedded gcc/bin/../lib/gcc/riscv-none-embed/8.2.0/../../../../riscv-none-embed/lib/rv32imac/ilp32\libg_nano.a(lib_a-localeconv.o)
                              d:/ide/mounriver/mounriver_studio/toolchain/risc-v embedded gcc/bin/../lib/gcc/riscv-none-embed/8.2.0/../../../../riscv-none-embed/lib/rv32imac/ilp32\libg_nano.a(lib_a-nano-vfprintf_float.o) (_localeconv_r)
d:/ide/mounriver/mounriver_studio/toolchain/risc-v embedded gcc/bin/../lib/gcc/riscv-none-embed/8.2.0/../../../../riscv-none-embed/lib/rv32imac/ilp32\libg_nano.a(lib_a-makebuf.o)
                              d:/ide/mounriver/mounriver_studio/toolchain/risc-v embedded gcc/bin/../lib/gcc/riscv-none-embed/8.2.0/../../../../riscv-none-embed/lib/rv32imac/ilp32\libg_nano.a(lib_a-wsetup.o) (__smakebuf_r)
d:/ide/mounriver/mounriver_studio/toolchain/risc-v embedded gcc/bin/../lib/gcc/riscv-none-embed/8.2.0/../../../../riscv-none-embed/lib/rv32imac/ilp32\libg_nano.a(lib_a-malloc.o)
                              d:/ide/mounriver/mounriver_studio/toolchain/risc-v embedded gcc/bin/../lib/gcc/riscv-none-embed/8.2.0/../../../../riscv-none-embed/lib/rv32imac/ilp32\libg_nano.a(lib_a-dtoa.o) (malloc)
d:/ide/mounriver/mounriver_studio/toolchain/risc-v embedded gcc/bin/../lib/gcc/riscv-none-embed/8.2.0/../../../../riscv-none-embed/lib/rv32imac/ilp32\libg_nano.a(lib_a-memchr.o)
                              d:/ide/mounriver/mounriver_studio/toolchain/risc-v embedded gcc/bin/../lib/gcc/riscv-none-embed/8.2.0/../../../../riscv-none-embed/lib/rv32imac/ilp32\libg_nano.a(lib_a-nano-vfprintf_i.o) (memchr)
d:/ide/mounriver/mounriver_studio/toolchain/risc-v embedded gcc/bin/../lib/gcc/riscv-none-embed/8.2.0/../../../../riscv-none-embed/lib/rv32imac/ilp32\libg_nano.a(lib_a-mprec.o)
                              d:/ide/mounriver/mounriver_studio/toolchain/risc-v embedded gcc/bin/../lib/gcc/riscv-none-embed/8.2.0/../../../../riscv-none-embed/lib/rv32imac/ilp32\libg_nano.a(lib_a-dtoa.o) (_Balloc)
d:/ide/mounriver/mounriver_studio/toolchain/risc-v embedded gcc/bin/../lib/gcc/riscv-none-embed/8.2.0/../../../../riscv-none-embed/lib/rv32imac/ilp32\libg_nano.a(lib_a-nano-callocr.o)
                              d:/ide/mounriver/mounriver_studio/toolchain/risc-v embedded gcc/bin/../lib/gcc/riscv-none-embed/8.2.0/../../../../riscv-none-embed/lib/rv32imac/ilp32\libg_nano.a(lib_a-mprec.o) (_calloc_r)
d:/ide/mounriver/mounriver_studio/toolchain/risc-v embedded gcc/bin/../lib/gcc/riscv-none-embed/8.2.0/../../../../riscv-none-embed/lib/rv32imac/ilp32\libg_nano.a(lib_a-nano-freer.o)
                              d:/ide/mounriver/mounriver_studio/toolchain/risc-v embedded gcc/bin/../lib/gcc/riscv-none-embed/8.2.0/../../../../riscv-none-embed/lib/rv32imac/ilp32\libg_nano.a(lib_a-wsetup.o) (_free_r)
d:/ide/mounriver/mounriver_studio/toolchain/risc-v embedded gcc/bin/../lib/gcc/riscv-none-embed/8.2.0/../../../../riscv-none-embed/lib/rv32imac/ilp32\libg_nano.a(lib_a-nano-mallocr.o)
                              d:/ide/mounriver/mounriver_studio/toolchain/risc-v embedded gcc/bin/../lib/gcc/riscv-none-embed/8.2.0/../../../../riscv-none-embed/lib/rv32imac/ilp32\libg_nano.a(lib_a-findfp.o) (_malloc_r)
d:/ide/mounriver/mounriver_studio/toolchain/risc-v embedded gcc/bin/../lib/gcc/riscv-none-embed/8.2.0/../../../../riscv-none-embed/lib/rv32imac/ilp32\libg_nano.a(lib_a-nano-vfprintf.o)
                              d:/ide/mounriver/mounriver_studio/toolchain/risc-v embedded gcc/bin/../lib/gcc/riscv-none-embed/8.2.0/../../../../riscv-none-embed/lib/rv32imac/ilp32\libg_nano.a(lib_a-printf.o) (_vfprintf_r)
d:/ide/mounriver/mounriver_studio/toolchain/risc-v embedded gcc/bin/../lib/gcc/riscv-none-embed/8.2.0/../../../../riscv-none-embed/lib/rv32imac/ilp32\libg_nano.a(lib_a-sbrkr.o)
                              d:/ide/mounriver/mounriver_studio/toolchain/risc-v embedded gcc/bin/../lib/gcc/riscv-none-embed/8.2.0/../../../../riscv-none-embed/lib/rv32imac/ilp32\libg_nano.a(lib_a-nano-mallocr.o) (_sbrk_r)
d:/ide/mounriver/mounriver_studio/toolchain/risc-v embedded gcc/bin/../lib/gcc/riscv-none-embed/8.2.0/../../../../riscv-none-embed/lib/rv32imac/ilp32\libg_nano.a(lib_a-stdio.o)
                              d:/ide/mounriver/mounriver_studio/toolchain/risc-v embedded gcc/bin/../lib/gcc/riscv-none-embed/8.2.0/../../../../riscv-none-embed/lib/rv32imac/ilp32\libg_nano.a(lib_a-findfp.o) (__sread)
d:/ide/mounriver/mounriver_studio/toolchain/risc-v embedded gcc/bin/../lib/gcc/riscv-none-embed/8.2.0/../../../../riscv-none-embed/lib/rv32imac/ilp32\libg_nano.a(lib_a-writer.o)
                              d:/ide/mounriver/mounriver_studio/toolchain/risc-v embedded gcc/bin/../lib/gcc/riscv-none-embed/8.2.0/../../../../riscv-none-embed/lib/rv32imac/ilp32\libg_nano.a(lib_a-stdio.o) (_write_r)
d:/ide/mounriver/mounriver_studio/toolchain/risc-v embedded gcc/bin/../lib/gcc/riscv-none-embed/8.2.0/../../../../riscv-none-embed/lib/rv32imac/ilp32\libg_nano.a(lib_a-closer.o)
                              d:/ide/mounriver/mounriver_studio/toolchain/risc-v embedded gcc/bin/../lib/gcc/riscv-none-embed/8.2.0/../../../../riscv-none-embed/lib/rv32imac/ilp32\libg_nano.a(lib_a-stdio.o) (_close_r)
d:/ide/mounriver/mounriver_studio/toolchain/risc-v embedded gcc/bin/../lib/gcc/riscv-none-embed/8.2.0/../../../../riscv-none-embed/lib/rv32imac/ilp32\libg_nano.a(lib_a-fstatr.o)
                              d:/ide/mounriver/mounriver_studio/toolchain/risc-v embedded gcc/bin/../lib/gcc/riscv-none-embed/8.2.0/../../../../riscv-none-embed/lib/rv32imac/ilp32\libg_nano.a(lib_a-makebuf.o) (_fstat_r)
d:/ide/mounriver/mounriver_studio/toolchain/risc-v embedded gcc/bin/../lib/gcc/riscv-none-embed/8.2.0/../../../../riscv-none-embed/lib/rv32imac/ilp32\libg_nano.a(lib_a-fvwrite.o)
                              d:/ide/mounriver/mounriver_studio/toolchain/risc-v embedded gcc/bin/../lib/gcc/riscv-none-embed/8.2.0/../../../../riscv-none-embed/lib/rv32imac/ilp32\libg_nano.a(lib_a-nano-vfprintf.o) (__sfvwrite_r)
d:/ide/mounriver/mounriver_studio/toolchain/risc-v embedded gcc/bin/../lib/gcc/riscv-none-embed/8.2.0/../../../../riscv-none-embed/lib/rv32imac/ilp32\libg_nano.a(lib_a-isattyr.o)
                              d:/ide/mounriver/mounriver_studio/toolchain/risc-v embedded gcc/bin/../lib/gcc/riscv-none-embed/8.2.0/../../../../riscv-none-embed/lib/rv32imac/ilp32\libg_nano.a(lib_a-makebuf.o) (_isatty_r)
d:/ide/mounriver/mounriver_studio/toolchain/risc-v embedded gcc/bin/../lib/gcc/riscv-none-embed/8.2.0/../../../../riscv-none-embed/lib/rv32imac/ilp32\libg_nano.a(lib_a-locale.o)
                              d:/ide/mounriver/mounriver_studio/toolchain/risc-v embedded gcc/bin/../lib/gcc/riscv-none-embed/8.2.0/../../../../riscv-none-embed/lib/rv32imac/ilp32\libg_nano.a(lib_a-localeconv.o) (__global_locale)
d:/ide/mounriver/mounriver_studio/toolchain/risc-v embedded gcc/bin/../lib/gcc/riscv-none-embed/8.2.0/../../../../riscv-none-embed/lib/rv32imac/ilp32\libg_nano.a(lib_a-lseekr.o)
                              d:/ide/mounriver/mounriver_studio/toolchain/risc-v embedded gcc/bin/../lib/gcc/riscv-none-embed/8.2.0/../../../../riscv-none-embed/lib/rv32imac/ilp32\libg_nano.a(lib_a-stdio.o) (_lseek_r)
d:/ide/mounriver/mounriver_studio/toolchain/risc-v embedded gcc/bin/../lib/gcc/riscv-none-embed/8.2.0/../../../../riscv-none-embed/lib/rv32imac/ilp32\libg_nano.a(lib_a-mbtowc_r.o)
                              d:/ide/mounriver/mounriver_studio/toolchain/risc-v embedded gcc/bin/../lib/gcc/riscv-none-embed/8.2.0/../../../../riscv-none-embed/lib/rv32imac/ilp32\libg_nano.a(lib_a-locale.o) (__ascii_mbtowc)
d:/ide/mounriver/mounriver_studio/toolchain/risc-v embedded gcc/bin/../lib/gcc/riscv-none-embed/8.2.0/../../../../riscv-none-embed/lib/rv32imac/ilp32\libg_nano.a(lib_a-memmove.o)
                              d:/ide/mounriver/mounriver_studio/toolchain/risc-v embedded gcc/bin/../lib/gcc/riscv-none-embed/8.2.0/../../../../riscv-none-embed/lib/rv32imac/ilp32\libg_nano.a(lib_a-fvwrite.o) (memmove)
d:/ide/mounriver/mounriver_studio/toolchain/risc-v embedded gcc/bin/../lib/gcc/riscv-none-embed/8.2.0/../../../../riscv-none-embed/lib/rv32imac/ilp32\libg_nano.a(lib_a-mlock.o)
                              d:/ide/mounriver/mounriver_studio/toolchain/risc-v embedded gcc/bin/../lib/gcc/riscv-none-embed/8.2.0/../../../../riscv-none-embed/lib/rv32imac/ilp32\libg_nano.a(lib_a-nano-freer.o) (__malloc_lock)
d:/ide/mounriver/mounriver_studio/toolchain/risc-v embedded gcc/bin/../lib/gcc/riscv-none-embed/8.2.0/../../../../riscv-none-embed/lib/rv32imac/ilp32\libg_nano.a(lib_a-nano-reallocr.o)
                              d:/ide/mounriver/mounriver_studio/toolchain/risc-v embedded gcc/bin/../lib/gcc/riscv-none-embed/8.2.0/../../../../riscv-none-embed/lib/rv32imac/ilp32\libg_nano.a(lib_a-fvwrite.o) (_realloc_r)
d:/ide/mounriver/mounriver_studio/toolchain/risc-v embedded gcc/bin/../lib/gcc/riscv-none-embed/8.2.0/../../../../riscv-none-embed/lib/rv32imac/ilp32\libg_nano.a(lib_a-readr.o)
                              d:/ide/mounriver/mounriver_studio/toolchain/risc-v embedded gcc/bin/../lib/gcc/riscv-none-embed/8.2.0/../../../../riscv-none-embed/lib/rv32imac/ilp32\libg_nano.a(lib_a-stdio.o) (_read_r)
d:/ide/mounriver/mounriver_studio/toolchain/risc-v embedded gcc/bin/../lib/gcc/riscv-none-embed/8.2.0/../../../../riscv-none-embed/lib/rv32imac/ilp32\libg_nano.a(lib_a-reent.o)
                              d:/ide/mounriver/mounriver_studio/toolchain/risc-v embedded gcc/bin/../lib/gcc/riscv-none-embed/8.2.0/../../../../riscv-none-embed/lib/rv32imac/ilp32\libg_nano.a(lib_a-sbrkr.o) (errno)
d:/ide/mounriver/mounriver_studio/toolchain/risc-v embedded gcc/bin/../lib/gcc/riscv-none-embed/8.2.0/../../../../riscv-none-embed/lib/rv32imac/ilp32\libg_nano.a(lib_a-strcmp.o)
                              d:/ide/mounriver/mounriver_studio/toolchain/risc-v embedded gcc/bin/../lib/gcc/riscv-none-embed/8.2.0/../../../../riscv-none-embed/lib/rv32imac/ilp32\libg_nano.a(lib_a-locale.o) (strcmp)
d:/ide/mounriver/mounriver_studio/toolchain/risc-v embedded gcc/bin/../lib/gcc/riscv-none-embed/8.2.0/../../../../riscv-none-embed/lib/rv32imac/ilp32\libg_nano.a(lib_a-wctomb_r.o)
                              d:/ide/mounriver/mounriver_studio/toolchain/risc-v embedded gcc/bin/../lib/gcc/riscv-none-embed/8.2.0/../../../../riscv-none-embed/lib/rv32imac/ilp32\libg_nano.a(lib_a-locale.o) (__ascii_wctomb)
d:/ide/mounriver/mounriver_studio/toolchain/risc-v embedded gcc/bin/../lib/gcc/riscv-none-embed/8.2.0/../../../../riscv-none-embed/lib/rv32imac/ilp32\libg_nano.a(lib_a-ctype_.o)
                              d:/ide/mounriver/mounriver_studio/toolchain/risc-v embedded gcc/bin/../lib/gcc/riscv-none-embed/8.2.0/../../../../riscv-none-embed/lib/rv32imac/ilp32\libg_nano.a(lib_a-locale.o) (_ctype_)
d:/ide/mounriver/mounriver_studio/toolchain/risc-v embedded gcc/bin/../lib/gcc/riscv-none-embed/8.2.0/../../../../riscv-none-embed/lib/rv32imac/ilp32\libg_nano.a(lib_a-nano-msizer.o)
                              d:/ide/mounriver/mounriver_studio/toolchain/risc-v embedded gcc/bin/../lib/gcc/riscv-none-embed/8.2.0/../../../../riscv-none-embed/lib/rv32imac/ilp32\libg_nano.a(lib_a-nano-reallocr.o) (_malloc_usable_size_r)
d:/ide/mounriver/mounriver_studio/toolchain/risc-v embedded gcc/bin/../lib/gcc/riscv-none-embed/8.2.0/rv32imac/ilp32\libgcc.a(divdf3.o)
                              d:/ide/mounriver/mounriver_studio/toolchain/risc-v embedded gcc/bin/../lib/gcc/riscv-none-embed/8.2.0/../../../../riscv-none-embed/lib/rv32imac/ilp32\libg_nano.a(lib_a-dtoa.o) (__divdf3)
d:/ide/mounriver/mounriver_studio/toolchain/risc-v embedded gcc/bin/../lib/gcc/riscv-none-embed/8.2.0/rv32imac/ilp32\libgcc.a(unorddf2.o)
                              d:/ide/mounriver/mounriver_studio/toolchain/risc-v embedded gcc/bin/../lib/gcc/riscv-none-embed/8.2.0/../../../../riscv-none-embed/lib/rv32imac/ilp32\libg_nano.a(lib_a-nano-vfprintf_float.o) (__unorddf2)
d:/ide/mounriver/mounriver_studio/toolchain/risc-v embedded gcc/bin/../lib/gcc/riscv-none-embed/8.2.0/rv32imac/ilp32\libgcc.a(floatunsidf.o)
                              d:/ide/mounriver/mounriver_studio/toolchain/risc-v embedded gcc/bin/../lib/gcc/riscv-none-embed/8.2.0/../../../../riscv-none-embed/lib/rv32imac/ilp32\libg_nano.a(lib_a-dtoa.o) (__floatunsidf)
d:/ide/mounriver/mounriver_studio/toolchain/risc-v embedded gcc/bin/../lib/gcc/riscv-none-embed/8.2.0/rv32imac/ilp32\libgcc.a(trunctfdf2.o)
                              d:/ide/mounriver/mounriver_studio/toolchain/risc-v embedded gcc/bin/../lib/gcc/riscv-none-embed/8.2.0/../../../../riscv-none-embed/lib/rv32imac/ilp32\libg_nano.a(lib_a-nano-vfprintf_float.o) (__trunctfdf2)
d:/ide/mounriver/mounriver_studio/toolchain/risc-v embedded gcc/bin/../lib/gcc/riscv-none-embed/8.2.0/../../../../riscv-none-embed/lib/rv32imac/ilp32\libnosys.a(close.o)
                              d:/ide/mounriver/mounriver_studio/toolchain/risc-v embedded gcc/bin/../lib/gcc/riscv-none-embed/8.2.0/../../../../riscv-none-embed/lib/rv32imac/ilp32\libg_nano.a(lib_a-closer.o) (_close)
d:/ide/mounriver/mounriver_studio/toolchain/risc-v embedded gcc/bin/../lib/gcc/riscv-none-embed/8.2.0/../../../../riscv-none-embed/lib/rv32imac/ilp32\libnosys.a(fstat.o)
                              d:/ide/mounriver/mounriver_studio/toolchain/risc-v embedded gcc/bin/../lib/gcc/riscv-none-embed/8.2.0/../../../../riscv-none-embed/lib/rv32imac/ilp32\libg_nano.a(lib_a-fstatr.o) (_fstat)
d:/ide/mounriver/mounriver_studio/toolchain/risc-v embedded gcc/bin/../lib/gcc/riscv-none-embed/8.2.0/../../../../riscv-none-embed/lib/rv32imac/ilp32\libnosys.a(isatty.o)
                              d:/ide/mounriver/mounriver_studio/toolchain/risc-v embedded gcc/bin/../lib/gcc/riscv-none-embed/8.2.0/../../../../riscv-none-embed/lib/rv32imac/ilp32\libg_nano.a(lib_a-isattyr.o) (_isatty)
d:/ide/mounriver/mounriver_studio/toolchain/risc-v embedded gcc/bin/../lib/gcc/riscv-none-embed/8.2.0/../../../../riscv-none-embed/lib/rv32imac/ilp32\libnosys.a(lseek.o)
                              d:/ide/mounriver/mounriver_studio/toolchain/risc-v embedded gcc/bin/../lib/gcc/riscv-none-embed/8.2.0/../../../../riscv-none-embed/lib/rv32imac/ilp32\libg_nano.a(lib_a-lseekr.o) (_lseek)
d:/ide/mounriver/mounriver_studio/toolchain/risc-v embedded gcc/bin/../lib/gcc/riscv-none-embed/8.2.0/../../../../riscv-none-embed/lib/rv32imac/ilp32\libnosys.a(read.o)
                              d:/ide/mounriver/mounriver_studio/toolchain/risc-v embedded gcc/bin/../lib/gcc/riscv-none-embed/8.2.0/../../../../riscv-none-embed/lib/rv32imac/ilp32\libg_nano.a(lib_a-readr.o) (_read)
d:/ide/mounriver/mounriver_studio/toolchain/risc-v embedded gcc/bin/../lib/gcc/riscv-none-embed/8.2.0/../../../../riscv-none-embed/lib/rv32imac/ilp32\libnosys.a(sbrk.o)
                              d:/ide/mounriver/mounriver_studio/toolchain/risc-v embedded gcc/bin/../lib/gcc/riscv-none-embed/8.2.0/../../../../riscv-none-embed/lib/rv32imac/ilp32\libg_nano.a(lib_a-sbrkr.o) (_sbrk)

Allocating common symbols
Common symbol       size              file

errno               0x4               d:/ide/mounriver/mounriver_studio/toolchain/risc-v embedded gcc/bin/../lib/gcc/riscv-none-embed/8.2.0/../../../../riscv-none-embed/lib/rv32imac/ilp32\libg_nano.a(lib_a-reent.o)

Discarded input sections

 .text          0x0000000000000000        0x0 ./zf_driver/zf_driver_adc.o
 .data          0x0000000000000000        0x0 ./zf_driver/zf_driver_adc.o
 .bss           0x0000000000000000        0x0 ./zf_driver/zf_driver_adc.o
 .text.adc_gpio_init
                0x0000000000000000      0x1e0 ./zf_driver/zf_driver_adc.o
 .text.adc_convert
                0x0000000000000000       0x78 ./zf_driver/zf_driver_adc.o
 .rodata        0x0000000000000000       0x95 ./zf_driver/zf_driver_adc.o
 .text.adc_mean_filter
                0x0000000000000000       0x90 ./zf_driver/zf_driver_adc.o
 .text.adc_init
                0x0000000000000000       0xee ./zf_driver/zf_driver_adc.o
 .debug_info    0x0000000000000000      0xf3f ./zf_driver/zf_driver_adc.o
 .debug_abbrev  0x0000000000000000      0x268 ./zf_driver/zf_driver_adc.o
 .debug_aranges
                0x0000000000000000       0x38 ./zf_driver/zf_driver_adc.o
 .debug_ranges  0x0000000000000000       0x28 ./zf_driver/zf_driver_adc.o
 .debug_line    0x0000000000000000      0x873 ./zf_driver/zf_driver_adc.o
Memory Configuration

Name             Origin             Length             Attributes
RAM              0x0000000020000000 0x0000000000010000 xrw
FLASH            0x0000000000000000 0x0000000000040000 xr
*default*        0x0000000000000000 0xffffffffffffffff

Linker script and memory map

LOAD ./zf_driver/zf_driver_adc.o
LOAD ./zf_driver/zf_driver_delay.o
LOAD ./zf_driver/zf_driver_dvp.o
LOAD ./zf_driver/zf_driver_encoder.o
LOAD ./zf_driver/zf_driver_flash.o
LOAD ./zf_driver/zf_driver_gpio.o
LOAD ./zf_driver/zf_driver_irq.o
LOAD ./zf_driver/zf_driver_pit.o
LOAD ./zf_driver/zf_driver_pwm.o
LOAD ./zf_driver/zf_driver_soft_iic.o
LOAD ./zf_driver/zf_driver_spi.o
LOAD ./zf_driver/zf_driver_timer.o
LOAD ./zf_driver/zf_driver_uart.o
LOAD ./zf_driver/zf_driver_usb_cdc.o
LOAD ./zf_device/zf_device_absolute_encoder.o
LOAD ./zf_device/zf_device_bluetooth_ch9141.o
LOAD ./zf_device/zf_device_bluetooth_ch9141_ch2.o
LOAD ./zf_device/zf_device_camera.o
LOAD ./zf_device/zf_device_icm20602.o
LOAD ./zf_device/zf_device_ips114.o
LOAD ./zf_device/zf_device_ips200_parallel8.o
LOAD ./zf_device/zf_device_mpu6050.o
LOAD ./zf_device/zf_device_mt9v03x_dvp.o
LOAD ./zf_device/zf_device_oled.o
LOAD ./zf_device/zf_device_scc8660_dvp.o
LOAD ./zf_device/zf_device_tft180.o
LOAD ./zf_device/zf_device_type.o
LOAD ./zf_device/zf_device_wireless_uart.o
LOAD ./zf_common/zf_common_clock.o
LOAD ./zf_common/zf_common_debug.o
LOAD ./zf_common/zf_common_fifo.o
LOAD ./zf_common/zf_common_font.o
LOAD ./zf_common/zf_common_function.o
LOAD ./zf_common/zf_common_interrupt.o
LOAD ./user_c/isr.o
LOAD ./user_c/main.o
LOAD ./sdk/Startup/startup_ch32v30x.o
LOAD ./sdk/Startup/system_ch32v30x.o
LOAD ./sdk/Peripheral/ch32v30x_adc.o
LOAD ./sdk/Peripheral/ch32v30x_bkp.o
LOAD ./sdk/Peripheral/ch32v30x_can.o
LOAD ./sdk/Peripheral/ch32v30x_crc.o
LOAD ./sdk/Peripheral/ch32v30x_dac.o
LOAD ./sdk/Peripheral/ch32v30x_dbgmcu.o
LOAD ./sdk/Peripheral/ch32v30x_dma.o
LOAD ./sdk/Peripheral/ch32v30x_dvp.o
LOAD ./sdk/Peripheral/ch32v30x_eth.o
LOAD ./sdk/Peripheral/ch32v30x_exti.o
LOAD ./sdk/Peripheral/ch32v30x_flash.o
LOAD ./sdk/Peripheral/ch32v30x_fsmc.o
LOAD ./sdk/Peripheral/ch32v30x_gpio.o
LOAD ./sdk/Peripheral/ch32v30x_i2c.o
LOAD ./sdk/Peripheral/ch32v30x_iwdg.o
LOAD ./sdk/Peripheral/ch32v30x_misc.o
LOAD ./sdk/Peripheral/ch32v30x_opa.o
LOAD ./sdk/Peripheral/ch32v30x_pwr.o
LOAD ./sdk/Peripheral/ch32v30x_rcc.o
LOAD ./sdk/Peripheral/ch32v30x_rng.o
LOAD ./sdk/Peripheral/ch32v30x_rtc.o
LOAD ./sdk/Peripheral/ch32v30x_sdio.o
LOAD ./sdk/Peripheral/ch32v30x_spi.o
LOAD ./sdk/Peripheral/ch32v30x_tim.o
LOAD ./sdk/Peripheral/ch32v30x_usart.o
LOAD ./sdk/Peripheral/ch32v30x_usbotg_device.o
LOAD ./sdk/Peripheral/ch32v30x_wwdg.o
LOAD ./sdk/Core/core_riscv.o
LOAD ./code/Encoder.o
LOAD d:/ide/mounriver/mounriver_studio/toolchain/risc-v embedded gcc/bin/../lib/gcc/riscv-none-embed/8.2.0/../../../../riscv-none-embed/lib/rv32imac/ilp32\libm.a
LOAD d:/ide/mounriver/mounriver_studio/toolchain/risc-v embedded gcc/bin/../lib/gcc/riscv-none-embed/8.2.0/rv32imac/ilp32\libgcc.a
LOAD d:/ide/mounriver/mounriver_studio/toolchain/risc-v embedded gcc/bin/../lib/gcc/riscv-none-embed/8.2.0/../../../../riscv-none-embed/lib/rv32imac/ilp32\libg_nano.a
LOAD d:/ide/mounriver/mounriver_studio/toolchain/risc-v embedded gcc/bin/../lib/gcc/riscv-none-embed/8.2.0/../../../../riscv-none-embed/lib/rv32imac/ilp32\libc_nano.a
LOAD d:/ide/mounriver/mounriver_studio/toolchain/risc-v embedded gcc/bin/../lib/gcc/riscv-none-embed/8.2.0/rv32imac/ilp32\libgcc.a
START GROUP
LOAD d:/ide/mounriver/mounriver_studio/toolchain/risc-v embedded gcc/bin/../lib/gcc/riscv-none-embed/8.2.0/rv32imac/ilp32\libgcc.a
LOAD d:/ide/mounriver/mounriver_studio/toolchain/risc-v embedded gcc/bin/../lib/gcc/riscv-none-embed/8.2.0/../../../../riscv-none-embed/lib/rv32imac/ilp32\libc_nano.a
LOAD d:/ide/mounriver/mounriver_studio/toolchain/risc-v embedded gcc/bin/../lib/gcc/riscv-none-embed/8.2.0/../../../../riscv-none-embed/lib/rv32imac/ilp32\libnosys.a
END GROUP
START GROUP
LOAD d:/ide/mounriver/mounriver_studio/toolchain/risc-v embedded gcc/bin/../lib/gcc/riscv-none-embed/8.2.0/rv32imac/ilp32\libgcc.a
LOAD d:/ide/mounriver/mounriver_studio/toolchain/risc-v embedded gcc/bin/../lib/gcc/riscv-none-embed/8.2.0/../../../../riscv-none-embed/lib/rv32imac/ilp32\libc_nano.a
LOAD d:/ide/mounriver/mounriver_studio/toolchain/risc-v embedded gcc/bin/../lib/gcc/riscv-none-embed/8.2.0/../../../../riscv-none-embed/lib/rv32imac/ilp32\libnosys.a
END GROUP
                0x0000000000000800                __stack_size = 0x800
                [!provide]                        PROVIDE (_stack_size = __stack_size)

.init           0x0000000000000000       0x38
                0x0000000000000000                _sinit = .
                0x0000000000000000                . = ALIGN (0x4)
 *(SORT_NONE(.init))
 .init          0x0000000000000000       0x38 ./sdk/Startup/startup_ch32v30x.o
                0x0000000000000000                _start
                0x0000000000000038                . = ALIGN (0x4)
                0x0000000000000038                _einit = .

.vector         0x0000000000000038      0x1c8
 *(.vector)
 .vector        0x0000000000000038      0x1a0 ./sdk/Startup/startup_ch32v30x.o
                0x0000000000000200                . = ALIGN (0x40)
 *fill*         0x00000000000001d8       0x28 

.text           0x0000000000000200     0xbfcc
                0x0000000000000200                . = ALIGN (0x4)
 *(.text)
 .text          0x0000000000000200       0x14 ./zf_driver/zf_driver_irq.o
                0x0000000000000200                dis_interrupt
                0x0000000000000206                en_interrupt
 .text          0x0000000000000214       0xa8 d:/ide/mounriver/mounriver_studio/toolchain/risc-v embedded gcc/bin/../lib/gcc/riscv-none-embed/8.2.0/../../../../riscv-none-embed/lib/rv32imac/ilp32\libg_nano.a(lib_a-memset.o)
                0x0000000000000214                memset
 *(.text.*)
 .text.system_delay
                0x00000000000002bc       0x5c ./zf_driver/zf_driver_delay.o
                0x00000000000002bc                system_delay
 .text.encoder_gpio_init
                0x0000000000000318       0x36 ./zf_driver/zf_driver_encoder.o
                0x0000000000000318                encoder_gpio_init
 .text.encoder_get_count
                0x000000000000034e       0xaa ./zf_driver/zf_driver_encoder.o
                0x000000000000034e                encoder_get_count
 .text.encoder_clean_count
                0x00000000000003f8       0x26 ./zf_driver/zf_driver_encoder.o
                0x00000000000003f8                encoder_clean_count
 .text.encoder_init_dir
                0x000000000000041e      0x208 ./zf_driver/zf_driver_encoder.o
                0x000000000000041e                encoder_init_dir
 .text.gpio_get_level
                0x0000000000000626       0x40 ./zf_driver/zf_driver_gpio.o
                0x0000000000000626                gpio_get_level
 .text.gpio_toggle_level
                0x0000000000000666       0x66 ./zf_driver/zf_driver_gpio.o
                0x0000000000000666                gpio_toggle_level
 .text.gpio_init
                0x00000000000006cc      0x196 ./zf_driver/zf_driver_gpio.o
                0x00000000000006cc                gpio_init
 .text.spi_gpio_init
                0x0000000000000862      0x204 ./zf_driver/zf_driver_spi.o
                0x0000000000000862                spi_gpio_init
 .text.spi_init
                0x0000000000000a66      0x264 ./zf_driver/zf_driver_spi.o
                0x0000000000000a66                spi_init
 .text.spi_write_8bit
                0x0000000000000cca       0x56 ./zf_driver/zf_driver_spi.o
                0x0000000000000cca                spi_write_8bit
 .text.spi_write_16bit
                0x0000000000000d20       0xa6 ./zf_driver/zf_driver_spi.o
                0x0000000000000d20                spi_write_16bit
 .text.timer_funciton_check
                0x0000000000000dc6       0x58 ./zf_driver/zf_driver_timer.o
                0x0000000000000dc6                timer_funciton_check
 .text.timer_clock_enable
                0x0000000000000e1e       0xe2 ./zf_driver/zf_driver_timer.o
                0x0000000000000e1e                timer_clock_enable
 .text.uart_gpio_init
                0x0000000000000f00      0x40a ./zf_driver/zf_driver_uart.o
                0x0000000000000f00                uart_gpio_init
 .text.uart_rx_interrupt
                0x000000000000130a       0x86 ./zf_driver/zf_driver_uart.o
                0x000000000000130a                uart_rx_interrupt
 .text.uart_query_byte
                0x0000000000001390       0x5e ./zf_driver/zf_driver_uart.o
                0x0000000000001390                uart_query_byte
 .text.uart_init
                0x00000000000013ee      0x2b0 ./zf_driver/zf_driver_uart.o
                0x00000000000013ee                uart_init
 .text.bluetooth_ch9141_uart_callback_ch1
                0x000000000000169e       0x96 ./zf_device/zf_device_bluetooth_ch9141.o
                0x000000000000169e                bluetooth_ch9141_uart_callback_ch1
 .text.bluetooth_ch9141_uart_callback_ch2
                0x0000000000001734       0x96 ./zf_device/zf_device_bluetooth_ch9141_ch2.o
                0x0000000000001734                bluetooth_ch9141_uart_callback_ch2
 .text.camera_uart_handler
                0x00000000000017ca       0x3a ./zf_device/zf_device_camera.o
                0x00000000000017ca                camera_uart_handler
 .text.camera_dvp_handler
                0x0000000000001804       0x30 ./zf_device/zf_device_camera.o
                0x0000000000001804                camera_dvp_handler
 .text.ips114_write_index
                0x0000000000001834       0x7c ./zf_device/zf_device_ips114.o
 .text.ips114_set_region
                0x00000000000018b0      0x26c ./zf_device/zf_device_ips114.o
 .text.ips114_init
                0x0000000000001b1c      0x3b2 ./zf_device/zf_device_ips114.o
                0x0000000000001b1c                ips114_init
 .text.ips114_clear
                0x0000000000001ece       0x72 ./zf_device/zf_device_ips114.o
                0x0000000000001ece                ips114_clear
 .text.ips114_set_dir
                0x0000000000001f40       0x42 ./zf_device/zf_device_ips114.o
                0x0000000000001f40                ips114_set_dir
 .text.ips114_set_color
                0x0000000000001f82       0x2c ./zf_device/zf_device_ips114.o
                0x0000000000001f82                ips114_set_color
 .text.ips114_show_char
                0x0000000000001fae      0x138 ./zf_device/zf_device_ips114.o
                0x0000000000001fae                ips114_show_char
 .text.ips114_show_string
                0x00000000000020e6       0xbe ./zf_device/zf_device_ips114.o
                0x00000000000020e6                ips114_show_string
 .text.ips114_show_float
                0x00000000000021a4      0x1e0 ./zf_device/zf_device_ips114.o
                0x00000000000021a4                ips114_show_float
 .text.mt9v03x_uart_callback_dvp
                0x0000000000002384       0x66 ./zf_device/zf_device_mt9v03x_dvp.o
                0x0000000000002384                mt9v03x_uart_callback_dvp
 .text.mt9v03x_handler_dvp
                0x00000000000023ea       0x3a ./zf_device/zf_device_mt9v03x_dvp.o
                0x00000000000023ea                mt9v03x_handler_dvp
 .text.scc8660_uart_callback_dvp
                0x0000000000002424       0x66 ./zf_device/zf_device_scc8660_dvp.o
                0x0000000000002424                scc8660_uart_callback_dvp
 .text.scc8660_vsync_dvp
                0x000000000000248a       0x3a ./zf_device/zf_device_scc8660_dvp.o
                0x000000000000248a                scc8660_vsync_dvp
 .text.wireless_uart_callback
                0x00000000000024c4       0x28 ./zf_device/zf_device_wireless_uart.o
                0x00000000000024c4                wireless_uart_callback
 .text.clock_init
                0x00000000000024ec       0x2a ./zf_common/zf_common_clock.o
                0x00000000000024ec                clock_init
 .text.clock_reset
                0x0000000000002516       0x76 ./zf_common/zf_common_clock.o
 .text.clock_set_freq
                0x000000000000258c      0x260 ./zf_common/zf_common_clock.o
 .text.__NOP    0x00000000000027ec       0x10 ./zf_common/zf_common_debug.o
 .text.debug_init
                0x00000000000027fc       0x34 ./zf_common/zf_common_debug.o
                0x00000000000027fc                debug_init
 .text.debug_assert_handler
                0x0000000000002830       0x46 ./zf_common/zf_common_debug.o
                0x0000000000002830                debug_assert_handler
 .text._write   0x0000000000002876       0x7c ./zf_common/zf_common_debug.o
                0x0000000000002876                _write
 .text.fifo_head_offset
                0x00000000000028f2       0x4e ./zf_common/zf_common_fifo.o
                0x00000000000028f2                fifo_head_offset
 .text.fifo_end_offset
                0x0000000000002940       0x4e ./zf_common/zf_common_fifo.o
                0x0000000000002940                fifo_end_offset
 .text.fifo_used
                0x000000000000298e       0x22 ./zf_common/zf_common_fifo.o
                0x000000000000298e                fifo_used
 .text.fifo_write_buffer
                0x00000000000029b0      0x10a ./zf_common/zf_common_fifo.o
                0x00000000000029b0                fifo_write_buffer
 .text.fifo_read_buffer
                0x0000000000002aba      0x12c ./zf_common/zf_common_fifo.o
                0x0000000000002aba                fifo_read_buffer
 .text.number_conversion_ascii
                0x0000000000002be6      0x11e ./zf_common/zf_common_function.o
 .text.printf_reverse_order
                0x0000000000002d04       0x88 ./zf_common/zf_common_function.o
 .text.zf_sprintf
                0x0000000000002d8c      0x582 ./zf_common/zf_common_function.o
                0x0000000000002d8c                zf_sprintf
 .text.NVIC_EnableIRQ
                0x000000000000330e       0x32 ./zf_common/zf_common_interrupt.o
 .text.NVIC_DisableIRQ
                0x0000000000003340       0x32 ./zf_common/zf_common_interrupt.o
 .text.interrupt_enable
                0x0000000000003372       0x1c ./zf_common/zf_common_interrupt.o
                0x0000000000003372                interrupt_enable
 .text.interrupt_disable
                0x000000000000338e       0x1c ./zf_common/zf_common_interrupt.o
                0x000000000000338e                interrupt_disable
 .text.interrupt_init
                0x00000000000033aa        0xe ./zf_common/zf_common_interrupt.o
                0x00000000000033aa                interrupt_init
 .text.interrupt_enable_all
                0x00000000000033b8       0x22 ./zf_common/zf_common_interrupt.o
                0x00000000000033b8                interrupt_enable_all
 .text.interrupt_disable_all
                0x00000000000033da       0x22 ./zf_common/zf_common_interrupt.o
                0x00000000000033da                interrupt_disable_all
 .text.USART1_IRQHandler
                0x00000000000033fc       0x34 ./user_c/isr.o
                0x00000000000033fc                USART1_IRQHandler
 .text.USART2_IRQHandler
                0x0000000000003430       0x52 ./user_c/isr.o
                0x0000000000003430                USART2_IRQHandler
 .text.USART3_IRQHandler
                0x0000000000003482       0x34 ./user_c/isr.o
                0x0000000000003482                USART3_IRQHandler
 .text.UART4_IRQHandler
                0x00000000000034b6       0x34 ./user_c/isr.o
                0x00000000000034b6                UART4_IRQHandler
 .text.UART5_IRQHandler
                0x00000000000034ea       0x30 ./user_c/isr.o
                0x00000000000034ea                UART5_IRQHandler
 .text.UART6_IRQHandler
                0x000000000000351a       0x34 ./user_c/isr.o
                0x000000000000351a                UART6_IRQHandler
 .text.UART7_IRQHandler
                0x000000000000354e       0x4c ./user_c/isr.o
                0x000000000000354e                UART7_IRQHandler
 .text.UART8_IRQHandler
                0x000000000000359a       0x2c ./user_c/isr.o
                0x000000000000359a                UART8_IRQHandler
 .text.DVP_IRQHandler
                0x00000000000035c6       0x3e ./user_c/isr.o
                0x00000000000035c6                DVP_IRQHandler
 .text.EXTI0_IRQHandler
                0x0000000000003604       0x24 ./user_c/isr.o
                0x0000000000003604                EXTI0_IRQHandler
 .text.EXTI1_IRQHandler
                0x0000000000003628       0x24 ./user_c/isr.o
                0x0000000000003628                EXTI1_IRQHandler
 .text.EXTI2_IRQHandler
                0x000000000000364c       0x24 ./user_c/isr.o
                0x000000000000364c                EXTI2_IRQHandler
 .text.EXTI3_IRQHandler
                0x0000000000003670       0x22 ./user_c/isr.o
                0x0000000000003670                EXTI3_IRQHandler
 .text.EXTI4_IRQHandler
                0x0000000000003692       0x22 ./user_c/isr.o
                0x0000000000003692                EXTI4_IRQHandler
 .text.EXTI9_5_IRQHandler
                0x00000000000036b4       0x74 ./user_c/isr.o
                0x00000000000036b4                EXTI9_5_IRQHandler
 .text.EXTI15_10_IRQHandler
                0x0000000000003728       0x7c ./user_c/isr.o
                0x0000000000003728                EXTI15_10_IRQHandler
 .text.TIM1_UP_IRQHandler
                0x00000000000037a4       0x30 ./user_c/isr.o
                0x00000000000037a4                TIM1_UP_IRQHandler
 .text.TIM2_IRQHandler
                0x00000000000037d4       0x30 ./user_c/isr.o
                0x00000000000037d4                TIM2_IRQHandler
 .text.TIM3_IRQHandler
                0x0000000000003804       0x30 ./user_c/isr.o
                0x0000000000003804                TIM3_IRQHandler
 .text.TIM4_IRQHandler
                0x0000000000003834       0x30 ./user_c/isr.o
                0x0000000000003834                TIM4_IRQHandler
 .text.TIM5_IRQHandler
                0x0000000000003864       0x30 ./user_c/isr.o
                0x0000000000003864                TIM5_IRQHandler
 .text.TIM6_IRQHandler
                0x0000000000003894       0x28 ./user_c/isr.o
                0x0000000000003894                TIM6_IRQHandler
 .text.TIM7_IRQHandler
                0x00000000000038bc       0x30 ./user_c/isr.o
                0x00000000000038bc                TIM7_IRQHandler
 .text.TIM8_UP_IRQHandler
                0x00000000000038ec       0x30 ./user_c/isr.o
                0x00000000000038ec                TIM8_UP_IRQHandler
 .text.TIM9_UP_IRQHandler
                0x000000000000391c       0x30 ./user_c/isr.o
                0x000000000000391c                TIM9_UP_IRQHandler
 .text.TIM10_UP_IRQHandler
                0x000000000000394c       0x28 ./user_c/isr.o
                0x000000000000394c                TIM10_UP_IRQHandler
 .text.NMI_Handler
                0x0000000000003974       0x10 ./user_c/isr.o
                0x0000000000003974                NMI_Handler
 .text.HardFault_Handler
                0x0000000000003984        0x8 ./user_c/isr.o
                0x0000000000003984                HardFault_Handler
 .text.main     0x000000000000398c       0x68 ./user_c/main.o
                0x000000000000398c                main
 .text.vector_handler
                0x00000000000039f4       0xbe ./sdk/Startup/startup_ch32v30x.o
                0x00000000000039f8                Ecall_M_Mode_Handler
                0x00000000000039fa                Ecall_U_Mode_Handler
                0x00000000000039fc                Break_Point_Handler
                0x00000000000039fe                SysTick_Handler
                0x0000000000003a00                SW_handler
                0x0000000000003a02                WWDG_IRQHandler
                0x0000000000003a04                PVD_IRQHandler
                0x0000000000003a06                TAMPER_IRQHandler
                0x0000000000003a08                RTC_IRQHandler
                0x0000000000003a0a                FLASH_IRQHandler
                0x0000000000003a0c                RCC_IRQHandler
                0x0000000000003a18                DMA1_Channel1_IRQHandler
                0x0000000000003a1a                DMA1_Channel2_IRQHandler
                0x0000000000003a1c                DMA1_Channel3_IRQHandler
                0x0000000000003a1e                DMA1_Channel4_IRQHandler
                0x0000000000003a20                DMA1_Channel5_IRQHandler
                0x0000000000003a22                DMA1_Channel6_IRQHandler
                0x0000000000003a24                DMA1_Channel7_IRQHandler
                0x0000000000003a26                ADC1_2_IRQHandler
                0x0000000000003a28                USB_HP_CAN1_TX_IRQHandler
                0x0000000000003a2a                USB_LP_CAN1_RX0_IRQHandler
                0x0000000000003a2c                CAN1_RX1_IRQHandler
                0x0000000000003a2e                CAN1_SCE_IRQHandler
                0x0000000000003a32                TIM1_BRK_IRQHandler
                0x0000000000003a36                TIM1_TRG_COM_IRQHandler
                0x0000000000003a38                TIM1_CC_IRQHandler
                0x0000000000003a40                I2C1_EV_IRQHandler
                0x0000000000003a42                I2C1_ER_IRQHandler
                0x0000000000003a44                I2C2_EV_IRQHandler
                0x0000000000003a46                I2C2_ER_IRQHandler
                0x0000000000003a48                SPI1_IRQHandler
                0x0000000000003a4a                SPI2_IRQHandler
                0x0000000000003a54                RTCAlarm_IRQHandler
                0x0000000000003a56                USBWakeUp_IRQHandler
                0x0000000000003a58                TIM8_BRK_IRQHandler
                0x0000000000003a5c                TIM8_TRG_COM_IRQHandler
                0x0000000000003a5e                TIM8_CC_IRQHandler
                0x0000000000003a60                RNG_IRQHandler
                0x0000000000003a62                FSMC_IRQHandler
                0x0000000000003a64                SDIO_IRQHandler
                0x0000000000003a68                SPI3_IRQHandler
                0x0000000000003a72                DMA2_Channel1_IRQHandler
                0x0000000000003a74                DMA2_Channel2_IRQHandler
                0x0000000000003a76                DMA2_Channel3_IRQHandler
                0x0000000000003a78                DMA2_Channel4_IRQHandler
                0x0000000000003a7a                DMA2_Channel5_IRQHandler
                0x0000000000003a7c                ETH_IRQHandler
                0x0000000000003a7e                ETH_WKUP_IRQHandler
                0x0000000000003a80                CAN2_TX_IRQHandler
                0x0000000000003a82                CAN2_RX0_IRQHandler
                0x0000000000003a84                CAN2_RX1_IRQHandler
                0x0000000000003a86                CAN2_SCE_IRQHandler
                0x0000000000003a8a                USBHSWakeup_IRQHandler
                0x0000000000003a8c                USBHS_IRQHandler
                0x0000000000003a96                TIM9_BRK_IRQHandler
                0x0000000000003a9a                TIM9_TRG_COM_IRQHandler
                0x0000000000003a9c                TIM9_CC_IRQHandler
                0x0000000000003a9e                TIM10_BRK_IRQHandler
                0x0000000000003aa2                TIM10_TRG_COM_IRQHandler
                0x0000000000003aa4                TIM10_CC_IRQHandler
                0x0000000000003aa6                DMA2_Channel6_IRQHandler
                0x0000000000003aa8                DMA2_Channel7_IRQHandler
                0x0000000000003aaa                DMA2_Channel8_IRQHandler
                0x0000000000003aac                DMA2_Channel9_IRQHandler
                0x0000000000003aae                DMA2_Channel10_IRQHandler
                0x0000000000003ab0                DMA2_Channel11_IRQHandler
 .text.handle_reset
                0x0000000000003ab2       0x8e ./sdk/Startup/startup_ch32v30x.o
                0x0000000000003ab2                handle_reset
 .text.SystemInit
                0x0000000000003b40       0x7c ./sdk/Startup/system_ch32v30x.o
                0x0000000000003b40                SystemInit
 .text.SetSysClock
                0x0000000000003bbc       0x14 ./sdk/Startup/system_ch32v30x.o
 .text.SetSysClockTo144
                0x0000000000003bd0      0x162 ./sdk/Startup/system_ch32v30x.o
 .text.EXTI_GetITStatus
                0x0000000000003d32       0x56 ./sdk/Peripheral/ch32v30x_exti.o
                0x0000000000003d32                EXTI_GetITStatus
 .text.EXTI_ClearITPendingBit
                0x0000000000003d88       0x20 ./sdk/Peripheral/ch32v30x_exti.o
                0x0000000000003d88                EXTI_ClearITPendingBit
 .text.GPIO_Init
                0x0000000000003da8      0x22a ./sdk/Peripheral/ch32v30x_gpio.o
                0x0000000000003da8                GPIO_Init
 .text.GPIO_WriteBit
                0x0000000000003fd2       0x38 ./sdk/Peripheral/ch32v30x_gpio.o
                0x0000000000003fd2                GPIO_WriteBit
 .text.GPIO_PinRemapConfig
                0x000000000000400a      0x13c ./sdk/Peripheral/ch32v30x_gpio.o
                0x000000000000400a                GPIO_PinRemapConfig
 .text.RCC_GetClocksFreq
                0x0000000000004146      0x2c6 ./sdk/Peripheral/ch32v30x_rcc.o
                0x0000000000004146                RCC_GetClocksFreq
 .text.RCC_APB2PeriphClockCmd
                0x000000000000440c       0x46 ./sdk/Peripheral/ch32v30x_rcc.o
                0x000000000000440c                RCC_APB2PeriphClockCmd
 .text.RCC_APB1PeriphClockCmd
                0x0000000000004452       0x46 ./sdk/Peripheral/ch32v30x_rcc.o
                0x0000000000004452                RCC_APB1PeriphClockCmd
 .text.RCC_APB2PeriphResetCmd
                0x0000000000004498       0x46 ./sdk/Peripheral/ch32v30x_rcc.o
                0x0000000000004498                RCC_APB2PeriphResetCmd
 .text.RCC_APB1PeriphResetCmd
                0x00000000000044de       0x46 ./sdk/Peripheral/ch32v30x_rcc.o
                0x00000000000044de                RCC_APB1PeriphResetCmd
 .text.SPI_I2S_DeInit
                0x0000000000004524       0x76 ./sdk/Peripheral/ch32v30x_spi.o
                0x0000000000004524                SPI_I2S_DeInit
 .text.SPI_Init
                0x000000000000459a       0xf8 ./sdk/Peripheral/ch32v30x_spi.o
                0x000000000000459a                SPI_Init
 .text.SPI_Cmd  0x0000000000004692       0x5a ./sdk/Peripheral/ch32v30x_spi.o
                0x0000000000004692                SPI_Cmd
 .text.TIM_TimeBaseInit
                0x00000000000046ec      0x17e ./sdk/Peripheral/ch32v30x_tim.o
                0x00000000000046ec                TIM_TimeBaseInit
 .text.TIM_TimeBaseStructInit
                0x000000000000486a       0x3c ./sdk/Peripheral/ch32v30x_tim.o
                0x000000000000486a                TIM_TimeBaseStructInit
 .text.TIM_Cmd  0x00000000000048a6       0x58 ./sdk/Peripheral/ch32v30x_tim.o
                0x00000000000048a6                TIM_Cmd
 .text.TIM_ITRxExternalClockConfig
                0x00000000000048fe       0x46 ./sdk/Peripheral/ch32v30x_tim.o
                0x00000000000048fe                TIM_ITRxExternalClockConfig
 .text.TIM_SelectInputTrigger
                0x0000000000004944       0x4e ./sdk/Peripheral/ch32v30x_tim.o
                0x0000000000004944                TIM_SelectInputTrigger
 .text.TIM_GetITStatus
                0x0000000000004992       0x70 ./sdk/Peripheral/ch32v30x_tim.o
                0x0000000000004992                TIM_GetITStatus
 .text.TIM_ClearITPendingBit
                0x0000000000004a02       0x2e ./sdk/Peripheral/ch32v30x_tim.o
                0x0000000000004a02                TIM_ClearITPendingBit
 .text.USART_Init
                0x0000000000004a30      0x234 ./sdk/Peripheral/ch32v30x_usart.o
                0x0000000000004a30                USART_Init
 .text.USART_Cmd
                0x0000000000004c64       0x60 ./sdk/Peripheral/ch32v30x_usart.o
                0x0000000000004c64                USART_Cmd
 .text.USART_ITConfig
                0x0000000000004cc4       0xc4 ./sdk/Peripheral/ch32v30x_usart.o
                0x0000000000004cc4                USART_ITConfig
 .text.USART_SendData
                0x0000000000004d88       0x2e ./sdk/Peripheral/ch32v30x_usart.o
                0x0000000000004d88                USART_SendData
 .text.USART_GetFlagStatus
                0x0000000000004db6       0x46 ./sdk/Peripheral/ch32v30x_usart.o
                0x0000000000004db6                USART_GetFlagStatus
 .text.USART_GetITStatus
                0x0000000000004dfc      0x102 ./sdk/Peripheral/ch32v30x_usart.o
                0x0000000000004dfc                USART_GetITStatus
 .text.USART_ClearITPendingBit
                0x0000000000004efe       0x4e ./sdk/Peripheral/ch32v30x_usart.o
                0x0000000000004efe                USART_ClearITPendingBit
 .text.DevEP1_IN_Deal
                0x0000000000004f4c       0x3e ./sdk/Peripheral/ch32v30x_usbotg_device.o
                0x0000000000004f4c                DevEP1_IN_Deal
 .text.DevEP2_IN_Deal
                0x0000000000004f8a       0x3e ./sdk/Peripheral/ch32v30x_usbotg_device.o
                0x0000000000004f8a                DevEP2_IN_Deal
 .text.DevEP1_OUT_Deal
                0x0000000000004fc8       0x66 ./sdk/Peripheral/ch32v30x_usbotg_device.o
                0x0000000000004fc8                DevEP1_OUT_Deal
 .text.DevEP2_OUT_Deal
                0x000000000000502e       0x66 ./sdk/Peripheral/ch32v30x_usbotg_device.o
                0x000000000000502e                DevEP2_OUT_Deal
 .text.OTG_FS_IRQHandler
                0x0000000000005094      0xc74 ./sdk/Peripheral/ch32v30x_usbotg_device.o
                0x0000000000005094                OTG_FS_IRQHandler
 .text.__get_MSTATUS
                0x0000000000005d08       0x1a ./sdk/Core/core_riscv.o
                0x0000000000005d08                __get_MSTATUS
 .text.Encoder_INIT
                0x0000000000005d22       0x2c ./code/Encoder.o
                0x0000000000005d22                Encoder_INIT
 .text.get_L_Length
                0x0000000000005d4e       0x52 ./code/Encoder.o
                0x0000000000005d4e                get_L_Length
 .text.get_L_Speed
                0x0000000000005da0       0x36 ./code/Encoder.o
                0x0000000000005da0                get_L_Speed
 .text.get_R_Length
                0x0000000000005dd6       0x52 ./code/Encoder.o
                0x0000000000005dd6                get_R_Length
 .text.get_R_Speed
                0x0000000000005e28       0x36 ./code/Encoder.o
                0x0000000000005e28                get_R_Speed
 .text.__adddf3
                0x0000000000005e5e      0x730 d:/ide/mounriver/mounriver_studio/toolchain/risc-v embedded gcc/bin/../lib/gcc/riscv-none-embed/8.2.0/rv32imac/ilp32\libgcc.a(adddf3.o)
                0x0000000000005e5e                __adddf3
 .text.__eqdf2  0x000000000000658e       0x6a d:/ide/mounriver/mounriver_studio/toolchain/risc-v embedded gcc/bin/../lib/gcc/riscv-none-embed/8.2.0/rv32imac/ilp32\libgcc.a(eqdf2.o)
                0x000000000000658e                __nedf2
                0x000000000000658e                __eqdf2
 .text.__gedf2  0x00000000000065f8       0xae d:/ide/mounriver/mounriver_studio/toolchain/risc-v embedded gcc/bin/../lib/gcc/riscv-none-embed/8.2.0/rv32imac/ilp32\libgcc.a(gedf2.o)
                0x00000000000065f8                __gedf2
                0x00000000000065f8                __gtdf2
 .text.__ledf2  0x00000000000066a6       0xb6 d:/ide/mounriver/mounriver_studio/toolchain/risc-v embedded gcc/bin/../lib/gcc/riscv-none-embed/8.2.0/rv32imac/ilp32\libgcc.a(ledf2.o)
                0x00000000000066a6                __ledf2
                0x00000000000066a6                __ltdf2
 .text.__muldf3
                0x000000000000675c      0x4b8 d:/ide/mounriver/mounriver_studio/toolchain/risc-v embedded gcc/bin/../lib/gcc/riscv-none-embed/8.2.0/rv32imac/ilp32\libgcc.a(muldf3.o)
                0x000000000000675c                __muldf3
 .text.__subdf3
                0x0000000000006c14      0x73c d:/ide/mounriver/mounriver_studio/toolchain/risc-v embedded gcc/bin/../lib/gcc/riscv-none-embed/8.2.0/rv32imac/ilp32\libgcc.a(subdf3.o)
                0x0000000000006c14                __subdf3
 .text.__fixdfsi
                0x0000000000007350       0x68 d:/ide/mounriver/mounriver_studio/toolchain/risc-v embedded gcc/bin/../lib/gcc/riscv-none-embed/8.2.0/rv32imac/ilp32\libgcc.a(fixdfsi.o)
                0x0000000000007350                __fixdfsi
 .text.__floatsidf
                0x00000000000073b8       0x70 d:/ide/mounriver/mounriver_studio/toolchain/risc-v embedded gcc/bin/../lib/gcc/riscv-none-embed/8.2.0/rv32imac/ilp32\libgcc.a(floatsidf.o)
                0x00000000000073b8                __floatsidf
 .text.__floatsisf
                0x0000000000007428       0xc6 d:/ide/mounriver/mounriver_studio/toolchain/risc-v embedded gcc/bin/../lib/gcc/riscv-none-embed/8.2.0/rv32imac/ilp32\libgcc.a(floatsisf.o)
                0x0000000000007428                __floatsisf
 .text.__extendsfdf2
                0x00000000000074ee       0xac d:/ide/mounriver/mounriver_studio/toolchain/risc-v embedded gcc/bin/../lib/gcc/riscv-none-embed/8.2.0/rv32imac/ilp32\libgcc.a(extendsfdf2.o)
                0x00000000000074ee                __extendsfdf2
 .text.__clzsi2
                0x000000000000759a       0x76 d:/ide/mounriver/mounriver_studio/toolchain/risc-v embedded gcc/bin/../lib/gcc/riscv-none-embed/8.2.0/rv32imac/ilp32\libgcc.a(_clzsi2.o)
                0x000000000000759a                __clzsi2
 .text.memcpy   0x0000000000007610       0xb6 d:/ide/mounriver/mounriver_studio/toolchain/risc-v embedded gcc/bin/../lib/gcc/riscv-none-embed/8.2.0/../../../../riscv-none-embed/lib/rv32imac/ilp32\libg_nano.a(lib_a-memcpy.o)
                0x0000000000007610                memcpy
 .text.__cvt    0x00000000000076c6       0xee d:/ide/mounriver/mounriver_studio/toolchain/risc-v embedded gcc/bin/../lib/gcc/riscv-none-embed/8.2.0/../../../../riscv-none-embed/lib/rv32imac/ilp32\libg_nano.a(lib_a-nano-vfprintf_float.o)
                0x00000000000076c6                __cvt
 .text.__exponent
                0x00000000000077b4       0x8c d:/ide/mounriver/mounriver_studio/toolchain/risc-v embedded gcc/bin/../lib/gcc/riscv-none-embed/8.2.0/../../../../riscv-none-embed/lib/rv32imac/ilp32\libg_nano.a(lib_a-nano-vfprintf_float.o)
                0x00000000000077b4                __exponent
 .text._printf_float
                0x0000000000007840      0x4c4 d:/ide/mounriver/mounriver_studio/toolchain/risc-v embedded gcc/bin/../lib/gcc/riscv-none-embed/8.2.0/../../../../riscv-none-embed/lib/rv32imac/ilp32\libg_nano.a(lib_a-nano-vfprintf_float.o)
                0x0000000000007840                _printf_float
 .text._printf_common
                0x0000000000007d04      0x10c d:/ide/mounriver/mounriver_studio/toolchain/risc-v embedded gcc/bin/../lib/gcc/riscv-none-embed/8.2.0/../../../../riscv-none-embed/lib/rv32imac/ilp32\libg_nano.a(lib_a-nano-vfprintf_i.o)
                0x0000000000007d04                _printf_common
 .text._printf_i
                0x0000000000007e10      0x2a6 d:/ide/mounriver/mounriver_studio/toolchain/risc-v embedded gcc/bin/../lib/gcc/riscv-none-embed/8.2.0/../../../../riscv-none-embed/lib/rv32imac/ilp32\libg_nano.a(lib_a-nano-vfprintf_i.o)
                0x0000000000007e10                _printf_i
 .text.printf   0x00000000000080b6       0x42 d:/ide/mounriver/mounriver_studio/toolchain/risc-v embedded gcc/bin/../lib/gcc/riscv-none-embed/8.2.0/../../../../riscv-none-embed/lib/rv32imac/ilp32\libg_nano.a(lib_a-printf.o)
                0x00000000000080b6                iprintf
                0x00000000000080b6                printf
 .text.strlen   0x00000000000080f8       0x12 d:/ide/mounriver/mounriver_studio/toolchain/risc-v embedded gcc/bin/../lib/gcc/riscv-none-embed/8.2.0/../../../../riscv-none-embed/lib/rv32imac/ilp32\libg_nano.a(lib_a-strlen.o)
                0x00000000000080f8                strlen
 .text.strncmp  0x000000000000810a       0x2c d:/ide/mounriver/mounriver_studio/toolchain/risc-v embedded gcc/bin/../lib/gcc/riscv-none-embed/8.2.0/../../../../riscv-none-embed/lib/rv32imac/ilp32\libg_nano.a(lib_a-strncmp.o)
                0x000000000000810a                strncmp
 .text.__swbuf_r
                0x0000000000008136       0xc6 d:/ide/mounriver/mounriver_studio/toolchain/risc-v embedded gcc/bin/../lib/gcc/riscv-none-embed/8.2.0/../../../../riscv-none-embed/lib/rv32imac/ilp32\libg_nano.a(lib_a-wbuf.o)
                0x0000000000008136                __swbuf_r
 .text.__swsetup_r
                0x00000000000081fc      0x112 d:/ide/mounriver/mounriver_studio/toolchain/risc-v embedded gcc/bin/../lib/gcc/riscv-none-embed/8.2.0/../../../../riscv-none-embed/lib/rv32imac/ilp32\libg_nano.a(lib_a-wsetup.o)
                0x00000000000081fc                __swsetup_r
 .text.quorem   0x000000000000830e      0x13a d:/ide/mounriver/mounriver_studio/toolchain/risc-v embedded gcc/bin/../lib/gcc/riscv-none-embed/8.2.0/../../../../riscv-none-embed/lib/rv32imac/ilp32\libg_nano.a(lib_a-dtoa.o)
 .text._dtoa_r  0x0000000000008448      0xc1e d:/ide/mounriver/mounriver_studio/toolchain/risc-v embedded gcc/bin/../lib/gcc/riscv-none-embed/8.2.0/../../../../riscv-none-embed/lib/rv32imac/ilp32\libg_nano.a(lib_a-dtoa.o)
                0x0000000000008448                _dtoa_r
 .text.__sflush_r
                0x0000000000009066      0x13e d:/ide/mounriver/mounriver_studio/toolchain/risc-v embedded gcc/bin/../lib/gcc/riscv-none-embed/8.2.0/../../../../riscv-none-embed/lib/rv32imac/ilp32\libg_nano.a(lib_a-fflush.o)
                0x0000000000009066                __sflush_r
 .text._fflush_r
                0x00000000000091a4       0x66 d:/ide/mounriver/mounriver_studio/toolchain/risc-v embedded gcc/bin/../lib/gcc/riscv-none-embed/8.2.0/../../../../riscv-none-embed/lib/rv32imac/ilp32\libg_nano.a(lib_a-fflush.o)
                0x00000000000091a4                _fflush_r
 .text.std      0x000000000000920a       0x6a d:/ide/mounriver/mounriver_studio/toolchain/risc-v embedded gcc/bin/../lib/gcc/riscv-none-embed/8.2.0/../../../../riscv-none-embed/lib/rv32imac/ilp32\libg_nano.a(lib_a-findfp.o)
 .text._cleanup_r
                0x0000000000009274        0xa d:/ide/mounriver/mounriver_studio/toolchain/risc-v embedded gcc/bin/../lib/gcc/riscv-none-embed/8.2.0/../../../../riscv-none-embed/lib/rv32imac/ilp32\libg_nano.a(lib_a-findfp.o)
                0x0000000000009274                _cleanup_r
 .text.__sfmoreglue
                0x000000000000927e       0x48 d:/ide/mounriver/mounriver_studio/toolchain/risc-v embedded gcc/bin/../lib/gcc/riscv-none-embed/8.2.0/../../../../riscv-none-embed/lib/rv32imac/ilp32\libg_nano.a(lib_a-findfp.o)
                0x000000000000927e                __sfmoreglue
 .text.__sinit  0x00000000000092c6       0x6c d:/ide/mounriver/mounriver_studio/toolchain/risc-v embedded gcc/bin/../lib/gcc/riscv-none-embed/8.2.0/../../../../riscv-none-embed/lib/rv32imac/ilp32\libg_nano.a(lib_a-findfp.o)
                0x00000000000092c6                __sinit
 .text.__sfp    0x0000000000009332       0xa0 d:/ide/mounriver/mounriver_studio/toolchain/risc-v embedded gcc/bin/../lib/gcc/riscv-none-embed/8.2.0/../../../../riscv-none-embed/lib/rv32imac/ilp32\libg_nano.a(lib_a-findfp.o)
                0x0000000000009332                __sfp
 .text._fwalk_reent
                0x00000000000093d2       0x6c d:/ide/mounriver/mounriver_studio/toolchain/risc-v embedded gcc/bin/../lib/gcc/riscv-none-embed/8.2.0/../../../../riscv-none-embed/lib/rv32imac/ilp32\libg_nano.a(lib_a-fwalk.o)
                0x00000000000093d2                _fwalk_reent
 .text._localeconv_r
                0x000000000000943e       0x18 d:/ide/mounriver/mounriver_studio/toolchain/risc-v embedded gcc/bin/../lib/gcc/riscv-none-embed/8.2.0/../../../../riscv-none-embed/lib/rv32imac/ilp32\libg_nano.a(lib_a-localeconv.o)
                0x000000000000943e                _localeconv_r
 .text.__swhatbuf_r
                0x0000000000009456       0x5a d:/ide/mounriver/mounriver_studio/toolchain/risc-v embedded gcc/bin/../lib/gcc/riscv-none-embed/8.2.0/../../../../riscv-none-embed/lib/rv32imac/ilp32\libg_nano.a(lib_a-makebuf.o)
                0x0000000000009456                __swhatbuf_r
 .text.__smakebuf_r
                0x00000000000094b0       0xa2 d:/ide/mounriver/mounriver_studio/toolchain/risc-v embedded gcc/bin/../lib/gcc/riscv-none-embed/8.2.0/../../../../riscv-none-embed/lib/rv32imac/ilp32\libg_nano.a(lib_a-makebuf.o)
                0x00000000000094b0                __smakebuf_r
 .text.malloc   0x0000000000009552        0xc d:/ide/mounriver/mounriver_studio/toolchain/risc-v embedded gcc/bin/../lib/gcc/riscv-none-embed/8.2.0/../../../../riscv-none-embed/lib/rv32imac/ilp32\libg_nano.a(lib_a-malloc.o)
                0x0000000000009552                malloc
 .text.memchr   0x000000000000955e       0x1a d:/ide/mounriver/mounriver_studio/toolchain/risc-v embedded gcc/bin/../lib/gcc/riscv-none-embed/8.2.0/../../../../riscv-none-embed/lib/rv32imac/ilp32\libg_nano.a(lib_a-memchr.o)
                0x000000000000955e                memchr
 .text._Balloc  0x0000000000009578       0x88 d:/ide/mounriver/mounriver_studio/toolchain/risc-v embedded gcc/bin/../lib/gcc/riscv-none-embed/8.2.0/../../../../riscv-none-embed/lib/rv32imac/ilp32\libg_nano.a(lib_a-mprec.o)
                0x0000000000009578                _Balloc
 .text._Bfree   0x0000000000009600       0x44 d:/ide/mounriver/mounriver_studio/toolchain/risc-v embedded gcc/bin/../lib/gcc/riscv-none-embed/8.2.0/../../../../riscv-none-embed/lib/rv32imac/ilp32\libg_nano.a(lib_a-mprec.o)
                0x0000000000009600                _Bfree
 .text.__multadd
                0x0000000000009644       0x98 d:/ide/mounriver/mounriver_studio/toolchain/risc-v embedded gcc/bin/../lib/gcc/riscv-none-embed/8.2.0/../../../../riscv-none-embed/lib/rv32imac/ilp32\libg_nano.a(lib_a-mprec.o)
                0x0000000000009644                __multadd
 .text.__hi0bits
                0x00000000000096dc       0x46 d:/ide/mounriver/mounriver_studio/toolchain/risc-v embedded gcc/bin/../lib/gcc/riscv-none-embed/8.2.0/../../../../riscv-none-embed/lib/rv32imac/ilp32\libg_nano.a(lib_a-mprec.o)
                0x00000000000096dc                __hi0bits
 .text.__lo0bits
                0x0000000000009722       0x6a d:/ide/mounriver/mounriver_studio/toolchain/risc-v embedded gcc/bin/../lib/gcc/riscv-none-embed/8.2.0/../../../../riscv-none-embed/lib/rv32imac/ilp32\libg_nano.a(lib_a-mprec.o)
                0x0000000000009722                __lo0bits
 .text.__i2b    0x000000000000978c       0x1c d:/ide/mounriver/mounriver_studio/toolchain/risc-v embedded gcc/bin/../lib/gcc/riscv-none-embed/8.2.0/../../../../riscv-none-embed/lib/rv32imac/ilp32\libg_nano.a(lib_a-mprec.o)
                0x000000000000978c                __i2b
 .text.__multiply
                0x00000000000097a8      0x144 d:/ide/mounriver/mounriver_studio/toolchain/risc-v embedded gcc/bin/../lib/gcc/riscv-none-embed/8.2.0/../../../../riscv-none-embed/lib/rv32imac/ilp32\libg_nano.a(lib_a-mprec.o)
                0x00000000000097a8                __multiply
 .text.__pow5mult
                0x00000000000098ec       0xbe d:/ide/mounriver/mounriver_studio/toolchain/risc-v embedded gcc/bin/../lib/gcc/riscv-none-embed/8.2.0/../../../../riscv-none-embed/lib/rv32imac/ilp32\libg_nano.a(lib_a-mprec.o)
                0x00000000000098ec                __pow5mult
 .text.__lshift
                0x00000000000099aa       0xce d:/ide/mounriver/mounriver_studio/toolchain/risc-v embedded gcc/bin/../lib/gcc/riscv-none-embed/8.2.0/../../../../riscv-none-embed/lib/rv32imac/ilp32\libg_nano.a(lib_a-mprec.o)
                0x00000000000099aa                __lshift
 .text.__mcmp   0x0000000000009a78       0x32 d:/ide/mounriver/mounriver_studio/toolchain/risc-v embedded gcc/bin/../lib/gcc/riscv-none-embed/8.2.0/../../../../riscv-none-embed/lib/rv32imac/ilp32\libg_nano.a(lib_a-mprec.o)
                0x0000000000009a78                __mcmp
 .text.__mdiff  0x0000000000009aaa       0xf2 d:/ide/mounriver/mounriver_studio/toolchain/risc-v embedded gcc/bin/../lib/gcc/riscv-none-embed/8.2.0/../../../../riscv-none-embed/lib/rv32imac/ilp32\libg_nano.a(lib_a-mprec.o)
                0x0000000000009aaa                __mdiff
 .text.__d2b    0x0000000000009b9c       0xd4 d:/ide/mounriver/mounriver_studio/toolchain/risc-v embedded gcc/bin/../lib/gcc/riscv-none-embed/8.2.0/../../../../riscv-none-embed/lib/rv32imac/ilp32\libg_nano.a(lib_a-mprec.o)
                0x0000000000009b9c                __d2b
 .text._calloc_r
                0x0000000000009c70       0x26 d:/ide/mounriver/mounriver_studio/toolchain/risc-v embedded gcc/bin/../lib/gcc/riscv-none-embed/8.2.0/../../../../riscv-none-embed/lib/rv32imac/ilp32\libg_nano.a(lib_a-nano-callocr.o)
                0x0000000000009c70                _calloc_r
 .text._free_r  0x0000000000009c96       0xa4 d:/ide/mounriver/mounriver_studio/toolchain/risc-v embedded gcc/bin/../lib/gcc/riscv-none-embed/8.2.0/../../../../riscv-none-embed/lib/rv32imac/ilp32\libg_nano.a(lib_a-nano-freer.o)
                0x0000000000009c96                _free_r
 .text._malloc_r
                0x0000000000009d3a       0xce d:/ide/mounriver/mounriver_studio/toolchain/risc-v embedded gcc/bin/../lib/gcc/riscv-none-embed/8.2.0/../../../../riscv-none-embed/lib/rv32imac/ilp32\libg_nano.a(lib_a-nano-mallocr.o)
                0x0000000000009d3a                _malloc_r
 .text.__sfputc_r
                0x0000000000009e08       0x2a d:/ide/mounriver/mounriver_studio/toolchain/risc-v embedded gcc/bin/../lib/gcc/riscv-none-embed/8.2.0/../../../../riscv-none-embed/lib/rv32imac/ilp32\libg_nano.a(lib_a-nano-vfprintf.o)
 .text.__sfputs_r
                0x0000000000009e32       0x44 d:/ide/mounriver/mounriver_studio/toolchain/risc-v embedded gcc/bin/../lib/gcc/riscv-none-embed/8.2.0/../../../../riscv-none-embed/lib/rv32imac/ilp32\libg_nano.a(lib_a-nano-vfprintf.o)
                0x0000000000009e32                __sfputs_r
 .text._vfprintf_r
                0x0000000000009e76      0x2a0 d:/ide/mounriver/mounriver_studio/toolchain/risc-v embedded gcc/bin/../lib/gcc/riscv-none-embed/8.2.0/../../../../riscv-none-embed/lib/rv32imac/ilp32\libg_nano.a(lib_a-nano-vfprintf.o)
                0x0000000000009e76                _vfprintf_r
                0x0000000000009e76                _vfiprintf_r
 .text._sbrk_r  0x000000000000a116       0x2a d:/ide/mounriver/mounriver_studio/toolchain/risc-v embedded gcc/bin/../lib/gcc/riscv-none-embed/8.2.0/../../../../riscv-none-embed/lib/rv32imac/ilp32\libg_nano.a(lib_a-sbrkr.o)
                0x000000000000a116                _sbrk_r
 .text.__sread  0x000000000000a140       0x30 d:/ide/mounriver/mounriver_studio/toolchain/risc-v embedded gcc/bin/../lib/gcc/riscv-none-embed/8.2.0/../../../../riscv-none-embed/lib/rv32imac/ilp32\libg_nano.a(lib_a-stdio.o)
                0x000000000000a140                __sread
 .text.__swrite
                0x000000000000a170       0x4e d:/ide/mounriver/mounriver_studio/toolchain/risc-v embedded gcc/bin/../lib/gcc/riscv-none-embed/8.2.0/../../../../riscv-none-embed/lib/rv32imac/ilp32\libg_nano.a(lib_a-stdio.o)
                0x000000000000a170                __swrite
 .text.__sseek  0x000000000000a1be       0x36 d:/ide/mounriver/mounriver_studio/toolchain/risc-v embedded gcc/bin/../lib/gcc/riscv-none-embed/8.2.0/../../../../riscv-none-embed/lib/rv32imac/ilp32\libg_nano.a(lib_a-stdio.o)
                0x000000000000a1be                __sseek
 .text.__sclose
                0x000000000000a1f4        0x6 d:/ide/mounriver/mounriver_studio/toolchain/risc-v embedded gcc/bin/../lib/gcc/riscv-none-embed/8.2.0/../../../../riscv-none-embed/lib/rv32imac/ilp32\libg_nano.a(lib_a-stdio.o)
                0x000000000000a1f4                __sclose
 .text._write_r
                0x000000000000a1fa       0x2e d:/ide/mounriver/mounriver_studio/toolchain/risc-v embedded gcc/bin/../lib/gcc/riscv-none-embed/8.2.0/../../../../riscv-none-embed/lib/rv32imac/ilp32\libg_nano.a(lib_a-writer.o)
                0x000000000000a1fa                _write_r
 .text._close_r
                0x000000000000a228       0x2a d:/ide/mounriver/mounriver_studio/toolchain/risc-v embedded gcc/bin/../lib/gcc/riscv-none-embed/8.2.0/../../../../riscv-none-embed/lib/rv32imac/ilp32\libg_nano.a(lib_a-closer.o)
                0x000000000000a228                _close_r
 .text._fstat_r
                0x000000000000a252       0x2c d:/ide/mounriver/mounriver_studio/toolchain/risc-v embedded gcc/bin/../lib/gcc/riscv-none-embed/8.2.0/../../../../riscv-none-embed/lib/rv32imac/ilp32\libg_nano.a(lib_a-fstatr.o)
                0x000000000000a252                _fstat_r
 .text._isatty_r
                0x000000000000a27e       0x2a d:/ide/mounriver/mounriver_studio/toolchain/risc-v embedded gcc/bin/../lib/gcc/riscv-none-embed/8.2.0/../../../../riscv-none-embed/lib/rv32imac/ilp32\libg_nano.a(lib_a-isattyr.o)
                0x000000000000a27e                _isatty_r
 .text._lseek_r
                0x000000000000a2a8       0x2e d:/ide/mounriver/mounriver_studio/toolchain/risc-v embedded gcc/bin/../lib/gcc/riscv-none-embed/8.2.0/../../../../riscv-none-embed/lib/rv32imac/ilp32\libg_nano.a(lib_a-lseekr.o)
                0x000000000000a2a8                _lseek_r
 .text.__ascii_mbtowc
                0x000000000000a2d6       0x3a d:/ide/mounriver/mounriver_studio/toolchain/risc-v embedded gcc/bin/../lib/gcc/riscv-none-embed/8.2.0/../../../../riscv-none-embed/lib/rv32imac/ilp32\libg_nano.a(lib_a-mbtowc_r.o)
                0x000000000000a2d6                __ascii_mbtowc
 .text.__malloc_lock
                0x000000000000a310        0x2 d:/ide/mounriver/mounriver_studio/toolchain/risc-v embedded gcc/bin/../lib/gcc/riscv-none-embed/8.2.0/../../../../riscv-none-embed/lib/rv32imac/ilp32\libg_nano.a(lib_a-mlock.o)
                0x000000000000a310                __malloc_lock
 .text.__malloc_unlock
                0x000000000000a312        0x2 d:/ide/mounriver/mounriver_studio/toolchain/risc-v embedded gcc/bin/../lib/gcc/riscv-none-embed/8.2.0/../../../../riscv-none-embed/lib/rv32imac/ilp32\libg_nano.a(lib_a-mlock.o)
                0x000000000000a312                __malloc_unlock
 .text._read_r  0x000000000000a314       0x2e d:/ide/mounriver/mounriver_studio/toolchain/risc-v embedded gcc/bin/../lib/gcc/riscv-none-embed/8.2.0/../../../../riscv-none-embed/lib/rv32imac/ilp32\libg_nano.a(lib_a-readr.o)
                0x000000000000a314                _read_r
 .text.__ascii_wctomb
                0x000000000000a342       0x20 d:/ide/mounriver/mounriver_studio/toolchain/risc-v embedded gcc/bin/../lib/gcc/riscv-none-embed/8.2.0/../../../../riscv-none-embed/lib/rv32imac/ilp32\libg_nano.a(lib_a-wctomb_r.o)
                0x000000000000a342                __ascii_wctomb
 .text.__divdf3
                0x000000000000a362      0x5b4 d:/ide/mounriver/mounriver_studio/toolchain/risc-v embedded gcc/bin/../lib/gcc/riscv-none-embed/8.2.0/rv32imac/ilp32\libgcc.a(divdf3.o)
                0x000000000000a362                __divdf3
 .text.__unorddf2
                0x000000000000a916       0x3c d:/ide/mounriver/mounriver_studio/toolchain/risc-v embedded gcc/bin/../lib/gcc/riscv-none-embed/8.2.0/rv32imac/ilp32\libgcc.a(unorddf2.o)
                0x000000000000a916                __unorddf2
 .text.__floatunsidf
                0x000000000000a952       0x68 d:/ide/mounriver/mounriver_studio/toolchain/risc-v embedded gcc/bin/../lib/gcc/riscv-none-embed/8.2.0/rv32imac/ilp32\libgcc.a(floatunsidf.o)
                0x000000000000a952                __floatunsidf
 .text.__trunctfdf2
                0x000000000000a9ba      0x21e d:/ide/mounriver/mounriver_studio/toolchain/risc-v embedded gcc/bin/../lib/gcc/riscv-none-embed/8.2.0/rv32imac/ilp32\libgcc.a(trunctfdf2.o)
                0x000000000000a9ba                __trunctfdf2
 .text._close   0x000000000000abd8        0xc d:/ide/mounriver/mounriver_studio/toolchain/risc-v embedded gcc/bin/../lib/gcc/riscv-none-embed/8.2.0/../../../../riscv-none-embed/lib/rv32imac/ilp32\libnosys.a(close.o)
                0x000000000000abd8                _close
 .text._fstat   0x000000000000abe4        0xc d:/ide/mounriver/mounriver_studio/toolchain/risc-v embedded gcc/bin/../lib/gcc/riscv-none-embed/8.2.0/../../../../riscv-none-embed/lib/rv32imac/ilp32\libnosys.a(fstat.o)
                0x000000000000abe4                _fstat
 .text._isatty  0x000000000000abf0        0xc d:/ide/mounriver/mounriver_studio/toolchain/risc-v embedded gcc/bin/../lib/gcc/riscv-none-embed/8.2.0/../../../../riscv-none-embed/lib/rv32imac/ilp32\libnosys.a(isatty.o)
                0x000000000000abf0                _isatty
 .text._lseek   0x000000000000abfc        0xc d:/ide/mounriver/mounriver_studio/toolchain/risc-v embedded gcc/bin/../lib/gcc/riscv-none-embed/8.2.0/../../../../riscv-none-embed/lib/rv32imac/ilp32\libnosys.a(lseek.o)
                0x000000000000abfc                _lseek
 .text._read    0x000000000000ac08        0xc d:/ide/mounriver/mounriver_studio/toolchain/risc-v embedded gcc/bin/../lib/gcc/riscv-none-embed/8.2.0/../../../../riscv-none-embed/lib/rv32imac/ilp32\libnosys.a(read.o)
                0x000000000000ac08                _read
 .text._sbrk    0x000000000000ac14       0x20 d:/ide/mounriver/mounriver_studio/toolchain/risc-v embedded gcc/bin/../lib/gcc/riscv-none-embed/8.2.0/../../../../riscv-none-embed/lib/rv32imac/ilp32\libnosys.a(sbrk.o)
                0x000000000000ac14                _sbrk
 *(.rodata)
 .rodata        0x000000000000ac34       0x99 ./zf_driver/zf_driver_encoder.o
 *fill*         0x000000000000accd        0x3 
 .rodata        0x000000000000acd0       0x95 ./zf_driver/zf_driver_spi.o
 *fill*         0x000000000000ad65        0x3 
 .rodata        0x000000000000ad68      0x2a7 ./zf_device/zf_device_bluetooth_ch9141.o
 *fill*         0x000000000000b00f        0x1 
 .rodata        0x000000000000b010      0x2c7 ./zf_device/zf_device_bluetooth_ch9141_ch2.o
 *fill*         0x000000000000b2d7        0x1 
 .rodata        0x000000000000b2d8       0x9f ./zf_device/zf_device_ips114.o
 *fill*         0x000000000000b377        0x1 
 .rodata        0x000000000000b378       0x45 ./zf_common/zf_common_debug.o
 *fill*         0x000000000000b3bd        0x3 
 .rodata        0x000000000000b3c0       0x10 ./zf_common/zf_common_function.o
 .rodata        0x000000000000b3d0       0x41 ./sdk/Peripheral/ch32v30x_usbotg_device.o
 *(.rodata*)
 *fill*         0x000000000000b411        0x3 
 .rodata.gpio_group
                0x000000000000b414       0x14 ./zf_driver/zf_driver_gpio.o
                0x000000000000b414                gpio_group
 .rodata.spi_index
                0x000000000000b428        0xc ./zf_driver/zf_driver_spi.o
                0x000000000000b428                spi_index
 .rodata.tim_index
                0x000000000000b434       0x28 ./zf_driver/zf_driver_timer.o
                0x000000000000b434                tim_index
 .rodata.uart_index
                0x000000000000b45c       0x20 ./zf_driver/zf_driver_uart.o
                0x000000000000b45c                uart_index
 .rodata.tft_ascii
                0x000000000000b47c      0x5f0 ./zf_common/zf_common_font.o
                0x000000000000b47c                tft_ascii
 .rodata.zf_sprintf
                0x000000000000ba6c      0x150 ./zf_common/zf_common_function.o
 .rodata.MyDevDescrHD
                0x000000000000bbbc       0x12 ./sdk/Peripheral/ch32v30x_usbotg_device.o
                0x000000000000bbbc                MyDevDescrHD
 *fill*         0x000000000000bbce        0x2 
 .rodata.MyCfgDescrHD
                0x000000000000bbd0       0x43 ./sdk/Peripheral/ch32v30x_usbotg_device.o
                0x000000000000bbd0                MyCfgDescrHD
 *fill*         0x000000000000bc13        0x1 
 .rodata.MyReportDescHD
                0x000000000000bc14       0x14 ./sdk/Peripheral/ch32v30x_usbotg_device.o
                0x000000000000bc14                MyReportDescHD
 .rodata.MyManuInfoHD
                0x000000000000bc28        0xe ./sdk/Peripheral/ch32v30x_usbotg_device.o
                0x000000000000bc28                MyManuInfoHD
 *fill*         0x000000000000bc36        0x2 
 .rodata.MyProdInfoHD
                0x000000000000bc38        0xc ./sdk/Peripheral/ch32v30x_usbotg_device.o
                0x000000000000bc38                MyProdInfoHD
 .rodata.MySerNumInfoHD
                0x000000000000bc44       0x16 ./sdk/Peripheral/ch32v30x_usbotg_device.o
                0x000000000000bc44                MySerNumInfoHD
 *fill*         0x000000000000bc5a        0x2 
 .rodata.MyUSBQUADescHD
                0x000000000000bc5c        0xa ./sdk/Peripheral/ch32v30x_usbotg_device.o
                0x000000000000bc5c                MyUSBQUADescHD
 *fill*         0x000000000000bc66        0x2 
 .rodata.OTG_FS_IRQHandler
                0x000000000000bc68       0xbc ./sdk/Peripheral/ch32v30x_usbotg_device.o
 .rodata.__muldf3
                0x000000000000bd24       0x40 d:/ide/mounriver/mounriver_studio/toolchain/risc-v embedded gcc/bin/../lib/gcc/riscv-none-embed/8.2.0/rv32imac/ilp32\libgcc.a(muldf3.o)
 .rodata.__clz_tab
                0x000000000000bd64      0x100 d:/ide/mounriver/mounriver_studio/toolchain/risc-v embedded gcc/bin/../lib/gcc/riscv-none-embed/8.2.0/rv32imac/ilp32\libgcc.a(_clz.o)
                0x000000000000bd64                __clz_tab
 *fill*         0x000000000000be64        0x4 
 .rodata._printf_float.cst8
                0x000000000000be68        0x8 d:/ide/mounriver/mounriver_studio/toolchain/risc-v embedded gcc/bin/../lib/gcc/riscv-none-embed/8.2.0/../../../../riscv-none-embed/lib/rv32imac/ilp32\libg_nano.a(lib_a-nano-vfprintf_float.o)
 .rodata._printf_float.str1.4
                0x000000000000be70       0x12 d:/ide/mounriver/mounriver_studio/toolchain/risc-v embedded gcc/bin/../lib/gcc/riscv-none-embed/8.2.0/../../../../riscv-none-embed/lib/rv32imac/ilp32\libg_nano.a(lib_a-nano-vfprintf_float.o)
 *fill*         0x000000000000be82        0x2 
 .rodata._printf_i.str1.4
                0x000000000000be84       0x25 d:/ide/mounriver/mounriver_studio/toolchain/risc-v embedded gcc/bin/../lib/gcc/riscv-none-embed/8.2.0/../../../../riscv-none-embed/lib/rv32imac/ilp32\libg_nano.a(lib_a-nano-vfprintf_i.o)
 *fill*         0x000000000000bea9        0x7 
 .rodata._dtoa_r.cst8
                0x000000000000beb0       0x48 d:/ide/mounriver/mounriver_studio/toolchain/risc-v embedded gcc/bin/../lib/gcc/riscv-none-embed/8.2.0/../../../../riscv-none-embed/lib/rv32imac/ilp32\libg_nano.a(lib_a-dtoa.o)
 .rodata._dtoa_r.str1.4
                0x000000000000bef8       0x10 d:/ide/mounriver/mounriver_studio/toolchain/risc-v embedded gcc/bin/../lib/gcc/riscv-none-embed/8.2.0/../../../../riscv-none-embed/lib/rv32imac/ilp32\libg_nano.a(lib_a-dtoa.o)
                                         0x12 (size before relaxing)
 .rodata.__sf_fake_stderr
                0x000000000000bf08       0x20 d:/ide/mounriver/mounriver_studio/toolchain/risc-v embedded gcc/bin/../lib/gcc/riscv-none-embed/8.2.0/../../../../riscv-none-embed/lib/rv32imac/ilp32\libg_nano.a(lib_a-findfp.o)
                0x000000000000bf08                __sf_fake_stderr
 .rodata.__sf_fake_stdin
                0x000000000000bf28       0x20 d:/ide/mounriver/mounriver_studio/toolchain/risc-v embedded gcc/bin/../lib/gcc/riscv-none-embed/8.2.0/../../../../riscv-none-embed/lib/rv32imac/ilp32\libg_nano.a(lib_a-findfp.o)
                0x000000000000bf28                __sf_fake_stdin
 .rodata.__sf_fake_stdout
                0x000000000000bf48       0x20 d:/ide/mounriver/mounriver_studio/toolchain/risc-v embedded gcc/bin/../lib/gcc/riscv-none-embed/8.2.0/../../../../riscv-none-embed/lib/rv32imac/ilp32\libg_nano.a(lib_a-findfp.o)
                0x000000000000bf48                __sf_fake_stdout
 .rodata.__mprec_bigtens
                0x000000000000bf68       0x28 d:/ide/mounriver/mounriver_studio/toolchain/risc-v embedded gcc/bin/../lib/gcc/riscv-none-embed/8.2.0/../../../../riscv-none-embed/lib/rv32imac/ilp32\libg_nano.a(lib_a-mprec.o)
                0x000000000000bf68                __mprec_bigtens
 .rodata.__mprec_tens
                0x000000000000bf90       0xc8 d:/ide/mounriver/mounriver_studio/toolchain/risc-v embedded gcc/bin/../lib/gcc/riscv-none-embed/8.2.0/../../../../riscv-none-embed/lib/rv32imac/ilp32\libg_nano.a(lib_a-mprec.o)
                0x000000000000bf90                __mprec_tens
 .rodata.p05.3319
                0x000000000000c058        0xc d:/ide/mounriver/mounriver_studio/toolchain/risc-v embedded gcc/bin/../lib/gcc/riscv-none-embed/8.2.0/../../../../riscv-none-embed/lib/rv32imac/ilp32\libg_nano.a(lib_a-mprec.o)
 .rodata._vfprintf_r.str1.4
                0x000000000000c064       0x13 d:/ide/mounriver/mounriver_studio/toolchain/risc-v embedded gcc/bin/../lib/gcc/riscv-none-embed/8.2.0/../../../../riscv-none-embed/lib/rv32imac/ilp32\libg_nano.a(lib_a-nano-vfprintf.o)
 *fill*         0x000000000000c077        0x1 
 .rodata._setlocale_r.str1.4
                0x000000000000c078        0xa d:/ide/mounriver/mounriver_studio/toolchain/risc-v embedded gcc/bin/../lib/gcc/riscv-none-embed/8.2.0/../../../../riscv-none-embed/lib/rv32imac/ilp32\libg_nano.a(lib_a-locale.o)
                                          0xd (size before relaxing)
 *fill*         0x000000000000c082        0x2 
 .rodata.str1.4
                0x000000000000c084        0x4 d:/ide/mounriver/mounriver_studio/toolchain/risc-v embedded gcc/bin/../lib/gcc/riscv-none-embed/8.2.0/../../../../riscv-none-embed/lib/rv32imac/ilp32\libg_nano.a(lib_a-locale.o)
                                          0x2 (size before relaxing)
 .rodata._ctype_
                0x000000000000c088      0x101 d:/ide/mounriver/mounriver_studio/toolchain/risc-v embedded gcc/bin/../lib/gcc/riscv-none-embed/8.2.0/../../../../riscv-none-embed/lib/rv32imac/ilp32\libg_nano.a(lib_a-ctype_.o)
                0x000000000000c088                _ctype_
 *fill*         0x000000000000c189        0x3 
 .rodata.__divdf3
                0x000000000000c18c       0x40 d:/ide/mounriver/mounriver_studio/toolchain/risc-v embedded gcc/bin/../lib/gcc/riscv-none-embed/8.2.0/rv32imac/ilp32\libgcc.a(divdf3.o)
 *(.glue_7)
 *(.glue_7t)
 *(.gnu.linkonce.t.*)
                0x000000000000c1cc                . = ALIGN (0x4)

.rela.dyn       0x000000000000c1cc        0x0
 .rela.init     0x000000000000c1cc        0x0 ./zf_driver/zf_driver_delay.o
 .rela.vector   0x000000000000c1cc        0x0 ./zf_driver/zf_driver_delay.o
 .rela.text.handle_reset
                0x000000000000c1cc        0x0 ./zf_driver/zf_driver_delay.o
 .rela.text._vfprintf_r
                0x000000000000c1cc        0x0 ./zf_driver/zf_driver_delay.o
 .rela.text._sbrk_r
                0x000000000000c1cc        0x0 ./zf_driver/zf_driver_delay.o
 .rela.text._write_r
                0x000000000000c1cc        0x0 ./zf_driver/zf_driver_delay.o
 .rela.text._close_r
                0x000000000000c1cc        0x0 ./zf_driver/zf_driver_delay.o
 .rela.text._fstat_r
                0x000000000000c1cc        0x0 ./zf_driver/zf_driver_delay.o
 .rela.text._isatty_r
                0x000000000000c1cc        0x0 ./zf_driver/zf_driver_delay.o
 .rela.text._lseek_r
                0x000000000000c1cc        0x0 ./zf_driver/zf_driver_delay.o
 .rela.text._read_r
                0x000000000000c1cc        0x0 ./zf_driver/zf_driver_delay.o
 .rela.text._close
                0x000000000000c1cc        0x0 ./zf_driver/zf_driver_delay.o
 .rela.text._fstat
                0x000000000000c1cc        0x0 ./zf_driver/zf_driver_delay.o
 .rela.text._isatty
                0x000000000000c1cc        0x0 ./zf_driver/zf_driver_delay.o
 .rela.text._lseek
                0x000000000000c1cc        0x0 ./zf_driver/zf_driver_delay.o
 .rela.text._read
                0x000000000000c1cc        0x0 ./zf_driver/zf_driver_delay.o
 .rela.text._sbrk
                0x000000000000c1cc        0x0 ./zf_driver/zf_driver_delay.o

.fini           0x000000000000c1cc        0x0
 *(SORT_NONE(.fini))
                0x000000000000c1cc                . = ALIGN (0x4)
                [!provide]                        PROVIDE (_etext = .)
                [!provide]                        PROVIDE (_eitcm = .)

.preinit_array  0x000000000000c1cc        0x0
                [!provide]                        PROVIDE (__preinit_array_start = .)
 *(.preinit_array)
                [!provide]                        PROVIDE (__preinit_array_end = .)

.init_array     0x000000000000c1cc        0x0
                [!provide]                        PROVIDE (__init_array_start = .)
 *(SORT_BY_INIT_PRIORITY(.init_array.*) SORT_BY_INIT_PRIORITY(.ctors.*))
 *(.init_array EXCLUDE_FILE(*crtend?.o *crtend.o *crtbegin?.o *crtbegin.o) .ctors)
                [!provide]                        PROVIDE (__init_array_end = .)

.fini_array     0x000000000000c1cc        0x0
                [!provide]                        PROVIDE (__fini_array_start = .)
 *(SORT_BY_INIT_PRIORITY(.fini_array.*) SORT_BY_INIT_PRIORITY(.dtors.*))
 *(.fini_array EXCLUDE_FILE(*crtend?.o *crtend.o *crtbegin?.o *crtbegin.o) .dtors)
                [!provide]                        PROVIDE (__fini_array_end = .)

.ctors
 *crtbegin.o(.ctors)
 *crtbegin?.o(.ctors)
 *(EXCLUDE_FILE(*crtend?.o *crtend.o) .ctors)
 *(SORT_BY_NAME(.ctors.*))
 *(.ctors)

.dtors
 *crtbegin.o(.dtors)
 *crtbegin?.o(.dtors)
 *(EXCLUDE_FILE(*crtend?.o *crtend.o) .dtors)
 *(SORT_BY_NAME(.dtors.*))
 *(.dtors)

.dalign         0x0000000020000000        0x0 load address 0x000000000000c1cc
                0x0000000020000000                . = ALIGN (0x4)
                0x0000000020000000                PROVIDE (_data_vma = .)

.dlalign        0x000000000000c1cc        0x0
                0x000000000000c1cc                . = ALIGN (0x4)
                0x000000000000c1cc                PROVIDE (_data_lma = .)

.data           0x0000000020000000      0x258 load address 0x000000000000c1cc
 *(.gnu.linkonce.r.*)
 *(.data .data.*)
 .data.APBAHBPrescTable
                0x0000000020000000       0x10 ./sdk/Peripheral/ch32v30x_rcc.o
 .data.TAB_USB_FS_OSC_DESC
                0x0000000020000010       0x43 ./sdk/Peripheral/ch32v30x_usbotg_device.o
                0x0000000020000010                TAB_USB_FS_OSC_DESC
 *fill*         0x0000000020000053        0x1 
 .data.impure_data
                0x0000000020000054       0x60 d:/ide/mounriver/mounriver_studio/toolchain/risc-v embedded gcc/bin/../lib/gcc/riscv-none-embed/8.2.0/../../../../riscv-none-embed/lib/rv32imac/ilp32\libg_nano.a(lib_a-impure.o)
 .data.__global_locale
                0x00000000200000b4      0x16c d:/ide/mounriver/mounriver_studio/toolchain/risc-v embedded gcc/bin/../lib/gcc/riscv-none-embed/8.2.0/../../../../riscv-none-embed/lib/rv32imac/ilp32\libg_nano.a(lib_a-locale.o)
                0x00000000200000b4                __global_locale
 *(.gnu.linkonce.d.*)
                0x0000000020000220                . = ALIGN (0x8)
                0x0000000020000a20                PROVIDE (__global_pointer$ = (. + 0x800))
 *(.sdata .sdata.*)
 .sdata.encoder_dir_pin
                0x0000000020000220        0x8 ./zf_driver/zf_driver_encoder.o
 .sdata.ips114_pencolor
                0x0000000020000228        0x2 ./zf_device/zf_device_ips114.o
                0x0000000020000228                ips114_pencolor
 .sdata.ips114_bgcolor
                0x000000002000022a        0x2 ./zf_device/zf_device_ips114.o
                0x000000002000022a                ips114_bgcolor
 .sdata.ips114_display_dir
                0x000000002000022c        0x4 ./zf_device/zf_device_ips114.o
                0x000000002000022c                ips114_display_dir
 .sdata.ips114_x_max
                0x0000000020000230        0x1 ./zf_device/zf_device_ips114.o
                0x0000000020000230                ips114_x_max
 .sdata.ips114_y_max
                0x0000000020000231        0x1 ./zf_device/zf_device_ips114.o
                0x0000000020000231                ips114_y_max
 *fill*         0x0000000020000232        0x2 
 .sdata.ADCPrescTable
                0x0000000020000234        0x4 ./sdk/Peripheral/ch32v30x_rcc.o
 .sdata.USBHD_Dev_Speed
                0x0000000020000238        0x1 ./sdk/Peripheral/ch32v30x_usbotg_device.o
                0x0000000020000238                USBHD_Dev_Speed
 *fill*         0x0000000020000239        0x3 
 .sdata.LineCoding
                0x000000002000023c        0x7 ./sdk/Peripheral/ch32v30x_usbotg_device.o
                0x000000002000023c                LineCoding
 *fill*         0x0000000020000243        0x1 
 .sdata._impure_ptr
                0x0000000020000244        0x4 d:/ide/mounriver/mounriver_studio/toolchain/risc-v embedded gcc/bin/../lib/gcc/riscv-none-embed/8.2.0/../../../../riscv-none-embed/lib/rv32imac/ilp32\libg_nano.a(lib_a-impure.o)
                0x0000000020000244                _impure_ptr
 *(.sdata2.*)
 .sdata2.uart_irq
                0x0000000020000248        0x8 ./zf_driver/zf_driver_uart.o
                0x0000000020000248                uart_irq
 .sdata2.MyLangDescrHD
                0x0000000020000250        0x4 ./sdk/Peripheral/ch32v30x_usbotg_device.o
                0x0000000020000250                MyLangDescrHD
 .sdata2._global_impure_ptr
                0x0000000020000254        0x4 d:/ide/mounriver/mounriver_studio/toolchain/risc-v embedded gcc/bin/../lib/gcc/riscv-none-embed/8.2.0/../../../../riscv-none-embed/lib/rv32imac/ilp32\libg_nano.a(lib_a-impure.o)
                0x0000000020000254                _global_impure_ptr
 *(.gnu.linkonce.s.*)
                0x0000000020000258                . = ALIGN (0x8)
 *(.srodata.cst16)
 *(.srodata.cst8)
 *(.srodata.cst4)
 *(.srodata.cst2)
 *(.srodata .srodata.*)
                0x0000000020000258                . = ALIGN (0x4)
                0x0000000020000258                PROVIDE (_edata = .)

.bss            0x0000000020000258      0x110 load address 0x000000000000c424
                0x0000000020000258                . = ALIGN (0x4)
                0x0000000020000258                PROVIDE (_sbss = .)
 *(.sbss*)
 .sbss.bluetooth_ch9141_data
                0x0000000020000258        0x1 ./zf_device/zf_device_bluetooth_ch9141.o
 .sbss.bluetooth_ch9141_at_reply_index
                0x0000000020000259        0x1 ./zf_device/zf_device_bluetooth_ch9141.o
 *fill*         0x000000002000025a        0x2 
 .sbss.bluetooth_ch9141_at_cmd_state
                0x000000002000025c        0x4 ./zf_device/zf_device_bluetooth_ch9141.o
 .sbss.bluetooth_ch9141_data_ch2
                0x0000000020000260        0x1 ./zf_device/zf_device_bluetooth_ch9141_ch2.o
 .sbss.bluetooth_ch9141_at_reply_index_ch2
                0x0000000020000261        0x1 ./zf_device/zf_device_bluetooth_ch9141_ch2.o
 *fill*         0x0000000020000262        0x2 
 .sbss.bluetooth_ch9141_at_cmd_state_ch2
                0x0000000020000264        0x4 ./zf_device/zf_device_bluetooth_ch9141_ch2.o
 .sbss.camera_buffer_addr
                0x0000000020000268        0x4 ./zf_device/zf_device_mt9v03x_dvp.o
                0x0000000020000268                camera_buffer_addr
 .sbss.mt9v03x_finish_flag_dvp
                0x000000002000026c        0x1 ./zf_device/zf_device_mt9v03x_dvp.o
                0x000000002000026c                mt9v03x_finish_flag_dvp
 *fill*         0x000000002000026d        0x3 
 .sbss.receive_dvp
                0x0000000020000270        0x3 ./zf_device/zf_device_mt9v03x_dvp.o
 .sbss.receive_num_dvp
                0x0000000020000273        0x1 ./zf_device/zf_device_mt9v03x_dvp.o
 .sbss.uart_receive_flag_dvp
                0x0000000020000274        0x1 ./zf_device/zf_device_mt9v03x_dvp.o
 *fill*         0x0000000020000275        0x3 
 .sbss.scc8660_uart_receive_dvp
                0x0000000020000278        0x3 ./zf_device/zf_device_scc8660_dvp.o
                0x0000000020000278                scc8660_uart_receive_dvp
 .sbss.scc8660_uart_receive_num_dvp
                0x000000002000027b        0x1 ./zf_device/zf_device_scc8660_dvp.o
                0x000000002000027b                scc8660_uart_receive_num_dvp
 .sbss.scc8660_uart_receive_flag_dvp
                0x000000002000027c        0x1 ./zf_device/zf_device_scc8660_dvp.o
                0x000000002000027c                scc8660_uart_receive_flag_dvp
 .sbss.scc8660_finish_flag_dvp
                0x000000002000027d        0x1 ./zf_device/zf_device_scc8660_dvp.o
                0x000000002000027d                scc8660_finish_flag_dvp
 *fill*         0x000000002000027e        0x2 
 .sbss.camera_type
                0x0000000020000280        0x4 ./zf_device/zf_device_type.o
                0x0000000020000280                camera_type
 .sbss.wireless_type
                0x0000000020000284        0x4 ./zf_device/zf_device_type.o
                0x0000000020000284                wireless_type
 .sbss.wireless_uart_data
                0x0000000020000288        0x1 ./zf_device/zf_device_wireless_uart.o
 *fill*         0x0000000020000289        0x3 
 .sbss.system_clock
                0x000000002000028c        0x4 ./zf_common/zf_common_clock.o
                0x000000002000028c                system_clock
 .sbss.zf_debug_init_flag
                0x0000000020000290        0x1 ./zf_common/zf_common_debug.o
                0x0000000020000290                zf_debug_init_flag
 *fill*         0x0000000020000291        0x3 
 .sbss.EP0_DatabufHD
                0x0000000020000294        0x8 ./sdk/Peripheral/ch32v30x_usbotg_device.o
                0x0000000020000294                EP0_DatabufHD
 .sbss.pEP0_RAM_Addr
                0x000000002000029c        0x4 ./sdk/Peripheral/ch32v30x_usbotg_device.o
                0x000000002000029c                pEP0_RAM_Addr
 .sbss.pEP1_RAM_Addr
                0x00000000200002a0        0x4 ./sdk/Peripheral/ch32v30x_usbotg_device.o
                0x00000000200002a0                pEP1_RAM_Addr
 .sbss.pEP2_RAM_Addr
                0x00000000200002a4        0x4 ./sdk/Peripheral/ch32v30x_usbotg_device.o
                0x00000000200002a4                pEP2_RAM_Addr
 .sbss.pDescr   0x00000000200002a8        0x4 ./sdk/Peripheral/ch32v30x_usbotg_device.o
                0x00000000200002a8                pDescr
 .sbss.USBHD_Dev_SetupReqLen
                0x00000000200002ac        0x2 ./sdk/Peripheral/ch32v30x_usbotg_device.o
                0x00000000200002ac                USBHD_Dev_SetupReqLen
 .sbss.USBHD_Dev_SleepStatus
                0x00000000200002ae        0x1 ./sdk/Peripheral/ch32v30x_usbotg_device.o
                0x00000000200002ae                USBHD_Dev_SleepStatus
 .sbss.DevConfig
                0x00000000200002af        0x1 ./sdk/Peripheral/ch32v30x_usbotg_device.o
                0x00000000200002af                DevConfig
 .sbss.SetupReqCode
                0x00000000200002b0        0x1 ./sdk/Peripheral/ch32v30x_usbotg_device.o
                0x00000000200002b0                SetupReqCode
 *fill*         0x00000000200002b1        0x1 
 .sbss.SetupReqLen
                0x00000000200002b2        0x2 ./sdk/Peripheral/ch32v30x_usbotg_device.o
                0x00000000200002b2                SetupReqLen
 .sbss.__malloc_free_list
                0x00000000200002b4        0x4 d:/ide/mounriver/mounriver_studio/toolchain/risc-v embedded gcc/bin/../lib/gcc/riscv-none-embed/8.2.0/../../../../riscv-none-embed/lib/rv32imac/ilp32\libg_nano.a(lib_a-nano-mallocr.o)
                0x00000000200002b4                __malloc_free_list
 .sbss.__malloc_sbrk_start
                0x00000000200002b8        0x4 d:/ide/mounriver/mounriver_studio/toolchain/risc-v embedded gcc/bin/../lib/gcc/riscv-none-embed/8.2.0/../../../../riscv-none-embed/lib/rv32imac/ilp32\libg_nano.a(lib_a-nano-mallocr.o)
                0x00000000200002b8                __malloc_sbrk_start
 .sbss.heap_end.1518
                0x00000000200002bc        0x4 d:/ide/mounriver/mounriver_studio/toolchain/risc-v embedded gcc/bin/../lib/gcc/riscv-none-embed/8.2.0/../../../../riscv-none-embed/lib/rv32imac/ilp32\libnosys.a(sbrk.o)
 *(.gnu.linkonce.sb.*)
 *(.bss*)
 .bss.timer_function_state
                0x00000000200002c0       0x28 ./zf_driver/zf_driver_timer.o
 .bss.bluetooth_ch9141_fifo
                0x00000000200002e8       0x14 ./zf_device/zf_device_bluetooth_ch9141.o
 .bss.bluetooth_ch9141_at_reply
                0x00000000200002fc       0x1e ./zf_device/zf_device_bluetooth_ch9141.o
 *fill*         0x000000002000031a        0x2 
 .bss.bluetooth_ch9141_fifo_ch2
                0x000000002000031c       0x14 ./zf_device/zf_device_bluetooth_ch9141_ch2.o
 .bss.bluetooth_ch9141_at_reply_ch2
                0x0000000020000330       0x1e ./zf_device/zf_device_bluetooth_ch9141_ch2.o
 *fill*         0x000000002000034e        0x2 
 .bss.wireless_uart_fifo
                0x0000000020000350       0x14 ./zf_device/zf_device_wireless_uart.o
 *(.gnu.linkonce.b.*)
 *(COMMON*)
 COMMON         0x0000000020000364        0x4 d:/ide/mounriver/mounriver_studio/toolchain/risc-v embedded gcc/bin/../lib/gcc/riscv-none-embed/8.2.0/../../../../riscv-none-embed/lib/rv32imac/ilp32\libg_nano.a(lib_a-reent.o)
                0x0000000020000364                errno
                0x0000000020000368                . = ALIGN (0x4)
                0x0000000020000368                PROVIDE (_ebss = .)
                [!provide]                        PROVIDE (_end = _ebss)
                0x0000000020000368                PROVIDE (end = .)

.stack          0x000000002000f800      0x800
                0x000000002000f800                . = ALIGN (0x4)
                [!provide]                        PROVIDE (_susrstack = .)
                0x0000000020010000                . = (. + __stack_size)
 *fill*         0x000000002000f800      0x800 
                0x0000000020010000                PROVIDE (_eusrstack = .)
OUTPUT(Seekfree_CH32V307VCT6_Opensource_Library.elf elf32-littleriscv)

.debug_info     0x0000000000000000    0x1b301
 .debug_info    0x0000000000000000      0x141 ./zf_driver/zf_driver_delay.o
 .debug_info    0x0000000000000141     0x1283 ./zf_driver/zf_driver_encoder.o
 .debug_info    0x00000000000013c4      0x5b5 ./zf_driver/zf_driver_gpio.o
 .debug_info    0x0000000000001979       0x26 ./zf_driver/zf_driver_irq.o
 .debug_info    0x000000000000199f     0x151c ./zf_driver/zf_driver_spi.o
 .debug_info    0x0000000000002ebb      0xe85 ./zf_driver/zf_driver_timer.o
 .debug_info    0x0000000000003d40     0x16a1 ./zf_driver/zf_driver_uart.o
 .debug_info    0x00000000000053e1     0x136b ./zf_device/zf_device_bluetooth_ch9141.o
 .debug_info    0x000000000000674c     0x136b ./zf_device/zf_device_bluetooth_ch9141_ch2.o
 .debug_info    0x0000000000007ab7      0xc3d ./zf_device/zf_device_camera.o
 .debug_info    0x00000000000086f4     0x1849 ./zf_device/zf_device_ips114.o
 .debug_info    0x0000000000009f3d     0x125d ./zf_device/zf_device_mt9v03x_dvp.o
 .debug_info    0x000000000000b19a     0x147c ./zf_device/zf_device_scc8660_dvp.o
 .debug_info    0x000000000000c616      0x10f ./zf_device/zf_device_type.o
 .debug_info    0x000000000000c725     0x1075 ./zf_device/zf_device_wireless_uart.o
 .debug_info    0x000000000000d79a      0xbd2 ./zf_common/zf_common_clock.o
 .debug_info    0x000000000000e36c      0xd67 ./zf_common/zf_common_debug.o
 .debug_info    0x000000000000f0d3      0xbe3 ./zf_common/zf_common_fifo.o
 .debug_info    0x000000000000fcb6      0x1a9 ./zf_common/zf_common_font.o
 .debug_info    0x000000000000fe5f      0xf8b ./zf_common/zf_common_function.o
 .debug_info    0x0000000000010dea      0x6a1 ./zf_common/zf_common_interrupt.o
 .debug_info    0x000000000001148b     0x175e ./user_c/isr.o
 .debug_info    0x0000000000012be9      0xfc0 ./user_c/main.o
 .debug_info    0x0000000000013ba9       0x22 ./sdk/Startup/startup_ch32v30x.o
 .debug_info    0x0000000000013bcb      0x337 ./sdk/Startup/system_ch32v30x.o
 .debug_info    0x0000000000013f02      0x35f ./sdk/Peripheral/ch32v30x_exti.o
 .debug_info    0x0000000000014261      0x71b ./sdk/Peripheral/ch32v30x_gpio.o
 .debug_info    0x000000000001497c      0xc6a ./sdk/Peripheral/ch32v30x_rcc.o
 .debug_info    0x00000000000155e6      0x95b ./sdk/Peripheral/ch32v30x_spi.o
 .debug_info    0x0000000000015f41     0x1dde ./sdk/Peripheral/ch32v30x_tim.o
 .debug_info    0x0000000000017d1f      0xa4e ./sdk/Peripheral/ch32v30x_usart.o
 .debug_info    0x000000000001876d     0x13b9 ./sdk/Peripheral/ch32v30x_usbotg_device.o
 .debug_info    0x0000000000019b26      0x640 ./sdk/Core/core_riscv.o
 .debug_info    0x000000000001a166     0x119b ./code/Encoder.o

.debug_abbrev   0x0000000000000000     0x462c
 .debug_abbrev  0x0000000000000000       0xbe ./zf_driver/zf_driver_delay.o
 .debug_abbrev  0x00000000000000be      0x292 ./zf_driver/zf_driver_encoder.o
 .debug_abbrev  0x0000000000000350      0x1ac ./zf_driver/zf_driver_gpio.o
 .debug_abbrev  0x00000000000004fc       0x14 ./zf_driver/zf_driver_irq.o
 .debug_abbrev  0x0000000000000510      0x300 ./zf_driver/zf_driver_spi.o
 .debug_abbrev  0x0000000000000810      0x275 ./zf_driver/zf_driver_timer.o
 .debug_abbrev  0x0000000000000a85      0x2e9 ./zf_driver/zf_driver_uart.o
 .debug_abbrev  0x0000000000000d6e      0x31d ./zf_device/zf_device_bluetooth_ch9141.o
 .debug_abbrev  0x000000000000108b      0x31d ./zf_device/zf_device_bluetooth_ch9141_ch2.o
 .debug_abbrev  0x00000000000013a8      0x26b ./zf_device/zf_device_camera.o
 .debug_abbrev  0x0000000000001613      0x326 ./zf_device/zf_device_ips114.o
 .debug_abbrev  0x0000000000001939      0x330 ./zf_device/zf_device_mt9v03x_dvp.o
 .debug_abbrev  0x0000000000001c69      0x330 ./zf_device/zf_device_scc8660_dvp.o
 .debug_abbrev  0x0000000000001f99       0xb3 ./zf_device/zf_device_type.o
 .debug_abbrev  0x000000000000204c      0x25d ./zf_device/zf_device_wireless_uart.o
 .debug_abbrev  0x00000000000022a9      0x278 ./zf_common/zf_common_clock.o
 .debug_abbrev  0x0000000000002521      0x2c7 ./zf_common/zf_common_debug.o
 .debug_abbrev  0x00000000000027e8      0x278 ./zf_common/zf_common_fifo.o
 .debug_abbrev  0x0000000000002a60       0x8d ./zf_common/zf_common_font.o
 .debug_abbrev  0x0000000000002aed      0x337 ./zf_common/zf_common_function.o
 .debug_abbrev  0x0000000000002e24      0x19c ./zf_common/zf_common_interrupt.o
 .debug_abbrev  0x0000000000002fc0      0x24e ./user_c/isr.o
 .debug_abbrev  0x000000000000320e      0x20b ./user_c/main.o
 .debug_abbrev  0x0000000000003419       0x12 ./sdk/Startup/startup_ch32v30x.o
 .debug_abbrev  0x000000000000342b      0x18e ./sdk/Startup/system_ch32v30x.o
 .debug_abbrev  0x00000000000035b9      0x157 ./sdk/Peripheral/ch32v30x_exti.o
 .debug_abbrev  0x0000000000003710      0x1da ./sdk/Peripheral/ch32v30x_gpio.o
 .debug_abbrev  0x00000000000038ea      0x202 ./sdk/Peripheral/ch32v30x_rcc.o
 .debug_abbrev  0x0000000000003aec      0x1b1 ./sdk/Peripheral/ch32v30x_spi.o
 .debug_abbrev  0x0000000000003c9d      0x1dc ./sdk/Peripheral/ch32v30x_tim.o
 .debug_abbrev  0x0000000000003e79      0x1b1 ./sdk/Peripheral/ch32v30x_usart.o
 .debug_abbrev  0x000000000000402a      0x2ac ./sdk/Peripheral/ch32v30x_usbotg_device.o
 .debug_abbrev  0x00000000000042d6      0x10d ./sdk/Core/core_riscv.o
 .debug_abbrev  0x00000000000043e3      0x249 ./code/Encoder.o

.debug_aranges  0x0000000000000000     0x1228
 .debug_aranges
                0x0000000000000000       0x20 ./zf_driver/zf_driver_delay.o
 .debug_aranges
                0x0000000000000020       0x40 ./zf_driver/zf_driver_encoder.o
 .debug_aranges
                0x0000000000000060       0x38 ./zf_driver/zf_driver_gpio.o
 .debug_aranges
                0x0000000000000098       0x20 ./zf_driver/zf_driver_irq.o
 .debug_aranges
                0x00000000000000b8       0xb8 ./zf_driver/zf_driver_spi.o
 .debug_aranges
                0x0000000000000170       0x40 ./zf_driver/zf_driver_timer.o
 .debug_aranges
                0x00000000000001b0       0x68 ./zf_driver/zf_driver_uart.o
 .debug_aranges
                0x0000000000000218       0xb8 ./zf_device/zf_device_bluetooth_ch9141.o
 .debug_aranges
                0x00000000000002d0       0xb8 ./zf_device/zf_device_bluetooth_ch9141_ch2.o
 .debug_aranges
                0x0000000000000388       0x48 ./zf_device/zf_device_camera.o
 .debug_aranges
                0x00000000000003d0       0xb8 ./zf_device/zf_device_ips114.o
 .debug_aranges
                0x0000000000000488       0x58 ./zf_device/zf_device_mt9v03x_dvp.o
 .debug_aranges
                0x00000000000004e0       0x80 ./zf_device/zf_device_scc8660_dvp.o
 .debug_aranges
                0x0000000000000560       0x28 ./zf_device/zf_device_type.o
 .debug_aranges
                0x0000000000000588       0x38 ./zf_device/zf_device_wireless_uart.o
 .debug_aranges
                0x00000000000005c0       0x30 ./zf_common/zf_common_clock.o
 .debug_aranges
                0x00000000000005f0       0x50 ./zf_common/zf_common_debug.o
 .debug_aranges
                0x0000000000000640       0x50 ./zf_common/zf_common_fifo.o
 .debug_aranges
                0x0000000000000690       0x18 ./zf_common/zf_common_font.o
 .debug_aranges
                0x00000000000006a8       0x70 ./zf_common/zf_common_function.o
 .debug_aranges
                0x0000000000000718       0x60 ./zf_common/zf_common_interrupt.o
 .debug_aranges
                0x0000000000000778       0xf8 ./user_c/isr.o
 .debug_aranges
                0x0000000000000870       0x20 ./user_c/main.o
 .debug_aranges
                0x0000000000000890       0x30 ./sdk/Startup/startup_ch32v30x.o
 .debug_aranges
                0x00000000000008c0       0x38 ./sdk/Startup/system_ch32v30x.o
 .debug_aranges
                0x00000000000008f8       0x58 ./sdk/Peripheral/ch32v30x_exti.o
 .debug_aranges
                0x0000000000000950       0xa8 ./sdk/Peripheral/ch32v30x_gpio.o
 .debug_aranges
                0x00000000000009f8      0x1a8 ./sdk/Peripheral/ch32v30x_rcc.o
 .debug_aranges
                0x0000000000000ba0       0xd0 ./sdk/Peripheral/ch32v30x_spi.o
 .debug_aranges
                0x0000000000000c70      0x2f0 ./sdk/Peripheral/ch32v30x_tim.o
 .debug_aranges
                0x0000000000000f60      0x100 ./sdk/Peripheral/ch32v30x_usart.o
 .debug_aranges
                0x0000000000001060       0x50 ./sdk/Peripheral/ch32v30x_usbotg_device.o
 .debug_aranges
                0x00000000000010b0      0x138 ./sdk/Core/core_riscv.o
 .debug_aranges
                0x00000000000011e8       0x40 ./code/Encoder.o

.debug_ranges   0x0000000000000000      0xff8
 .debug_ranges  0x0000000000000000       0x10 ./zf_driver/zf_driver_delay.o
 .debug_ranges  0x0000000000000010       0x30 ./zf_driver/zf_driver_encoder.o
 .debug_ranges  0x0000000000000040       0x28 ./zf_driver/zf_driver_gpio.o
 .debug_ranges  0x0000000000000068       0xa8 ./zf_driver/zf_driver_spi.o
 .debug_ranges  0x0000000000000110       0x30 ./zf_driver/zf_driver_timer.o
 .debug_ranges  0x0000000000000140       0x58 ./zf_driver/zf_driver_uart.o
 .debug_ranges  0x0000000000000198       0xa8 ./zf_device/zf_device_bluetooth_ch9141.o
 .debug_ranges  0x0000000000000240       0xa8 ./zf_device/zf_device_bluetooth_ch9141_ch2.o
 .debug_ranges  0x00000000000002e8       0x38 ./zf_device/zf_device_camera.o
 .debug_ranges  0x0000000000000320       0xa8 ./zf_device/zf_device_ips114.o
 .debug_ranges  0x00000000000003c8       0x48 ./zf_device/zf_device_mt9v03x_dvp.o
 .debug_ranges  0x0000000000000410       0x70 ./zf_device/zf_device_scc8660_dvp.o
 .debug_ranges  0x0000000000000480       0x18 ./zf_device/zf_device_type.o
 .debug_ranges  0x0000000000000498       0x28 ./zf_device/zf_device_wireless_uart.o
 .debug_ranges  0x00000000000004c0       0x20 ./zf_common/zf_common_clock.o
 .debug_ranges  0x00000000000004e0       0x40 ./zf_common/zf_common_debug.o
 .debug_ranges  0x0000000000000520       0x40 ./zf_common/zf_common_fifo.o
 .debug_ranges  0x0000000000000560       0x60 ./zf_common/zf_common_function.o
 .debug_ranges  0x00000000000005c0       0x50 ./zf_common/zf_common_interrupt.o
 .debug_ranges  0x0000000000000610       0xe8 ./user_c/isr.o
 .debug_ranges  0x00000000000006f8       0x10 ./user_c/main.o
 .debug_ranges  0x0000000000000708       0x28 ./sdk/Startup/startup_ch32v30x.o
 .debug_ranges  0x0000000000000730       0x28 ./sdk/Startup/system_ch32v30x.o
 .debug_ranges  0x0000000000000758       0x48 ./sdk/Peripheral/ch32v30x_exti.o
 .debug_ranges  0x00000000000007a0       0x98 ./sdk/Peripheral/ch32v30x_gpio.o
 .debug_ranges  0x0000000000000838      0x198 ./sdk/Peripheral/ch32v30x_rcc.o
 .debug_ranges  0x00000000000009d0       0xc0 ./sdk/Peripheral/ch32v30x_spi.o
 .debug_ranges  0x0000000000000a90      0x2e0 ./sdk/Peripheral/ch32v30x_tim.o
 .debug_ranges  0x0000000000000d70       0xf0 ./sdk/Peripheral/ch32v30x_usart.o
 .debug_ranges  0x0000000000000e60       0x40 ./sdk/Peripheral/ch32v30x_usbotg_device.o
 .debug_ranges  0x0000000000000ea0      0x128 ./sdk/Core/core_riscv.o
 .debug_ranges  0x0000000000000fc8       0x30 ./code/Encoder.o

.debug_line     0x0000000000000000    0x16ef4
 .debug_line    0x0000000000000000      0x3ca ./zf_driver/zf_driver_delay.o
 .debug_line    0x00000000000003ca      0x918 ./zf_driver/zf_driver_encoder.o
 .debug_line    0x0000000000000ce2      0x619 ./zf_driver/zf_driver_gpio.o
 .debug_line    0x00000000000012fb       0xdd ./zf_driver/zf_driver_irq.o
 .debug_line    0x00000000000013d8     0x1b89 ./zf_driver/zf_driver_spi.o
 .debug_line    0x0000000000002f61      0x798 ./zf_driver/zf_driver_timer.o
 .debug_line    0x00000000000036f9      0xdc9 ./zf_driver/zf_driver_uart.o
 .debug_line    0x00000000000044c2      0xdf6 ./zf_device/zf_device_bluetooth_ch9141.o
 .debug_line    0x00000000000052b8      0xdfa ./zf_device/zf_device_bluetooth_ch9141_ch2.o
 .debug_line    0x00000000000060b2      0x668 ./zf_device/zf_device_camera.o
 .debug_line    0x000000000000671a     0x16bf ./zf_device/zf_device_ips114.o
 .debug_line    0x0000000000007dd9      0xd58 ./zf_device/zf_device_mt9v03x_dvp.o
 .debug_line    0x0000000000008b31      0xf65 ./zf_device/zf_device_scc8660_dvp.o
 .debug_line    0x0000000000009a96      0x10e ./zf_device/zf_device_type.o
 .debug_line    0x0000000000009ba4      0x65d ./zf_device/zf_device_wireless_uart.o
 .debug_line    0x000000000000a201      0x6d0 ./zf_common/zf_common_clock.o
 .debug_line    0x000000000000a8d1      0x6e8 ./zf_common/zf_common_debug.o
 .debug_line    0x000000000000afb9      0x6ac ./zf_common/zf_common_fifo.o
 .debug_line    0x000000000000b665      0x1a9 ./zf_common/zf_common_font.o
 .debug_line    0x000000000000b80e      0xe25 ./zf_common/zf_common_function.o
 .debug_line    0x000000000000c633      0x4fa ./zf_common/zf_common_interrupt.o
 .debug_line    0x000000000000cb2d      0xd95 ./user_c/isr.o
 .debug_line    0x000000000000d8c2      0x740 ./user_c/main.o
 .debug_line    0x000000000000e002      0x3d4 ./sdk/Startup/startup_ch32v30x.o
 .debug_line    0x000000000000e3d6      0x6b3 ./sdk/Startup/system_ch32v30x.o
 .debug_line    0x000000000000ea89      0x656 ./sdk/Peripheral/ch32v30x_exti.o
 .debug_line    0x000000000000f0df      0xb23 ./sdk/Peripheral/ch32v30x_gpio.o
 .debug_line    0x000000000000fc02     0x1370 ./sdk/Peripheral/ch32v30x_rcc.o
 .debug_line    0x0000000000010f72      0xb6c ./sdk/Peripheral/ch32v30x_spi.o
 .debug_line    0x0000000000011ade     0x2320 ./sdk/Peripheral/ch32v30x_tim.o
 .debug_line    0x0000000000013dfe      0xd4c ./sdk/Peripheral/ch32v30x_usart.o
 .debug_line    0x0000000000014b4a     0x14eb ./sdk/Peripheral/ch32v30x_usbotg_device.o
 .debug_line    0x0000000000016035      0x718 ./sdk/Core/core_riscv.o
 .debug_line    0x000000000001674d      0x7a7 ./code/Encoder.o

.debug_str      0x0000000000000000     0x6f7d
 .debug_str     0x0000000000000000      0x26f ./zf_driver/zf_driver_delay.o
                                        0x2ba (size before relaxing)
 .debug_str     0x000000000000026f      0xc24 ./zf_driver/zf_driver_encoder.o
                                        0xe6c (size before relaxing)
 .debug_str     0x0000000000000e93      0x28b ./zf_driver/zf_driver_gpio.o
                                        0x4e6 (size before relaxing)
 .debug_str     0x000000000000111e       0xa1 ./zf_driver/zf_driver_irq.o
                                        0x122 (size before relaxing)
 .debug_str     0x00000000000011bf      0x466 ./zf_driver/zf_driver_spi.o
                                        0xbea (size before relaxing)
 .debug_str     0x0000000000001625      0x13e ./zf_driver/zf_driver_timer.o
                                        0xa2d (size before relaxing)
 .debug_str     0x0000000000001763      0xa5a ./zf_driver/zf_driver_uart.o
                                       0x11c5 (size before relaxing)
 .debug_str     0x00000000000021bd      0x81b ./zf_device/zf_device_bluetooth_ch9141.o
                                       0x113b (size before relaxing)
 .debug_str     0x00000000000029d8      0x231 ./zf_device/zf_device_bluetooth_ch9141_ch2.o
                                       0x1163 (size before relaxing)
 .debug_str     0x0000000000002c09      0x1f8 ./zf_device/zf_device_camera.o
                                        0x930 (size before relaxing)
 .debug_str     0x0000000000002e01      0x374 ./zf_device/zf_device_ips114.o
                                        0xbee (size before relaxing)
 .debug_str     0x0000000000003175      0x258 ./zf_device/zf_device_mt9v03x_dvp.o
                                        0xc56 (size before relaxing)
 .debug_str     0x00000000000033cd      0x326 ./zf_device/zf_device_scc8660_dvp.o
                                        0xe17 (size before relaxing)
 .debug_str     0x00000000000036f3       0xc1 ./zf_device/zf_device_type.o
                                        0x2b0 (size before relaxing)
 .debug_str     0x00000000000037b4      0x1c2 ./zf_device/zf_device_wireless_uart.o
                                        0xbbc (size before relaxing)
 .debug_str     0x0000000000003976      0x1d9 ./zf_common/zf_common_clock.o
                                        0x7fe (size before relaxing)
 .debug_str     0x0000000000003b4f      0x11b ./zf_common/zf_common_debug.o
                                        0x9b9 (size before relaxing)
 .debug_str     0x0000000000003c6a      0x17b ./zf_common/zf_common_fifo.o
                                        0x7b9 (size before relaxing)
 .debug_str     0x0000000000003de5       0x96 ./zf_common/zf_common_font.o
                                        0x2a9 (size before relaxing)
 .debug_str     0x0000000000003e7b      0x1ef ./zf_common/zf_common_function.o
                                        0x825 (size before relaxing)
 .debug_str     0x000000000000406a      0x15a ./zf_common/zf_common_interrupt.o
                                        0x94e (size before relaxing)
 .debug_str     0x00000000000041c4      0x581 ./user_c/isr.o
                                       0x102d (size before relaxing)
 .debug_str     0x0000000000004745       0xb2 ./user_c/main.o
                                        0xceb (size before relaxing)
 .debug_str     0x00000000000047f7       0x9a ./sdk/Startup/startup_ch32v30x.o
                                        0x127 (size before relaxing)
 .debug_str     0x0000000000004891       0xf1 ./sdk/Startup/system_ch32v30x.o
                                        0x3c9 (size before relaxing)
 .debug_str     0x0000000000004982      0x23d ./sdk/Peripheral/ch32v30x_exti.o
                                        0x461 (size before relaxing)
 .debug_str     0x0000000000004bbf      0x2a3 ./sdk/Peripheral/ch32v30x_gpio.o
                                        0x62e (size before relaxing)
 .debug_str     0x0000000000004e62      0x678 ./sdk/Peripheral/ch32v30x_rcc.o
                                        0x995 (size before relaxing)
 .debug_str     0x00000000000054da      0x317 ./sdk/Peripheral/ch32v30x_spi.o
                                        0x714 (size before relaxing)
 .debug_str     0x00000000000057f1      0xab7 ./sdk/Peripheral/ch32v30x_tim.o
                                        0xf21 (size before relaxing)
 .debug_str     0x00000000000062a8      0x3fa ./sdk/Peripheral/ch32v30x_usart.o
                                        0x7ab (size before relaxing)
 .debug_str     0x00000000000066a2      0x5a7 ./sdk/Peripheral/ch32v30x_usbotg_device.o
                                        0xd14 (size before relaxing)
 .debug_str     0x0000000000006c49      0x25a ./sdk/Core/core_riscv.o
                                        0x435 (size before relaxing)
 .debug_str     0x0000000000006ea3       0xda ./code/Encoder.o
                                       0x104b (size before relaxing)

.comment        0x0000000000000000       0x33
 .comment       0x0000000000000000       0x33 ./zf_driver/zf_driver_delay.o
                                         0x34 (size before relaxing)
 .comment       0x0000000000000033       0x34 ./zf_driver/zf_driver_encoder.o
 .comment       0x0000000000000033       0x34 ./zf_driver/zf_driver_gpio.o
 .comment       0x0000000000000033       0x34 ./zf_driver/zf_driver_spi.o
 .comment       0x0000000000000033       0x34 ./zf_driver/zf_driver_timer.o
 .comment       0x0000000000000033       0x34 ./zf_driver/zf_driver_uart.o
 .comment       0x0000000000000033       0x34 ./zf_device/zf_device_bluetooth_ch9141.o
 .comment       0x0000000000000033       0x34 ./zf_device/zf_device_bluetooth_ch9141_ch2.o
 .comment       0x0000000000000033       0x34 ./zf_device/zf_device_camera.o
 .comment       0x0000000000000033       0x34 ./zf_device/zf_device_ips114.o
 .comment       0x0000000000000033       0x34 ./zf_device/zf_device_mt9v03x_dvp.o
 .comment       0x0000000000000033       0x34 ./zf_device/zf_device_scc8660_dvp.o
 .comment       0x0000000000000033       0x34 ./zf_device/zf_device_type.o
 .comment       0x0000000000000033       0x34 ./zf_device/zf_device_wireless_uart.o
 .comment       0x0000000000000033       0x34 ./zf_common/zf_common_clock.o
 .comment       0x0000000000000033       0x34 ./zf_common/zf_common_debug.o
 .comment       0x0000000000000033       0x34 ./zf_common/zf_common_fifo.o
 .comment       0x0000000000000033       0x34 ./zf_common/zf_common_font.o
 .comment       0x0000000000000033       0x34 ./zf_common/zf_common_function.o
 .comment       0x0000000000000033       0x34 ./zf_common/zf_common_interrupt.o
 .comment       0x0000000000000033       0x34 ./user_c/isr.o
 .comment       0x0000000000000033       0x34 ./user_c/main.o
 .comment       0x0000000000000033       0x34 ./sdk/Startup/system_ch32v30x.o
 .comment       0x0000000000000033       0x34 ./sdk/Peripheral/ch32v30x_exti.o
 .comment       0x0000000000000033       0x34 ./sdk/Peripheral/ch32v30x_gpio.o
 .comment       0x0000000000000033       0x34 ./sdk/Peripheral/ch32v30x_rcc.o
 .comment       0x0000000000000033       0x34 ./sdk/Peripheral/ch32v30x_spi.o
 .comment       0x0000000000000033       0x34 ./sdk/Peripheral/ch32v30x_tim.o
 .comment       0x0000000000000033       0x34 ./sdk/Peripheral/ch32v30x_usart.o
 .comment       0x0000000000000033       0x34 ./sdk/Peripheral/ch32v30x_usbotg_device.o
 .comment       0x0000000000000033       0x34 ./sdk/Core/core_riscv.o
 .comment       0x0000000000000033       0x34 ./code/Encoder.o

.debug_frame    0x0000000000000000     0x53bc
 .debug_frame   0x0000000000000000       0x30 ./zf_driver/zf_driver_delay.o
 .debug_frame   0x0000000000000030       0xc8 ./zf_driver/zf_driver_encoder.o
 .debug_frame   0x00000000000000f8       0x98 ./zf_driver/zf_driver_gpio.o
 .debug_frame   0x0000000000000190      0x2b8 ./zf_driver/zf_driver_spi.o
 .debug_frame   0x0000000000000448       0xbc ./zf_driver/zf_driver_timer.o
 .debug_frame   0x0000000000000504      0x174 ./zf_driver/zf_driver_uart.o
 .debug_frame   0x0000000000000678      0x320 ./zf_device/zf_device_bluetooth_ch9141.o
 .debug_frame   0x0000000000000998      0x320 ./zf_device/zf_device_bluetooth_ch9141_ch2.o
 .debug_frame   0x0000000000000cb8       0xdc ./zf_device/zf_device_camera.o
 .debug_frame   0x0000000000000d94      0x330 ./zf_device/zf_device_ips114.o
 .debug_frame   0x00000000000010c4      0x17c ./zf_device/zf_device_mt9v03x_dvp.o
 .debug_frame   0x0000000000001240      0x244 ./zf_device/zf_device_scc8660_dvp.o
 .debug_frame   0x0000000000001484       0x50 ./zf_device/zf_device_type.o
 .debug_frame   0x00000000000014d4       0xb4 ./zf_device/zf_device_wireless_uart.o
 .debug_frame   0x0000000000001588       0x78 ./zf_common/zf_common_clock.o
 .debug_frame   0x0000000000001600      0x108 ./zf_common/zf_common_debug.o
 .debug_frame   0x0000000000001708      0x104 ./zf_common/zf_common_fifo.o
 .debug_frame   0x000000000000180c      0x190 ./zf_common/zf_common_function.o
 .debug_frame   0x000000000000199c      0x144 ./zf_common/zf_common_interrupt.o
 .debug_frame   0x0000000000001ae0      0x38c ./user_c/isr.o
 .debug_frame   0x0000000000001e6c       0x2c ./user_c/main.o
 .debug_frame   0x0000000000001e98       0xa0 ./sdk/Startup/system_ch32v30x.o
 .debug_frame   0x0000000000001f38      0x114 ./sdk/Peripheral/ch32v30x_exti.o
 .debug_frame   0x000000000000204c      0x264 ./sdk/Peripheral/ch32v30x_gpio.o
 .debug_frame   0x00000000000022b0      0x658 ./sdk/Peripheral/ch32v30x_rcc.o
 .debug_frame   0x0000000000002908      0x2fc ./sdk/Peripheral/ch32v30x_spi.o
 .debug_frame   0x0000000000002c04      0xbbc ./sdk/Peripheral/ch32v30x_tim.o
 .debug_frame   0x00000000000037c0      0x3bc ./sdk/Peripheral/ch32v30x_usart.o
 .debug_frame   0x0000000000003b7c      0x100 ./sdk/Peripheral/ch32v30x_usbotg_device.o
 .debug_frame   0x0000000000003c7c      0x490 ./sdk/Core/core_riscv.o
 .debug_frame   0x000000000000410c       0xc4 ./code/Encoder.o
 .debug_frame   0x00000000000041d0       0x44 d:/ide/mounriver/mounriver_studio/toolchain/risc-v embedded gcc/bin/../lib/gcc/riscv-none-embed/8.2.0/rv32imac/ilp32\libgcc.a(adddf3.o)
 .debug_frame   0x0000000000004214       0x20 d:/ide/mounriver/mounriver_studio/toolchain/risc-v embedded gcc/bin/../lib/gcc/riscv-none-embed/8.2.0/rv32imac/ilp32\libgcc.a(eqdf2.o)
 .debug_frame   0x0000000000004234       0x20 d:/ide/mounriver/mounriver_studio/toolchain/risc-v embedded gcc/bin/../lib/gcc/riscv-none-embed/8.2.0/rv32imac/ilp32\libgcc.a(gedf2.o)
 .debug_frame   0x0000000000004254       0x20 d:/ide/mounriver/mounriver_studio/toolchain/risc-v embedded gcc/bin/../lib/gcc/riscv-none-embed/8.2.0/rv32imac/ilp32\libgcc.a(ledf2.o)
 .debug_frame   0x0000000000004274       0x54 d:/ide/mounriver/mounriver_studio/toolchain/risc-v embedded gcc/bin/../lib/gcc/riscv-none-embed/8.2.0/rv32imac/ilp32\libgcc.a(muldf3.o)
 .debug_frame   0x00000000000042c8       0x44 d:/ide/mounriver/mounriver_studio/toolchain/risc-v embedded gcc/bin/../lib/gcc/riscv-none-embed/8.2.0/rv32imac/ilp32\libgcc.a(subdf3.o)
 .debug_frame   0x000000000000430c       0x20 d:/ide/mounriver/mounriver_studio/toolchain/risc-v embedded gcc/bin/../lib/gcc/riscv-none-embed/8.2.0/rv32imac/ilp32\libgcc.a(fixdfsi.o)
 .debug_frame   0x000000000000432c       0x38 d:/ide/mounriver/mounriver_studio/toolchain/risc-v embedded gcc/bin/../lib/gcc/riscv-none-embed/8.2.0/rv32imac/ilp32\libgcc.a(floatsidf.o)
 .debug_frame   0x0000000000004364       0x38 d:/ide/mounriver/mounriver_studio/toolchain/risc-v embedded gcc/bin/../lib/gcc/riscv-none-embed/8.2.0/rv32imac/ilp32\libgcc.a(floatsisf.o)
 .debug_frame   0x000000000000439c       0x38 d:/ide/mounriver/mounriver_studio/toolchain/risc-v embedded gcc/bin/../lib/gcc/riscv-none-embed/8.2.0/rv32imac/ilp32\libgcc.a(extendsfdf2.o)
 .debug_frame   0x00000000000043d4       0x20 d:/ide/mounriver/mounriver_studio/toolchain/risc-v embedded gcc/bin/../lib/gcc/riscv-none-embed/8.2.0/rv32imac/ilp32\libgcc.a(_clzsi2.o)
 .debug_frame   0x00000000000043f4       0x20 d:/ide/mounriver/mounriver_studio/toolchain/risc-v embedded gcc/bin/../lib/gcc/riscv-none-embed/8.2.0/../../../../riscv-none-embed/lib/rv32imac/ilp32\libg_nano.a(lib_a-memcpy.o)
 .debug_frame   0x0000000000004414       0xbc d:/ide/mounriver/mounriver_studio/toolchain/risc-v embedded gcc/bin/../lib/gcc/riscv-none-embed/8.2.0/../../../../riscv-none-embed/lib/rv32imac/ilp32\libg_nano.a(lib_a-nano-vfprintf_float.o)
 .debug_frame   0x00000000000044d0       0x8c d:/ide/mounriver/mounriver_studio/toolchain/risc-v embedded gcc/bin/../lib/gcc/riscv-none-embed/8.2.0/../../../../riscv-none-embed/lib/rv32imac/ilp32\libg_nano.a(lib_a-nano-vfprintf_i.o)
 .debug_frame   0x000000000000455c       0x54 d:/ide/mounriver/mounriver_studio/toolchain/risc-v embedded gcc/bin/../lib/gcc/riscv-none-embed/8.2.0/../../../../riscv-none-embed/lib/rv32imac/ilp32\libg_nano.a(lib_a-printf.o)
 .debug_frame   0x00000000000045b0       0x20 d:/ide/mounriver/mounriver_studio/toolchain/risc-v embedded gcc/bin/../lib/gcc/riscv-none-embed/8.2.0/../../../../riscv-none-embed/lib/rv32imac/ilp32\libg_nano.a(lib_a-strlen.o)
 .debug_frame   0x00000000000045d0       0x20 d:/ide/mounriver/mounriver_studio/toolchain/risc-v embedded gcc/bin/../lib/gcc/riscv-none-embed/8.2.0/../../../../riscv-none-embed/lib/rv32imac/ilp32\libg_nano.a(lib_a-strncmp.o)
 .debug_frame   0x00000000000045f0       0x50 d:/ide/mounriver/mounriver_studio/toolchain/risc-v embedded gcc/bin/../lib/gcc/riscv-none-embed/8.2.0/../../../../riscv-none-embed/lib/rv32imac/ilp32\libg_nano.a(lib_a-wbuf.o)
 .debug_frame   0x0000000000004640       0x3c d:/ide/mounriver/mounriver_studio/toolchain/risc-v embedded gcc/bin/../lib/gcc/riscv-none-embed/8.2.0/../../../../riscv-none-embed/lib/rv32imac/ilp32\libg_nano.a(lib_a-wsetup.o)
 .debug_frame   0x000000000000467c       0x98 d:/ide/mounriver/mounriver_studio/toolchain/risc-v embedded gcc/bin/../lib/gcc/riscv-none-embed/8.2.0/../../../../riscv-none-embed/lib/rv32imac/ilp32\libg_nano.a(lib_a-dtoa.o)
 .debug_frame   0x0000000000004714       0x7c d:/ide/mounriver/mounriver_studio/toolchain/risc-v embedded gcc/bin/../lib/gcc/riscv-none-embed/8.2.0/../../../../riscv-none-embed/lib/rv32imac/ilp32\libg_nano.a(lib_a-fflush.o)
 .debug_frame   0x0000000000004790      0x148 d:/ide/mounriver/mounriver_studio/toolchain/risc-v embedded gcc/bin/../lib/gcc/riscv-none-embed/8.2.0/../../../../riscv-none-embed/lib/rv32imac/ilp32\libg_nano.a(lib_a-findfp.o)
 .debug_frame   0x00000000000048d8       0x88 d:/ide/mounriver/mounriver_studio/toolchain/risc-v embedded gcc/bin/../lib/gcc/riscv-none-embed/8.2.0/../../../../riscv-none-embed/lib/rv32imac/ilp32\libg_nano.a(lib_a-fwalk.o)
 .debug_frame   0x0000000000004960       0x40 d:/ide/mounriver/mounriver_studio/toolchain/risc-v embedded gcc/bin/../lib/gcc/riscv-none-embed/8.2.0/../../../../riscv-none-embed/lib/rv32imac/ilp32\libg_nano.a(lib_a-localeconv.o)
 .debug_frame   0x00000000000049a0       0x64 d:/ide/mounriver/mounriver_studio/toolchain/risc-v embedded gcc/bin/../lib/gcc/riscv-none-embed/8.2.0/../../../../riscv-none-embed/lib/rv32imac/ilp32\libg_nano.a(lib_a-makebuf.o)
 .debug_frame   0x0000000000004a04       0x30 d:/ide/mounriver/mounriver_studio/toolchain/risc-v embedded gcc/bin/../lib/gcc/riscv-none-embed/8.2.0/../../../../riscv-none-embed/lib/rv32imac/ilp32\libg_nano.a(lib_a-malloc.o)
 .debug_frame   0x0000000000004a34       0x20 d:/ide/mounriver/mounriver_studio/toolchain/risc-v embedded gcc/bin/../lib/gcc/riscv-none-embed/8.2.0/../../../../riscv-none-embed/lib/rv32imac/ilp32\libg_nano.a(lib_a-memchr.o)
 .debug_frame   0x0000000000004a54      0x2e0 d:/ide/mounriver/mounriver_studio/toolchain/risc-v embedded gcc/bin/../lib/gcc/riscv-none-embed/8.2.0/../../../../riscv-none-embed/lib/rv32imac/ilp32\libg_nano.a(lib_a-mprec.o)
 .debug_frame   0x0000000000004d34       0x30 d:/ide/mounriver/mounriver_studio/toolchain/risc-v embedded gcc/bin/../lib/gcc/riscv-none-embed/8.2.0/../../../../riscv-none-embed/lib/rv32imac/ilp32\libg_nano.a(lib_a-nano-callocr.o)
 .debug_frame   0x0000000000004d64       0x40 d:/ide/mounriver/mounriver_studio/toolchain/risc-v embedded gcc/bin/../lib/gcc/riscv-none-embed/8.2.0/../../../../riscv-none-embed/lib/rv32imac/ilp32\libg_nano.a(lib_a-nano-freer.o)
 .debug_frame   0x0000000000004da4       0x40 d:/ide/mounriver/mounriver_studio/toolchain/risc-v embedded gcc/bin/../lib/gcc/riscv-none-embed/8.2.0/../../../../riscv-none-embed/lib/rv32imac/ilp32\libg_nano.a(lib_a-nano-mallocr.o)
 .debug_frame   0x0000000000004de4       0xd0 d:/ide/mounriver/mounriver_studio/toolchain/risc-v embedded gcc/bin/../lib/gcc/riscv-none-embed/8.2.0/../../../../riscv-none-embed/lib/rv32imac/ilp32\libg_nano.a(lib_a-nano-vfprintf.o)
 .debug_frame   0x0000000000004eb4       0x30 d:/ide/mounriver/mounriver_studio/toolchain/risc-v embedded gcc/bin/../lib/gcc/riscv-none-embed/8.2.0/../../../../riscv-none-embed/lib/rv32imac/ilp32\libg_nano.a(lib_a-sbrkr.o)
 .debug_frame   0x0000000000004ee4       0xa4 d:/ide/mounriver/mounriver_studio/toolchain/risc-v embedded gcc/bin/../lib/gcc/riscv-none-embed/8.2.0/../../../../riscv-none-embed/lib/rv32imac/ilp32\libg_nano.a(lib_a-stdio.o)
 .debug_frame   0x0000000000004f88       0x30 d:/ide/mounriver/mounriver_studio/toolchain/risc-v embedded gcc/bin/../lib/gcc/riscv-none-embed/8.2.0/../../../../riscv-none-embed/lib/rv32imac/ilp32\libg_nano.a(lib_a-writer.o)
 .debug_frame   0x0000000000004fb8       0x30 d:/ide/mounriver/mounriver_studio/toolchain/risc-v embedded gcc/bin/../lib/gcc/riscv-none-embed/8.2.0/../../../../riscv-none-embed/lib/rv32imac/ilp32\libg_nano.a(lib_a-closer.o)
 .debug_frame   0x0000000000004fe8       0x30 d:/ide/mounriver/mounriver_studio/toolchain/risc-v embedded gcc/bin/../lib/gcc/riscv-none-embed/8.2.0/../../../../riscv-none-embed/lib/rv32imac/ilp32\libg_nano.a(lib_a-fstatr.o)
 .debug_frame   0x0000000000005018       0x30 d:/ide/mounriver/mounriver_studio/toolchain/risc-v embedded gcc/bin/../lib/gcc/riscv-none-embed/8.2.0/../../../../riscv-none-embed/lib/rv32imac/ilp32\libg_nano.a(lib_a-isattyr.o)
 .debug_frame   0x0000000000005048       0x78 d:/ide/mounriver/mounriver_studio/toolchain/risc-v embedded gcc/bin/../lib/gcc/riscv-none-embed/8.2.0/../../../../riscv-none-embed/lib/rv32imac/ilp32\libg_nano.a(lib_a-locale.o)
 .debug_frame   0x00000000000050c0       0x30 d:/ide/mounriver/mounriver_studio/toolchain/risc-v embedded gcc/bin/../lib/gcc/riscv-none-embed/8.2.0/../../../../riscv-none-embed/lib/rv32imac/ilp32\libg_nano.a(lib_a-lseekr.o)
 .debug_frame   0x00000000000050f0       0x38 d:/ide/mounriver/mounriver_studio/toolchain/risc-v embedded gcc/bin/../lib/gcc/riscv-none-embed/8.2.0/../../../../riscv-none-embed/lib/rv32imac/ilp32\libg_nano.a(lib_a-mbtowc_r.o)
 .debug_frame   0x0000000000005128       0x30 d:/ide/mounriver/mounriver_studio/toolchain/risc-v embedded gcc/bin/../lib/gcc/riscv-none-embed/8.2.0/../../../../riscv-none-embed/lib/rv32imac/ilp32\libg_nano.a(lib_a-mlock.o)
 .debug_frame   0x0000000000005158       0x30 d:/ide/mounriver/mounriver_studio/toolchain/risc-v embedded gcc/bin/../lib/gcc/riscv-none-embed/8.2.0/../../../../riscv-none-embed/lib/rv32imac/ilp32\libg_nano.a(lib_a-readr.o)
 .debug_frame   0x0000000000005188       0x70 d:/ide/mounriver/mounriver_studio/toolchain/risc-v embedded gcc/bin/../lib/gcc/riscv-none-embed/8.2.0/../../../../riscv-none-embed/lib/rv32imac/ilp32\libg_nano.a(lib_a-reent.o)
 .debug_frame   0x00000000000051f8       0x30 d:/ide/mounriver/mounriver_studio/toolchain/risc-v embedded gcc/bin/../lib/gcc/riscv-none-embed/8.2.0/../../../../riscv-none-embed/lib/rv32imac/ilp32\libg_nano.a(lib_a-wctomb_r.o)
 .debug_frame   0x0000000000005228       0x50 d:/ide/mounriver/mounriver_studio/toolchain/risc-v embedded gcc/bin/../lib/gcc/riscv-none-embed/8.2.0/rv32imac/ilp32\libgcc.a(divdf3.o)
 .debug_frame   0x0000000000005278       0x20 d:/ide/mounriver/mounriver_studio/toolchain/risc-v embedded gcc/bin/../lib/gcc/riscv-none-embed/8.2.0/rv32imac/ilp32\libgcc.a(unorddf2.o)
 .debug_frame   0x0000000000005298       0x38 d:/ide/mounriver/mounriver_studio/toolchain/risc-v embedded gcc/bin/../lib/gcc/riscv-none-embed/8.2.0/rv32imac/ilp32\libgcc.a(floatunsidf.o)
 .debug_frame   0x00000000000052d0       0x2c d:/ide/mounriver/mounriver_studio/toolchain/risc-v embedded gcc/bin/../lib/gcc/riscv-none-embed/8.2.0/rv32imac/ilp32\libgcc.a(trunctfdf2.o)
 .debug_frame   0x00000000000052fc       0x20 d:/ide/mounriver/mounriver_studio/toolchain/risc-v embedded gcc/bin/../lib/gcc/riscv-none-embed/8.2.0/../../../../riscv-none-embed/lib/rv32imac/ilp32\libnosys.a(close.o)
 .debug_frame   0x000000000000531c       0x20 d:/ide/mounriver/mounriver_studio/toolchain/risc-v embedded gcc/bin/../lib/gcc/riscv-none-embed/8.2.0/../../../../riscv-none-embed/lib/rv32imac/ilp32\libnosys.a(fstat.o)
 .debug_frame   0x000000000000533c       0x20 d:/ide/mounriver/mounriver_studio/toolchain/risc-v embedded gcc/bin/../lib/gcc/riscv-none-embed/8.2.0/../../../../riscv-none-embed/lib/rv32imac/ilp32\libnosys.a(isatty.o)
 .debug_frame   0x000000000000535c       0x20 d:/ide/mounriver/mounriver_studio/toolchain/risc-v embedded gcc/bin/../lib/gcc/riscv-none-embed/8.2.0/../../../../riscv-none-embed/lib/rv32imac/ilp32\libnosys.a(lseek.o)
 .debug_frame   0x000000000000537c       0x20 d:/ide/mounriver/mounriver_studio/toolchain/risc-v embedded gcc/bin/../lib/gcc/riscv-none-embed/8.2.0/../../../../riscv-none-embed/lib/rv32imac/ilp32\libnosys.a(read.o)
 .debug_frame   0x000000000000539c       0x20 d:/ide/mounriver/mounriver_studio/toolchain/risc-v embedded gcc/bin/../lib/gcc/riscv-none-embed/8.2.0/../../../../riscv-none-embed/lib/rv32imac/ilp32\libnosys.a(sbrk.o)

.stab           0x0000000000000000       0x84
 .stab          0x0000000000000000       0x24 d:/ide/mounriver/mounriver_studio/toolchain/risc-v embedded gcc/bin/../lib/gcc/riscv-none-embed/8.2.0/../../../../riscv-none-embed/lib/rv32imac/ilp32\libnosys.a(close.o)
 .stab          0x0000000000000024       0x18 d:/ide/mounriver/mounriver_studio/toolchain/risc-v embedded gcc/bin/../lib/gcc/riscv-none-embed/8.2.0/../../../../riscv-none-embed/lib/rv32imac/ilp32\libnosys.a(fstat.o)
                                         0x24 (size before relaxing)
 .stab          0x000000000000003c       0x18 d:/ide/mounriver/mounriver_studio/toolchain/risc-v embedded gcc/bin/../lib/gcc/riscv-none-embed/8.2.0/../../../../riscv-none-embed/lib/rv32imac/ilp32\libnosys.a(isatty.o)
                                         0x24 (size before relaxing)
 .stab          0x0000000000000054       0x18 d:/ide/mounriver/mounriver_studio/toolchain/risc-v embedded gcc/bin/../lib/gcc/riscv-none-embed/8.2.0/../../../../riscv-none-embed/lib/rv32imac/ilp32\libnosys.a(lseek.o)
                                         0x24 (size before relaxing)
 .stab          0x000000000000006c       0x18 d:/ide/mounriver/mounriver_studio/toolchain/risc-v embedded gcc/bin/../lib/gcc/riscv-none-embed/8.2.0/../../../../riscv-none-embed/lib/rv32imac/ilp32\libnosys.a(read.o)
                                         0x24 (size before relaxing)

.stabstr        0x0000000000000000      0x117
 .stabstr       0x0000000000000000      0x117 d:/ide/mounriver/mounriver_studio/toolchain/risc-v embedded gcc/bin/../lib/gcc/riscv-none-embed/8.2.0/../../../../riscv-none-embed/lib/rv32imac/ilp32\libnosys.a(close.o)
