Archive member included to satisfy reference by file (symbol)

d:/ide/mounriver/mounriver_studio/toolchain/risc-v embedded gcc/bin/../lib/gcc/riscv-none-embed/8.2.0/rv32imac/ilp32\libgcc.a(adddf3.o)
                              ./zf_device/zf_device_oled.o (__adddf3)
d:/ide/mounriver/mounriver_studio/toolchain/risc-v embedded gcc/bin/../lib/gcc/riscv-none-embed/8.2.0/rv32imac/ilp32\libgcc.a(divdf3.o)
                              ./code/Board_Common.o (__divdf3)
d:/ide/mounriver/mounriver_studio/toolchain/risc-v embedded gcc/bin/../lib/gcc/riscv-none-embed/8.2.0/rv32imac/ilp32\libgcc.a(eqdf2.o)
                              ./zf_common/zf_common_function.o (__nedf2)
d:/ide/mounriver/mounriver_studio/toolchain/risc-v embedded gcc/bin/../lib/gcc/riscv-none-embed/8.2.0/rv32imac/ilp32\libgcc.a(gedf2.o)
                              ./zf_device/zf_device_oled.o (__gtdf2)
d:/ide/mounriver/mounriver_studio/toolchain/risc-v embedded gcc/bin/../lib/gcc/riscv-none-embed/8.2.0/rv32imac/ilp32\libgcc.a(ledf2.o)
                              ./zf_device/zf_device_ips114.o (__ltdf2)
d:/ide/mounriver/mounriver_studio/toolchain/risc-v embedded gcc/bin/../lib/gcc/riscv-none-embed/8.2.0/rv32imac/ilp32\libgcc.a(muldf3.o)
                              ./zf_device/zf_device_oled.o (__muldf3)
d:/ide/mounriver/mounriver_studio/toolchain/risc-v embedded gcc/bin/../lib/gcc/riscv-none-embed/8.2.0/rv32imac/ilp32\libgcc.a(subdf3.o)
                              ./zf_device/zf_device_oled.o (__subdf3)
d:/ide/mounriver/mounriver_studio/toolchain/risc-v embedded gcc/bin/../lib/gcc/riscv-none-embed/8.2.0/rv32imac/ilp32\libgcc.a(fixdfsi.o)
                              ./zf_common/zf_common_function.o (__fixdfsi)
d:/ide/mounriver/mounriver_studio/toolchain/risc-v embedded gcc/bin/../lib/gcc/riscv-none-embed/8.2.0/rv32imac/ilp32\libgcc.a(fixunsdfsi.o)
                              ./zf_device/zf_device_oled.o (__fixunsdfsi)
d:/ide/mounriver/mounriver_studio/toolchain/risc-v embedded gcc/bin/../lib/gcc/riscv-none-embed/8.2.0/rv32imac/ilp32\libgcc.a(floatsidf.o)
                              ./zf_common/zf_common_function.o (__floatsidf)
d:/ide/mounriver/mounriver_studio/toolchain/risc-v embedded gcc/bin/../lib/gcc/riscv-none-embed/8.2.0/rv32imac/ilp32\libgcc.a(addsf3.o)
                              ./zf_common/zf_common_function.o (__addsf3)
d:/ide/mounriver/mounriver_studio/toolchain/risc-v embedded gcc/bin/../lib/gcc/riscv-none-embed/8.2.0/rv32imac/ilp32\libgcc.a(divsf3.o)
                              ./zf_common/zf_common_function.o (__divsf3)
d:/ide/mounriver/mounriver_studio/toolchain/risc-v embedded gcc/bin/../lib/gcc/riscv-none-embed/8.2.0/rv32imac/ilp32\libgcc.a(eqsf2.o)
                              ./zf_common/zf_common_function.o (__eqsf2)
d:/ide/mounriver/mounriver_studio/toolchain/risc-v embedded gcc/bin/../lib/gcc/riscv-none-embed/8.2.0/rv32imac/ilp32\libgcc.a(lesf2.o)
                              ./zf_common/zf_common_function.o (__ltsf2)
d:/ide/mounriver/mounriver_studio/toolchain/risc-v embedded gcc/bin/../lib/gcc/riscv-none-embed/8.2.0/rv32imac/ilp32\libgcc.a(mulsf3.o)
                              ./zf_common/zf_common_function.o (__mulsf3)
d:/ide/mounriver/mounriver_studio/toolchain/risc-v embedded gcc/bin/../lib/gcc/riscv-none-embed/8.2.0/rv32imac/ilp32\libgcc.a(subsf3.o)
                              ./zf_common/zf_common_function.o (__subsf3)
d:/ide/mounriver/mounriver_studio/toolchain/risc-v embedded gcc/bin/../lib/gcc/riscv-none-embed/8.2.0/rv32imac/ilp32\libgcc.a(fixsfsi.o)
                              ./zf_common/zf_common_function.o (__fixsfsi)
d:/ide/mounriver/mounriver_studio/toolchain/risc-v embedded gcc/bin/../lib/gcc/riscv-none-embed/8.2.0/rv32imac/ilp32\libgcc.a(floatsisf.o)
                              ./zf_common/zf_common_function.o (__floatsisf)
d:/ide/mounriver/mounriver_studio/toolchain/risc-v embedded gcc/bin/../lib/gcc/riscv-none-embed/8.2.0/rv32imac/ilp32\libgcc.a(extendsfdf2.o)
                              ./user_c/main.o (__extendsfdf2)
d:/ide/mounriver/mounriver_studio/toolchain/risc-v embedded gcc/bin/../lib/gcc/riscv-none-embed/8.2.0/rv32imac/ilp32\libgcc.a(_clzsi2.o)
                              d:/ide/mounriver/mounriver_studio/toolchain/risc-v embedded gcc/bin/../lib/gcc/riscv-none-embed/8.2.0/rv32imac/ilp32\libgcc.a(adddf3.o) (__clzsi2)
d:/ide/mounriver/mounriver_studio/toolchain/risc-v embedded gcc/bin/../lib/gcc/riscv-none-embed/8.2.0/rv32imac/ilp32\libgcc.a(_clz.o)
                              d:/ide/mounriver/mounriver_studio/toolchain/risc-v embedded gcc/bin/../lib/gcc/riscv-none-embed/8.2.0/rv32imac/ilp32\libgcc.a(_clzsi2.o) (__clz_tab)
d:/ide/mounriver/mounriver_studio/toolchain/risc-v embedded gcc/bin/../lib/gcc/riscv-none-embed/8.2.0/../../../../riscv-none-embed/lib/rv32imac/ilp32\libg_nano.a(lib_a-memcpy.o)
                              ./zf_device/zf_device_bluetooth_ch9141.o (memcpy)
d:/ide/mounriver/mounriver_studio/toolchain/risc-v embedded gcc/bin/../lib/gcc/riscv-none-embed/8.2.0/../../../../riscv-none-embed/lib/rv32imac/ilp32\libg_nano.a(lib_a-memset.o)
                              ./zf_device/zf_device_bluetooth_ch9141.o (memset)
d:/ide/mounriver/mounriver_studio/toolchain/risc-v embedded gcc/bin/../lib/gcc/riscv-none-embed/8.2.0/../../../../riscv-none-embed/lib/rv32imac/ilp32\libg_nano.a(lib_a-nano-vfprintf_float.o)
                              (_printf_float)
d:/ide/mounriver/mounriver_studio/toolchain/risc-v embedded gcc/bin/../lib/gcc/riscv-none-embed/8.2.0/../../../../riscv-none-embed/lib/rv32imac/ilp32\libg_nano.a(lib_a-nano-vfprintf_i.o)
                              d:/ide/mounriver/mounriver_studio/toolchain/risc-v embedded gcc/bin/../lib/gcc/riscv-none-embed/8.2.0/../../../../riscv-none-embed/lib/rv32imac/ilp32\libg_nano.a(lib_a-nano-vfprintf_float.o) (_printf_common)
d:/ide/mounriver/mounriver_studio/toolchain/risc-v embedded gcc/bin/../lib/gcc/riscv-none-embed/8.2.0/../../../../riscv-none-embed/lib/rv32imac/ilp32\libg_nano.a(lib_a-printf.o)
                              ./zf_common/zf_common_debug.o (printf)
d:/ide/mounriver/mounriver_studio/toolchain/risc-v embedded gcc/bin/../lib/gcc/riscv-none-embed/8.2.0/../../../../riscv-none-embed/lib/rv32imac/ilp32\libg_nano.a(lib_a-puts.o)
                              ./sdk/Peripheral/ch32v30x_eth.o (puts)
d:/ide/mounriver/mounriver_studio/toolchain/risc-v embedded gcc/bin/../lib/gcc/riscv-none-embed/8.2.0/../../../../riscv-none-embed/lib/rv32imac/ilp32\libg_nano.a(lib_a-strlen.o)
                              ./zf_device/zf_device_bluetooth_ch9141.o (strlen)
d:/ide/mounriver/mounriver_studio/toolchain/risc-v embedded gcc/bin/../lib/gcc/riscv-none-embed/8.2.0/../../../../riscv-none-embed/lib/rv32imac/ilp32\libg_nano.a(lib_a-strncmp.o)
                              ./zf_device/zf_device_bluetooth_ch9141.o (strncmp)
d:/ide/mounriver/mounriver_studio/toolchain/risc-v embedded gcc/bin/../lib/gcc/riscv-none-embed/8.2.0/../../../../riscv-none-embed/lib/rv32imac/ilp32\libg_nano.a(lib_a-wbuf.o)
                              d:/ide/mounriver/mounriver_studio/toolchain/risc-v embedded gcc/bin/../lib/gcc/riscv-none-embed/8.2.0/../../../../riscv-none-embed/lib/rv32imac/ilp32\libg_nano.a(lib_a-puts.o) (__swbuf_r)
d:/ide/mounriver/mounriver_studio/toolchain/risc-v embedded gcc/bin/../lib/gcc/riscv-none-embed/8.2.0/../../../../riscv-none-embed/lib/rv32imac/ilp32\libg_nano.a(lib_a-wsetup.o)
                              d:/ide/mounriver/mounriver_studio/toolchain/risc-v embedded gcc/bin/../lib/gcc/riscv-none-embed/8.2.0/../../../../riscv-none-embed/lib/rv32imac/ilp32\libg_nano.a(lib_a-puts.o) (__swsetup_r)
d:/ide/mounriver/mounriver_studio/toolchain/risc-v embedded gcc/bin/../lib/gcc/riscv-none-embed/8.2.0/../../../../riscv-none-embed/lib/rv32imac/ilp32\libg_nano.a(lib_a-dtoa.o)
                              d:/ide/mounriver/mounriver_studio/toolchain/risc-v embedded gcc/bin/../lib/gcc/riscv-none-embed/8.2.0/../../../../riscv-none-embed/lib/rv32imac/ilp32\libg_nano.a(lib_a-nano-vfprintf_float.o) (_dtoa_r)
d:/ide/mounriver/mounriver_studio/toolchain/risc-v embedded gcc/bin/../lib/gcc/riscv-none-embed/8.2.0/../../../../riscv-none-embed/lib/rv32imac/ilp32\libg_nano.a(lib_a-fflush.o)
                              d:/ide/mounriver/mounriver_studio/toolchain/risc-v embedded gcc/bin/../lib/gcc/riscv-none-embed/8.2.0/../../../../riscv-none-embed/lib/rv32imac/ilp32\libg_nano.a(lib_a-wbuf.o) (_fflush_r)
d:/ide/mounriver/mounriver_studio/toolchain/risc-v embedded gcc/bin/../lib/gcc/riscv-none-embed/8.2.0/../../../../riscv-none-embed/lib/rv32imac/ilp32\libg_nano.a(lib_a-findfp.o)
                              d:/ide/mounriver/mounriver_studio/toolchain/risc-v embedded gcc/bin/../lib/gcc/riscv-none-embed/8.2.0/../../../../riscv-none-embed/lib/rv32imac/ilp32\libg_nano.a(lib_a-printf.o) (__sinit)
d:/ide/mounriver/mounriver_studio/toolchain/risc-v embedded gcc/bin/../lib/gcc/riscv-none-embed/8.2.0/../../../../riscv-none-embed/lib/rv32imac/ilp32\libg_nano.a(lib_a-fwalk.o)
                              d:/ide/mounriver/mounriver_studio/toolchain/risc-v embedded gcc/bin/../lib/gcc/riscv-none-embed/8.2.0/../../../../riscv-none-embed/lib/rv32imac/ilp32\libg_nano.a(lib_a-findfp.o) (_fwalk)
d:/ide/mounriver/mounriver_studio/toolchain/risc-v embedded gcc/bin/../lib/gcc/riscv-none-embed/8.2.0/../../../../riscv-none-embed/lib/rv32imac/ilp32\libg_nano.a(lib_a-impure.o)
                              d:/ide/mounriver/mounriver_studio/toolchain/risc-v embedded gcc/bin/../lib/gcc/riscv-none-embed/8.2.0/../../../../riscv-none-embed/lib/rv32imac/ilp32\libg_nano.a(lib_a-fflush.o) (_global_impure_ptr)
d:/ide/mounriver/mounriver_studio/toolchain/risc-v embedded gcc/bin/../lib/gcc/riscv-none-embed/8.2.0/../../../../riscv-none-embed/lib/rv32imac/ilp32\libg_nano.a(lib_a-localeconv.o)
                              d:/ide/mounriver/mounriver_studio/toolchain/risc-v embedded gcc/bin/../lib/gcc/riscv-none-embed/8.2.0/../../../../riscv-none-embed/lib/rv32imac/ilp32\libg_nano.a(lib_a-nano-vfprintf_float.o) (_localeconv_r)
d:/ide/mounriver/mounriver_studio/toolchain/risc-v embedded gcc/bin/../lib/gcc/riscv-none-embed/8.2.0/../../../../riscv-none-embed/lib/rv32imac/ilp32\libg_nano.a(lib_a-makebuf.o)
                              d:/ide/mounriver/mounriver_studio/toolchain/risc-v embedded gcc/bin/../lib/gcc/riscv-none-embed/8.2.0/../../../../riscv-none-embed/lib/rv32imac/ilp32\libg_nano.a(lib_a-wsetup.o) (__smakebuf_r)
d:/ide/mounriver/mounriver_studio/toolchain/risc-v embedded gcc/bin/../lib/gcc/riscv-none-embed/8.2.0/../../../../riscv-none-embed/lib/rv32imac/ilp32\libg_nano.a(lib_a-malloc.o)
                              d:/ide/mounriver/mounriver_studio/toolchain/risc-v embedded gcc/bin/../lib/gcc/riscv-none-embed/8.2.0/../../../../riscv-none-embed/lib/rv32imac/ilp32\libg_nano.a(lib_a-dtoa.o) (malloc)
d:/ide/mounriver/mounriver_studio/toolchain/risc-v embedded gcc/bin/../lib/gcc/riscv-none-embed/8.2.0/../../../../riscv-none-embed/lib/rv32imac/ilp32\libg_nano.a(lib_a-memchr.o)
                              d:/ide/mounriver/mounriver_studio/toolchain/risc-v embedded gcc/bin/../lib/gcc/riscv-none-embed/8.2.0/../../../../riscv-none-embed/lib/rv32imac/ilp32\libg_nano.a(lib_a-nano-vfprintf_i.o) (memchr)
d:/ide/mounriver/mounriver_studio/toolchain/risc-v embedded gcc/bin/../lib/gcc/riscv-none-embed/8.2.0/../../../../riscv-none-embed/lib/rv32imac/ilp32\libg_nano.a(lib_a-mprec.o)
                              d:/ide/mounriver/mounriver_studio/toolchain/risc-v embedded gcc/bin/../lib/gcc/riscv-none-embed/8.2.0/../../../../riscv-none-embed/lib/rv32imac/ilp32\libg_nano.a(lib_a-dtoa.o) (_Balloc)
d:/ide/mounriver/mounriver_studio/toolchain/risc-v embedded gcc/bin/../lib/gcc/riscv-none-embed/8.2.0/../../../../riscv-none-embed/lib/rv32imac/ilp32\libg_nano.a(lib_a-nano-callocr.o)
                              d:/ide/mounriver/mounriver_studio/toolchain/risc-v embedded gcc/bin/../lib/gcc/riscv-none-embed/8.2.0/../../../../riscv-none-embed/lib/rv32imac/ilp32\libg_nano.a(lib_a-mprec.o) (_calloc_r)
d:/ide/mounriver/mounriver_studio/toolchain/risc-v embedded gcc/bin/../lib/gcc/riscv-none-embed/8.2.0/../../../../riscv-none-embed/lib/rv32imac/ilp32\libg_nano.a(lib_a-nano-freer.o)
                              d:/ide/mounriver/mounriver_studio/toolchain/risc-v embedded gcc/bin/../lib/gcc/riscv-none-embed/8.2.0/../../../../riscv-none-embed/lib/rv32imac/ilp32\libg_nano.a(lib_a-wsetup.o) (_free_r)
d:/ide/mounriver/mounriver_studio/toolchain/risc-v embedded gcc/bin/../lib/gcc/riscv-none-embed/8.2.0/../../../../riscv-none-embed/lib/rv32imac/ilp32\libg_nano.a(lib_a-nano-mallocr.o)
                              d:/ide/mounriver/mounriver_studio/toolchain/risc-v embedded gcc/bin/../lib/gcc/riscv-none-embed/8.2.0/../../../../riscv-none-embed/lib/rv32imac/ilp32\libg_nano.a(lib_a-findfp.o) (_malloc_r)
d:/ide/mounriver/mounriver_studio/toolchain/risc-v embedded gcc/bin/../lib/gcc/riscv-none-embed/8.2.0/../../../../riscv-none-embed/lib/rv32imac/ilp32\libg_nano.a(lib_a-nano-vfprintf.o)
                              d:/ide/mounriver/mounriver_studio/toolchain/risc-v embedded gcc/bin/../lib/gcc/riscv-none-embed/8.2.0/../../../../riscv-none-embed/lib/rv32imac/ilp32\libg_nano.a(lib_a-printf.o) (_vfprintf_r)
d:/ide/mounriver/mounriver_studio/toolchain/risc-v embedded gcc/bin/../lib/gcc/riscv-none-embed/8.2.0/../../../../riscv-none-embed/lib/rv32imac/ilp32\libg_nano.a(lib_a-sbrkr.o)
                              d:/ide/mounriver/mounriver_studio/toolchain/risc-v embedded gcc/bin/../lib/gcc/riscv-none-embed/8.2.0/../../../../riscv-none-embed/lib/rv32imac/ilp32\libg_nano.a(lib_a-nano-mallocr.o) (_sbrk_r)
d:/ide/mounriver/mounriver_studio/toolchain/risc-v embedded gcc/bin/../lib/gcc/riscv-none-embed/8.2.0/../../../../riscv-none-embed/lib/rv32imac/ilp32\libg_nano.a(lib_a-stdio.o)
                              d:/ide/mounriver/mounriver_studio/toolchain/risc-v embedded gcc/bin/../lib/gcc/riscv-none-embed/8.2.0/../../../../riscv-none-embed/lib/rv32imac/ilp32\libg_nano.a(lib_a-findfp.o) (__sread)
d:/ide/mounriver/mounriver_studio/toolchain/risc-v embedded gcc/bin/../lib/gcc/riscv-none-embed/8.2.0/../../../../riscv-none-embed/lib/rv32imac/ilp32\libg_nano.a(lib_a-writer.o)
                              d:/ide/mounriver/mounriver_studio/toolchain/risc-v embedded gcc/bin/../lib/gcc/riscv-none-embed/8.2.0/../../../../riscv-none-embed/lib/rv32imac/ilp32\libg_nano.a(lib_a-stdio.o) (_write_r)
d:/ide/mounriver/mounriver_studio/toolchain/risc-v embedded gcc/bin/../lib/gcc/riscv-none-embed/8.2.0/../../../../riscv-none-embed/lib/rv32imac/ilp32\libg_nano.a(lib_a-closer.o)
                              d:/ide/mounriver/mounriver_studio/toolchain/risc-v embedded gcc/bin/../lib/gcc/riscv-none-embed/8.2.0/../../../../riscv-none-embed/lib/rv32imac/ilp32\libg_nano.a(lib_a-stdio.o) (_close_r)
d:/ide/mounriver/mounriver_studio/toolchain/risc-v embedded gcc/bin/../lib/gcc/riscv-none-embed/8.2.0/../../../../riscv-none-embed/lib/rv32imac/ilp32\libg_nano.a(lib_a-fstatr.o)
                              d:/ide/mounriver/mounriver_studio/toolchain/risc-v embedded gcc/bin/../lib/gcc/riscv-none-embed/8.2.0/../../../../riscv-none-embed/lib/rv32imac/ilp32\libg_nano.a(lib_a-makebuf.o) (_fstat_r)
d:/ide/mounriver/mounriver_studio/toolchain/risc-v embedded gcc/bin/../lib/gcc/riscv-none-embed/8.2.0/../../../../riscv-none-embed/lib/rv32imac/ilp32\libg_nano.a(lib_a-fvwrite.o)
                              d:/ide/mounriver/mounriver_studio/toolchain/risc-v embedded gcc/bin/../lib/gcc/riscv-none-embed/8.2.0/../../../../riscv-none-embed/lib/rv32imac/ilp32\libg_nano.a(lib_a-nano-vfprintf.o) (__sfvwrite_r)
d:/ide/mounriver/mounriver_studio/toolchain/risc-v embedded gcc/bin/../lib/gcc/riscv-none-embed/8.2.0/../../../../riscv-none-embed/lib/rv32imac/ilp32\libg_nano.a(lib_a-isattyr.o)
                              d:/ide/mounriver/mounriver_studio/toolchain/risc-v embedded gcc/bin/../lib/gcc/riscv-none-embed/8.2.0/../../../../riscv-none-embed/lib/rv32imac/ilp32\libg_nano.a(lib_a-makebuf.o) (_isatty_r)
d:/ide/mounriver/mounriver_studio/toolchain/risc-v embedded gcc/bin/../lib/gcc/riscv-none-embed/8.2.0/../../../../riscv-none-embed/lib/rv32imac/ilp32\libg_nano.a(lib_a-locale.o)
                              d:/ide/mounriver/mounriver_studio/toolchain/risc-v embedded gcc/bin/../lib/gcc/riscv-none-embed/8.2.0/../../../../riscv-none-embed/lib/rv32imac/ilp32\libg_nano.a(lib_a-localeconv.o) (__global_locale)
d:/ide/mounriver/mounriver_studio/toolchain/risc-v embedded gcc/bin/../lib/gcc/riscv-none-embed/8.2.0/../../../../riscv-none-embed/lib/rv32imac/ilp32\libg_nano.a(lib_a-lseekr.o)
                              d:/ide/mounriver/mounriver_studio/toolchain/risc-v embedded gcc/bin/../lib/gcc/riscv-none-embed/8.2.0/../../../../riscv-none-embed/lib/rv32imac/ilp32\libg_nano.a(lib_a-stdio.o) (_lseek_r)
d:/ide/mounriver/mounriver_studio/toolchain/risc-v embedded gcc/bin/../lib/gcc/riscv-none-embed/8.2.0/../../../../riscv-none-embed/lib/rv32imac/ilp32\libg_nano.a(lib_a-mbtowc_r.o)
                              d:/ide/mounriver/mounriver_studio/toolchain/risc-v embedded gcc/bin/../lib/gcc/riscv-none-embed/8.2.0/../../../../riscv-none-embed/lib/rv32imac/ilp32\libg_nano.a(lib_a-locale.o) (__ascii_mbtowc)
d:/ide/mounriver/mounriver_studio/toolchain/risc-v embedded gcc/bin/../lib/gcc/riscv-none-embed/8.2.0/../../../../riscv-none-embed/lib/rv32imac/ilp32\libg_nano.a(lib_a-memmove.o)
                              d:/ide/mounriver/mounriver_studio/toolchain/risc-v embedded gcc/bin/../lib/gcc/riscv-none-embed/8.2.0/../../../../riscv-none-embed/lib/rv32imac/ilp32\libg_nano.a(lib_a-fvwrite.o) (memmove)
d:/ide/mounriver/mounriver_studio/toolchain/risc-v embedded gcc/bin/../lib/gcc/riscv-none-embed/8.2.0/../../../../riscv-none-embed/lib/rv32imac/ilp32\libg_nano.a(lib_a-mlock.o)
                              d:/ide/mounriver/mounriver_studio/toolchain/risc-v embedded gcc/bin/../lib/gcc/riscv-none-embed/8.2.0/../../../../riscv-none-embed/lib/rv32imac/ilp32\libg_nano.a(lib_a-nano-freer.o) (__malloc_lock)
d:/ide/mounriver/mounriver_studio/toolchain/risc-v embedded gcc/bin/../lib/gcc/riscv-none-embed/8.2.0/../../../../riscv-none-embed/lib/rv32imac/ilp32\libg_nano.a(lib_a-nano-reallocr.o)
                              d:/ide/mounriver/mounriver_studio/toolchain/risc-v embedded gcc/bin/../lib/gcc/riscv-none-embed/8.2.0/../../../../riscv-none-embed/lib/rv32imac/ilp32\libg_nano.a(lib_a-fvwrite.o) (_realloc_r)
d:/ide/mounriver/mounriver_studio/toolchain/risc-v embedded gcc/bin/../lib/gcc/riscv-none-embed/8.2.0/../../../../riscv-none-embed/lib/rv32imac/ilp32\libg_nano.a(lib_a-readr.o)
                              d:/ide/mounriver/mounriver_studio/toolchain/risc-v embedded gcc/bin/../lib/gcc/riscv-none-embed/8.2.0/../../../../riscv-none-embed/lib/rv32imac/ilp32\libg_nano.a(lib_a-stdio.o) (_read_r)
d:/ide/mounriver/mounriver_studio/toolchain/risc-v embedded gcc/bin/../lib/gcc/riscv-none-embed/8.2.0/../../../../riscv-none-embed/lib/rv32imac/ilp32\libg_nano.a(lib_a-reent.o)
                              d:/ide/mounriver/mounriver_studio/toolchain/risc-v embedded gcc/bin/../lib/gcc/riscv-none-embed/8.2.0/../../../../riscv-none-embed/lib/rv32imac/ilp32\libg_nano.a(lib_a-sbrkr.o) (errno)
d:/ide/mounriver/mounriver_studio/toolchain/risc-v embedded gcc/bin/../lib/gcc/riscv-none-embed/8.2.0/../../../../riscv-none-embed/lib/rv32imac/ilp32\libg_nano.a(lib_a-strcmp.o)
                              d:/ide/mounriver/mounriver_studio/toolchain/risc-v embedded gcc/bin/../lib/gcc/riscv-none-embed/8.2.0/../../../../riscv-none-embed/lib/rv32imac/ilp32\libg_nano.a(lib_a-locale.o) (strcmp)
d:/ide/mounriver/mounriver_studio/toolchain/risc-v embedded gcc/bin/../lib/gcc/riscv-none-embed/8.2.0/../../../../riscv-none-embed/lib/rv32imac/ilp32\libg_nano.a(lib_a-wctomb_r.o)
                              d:/ide/mounriver/mounriver_studio/toolchain/risc-v embedded gcc/bin/../lib/gcc/riscv-none-embed/8.2.0/../../../../riscv-none-embed/lib/rv32imac/ilp32\libg_nano.a(lib_a-locale.o) (__ascii_wctomb)
d:/ide/mounriver/mounriver_studio/toolchain/risc-v embedded gcc/bin/../lib/gcc/riscv-none-embed/8.2.0/../../../../riscv-none-embed/lib/rv32imac/ilp32\libg_nano.a(lib_a-ctype_.o)
                              d:/ide/mounriver/mounriver_studio/toolchain/risc-v embedded gcc/bin/../lib/gcc/riscv-none-embed/8.2.0/../../../../riscv-none-embed/lib/rv32imac/ilp32\libg_nano.a(lib_a-locale.o) (_ctype_)
d:/ide/mounriver/mounriver_studio/toolchain/risc-v embedded gcc/bin/../lib/gcc/riscv-none-embed/8.2.0/../../../../riscv-none-embed/lib/rv32imac/ilp32\libg_nano.a(lib_a-nano-msizer.o)
                              d:/ide/mounriver/mounriver_studio/toolchain/risc-v embedded gcc/bin/../lib/gcc/riscv-none-embed/8.2.0/../../../../riscv-none-embed/lib/rv32imac/ilp32\libg_nano.a(lib_a-nano-reallocr.o) (_malloc_usable_size_r)
d:/ide/mounriver/mounriver_studio/toolchain/risc-v embedded gcc/bin/../lib/gcc/riscv-none-embed/8.2.0/rv32imac/ilp32\libgcc.a(unorddf2.o)
                              d:/ide/mounriver/mounriver_studio/toolchain/risc-v embedded gcc/bin/../lib/gcc/riscv-none-embed/8.2.0/../../../../riscv-none-embed/lib/rv32imac/ilp32\libg_nano.a(lib_a-nano-vfprintf_float.o) (__unorddf2)
d:/ide/mounriver/mounriver_studio/toolchain/risc-v embedded gcc/bin/../lib/gcc/riscv-none-embed/8.2.0/rv32imac/ilp32\libgcc.a(floatunsidf.o)
                              d:/ide/mounriver/mounriver_studio/toolchain/risc-v embedded gcc/bin/../lib/gcc/riscv-none-embed/8.2.0/../../../../riscv-none-embed/lib/rv32imac/ilp32\libg_nano.a(lib_a-dtoa.o) (__floatunsidf)
d:/ide/mounriver/mounriver_studio/toolchain/risc-v embedded gcc/bin/../lib/gcc/riscv-none-embed/8.2.0/rv32imac/ilp32\libgcc.a(trunctfdf2.o)
                              d:/ide/mounriver/mounriver_studio/toolchain/risc-v embedded gcc/bin/../lib/gcc/riscv-none-embed/8.2.0/../../../../riscv-none-embed/lib/rv32imac/ilp32\libg_nano.a(lib_a-nano-vfprintf_float.o) (__trunctfdf2)
d:/ide/mounriver/mounriver_studio/toolchain/risc-v embedded gcc/bin/../lib/gcc/riscv-none-embed/8.2.0/../../../../riscv-none-embed/lib/rv32imac/ilp32\libnosys.a(close.o)
                              d:/ide/mounriver/mounriver_studio/toolchain/risc-v embedded gcc/bin/../lib/gcc/riscv-none-embed/8.2.0/../../../../riscv-none-embed/lib/rv32imac/ilp32\libg_nano.a(lib_a-closer.o) (_close)
d:/ide/mounriver/mounriver_studio/toolchain/risc-v embedded gcc/bin/../lib/gcc/riscv-none-embed/8.2.0/../../../../riscv-none-embed/lib/rv32imac/ilp32\libnosys.a(fstat.o)
                              d:/ide/mounriver/mounriver_studio/toolchain/risc-v embedded gcc/bin/../lib/gcc/riscv-none-embed/8.2.0/../../../../riscv-none-embed/lib/rv32imac/ilp32\libg_nano.a(lib_a-fstatr.o) (_fstat)
d:/ide/mounriver/mounriver_studio/toolchain/risc-v embedded gcc/bin/../lib/gcc/riscv-none-embed/8.2.0/../../../../riscv-none-embed/lib/rv32imac/ilp32\libnosys.a(isatty.o)
                              d:/ide/mounriver/mounriver_studio/toolchain/risc-v embedded gcc/bin/../lib/gcc/riscv-none-embed/8.2.0/../../../../riscv-none-embed/lib/rv32imac/ilp32\libg_nano.a(lib_a-isattyr.o) (_isatty)
d:/ide/mounriver/mounriver_studio/toolchain/risc-v embedded gcc/bin/../lib/gcc/riscv-none-embed/8.2.0/../../../../riscv-none-embed/lib/rv32imac/ilp32\libnosys.a(lseek.o)
                              d:/ide/mounriver/mounriver_studio/toolchain/risc-v embedded gcc/bin/../lib/gcc/riscv-none-embed/8.2.0/../../../../riscv-none-embed/lib/rv32imac/ilp32\libg_nano.a(lib_a-lseekr.o) (_lseek)
d:/ide/mounriver/mounriver_studio/toolchain/risc-v embedded gcc/bin/../lib/gcc/riscv-none-embed/8.2.0/../../../../riscv-none-embed/lib/rv32imac/ilp32\libnosys.a(read.o)
                              d:/ide/mounriver/mounriver_studio/toolchain/risc-v embedded gcc/bin/../lib/gcc/riscv-none-embed/8.2.0/../../../../riscv-none-embed/lib/rv32imac/ilp32\libg_nano.a(lib_a-readr.o) (_read)
d:/ide/mounriver/mounriver_studio/toolchain/risc-v embedded gcc/bin/../lib/gcc/riscv-none-embed/8.2.0/../../../../riscv-none-embed/lib/rv32imac/ilp32\libnosys.a(sbrk.o)
                              d:/ide/mounriver/mounriver_studio/toolchain/risc-v embedded gcc/bin/../lib/gcc/riscv-none-embed/8.2.0/../../../../riscv-none-embed/lib/rv32imac/ilp32\libg_nano.a(lib_a-sbrkr.o) (_sbrk)

Allocating common symbols
Common symbol       size              file

errno               0x4               d:/ide/mounriver/mounriver_studio/toolchain/risc-v embedded gcc/bin/../lib/gcc/riscv-none-embed/8.2.0/../../../../riscv-none-embed/lib/rv32imac/ilp32\libg_nano.a(lib_a-reent.o)

Discarded input sections

 .text          0x0000000000000000        0x0 ./zf_driver/zf_driver_adc.o
 .data          0x0000000000000000        0x0 ./zf_driver/zf_driver_adc.o
 .bss           0x0000000000000000        0x0 ./zf_driver/zf_driver_adc.o
 .text.adc_convert
                0x0000000000000000       0x78 ./zf_driver/zf_driver_adc.o
 .rodata        0x0000000000000000       0x4e ./zf_driver/zf_driver_adc.o
 .text.adc_mean_filter
                0x0000000000000000       0x90 ./zf_driver/zf_driver_adc.o
 .text          0x0000000000000000        0x0 ./zf_driver/zf_driver_delay.o
 .data          0x0000000000000000        0x0 ./zf_driver/zf_driver_delay.o
 .bss           0x0000000000000000        0x0 ./zf_driver/zf_driver_delay.o
 .text          0x0000000000000000        0x0 ./zf_driver/zf_driver_dvp.o
 .data          0x0000000000000000        0x0 ./zf_driver/zf_driver_dvp.o
 .bss           0x0000000000000000        0x0 ./zf_driver/zf_driver_dvp.o
 .text          0x0000000000000000        0x0 ./zf_driver/zf_driver_encoder.o
 .data          0x0000000000000000        0x0 ./zf_driver/zf_driver_encoder.o
 .bss           0x0000000000000000        0x0 ./zf_driver/zf_driver_encoder.o
 .text.encoder_init_quad
Memory Configuration

Name             Origin             Length             Attributes
RAM              0x0000000020000000 0x0000000000010000 xrw
FLASH            0x0000000000000000 0x0000000000040000 xr
*default*        0x0000000000000000 0xffffffffffffffff

Linker script and memory map

LOAD ./zf_driver/zf_driver_adc.o
LOAD ./zf_driver/zf_driver_delay.o
LOAD ./zf_driver/zf_driver_dvp.o
LOAD ./zf_driver/zf_driver_encoder.o
LOAD ./zf_driver/zf_driver_flash.o
LOAD ./zf_driver/zf_driver_gpio.o
LOAD ./zf_driver/zf_driver_irq.o
LOAD ./zf_driver/zf_driver_pit.o
LOAD ./zf_driver/zf_driver_pwm.o
LOAD ./zf_driver/zf_driver_soft_iic.o
LOAD ./zf_driver/zf_driver_spi.o
LOAD ./zf_driver/zf_driver_timer.o
LOAD ./zf_driver/zf_driver_uart.o
LOAD ./zf_driver/zf_driver_usb_cdc.o
LOAD ./zf_device/zf_device_absolute_encoder.o
LOAD ./zf_device/zf_device_bluetooth_ch9141.o
LOAD ./zf_device/zf_device_bluetooth_ch9141_ch2.o
LOAD ./zf_device/zf_device_camera.o
LOAD ./zf_device/zf_device_icm20602.o
LOAD ./zf_device/zf_device_ips114.o
LOAD ./zf_device/zf_device_ips200_parallel8.o
LOAD ./zf_device/zf_device_mpu6050.o
LOAD ./zf_device/zf_device_mt9v03x_dvp.o
LOAD ./zf_device/zf_device_oled.o
LOAD ./zf_device/zf_device_scc8660_dvp.o
LOAD ./zf_device/zf_device_tft180.o
LOAD ./zf_device/zf_device_type.o
LOAD ./zf_device/zf_device_wireless_uart.o
LOAD ./zf_common/zf_common_clock.o
LOAD ./zf_common/zf_common_debug.o
LOAD ./zf_common/zf_common_fifo.o
LOAD ./zf_common/zf_common_font.o
LOAD ./zf_common/zf_common_function.o
LOAD ./zf_common/zf_common_interrupt.o
LOAD ./user_c/isr.o
LOAD ./user_c/main.o
LOAD ./sdk/Startup/startup_ch32v30x.o
LOAD ./sdk/Startup/system_ch32v30x.o
LOAD ./sdk/Peripheral/ch32v30x_adc.o
LOAD ./sdk/Peripheral/ch32v30x_bkp.o
LOAD ./sdk/Peripheral/ch32v30x_can.o
LOAD ./sdk/Peripheral/ch32v30x_crc.o
LOAD ./sdk/Peripheral/ch32v30x_dac.o
LOAD ./sdk/Peripheral/ch32v30x_dbgmcu.o
LOAD ./sdk/Peripheral/ch32v30x_dma.o
LOAD ./sdk/Peripheral/ch32v30x_dvp.o
LOAD ./sdk/Peripheral/ch32v30x_eth.o
LOAD ./sdk/Peripheral/ch32v30x_exti.o
LOAD ./sdk/Peripheral/ch32v30x_flash.o
LOAD ./sdk/Peripheral/ch32v30x_fsmc.o
LOAD ./sdk/Peripheral/ch32v30x_gpio.o
LOAD ./sdk/Peripheral/ch32v30x_i2c.o
LOAD ./sdk/Peripheral/ch32v30x_iwdg.o
LOAD ./sdk/Peripheral/ch32v30x_misc.o
LOAD ./sdk/Peripheral/ch32v30x_opa.o
LOAD ./sdk/Peripheral/ch32v30x_pwr.o
LOAD ./sdk/Peripheral/ch32v30x_rcc.o
LOAD ./sdk/Peripheral/ch32v30x_rng.o
LOAD ./sdk/Peripheral/ch32v30x_rtc.o
LOAD ./sdk/Peripheral/ch32v30x_sdio.o
LOAD ./sdk/Peripheral/ch32v30x_spi.o
LOAD ./sdk/Peripheral/ch32v30x_tim.o
LOAD ./sdk/Peripheral/ch32v30x_usart.o
LOAD ./sdk/Peripheral/ch32v30x_usbotg_device.o
LOAD ./sdk/Peripheral/ch32v30x_wwdg.o
LOAD ./sdk/Core/core_riscv.o
LOAD ./code/Board_Common.o
LOAD ./code/Desk_Change.o
LOAD ./code/Encoder.o
LOAD ./code/Image.o
LOAD ./code/UI.o
LOAD ./code/www_ANOTC_V7.o
LOAD ./code/www_ch9141.o
LOAD ./code/www_flash.o
LOAD d:/ide/mounriver/mounriver_studio/toolchain/risc-v embedded gcc/bin/../lib/gcc/riscv-none-embed/8.2.0/../../../../riscv-none-embed/lib/rv32imac/ilp32\libm.a
LOAD d:/ide/mounriver/mounriver_studio/toolchain/risc-v embedded gcc/bin/../lib/gcc/riscv-none-embed/8.2.0/rv32imac/ilp32\libgcc.a
LOAD d:/ide/mounriver/mounriver_studio/toolchain/risc-v embedded gcc/bin/../lib/gcc/riscv-none-embed/8.2.0/../../../../riscv-none-embed/lib/rv32imac/ilp32\libg_nano.a
LOAD d:/ide/mounriver/mounriver_studio/toolchain/risc-v embedded gcc/bin/../lib/gcc/riscv-none-embed/8.2.0/../../../../riscv-none-embed/lib/rv32imac/ilp32\libc_nano.a
LOAD d:/ide/mounriver/mounriver_studio/toolchain/risc-v embedded gcc/bin/../lib/gcc/riscv-none-embed/8.2.0/rv32imac/ilp32\libgcc.a
START GROUP
LOAD d:/ide/mounriver/mounriver_studio/toolchain/risc-v embedded gcc/bin/../lib/gcc/riscv-none-embed/8.2.0/rv32imac/ilp32\libgcc.a
LOAD d:/ide/mounriver/mounriver_studio/toolchain/risc-v embedded gcc/bin/../lib/gcc/riscv-none-embed/8.2.0/../../../../riscv-none-embed/lib/rv32imac/ilp32\libc_nano.a
LOAD d:/ide/mounriver/mounriver_studio/toolchain/risc-v embedded gcc/bin/../lib/gcc/riscv-none-embed/8.2.0/../../../../riscv-none-embed/lib/rv32imac/ilp32\libnosys.a
END GROUP
START GROUP
LOAD d:/ide/mounriver/mounriver_studio/toolchain/risc-v embedded gcc/bin/../lib/gcc/riscv-none-embed/8.2.0/rv32imac/ilp32\libgcc.a
LOAD d:/ide/mounriver/mounriver_studio/toolchain/risc-v embedded gcc/bin/../lib/gcc/riscv-none-embed/8.2.0/../../../../riscv-none-embed/lib/rv32imac/ilp32\libc_nano.a
LOAD d:/ide/mounriver/mounriver_studio/toolchain/risc-v embedded gcc/bin/../lib/gcc/riscv-none-embed/8.2.0/../../../../riscv-none-embed/lib/rv32imac/ilp32\libnosys.a
END GROUP
                0x0000000000000800                __stack_size = 0x800
                [!provide]                        PROVIDE (_stack_size = __stack_size)

.init           0x0000000000000000       0x38
                0x0000000000000000                _sinit = .
                0x0000000000000000                . = ALIGN (0x4)
 *(SORT_NONE(.init))
 .init          0x0000000000000000       0x38 ./sdk/Startup/startup_ch32v30x.o
                0x0000000000000000                _start
                0x0000000000000038                . = ALIGN (0x4)
                0x0000000000000038                _einit = .

.vector         0x0000000000000038      0x1c8
 *(.vector)
 .vector        0x0000000000000038      0x1a0 ./sdk/Startup/startup_ch32v30x.o
                0x0000000000000200                . = ALIGN (0x40)
 *fill*         0x00000000000001d8       0x28 

.text           0x0000000000000200     0xe354
                0x0000000000000200                . = ALIGN (0x4)
 *(.text)
 .text          0x0000000000000200       0x14 ./zf_driver/zf_driver_irq.o
                0x0000000000000200                dis_interrupt
                0x0000000000000206                en_interrupt
 .text          0x0000000000000214       0xa8 d:/ide/mounriver/mounriver_studio/toolchain/risc-v embedded gcc/bin/../lib/gcc/riscv-none-embed/8.2.0/../../../../riscv-none-embed/lib/rv32imac/ilp32\libg_nano.a(lib_a-memset.o)
                0x0000000000000214                memset
 *(.text.*)
 .text.adc_gpio_init
                0x00000000000002bc      0x19e ./zf_driver/zf_driver_adc.o
                0x00000000000002bc                adc_gpio_init
 .text.adc_init
                0x000000000000045a       0xc0 ./zf_driver/zf_driver_adc.o
                0x000000000000045a                adc_init
 .text.system_delay
                0x000000000000051a       0x5c ./zf_driver/zf_driver_delay.o
                0x000000000000051a                system_delay
 .text.dvp_gpio_init
                0x0000000000000576      0x102 ./zf_driver/zf_driver_dvp.o
                0x0000000000000576                dvp_gpio_init
 .text.dvp_camera_init
                0x0000000000000678      0x160 ./zf_driver/zf_driver_dvp.o
                0x0000000000000678                dvp_camera_init
 .text.encoder_gpio_init
                0x00000000000007d8       0x36 ./zf_driver/zf_driver_encoder.o
                0x00000000000007d8                encoder_gpio_init
 .text.encoder_get_count
                0x000000000000080e       0xaa ./zf_driver/zf_driver_encoder.o
                0x000000000000080e                encoder_get_count
 .text.encoder_clean_count
                0x00000000000008b8       0x26 ./zf_driver/zf_driver_encoder.o
                0x00000000000008b8                encoder_clean_count
 .text.encoder_init_dir
                0x00000000000008de      0x208 ./zf_driver/zf_driver_encoder.o
                0x00000000000008de                encoder_init_dir
 .text.gpio_get_level
                0x0000000000000ae6       0x40 ./zf_driver/zf_driver_gpio.o
                0x0000000000000ae6                gpio_get_level
 .text.gpio_init
                0x0000000000000b26      0x196 ./zf_driver/zf_driver_gpio.o
                0x0000000000000b26                gpio_init
 .text.pit_init
                0x0000000000000cbc      0x19c ./zf_driver/zf_driver_pit.o
                0x0000000000000cbc                pit_init
 .text.soft_iic_delay
                0x0000000000000e58       0x2a ./zf_driver/zf_driver_soft_iic.o
 .text.soft_iic_init
                0x0000000000000e82       0x6a ./zf_driver/zf_driver_soft_iic.o
                0x0000000000000e82                soft_iic_init
 .text.soft_iic_start
                0x0000000000000eec       0xe2 ./zf_driver/zf_driver_soft_iic.o
 .text.soft_iic_stop
                0x0000000000000fce       0xec ./zf_driver/zf_driver_soft_iic.o
 .text.soft_iic_send_ack
                0x00000000000010ba      0x128 ./zf_driver/zf_driver_soft_iic.o
 .text.soft_iic_wait_ack
                0x00000000000011e2       0xdc ./zf_driver/zf_driver_soft_iic.o
 .text.soft_iic_send_data
                0x00000000000012be      0x128 ./zf_driver/zf_driver_soft_iic.o
 .text.soft_iic_read_data
                0x00000000000013e6      0x18c ./zf_driver/zf_driver_soft_iic.o
 .text.soft_iic_write_8bit_register
                0x0000000000001572       0x62 ./zf_driver/zf_driver_soft_iic.o
                0x0000000000001572                soft_iic_write_8bit_register
 .text.soft_iic_read_8bit_register
                0x00000000000015d4       0x8e ./zf_driver/zf_driver_soft_iic.o
                0x00000000000015d4                soft_iic_read_8bit_register
 .text.spi_gpio_init
                0x0000000000001662      0x224 ./zf_driver/zf_driver_spi.o
                0x0000000000001662                spi_gpio_init
 .text.spi_init
                0x0000000000001886      0x264 ./zf_driver/zf_driver_spi.o
                0x0000000000001886                spi_init
 .text.spi_write_8bit
                0x0000000000001aea       0x56 ./zf_driver/zf_driver_spi.o
                0x0000000000001aea                spi_write_8bit
 .text.spi_write_16bit
                0x0000000000001b40       0xa6 ./zf_driver/zf_driver_spi.o
                0x0000000000001b40                spi_write_16bit
 .text.timer_funciton_check
                0x0000000000001be6       0x58 ./zf_driver/zf_driver_timer.o
                0x0000000000001be6                timer_funciton_check
 .text.timer_clock_enable
                0x0000000000001c3e       0xe2 ./zf_driver/zf_driver_timer.o
                0x0000000000001c3e                timer_clock_enable
 .text.uart_gpio_init
                0x0000000000001d20      0x40a ./zf_driver/zf_driver_uart.o
                0x0000000000001d20                uart_gpio_init
 .text.uart_write_byte
                0x000000000000212a       0x56 ./zf_driver/zf_driver_uart.o
                0x000000000000212a                uart_write_byte
 .text.uart_write_buffer
                0x0000000000002180       0x46 ./zf_driver/zf_driver_uart.o
                0x0000000000002180                uart_write_buffer
 .text.uart_rx_interrupt
                0x00000000000021c6       0x86 ./zf_driver/zf_driver_uart.o
                0x00000000000021c6                uart_rx_interrupt
 .text.uart_query_byte
                0x000000000000224c       0x5e ./zf_driver/zf_driver_uart.o
                0x000000000000224c                uart_query_byte
 .text.uart_init
                0x00000000000022aa      0x2b2 ./zf_driver/zf_driver_uart.o
                0x00000000000022aa                uart_init
 .text.bluetooth_ch9141_uart_callback_ch1
                0x000000000000255c       0x96 ./zf_device/zf_device_bluetooth_ch9141.o
                0x000000000000255c                bluetooth_ch9141_uart_callback_ch1
 .text.bluetooth_ch9141_uart_callback_ch2
                0x00000000000025f2       0x98 ./zf_device/zf_device_bluetooth_ch9141_ch2.o
                0x00000000000025f2                bluetooth_ch9141_uart_callback_ch2
 .text.camera_uart_handler
                0x000000000000268a       0x3a ./zf_device/zf_device_camera.o
                0x000000000000268a                camera_uart_handler
 .text.camera_dvp_handler
                0x00000000000026c4       0x30 ./zf_device/zf_device_camera.o
                0x00000000000026c4                camera_dvp_handler
 .text.ips114_write_index
                0x00000000000026f4       0x7c ./zf_device/zf_device_ips114.o
 .text.ips114_set_region
                0x0000000000002770      0x26c ./zf_device/zf_device_ips114.o
 .text.ips114_init
                0x00000000000029dc      0x394 ./zf_device/zf_device_ips114.o
                0x00000000000029dc                ips114_init
 .text.ips114_clear
                0x0000000000002d70       0x72 ./zf_device/zf_device_ips114.o
                0x0000000000002d70                ips114_clear
 .text.ips114_set_dir
                0x0000000000002de2       0x42 ./zf_device/zf_device_ips114.o
                0x0000000000002de2                ips114_set_dir
 .text.ips114_set_color
                0x0000000000002e24       0x2c ./zf_device/zf_device_ips114.o
                0x0000000000002e24                ips114_set_color
 .text.ips114_show_char
                0x0000000000002e50      0x138 ./zf_device/zf_device_ips114.o
                0x0000000000002e50                ips114_show_char
 .text.ips114_show_string
                0x0000000000002f88       0xc4 ./zf_device/zf_device_ips114.o
                0x0000000000002f88                ips114_show_string
 .text.ips114_show_float
                0x000000000000304c      0x1e4 ./zf_device/zf_device_ips114.o
                0x000000000000304c                ips114_show_float
 .text.mpu6050_self1_check
                0x0000000000003230       0xb4 ./zf_device/zf_device_mpu6050.o
 .text.mpu6050_init
                0x00000000000032e4       0xd2 ./zf_device/zf_device_mpu6050.o
                0x00000000000032e4                mpu6050_init
 .text.mt9v03x_set_config_dvp
                0x00000000000033b6      0x190 ./zf_device/zf_device_mt9v03x_dvp.o
 .text.mt9v03x_get_config_dvp
                0x0000000000003546      0x12c ./zf_device/zf_device_mt9v03x_dvp.o
 .text.mt9v03x_uart_callback_dvp
                0x0000000000003672       0x66 ./zf_device/zf_device_mt9v03x_dvp.o
                0x0000000000003672                mt9v03x_uart_callback_dvp
 .text.mt9v03x_handler_dvp
                0x00000000000036d8       0x3a ./zf_device/zf_device_mt9v03x_dvp.o
                0x00000000000036d8                mt9v03x_handler_dvp
 .text.mt9v03x_init_dvp
                0x0000000000003712       0xfc ./zf_device/zf_device_mt9v03x_dvp.o
                0x0000000000003712                mt9v03x_init_dvp
 .text.scc8660_uart_callback_dvp
                0x000000000000380e       0x66 ./zf_device/zf_device_scc8660_dvp.o
                0x000000000000380e                scc8660_uart_callback_dvp
 .text.scc8660_vsync_dvp
                0x0000000000003874       0x3a ./zf_device/zf_device_scc8660_dvp.o
                0x0000000000003874                scc8660_vsync_dvp
 .text.set_camera_type
                0x00000000000038ae       0x1a ./zf_device/zf_device_type.o
                0x00000000000038ae                set_camera_type
 .text.wireless_uart_callback
                0x00000000000038c8       0x2c ./zf_device/zf_device_wireless_uart.o
                0x00000000000038c8                wireless_uart_callback
 .text.clock_init
                0x00000000000038f4       0x2a ./zf_common/zf_common_clock.o
                0x00000000000038f4                clock_init
 .text.clock_reset
                0x000000000000391e       0x76 ./zf_common/zf_common_clock.o
 .text.clock_set_freq
                0x0000000000003994      0x260 ./zf_common/zf_common_clock.o
 .text.debug_init
                0x0000000000003bf4       0x34 ./zf_common/zf_common_debug.o
                0x0000000000003bf4                debug_init
 .text.debug_assert_handler
                0x0000000000003c28      0x126 ./zf_common/zf_common_debug.o
                0x0000000000003c28                debug_assert_handler
 .text.debug_log_handler
                0x0000000000003d4e       0x48 ./zf_common/zf_common_debug.o
                0x0000000000003d4e                debug_log_handler
 .text._write   0x0000000000003d96       0x7c ./zf_common/zf_common_debug.o
                0x0000000000003d96                _write
 .text.fifo_head_offset
                0x0000000000003e12       0x4e ./zf_common/zf_common_fifo.o
                0x0000000000003e12                fifo_head_offset
 .text.fifo_end_offset
                0x0000000000003e60       0x4e ./zf_common/zf_common_fifo.o
                0x0000000000003e60                fifo_end_offset
 .text.fifo_used
                0x0000000000003eae       0x22 ./zf_common/zf_common_fifo.o
                0x0000000000003eae                fifo_used
 .text.fifo_write_buffer
                0x0000000000003ed0      0x10c ./zf_common/zf_common_fifo.o
                0x0000000000003ed0                fifo_write_buffer
 .text.fifo_read_buffer
                0x0000000000003fdc      0x12c ./zf_common/zf_common_fifo.o
                0x0000000000003fdc                fifo_read_buffer
 .text.number_conversion_ascii
                0x0000000000004108      0x11e ./zf_common/zf_common_function.o
 .text.printf_reverse_order
                0x0000000000004226       0x88 ./zf_common/zf_common_function.o
 .text.zf_sprintf
                0x00000000000042ae      0x582 ./zf_common/zf_common_function.o
                0x00000000000042ae                zf_sprintf
 .text.NVIC_EnableIRQ
                0x0000000000004830       0x32 ./zf_common/zf_common_interrupt.o
 .text.NVIC_DisableIRQ
                0x0000000000004862       0x32 ./zf_common/zf_common_interrupt.o
 .text.NVIC_SetPriority
                0x0000000000004894       0x2a ./zf_common/zf_common_interrupt.o
 .text.interrupt_enable
                0x00000000000048be       0x1e ./zf_common/zf_common_interrupt.o
                0x00000000000048be                interrupt_enable
 .text.interrupt_disable
                0x00000000000048dc       0x1e ./zf_common/zf_common_interrupt.o
                0x00000000000048dc                interrupt_disable
 .text.interrupt_set_priority
                0x00000000000048fa       0x2a ./zf_common/zf_common_interrupt.o
                0x00000000000048fa                interrupt_set_priority
 .text.interrupt_init
                0x0000000000004924        0xe ./zf_common/zf_common_interrupt.o
                0x0000000000004924                interrupt_init
 .text.interrupt_enable_all
                0x0000000000004932       0x22 ./zf_common/zf_common_interrupt.o
                0x0000000000004932                interrupt_enable_all
 .text.interrupt_disable_all
                0x0000000000004954       0x22 ./zf_common/zf_common_interrupt.o
                0x0000000000004954                interrupt_disable_all
 .text.USART1_IRQHandler
                0x0000000000004976       0x34 ./user_c/isr.o
                0x0000000000004976                USART1_IRQHandler
 .text.USART2_IRQHandler
                0x00000000000049aa       0x52 ./user_c/isr.o
                0x00000000000049aa                USART2_IRQHandler
 .text.USART3_IRQHandler
                0x00000000000049fc       0x34 ./user_c/isr.o
                0x00000000000049fc                USART3_IRQHandler
 .text.UART4_IRQHandler
                0x0000000000004a30       0x34 ./user_c/isr.o
                0x0000000000004a30                UART4_IRQHandler
 .text.UART5_IRQHandler
                0x0000000000004a64       0x30 ./user_c/isr.o
                0x0000000000004a64                UART5_IRQHandler
 .text.UART6_IRQHandler
                0x0000000000004a94       0x34 ./user_c/isr.o
                0x0000000000004a94                UART6_IRQHandler
 .text.UART7_IRQHandler
                0x0000000000004ac8       0x4c ./user_c/isr.o
                0x0000000000004ac8                UART7_IRQHandler
 .text.UART8_IRQHandler
                0x0000000000004b14       0x2c ./user_c/isr.o
                0x0000000000004b14                UART8_IRQHandler
 .text.DVP_IRQHandler
                0x0000000000004b40       0x3e ./user_c/isr.o
                0x0000000000004b40                DVP_IRQHandler
 .text.EXTI0_IRQHandler
                0x0000000000004b7e       0x24 ./user_c/isr.o
                0x0000000000004b7e                EXTI0_IRQHandler
 .text.EXTI1_IRQHandler
                0x0000000000004ba2       0x24 ./user_c/isr.o
                0x0000000000004ba2                EXTI1_IRQHandler
 .text.EXTI2_IRQHandler
                0x0000000000004bc6       0x24 ./user_c/isr.o
                0x0000000000004bc6                EXTI2_IRQHandler
 .text.EXTI3_IRQHandler
                0x0000000000004bea       0x24 ./user_c/isr.o
                0x0000000000004bea                EXTI3_IRQHandler
 .text.EXTI4_IRQHandler
                0x0000000000004c0e       0x24 ./user_c/isr.o
                0x0000000000004c0e                EXTI4_IRQHandler
 .text.EXTI9_5_IRQHandler
                0x0000000000004c32       0x88 ./user_c/isr.o
                0x0000000000004c32                EXTI9_5_IRQHandler
 .text.EXTI15_10_IRQHandler
                0x0000000000004cba       0x94 ./user_c/isr.o
                0x0000000000004cba                EXTI15_10_IRQHandler
 .text.TIM1_UP_IRQHandler
                0x0000000000004d4e       0x30 ./user_c/isr.o
                0x0000000000004d4e                TIM1_UP_IRQHandler
 .text.TIM2_IRQHandler
                0x0000000000004d7e       0x28 ./user_c/isr.o
                0x0000000000004d7e                TIM2_IRQHandler
 .text.TIM3_IRQHandler
                0x0000000000004da6       0x30 ./user_c/isr.o
                0x0000000000004da6                TIM3_IRQHandler
 .text.TIM4_IRQHandler
                0x0000000000004dd6       0x30 ./user_c/isr.o
                0x0000000000004dd6                TIM4_IRQHandler
 .text.TIM5_IRQHandler
                0x0000000000004e06       0x30 ./user_c/isr.o
                0x0000000000004e06                TIM5_IRQHandler
 .text.TIM6_IRQHandler
                0x0000000000004e36       0x28 ./user_c/isr.o
                0x0000000000004e36                TIM6_IRQHandler
 .text.TIM7_IRQHandler
                0x0000000000004e5e       0x30 ./user_c/isr.o
                0x0000000000004e5e                TIM7_IRQHandler
 .text.TIM8_UP_IRQHandler
                0x0000000000004e8e       0x30 ./user_c/isr.o
                0x0000000000004e8e                TIM8_UP_IRQHandler
 .text.TIM9_UP_IRQHandler
                0x0000000000004ebe       0x30 ./user_c/isr.o
                0x0000000000004ebe                TIM9_UP_IRQHandler
 .text.TIM10_UP_IRQHandler
                0x0000000000004eee       0x28 ./user_c/isr.o
                0x0000000000004eee                TIM10_UP_IRQHandler
 .text.NMI_Handler
                0x0000000000004f16       0x10 ./user_c/isr.o
                0x0000000000004f16                NMI_Handler
 .text.HardFault_Handler
                0x0000000000004f26        0x8 ./user_c/isr.o
                0x0000000000004f26                HardFault_Handler
 .text.main     0x0000000000004f2e      0x252 ./user_c/main.o
                0x0000000000004f2e                main
 .text.vector_handler
                0x0000000000005180       0xbe ./sdk/Startup/startup_ch32v30x.o
                0x0000000000005184                Ecall_M_Mode_Handler
                0x0000000000005186                Ecall_U_Mode_Handler
                0x0000000000005188                Break_Point_Handler
                0x000000000000518a                SysTick_Handler
                0x000000000000518c                SW_handler
                0x000000000000518e                WWDG_IRQHandler
                0x0000000000005190                PVD_IRQHandler
                0x0000000000005192                TAMPER_IRQHandler
                0x0000000000005194                RTC_IRQHandler
                0x0000000000005196                FLASH_IRQHandler
                0x0000000000005198                RCC_IRQHandler
                0x00000000000051a4                DMA1_Channel1_IRQHandler
                0x00000000000051a6                DMA1_Channel2_IRQHandler
                0x00000000000051a8                DMA1_Channel3_IRQHandler
                0x00000000000051aa                DMA1_Channel4_IRQHandler
                0x00000000000051ac                DMA1_Channel5_IRQHandler
                0x00000000000051ae                DMA1_Channel6_IRQHandler
                0x00000000000051b0                DMA1_Channel7_IRQHandler
                0x00000000000051b2                ADC1_2_IRQHandler
                0x00000000000051b4                USB_HP_CAN1_TX_IRQHandler
                0x00000000000051b6                USB_LP_CAN1_RX0_IRQHandler
                0x00000000000051b8                CAN1_RX1_IRQHandler
                0x00000000000051ba                CAN1_SCE_IRQHandler
                0x00000000000051be                TIM1_BRK_IRQHandler
                0x00000000000051c2                TIM1_TRG_COM_IRQHandler
                0x00000000000051c4                TIM1_CC_IRQHandler
                0x00000000000051cc                I2C1_EV_IRQHandler
                0x00000000000051ce                I2C1_ER_IRQHandler
                0x00000000000051d0                I2C2_EV_IRQHandler
                0x00000000000051d2                I2C2_ER_IRQHandler
                0x00000000000051d4                SPI1_IRQHandler
                0x00000000000051d6                SPI2_IRQHandler
                0x00000000000051e0                RTCAlarm_IRQHandler
                0x00000000000051e2                USBWakeUp_IRQHandler
                0x00000000000051e4                TIM8_BRK_IRQHandler
                0x00000000000051e8                TIM8_TRG_COM_IRQHandler
                0x00000000000051ea                TIM8_CC_IRQHandler
                0x00000000000051ec                RNG_IRQHandler
                0x00000000000051ee                FSMC_IRQHandler
                0x00000000000051f0                SDIO_IRQHandler
                0x00000000000051f4                SPI3_IRQHandler
                0x00000000000051fe                DMA2_Channel1_IRQHandler
                0x0000000000005200                DMA2_Channel2_IRQHandler
                0x0000000000005202                DMA2_Channel3_IRQHandler
                0x0000000000005204                DMA2_Channel4_IRQHandler
                0x0000000000005206                DMA2_Channel5_IRQHandler
                0x0000000000005208                ETH_IRQHandler
                0x000000000000520a                ETH_WKUP_IRQHandler
                0x000000000000520c                CAN2_TX_IRQHandler
                0x000000000000520e                CAN2_RX0_IRQHandler
                0x0000000000005210                CAN2_RX1_IRQHandler
                0x0000000000005212                CAN2_SCE_IRQHandler
                0x0000000000005216                USBHSWakeup_IRQHandler
                0x0000000000005218                USBHS_IRQHandler
                0x0000000000005222                TIM9_BRK_IRQHandler
                0x0000000000005226                TIM9_TRG_COM_IRQHandler
                0x0000000000005228                TIM9_CC_IRQHandler
                0x000000000000522a                TIM10_BRK_IRQHandler
                0x000000000000522e                TIM10_TRG_COM_IRQHandler
                0x0000000000005230                TIM10_CC_IRQHandler
                0x0000000000005232                DMA2_Channel6_IRQHandler
                0x0000000000005234                DMA2_Channel7_IRQHandler
                0x0000000000005236                DMA2_Channel8_IRQHandler
                0x0000000000005238                DMA2_Channel9_IRQHandler
                0x000000000000523a                DMA2_Channel10_IRQHandler
                0x000000000000523c                DMA2_Channel11_IRQHandler
 .text.handle_reset
                0x000000000000523e       0x92 ./sdk/Startup/startup_ch32v30x.o
                0x000000000000523e                handle_reset
 .text.SystemInit
                0x00000000000052d0       0x7c ./sdk/Startup/system_ch32v30x.o
                0x00000000000052d0                SystemInit
 .text.SetSysClock
                0x000000000000534c       0x14 ./sdk/Startup/system_ch32v30x.o
 .text.SetSysClockTo144
                0x0000000000005360      0x162 ./sdk/Startup/system_ch32v30x.o
 .text.ADC_DeInit
                0x00000000000054c2       0x60 ./sdk/Peripheral/ch32v30x_adc.o
                0x00000000000054c2                ADC_DeInit
 .text.ADC_Init
                0x0000000000005522      0x102 ./sdk/Peripheral/ch32v30x_adc.o
                0x0000000000005522                ADC_Init
 .text.ADC_Cmd  0x0000000000005624       0x3e ./sdk/Peripheral/ch32v30x_adc.o
                0x0000000000005624                ADC_Cmd
 .text.ADC_ResetCalibration
                0x0000000000005662       0x22 ./sdk/Peripheral/ch32v30x_adc.o
                0x0000000000005662                ADC_ResetCalibration
 .text.ADC_GetResetCalibrationStatus
                0x0000000000005684       0x30 ./sdk/Peripheral/ch32v30x_adc.o
                0x0000000000005684                ADC_GetResetCalibrationStatus
 .text.ADC_StartCalibration
                0x00000000000056b4       0x22 ./sdk/Peripheral/ch32v30x_adc.o
                0x00000000000056b4                ADC_StartCalibration
 .text.ADC_GetCalibrationStatus
                0x00000000000056d6       0x30 ./sdk/Peripheral/ch32v30x_adc.o
                0x00000000000056d6                ADC_GetCalibrationStatus
 .text.ADC_BufferCmd
                0x0000000000005706       0x44 ./sdk/Peripheral/ch32v30x_adc.o
                0x0000000000005706                ADC_BufferCmd
 .text.EXTI_GetITStatus
                0x000000000000574a       0x56 ./sdk/Peripheral/ch32v30x_exti.o
                0x000000000000574a                EXTI_GetITStatus
 .text.EXTI_ClearITPendingBit
                0x00000000000057a0       0x20 ./sdk/Peripheral/ch32v30x_exti.o
                0x00000000000057a0                EXTI_ClearITPendingBit
 .text.GPIO_Init
                0x00000000000057c0      0x22a ./sdk/Peripheral/ch32v30x_gpio.o
                0x00000000000057c0                GPIO_Init
 .text.GPIO_WriteBit
                0x00000000000059ea       0x38 ./sdk/Peripheral/ch32v30x_gpio.o
                0x00000000000059ea                GPIO_WriteBit
 .text.GPIO_PinRemapConfig
                0x0000000000005a22      0x13c ./sdk/Peripheral/ch32v30x_gpio.o
                0x0000000000005a22                GPIO_PinRemapConfig
 .text.RCC_ADCCLKConfig
                0x0000000000005b5e       0x46 ./sdk/Peripheral/ch32v30x_rcc.o
                0x0000000000005b5e                RCC_ADCCLKConfig
 .text.RCC_GetClocksFreq
                0x0000000000005ba4      0x2c6 ./sdk/Peripheral/ch32v30x_rcc.o
                0x0000000000005ba4                RCC_GetClocksFreq
 .text.RCC_AHBPeriphClockCmd
                0x0000000000005e6a       0x46 ./sdk/Peripheral/ch32v30x_rcc.o
                0x0000000000005e6a                RCC_AHBPeriphClockCmd
 .text.RCC_APB2PeriphClockCmd
                0x0000000000005eb0       0x46 ./sdk/Peripheral/ch32v30x_rcc.o
                0x0000000000005eb0                RCC_APB2PeriphClockCmd
 .text.RCC_APB1PeriphClockCmd
                0x0000000000005ef6       0x46 ./sdk/Peripheral/ch32v30x_rcc.o
                0x0000000000005ef6                RCC_APB1PeriphClockCmd
 .text.RCC_APB2PeriphResetCmd
                0x0000000000005f3c       0x46 ./sdk/Peripheral/ch32v30x_rcc.o
                0x0000000000005f3c                RCC_APB2PeriphResetCmd
 .text.RCC_APB1PeriphResetCmd
                0x0000000000005f82       0x46 ./sdk/Peripheral/ch32v30x_rcc.o
                0x0000000000005f82                RCC_APB1PeriphResetCmd
 .text.SPI_I2S_DeInit
                0x0000000000005fc8       0x76 ./sdk/Peripheral/ch32v30x_spi.o
                0x0000000000005fc8                SPI_I2S_DeInit
 .text.SPI_Init
                0x000000000000603e       0xf8 ./sdk/Peripheral/ch32v30x_spi.o
                0x000000000000603e                SPI_Init
 .text.SPI_Cmd  0x0000000000006136       0x5a ./sdk/Peripheral/ch32v30x_spi.o
                0x0000000000006136                SPI_Cmd
 .text.TIM_TimeBaseInit
                0x0000000000006190      0x17e ./sdk/Peripheral/ch32v30x_tim.o
                0x0000000000006190                TIM_TimeBaseInit
 .text.TIM_TimeBaseStructInit
                0x000000000000630e       0x3c ./sdk/Peripheral/ch32v30x_tim.o
                0x000000000000630e                TIM_TimeBaseStructInit
 .text.TIM_Cmd  0x000000000000634a       0x58 ./sdk/Peripheral/ch32v30x_tim.o
                0x000000000000634a                TIM_Cmd
 .text.TIM_ITConfig
                0x00000000000063a2       0x70 ./sdk/Peripheral/ch32v30x_tim.o
                0x00000000000063a2                TIM_ITConfig
 .text.TIM_ITRxExternalClockConfig
                0x0000000000006412       0x46 ./sdk/Peripheral/ch32v30x_tim.o
                0x0000000000006412                TIM_ITRxExternalClockConfig
 .text.TIM_SelectInputTrigger
                0x0000000000006458       0x4e ./sdk/Peripheral/ch32v30x_tim.o
                0x0000000000006458                TIM_SelectInputTrigger
 .text.TIM_GetITStatus
                0x00000000000064a6       0x70 ./sdk/Peripheral/ch32v30x_tim.o
                0x00000000000064a6                TIM_GetITStatus
 .text.TIM_ClearITPendingBit
                0x0000000000006516       0x2e ./sdk/Peripheral/ch32v30x_tim.o
                0x0000000000006516                TIM_ClearITPendingBit
 .text.USART_Init
                0x0000000000006544      0x234 ./sdk/Peripheral/ch32v30x_usart.o
                0x0000000000006544                USART_Init
 .text.USART_Cmd
                0x0000000000006778       0x60 ./sdk/Peripheral/ch32v30x_usart.o
                0x0000000000006778                USART_Cmd
 .text.USART_ITConfig
                0x00000000000067d8       0xc4 ./sdk/Peripheral/ch32v30x_usart.o
                0x00000000000067d8                USART_ITConfig
 .text.USART_SendData
                0x000000000000689c       0x2e ./sdk/Peripheral/ch32v30x_usart.o
                0x000000000000689c                USART_SendData
 .text.USART_GetFlagStatus
                0x00000000000068ca       0x46 ./sdk/Peripheral/ch32v30x_usart.o
                0x00000000000068ca                USART_GetFlagStatus
 .text.USART_GetITStatus
                0x0000000000006910      0x102 ./sdk/Peripheral/ch32v30x_usart.o
                0x0000000000006910                USART_GetITStatus
 .text.USART_ClearITPendingBit
                0x0000000000006a12       0x4e ./sdk/Peripheral/ch32v30x_usart.o
                0x0000000000006a12                USART_ClearITPendingBit
 .text.DevEP1_IN_Deal
                0x0000000000006a60       0x3e ./sdk/Peripheral/ch32v30x_usbotg_device.o
                0x0000000000006a60                DevEP1_IN_Deal
 .text.DevEP2_IN_Deal
                0x0000000000006a9e       0x3e ./sdk/Peripheral/ch32v30x_usbotg_device.o
                0x0000000000006a9e                DevEP2_IN_Deal
 .text.DevEP1_OUT_Deal
                0x0000000000006adc       0x66 ./sdk/Peripheral/ch32v30x_usbotg_device.o
                0x0000000000006adc                DevEP1_OUT_Deal
 .text.DevEP2_OUT_Deal
                0x0000000000006b42       0x66 ./sdk/Peripheral/ch32v30x_usbotg_device.o
                0x0000000000006b42                DevEP2_OUT_Deal
 .text.OTG_FS_IRQHandler
                0x0000000000006ba8      0xc74 ./sdk/Peripheral/ch32v30x_usbotg_device.o
                0x0000000000006ba8                OTG_FS_IRQHandler
 .text.__get_MSTATUS
                0x000000000000781c       0x1a ./sdk/Core/core_riscv.o
                0x000000000000781c                __get_MSTATUS
 .text.Board_Common_Init
                0x0000000000007836       0xce ./code/Board_Common.o
                0x0000000000007836                Board_Common_Init
 .text.Key_Down
                0x0000000000007904       0x6a ./code/Board_Common.o
                0x0000000000007904                Key_Down
 .text._Key_Control
                0x000000000000796e       0x6c ./code/Desk_Change.o
                0x000000000000796e                _Key_Control
 .text.get_L_Length
                0x00000000000079da       0x4e ./code/Encoder.o
 .text.get_R_Length
                0x0000000000007a28       0x4e ./code/Encoder.o
 .text.Encoder_INIT
                0x0000000000007a76       0x2c ./code/Encoder.o
                0x0000000000007a76                Encoder_INIT
 .text.get_LE   0x0000000000007aa2       0x82 ./code/Encoder.o
                0x0000000000007aa2                get_LE
 .text.get_RE   0x0000000000007b24       0x82 ./code/Encoder.o
                0x0000000000007b24                get_RE
 .text.__adddf3
                0x0000000000007ba6      0x730 d:/ide/mounriver/mounriver_studio/toolchain/risc-v embedded gcc/bin/../lib/gcc/riscv-none-embed/8.2.0/rv32imac/ilp32\libgcc.a(adddf3.o)
                0x0000000000007ba6                __adddf3
 .text.__divdf3
                0x00000000000082d6      0x5b4 d:/ide/mounriver/mounriver_studio/toolchain/risc-v embedded gcc/bin/../lib/gcc/riscv-none-embed/8.2.0/rv32imac/ilp32\libgcc.a(divdf3.o)
                0x00000000000082d6                __divdf3
 .text.__eqdf2  0x000000000000888a       0x6a d:/ide/mounriver/mounriver_studio/toolchain/risc-v embedded gcc/bin/../lib/gcc/riscv-none-embed/8.2.0/rv32imac/ilp32\libgcc.a(eqdf2.o)
                0x000000000000888a                __nedf2
                0x000000000000888a                __eqdf2
 .text.__gedf2  0x00000000000088f4       0xae d:/ide/mounriver/mounriver_studio/toolchain/risc-v embedded gcc/bin/../lib/gcc/riscv-none-embed/8.2.0/rv32imac/ilp32\libgcc.a(gedf2.o)
                0x00000000000088f4                __gedf2
                0x00000000000088f4                __gtdf2
 .text.__ledf2  0x00000000000089a2       0xb6 d:/ide/mounriver/mounriver_studio/toolchain/risc-v embedded gcc/bin/../lib/gcc/riscv-none-embed/8.2.0/rv32imac/ilp32\libgcc.a(ledf2.o)
                0x00000000000089a2                __ledf2
                0x00000000000089a2                __ltdf2
 .text.__muldf3
                0x0000000000008a58      0x4b8 d:/ide/mounriver/mounriver_studio/toolchain/risc-v embedded gcc/bin/../lib/gcc/riscv-none-embed/8.2.0/rv32imac/ilp32\libgcc.a(muldf3.o)
                0x0000000000008a58                __muldf3
 .text.__subdf3
                0x0000000000008f10      0x73e d:/ide/mounriver/mounriver_studio/toolchain/risc-v embedded gcc/bin/../lib/gcc/riscv-none-embed/8.2.0/rv32imac/ilp32\libgcc.a(subdf3.o)
                0x0000000000008f10                __subdf3
 .text.__fixdfsi
                0x000000000000964e       0x68 d:/ide/mounriver/mounriver_studio/toolchain/risc-v embedded gcc/bin/../lib/gcc/riscv-none-embed/8.2.0/rv32imac/ilp32\libgcc.a(fixdfsi.o)
                0x000000000000964e                __fixdfsi
 .text.__floatsidf
                0x00000000000096b6       0x70 d:/ide/mounriver/mounriver_studio/toolchain/risc-v embedded gcc/bin/../lib/gcc/riscv-none-embed/8.2.0/rv32imac/ilp32\libgcc.a(floatsidf.o)
                0x00000000000096b6                __floatsidf
 .text.__divsf3
                0x0000000000009726      0x2ae d:/ide/mounriver/mounriver_studio/toolchain/risc-v embedded gcc/bin/../lib/gcc/riscv-none-embed/8.2.0/rv32imac/ilp32\libgcc.a(divsf3.o)
                0x0000000000009726                __divsf3
 .text.__mulsf3
                0x00000000000099d4      0x290 d:/ide/mounriver/mounriver_studio/toolchain/risc-v embedded gcc/bin/../lib/gcc/riscv-none-embed/8.2.0/rv32imac/ilp32\libgcc.a(mulsf3.o)
                0x00000000000099d4                __mulsf3
 .text.__floatsisf
                0x0000000000009c64       0xc6 d:/ide/mounriver/mounriver_studio/toolchain/risc-v embedded gcc/bin/../lib/gcc/riscv-none-embed/8.2.0/rv32imac/ilp32\libgcc.a(floatsisf.o)
                0x0000000000009c64                __floatsisf
 .text.__extendsfdf2
                0x0000000000009d2a       0xac d:/ide/mounriver/mounriver_studio/toolchain/risc-v embedded gcc/bin/../lib/gcc/riscv-none-embed/8.2.0/rv32imac/ilp32\libgcc.a(extendsfdf2.o)
                0x0000000000009d2a                __extendsfdf2
 .text.__clzsi2
                0x0000000000009dd6       0x76 d:/ide/mounriver/mounriver_studio/toolchain/risc-v embedded gcc/bin/../lib/gcc/riscv-none-embed/8.2.0/rv32imac/ilp32\libgcc.a(_clzsi2.o)
                0x0000000000009dd6                __clzsi2
 .text.memcpy   0x0000000000009e4c       0xb6 d:/ide/mounriver/mounriver_studio/toolchain/risc-v embedded gcc/bin/../lib/gcc/riscv-none-embed/8.2.0/../../../../riscv-none-embed/lib/rv32imac/ilp32\libg_nano.a(lib_a-memcpy.o)
                0x0000000000009e4c                memcpy
 .text.__cvt    0x0000000000009f02       0xee d:/ide/mounriver/mounriver_studio/toolchain/risc-v embedded gcc/bin/../lib/gcc/riscv-none-embed/8.2.0/../../../../riscv-none-embed/lib/rv32imac/ilp32\libg_nano.a(lib_a-nano-vfprintf_float.o)
                0x0000000000009f02                __cvt
 .text.__exponent
                0x0000000000009ff0       0x8c d:/ide/mounriver/mounriver_studio/toolchain/risc-v embedded gcc/bin/../lib/gcc/riscv-none-embed/8.2.0/../../../../riscv-none-embed/lib/rv32imac/ilp32\libg_nano.a(lib_a-nano-vfprintf_float.o)
                0x0000000000009ff0                __exponent
 .text._printf_float
                0x000000000000a07c      0x4c4 d:/ide/mounriver/mounriver_studio/toolchain/risc-v embedded gcc/bin/../lib/gcc/riscv-none-embed/8.2.0/../../../../riscv-none-embed/lib/rv32imac/ilp32\libg_nano.a(lib_a-nano-vfprintf_float.o)
                0x000000000000a07c                _printf_float
 .text._printf_common
                0x000000000000a540      0x10c d:/ide/mounriver/mounriver_studio/toolchain/risc-v embedded gcc/bin/../lib/gcc/riscv-none-embed/8.2.0/../../../../riscv-none-embed/lib/rv32imac/ilp32\libg_nano.a(lib_a-nano-vfprintf_i.o)
                0x000000000000a540                _printf_common
 .text._printf_i
                0x000000000000a64c      0x2ac d:/ide/mounriver/mounriver_studio/toolchain/risc-v embedded gcc/bin/../lib/gcc/riscv-none-embed/8.2.0/../../../../riscv-none-embed/lib/rv32imac/ilp32\libg_nano.a(lib_a-nano-vfprintf_i.o)
                0x000000000000a64c                _printf_i
 .text.printf   0x000000000000a8f8       0x42 d:/ide/mounriver/mounriver_studio/toolchain/risc-v embedded gcc/bin/../lib/gcc/riscv-none-embed/8.2.0/../../../../riscv-none-embed/lib/rv32imac/ilp32\libg_nano.a(lib_a-printf.o)
                0x000000000000a8f8                iprintf
                0x000000000000a8f8                printf
 .text.strlen   0x000000000000a93a       0x12 d:/ide/mounriver/mounriver_studio/toolchain/risc-v embedded gcc/bin/../lib/gcc/riscv-none-embed/8.2.0/../../../../riscv-none-embed/lib/rv32imac/ilp32\libg_nano.a(lib_a-strlen.o)
                0x000000000000a93a                strlen
 .text.strncmp  0x000000000000a94c       0x2c d:/ide/mounriver/mounriver_studio/toolchain/risc-v embedded gcc/bin/../lib/gcc/riscv-none-embed/8.2.0/../../../../riscv-none-embed/lib/rv32imac/ilp32\libg_nano.a(lib_a-strncmp.o)
                0x000000000000a94c                strncmp
 .text.__swbuf_r
                0x000000000000a978       0xc6 d:/ide/mounriver/mounriver_studio/toolchain/risc-v embedded gcc/bin/../lib/gcc/riscv-none-embed/8.2.0/../../../../riscv-none-embed/lib/rv32imac/ilp32\libg_nano.a(lib_a-wbuf.o)
                0x000000000000a978                __swbuf_r
 .text.__swsetup_r
                0x000000000000aa3e      0x112 d:/ide/mounriver/mounriver_studio/toolchain/risc-v embedded gcc/bin/../lib/gcc/riscv-none-embed/8.2.0/../../../../riscv-none-embed/lib/rv32imac/ilp32\libg_nano.a(lib_a-wsetup.o)
                0x000000000000aa3e                __swsetup_r
 .text.quorem   0x000000000000ab50      0x13a d:/ide/mounriver/mounriver_studio/toolchain/risc-v embedded gcc/bin/../lib/gcc/riscv-none-embed/8.2.0/../../../../riscv-none-embed/lib/rv32imac/ilp32\libg_nano.a(lib_a-dtoa.o)
 .text._dtoa_r  0x000000000000ac8a      0xc1e d:/ide/mounriver/mounriver_studio/toolchain/risc-v embedded gcc/bin/../lib/gcc/riscv-none-embed/8.2.0/../../../../riscv-none-embed/lib/rv32imac/ilp32\libg_nano.a(lib_a-dtoa.o)
                0x000000000000ac8a                _dtoa_r
 .text.__sflush_r
                0x000000000000b8a8      0x13e d:/ide/mounriver/mounriver_studio/toolchain/risc-v embedded gcc/bin/../lib/gcc/riscv-none-embed/8.2.0/../../../../riscv-none-embed/lib/rv32imac/ilp32\libg_nano.a(lib_a-fflush.o)
                0x000000000000b8a8                __sflush_r
 .text._fflush_r
                0x000000000000b9e6       0x66 d:/ide/mounriver/mounriver_studio/toolchain/risc-v embedded gcc/bin/../lib/gcc/riscv-none-embed/8.2.0/../../../../riscv-none-embed/lib/rv32imac/ilp32\libg_nano.a(lib_a-fflush.o)
                0x000000000000b9e6                _fflush_r
 .text.std      0x000000000000ba4c       0x6a d:/ide/mounriver/mounriver_studio/toolchain/risc-v embedded gcc/bin/../lib/gcc/riscv-none-embed/8.2.0/../../../../riscv-none-embed/lib/rv32imac/ilp32\libg_nano.a(lib_a-findfp.o)
 .text._cleanup_r
                0x000000000000bab6        0xa d:/ide/mounriver/mounriver_studio/toolchain/risc-v embedded gcc/bin/../lib/gcc/riscv-none-embed/8.2.0/../../../../riscv-none-embed/lib/rv32imac/ilp32\libg_nano.a(lib_a-findfp.o)
                0x000000000000bab6                _cleanup_r
 .text.__sfmoreglue
                0x000000000000bac0       0x48 d:/ide/mounriver/mounriver_studio/toolchain/risc-v embedded gcc/bin/../lib/gcc/riscv-none-embed/8.2.0/../../../../riscv-none-embed/lib/rv32imac/ilp32\libg_nano.a(lib_a-findfp.o)
                0x000000000000bac0                __sfmoreglue
 .text.__sinit  0x000000000000bb08       0x6c d:/ide/mounriver/mounriver_studio/toolchain/risc-v embedded gcc/bin/../lib/gcc/riscv-none-embed/8.2.0/../../../../riscv-none-embed/lib/rv32imac/ilp32\libg_nano.a(lib_a-findfp.o)
                0x000000000000bb08                __sinit
 .text.__sfp    0x000000000000bb74       0xa0 d:/ide/mounriver/mounriver_studio/toolchain/risc-v embedded gcc/bin/../lib/gcc/riscv-none-embed/8.2.0/../../../../riscv-none-embed/lib/rv32imac/ilp32\libg_nano.a(lib_a-findfp.o)
                0x000000000000bb74                __sfp
 .text._fwalk_reent
                0x000000000000bc14       0x6c d:/ide/mounriver/mounriver_studio/toolchain/risc-v embedded gcc/bin/../lib/gcc/riscv-none-embed/8.2.0/../../../../riscv-none-embed/lib/rv32imac/ilp32\libg_nano.a(lib_a-fwalk.o)
                0x000000000000bc14                _fwalk_reent
 .text._localeconv_r
                0x000000000000bc80       0x18 d:/ide/mounriver/mounriver_studio/toolchain/risc-v embedded gcc/bin/../lib/gcc/riscv-none-embed/8.2.0/../../../../riscv-none-embed/lib/rv32imac/ilp32\libg_nano.a(lib_a-localeconv.o)
                0x000000000000bc80                _localeconv_r
 .text.__swhatbuf_r
                0x000000000000bc98       0x5a d:/ide/mounriver/mounriver_studio/toolchain/risc-v embedded gcc/bin/../lib/gcc/riscv-none-embed/8.2.0/../../../../riscv-none-embed/lib/rv32imac/ilp32\libg_nano.a(lib_a-makebuf.o)
                0x000000000000bc98                __swhatbuf_r
 .text.__smakebuf_r
                0x000000000000bcf2       0xa2 d:/ide/mounriver/mounriver_studio/toolchain/risc-v embedded gcc/bin/../lib/gcc/riscv-none-embed/8.2.0/../../../../riscv-none-embed/lib/rv32imac/ilp32\libg_nano.a(lib_a-makebuf.o)
                0x000000000000bcf2                __smakebuf_r
 .text.malloc   0x000000000000bd94        0xc d:/ide/mounriver/mounriver_studio/toolchain/risc-v embedded gcc/bin/../lib/gcc/riscv-none-embed/8.2.0/../../../../riscv-none-embed/lib/rv32imac/ilp32\libg_nano.a(lib_a-malloc.o)
                0x000000000000bd94                malloc
 .text.memchr   0x000000000000bda0       0x1a d:/ide/mounriver/mounriver_studio/toolchain/risc-v embedded gcc/bin/../lib/gcc/riscv-none-embed/8.2.0/../../../../riscv-none-embed/lib/rv32imac/ilp32\libg_nano.a(lib_a-memchr.o)
                0x000000000000bda0                memchr
 .text._Balloc  0x000000000000bdba       0x88 d:/ide/mounriver/mounriver_studio/toolchain/risc-v embedded gcc/bin/../lib/gcc/riscv-none-embed/8.2.0/../../../../riscv-none-embed/lib/rv32imac/ilp32\libg_nano.a(lib_a-mprec.o)
                0x000000000000bdba                _Balloc
 .text._Bfree   0x000000000000be42       0x44 d:/ide/mounriver/mounriver_studio/toolchain/risc-v embedded gcc/bin/../lib/gcc/riscv-none-embed/8.2.0/../../../../riscv-none-embed/lib/rv32imac/ilp32\libg_nano.a(lib_a-mprec.o)
                0x000000000000be42                _Bfree
 .text.__multadd
                0x000000000000be86       0x98 d:/ide/mounriver/mounriver_studio/toolchain/risc-v embedded gcc/bin/../lib/gcc/riscv-none-embed/8.2.0/../../../../riscv-none-embed/lib/rv32imac/ilp32\libg_nano.a(lib_a-mprec.o)
                0x000000000000be86                __multadd
 .text.__hi0bits
                0x000000000000bf1e       0x46 d:/ide/mounriver/mounriver_studio/toolchain/risc-v embedded gcc/bin/../lib/gcc/riscv-none-embed/8.2.0/../../../../riscv-none-embed/lib/rv32imac/ilp32\libg_nano.a(lib_a-mprec.o)
                0x000000000000bf1e                __hi0bits
 .text.__lo0bits
                0x000000000000bf64       0x6a d:/ide/mounriver/mounriver_studio/toolchain/risc-v embedded gcc/bin/../lib/gcc/riscv-none-embed/8.2.0/../../../../riscv-none-embed/lib/rv32imac/ilp32\libg_nano.a(lib_a-mprec.o)
                0x000000000000bf64                __lo0bits
 .text.__i2b    0x000000000000bfce       0x1c d:/ide/mounriver/mounriver_studio/toolchain/risc-v embedded gcc/bin/../lib/gcc/riscv-none-embed/8.2.0/../../../../riscv-none-embed/lib/rv32imac/ilp32\libg_nano.a(lib_a-mprec.o)
                0x000000000000bfce                __i2b
 .text.__multiply
                0x000000000000bfea      0x144 d:/ide/mounriver/mounriver_studio/toolchain/risc-v embedded gcc/bin/../lib/gcc/riscv-none-embed/8.2.0/../../../../riscv-none-embed/lib/rv32imac/ilp32\libg_nano.a(lib_a-mprec.o)
                0x000000000000bfea                __multiply
 .text.__pow5mult
                0x000000000000c12e       0xbe d:/ide/mounriver/mounriver_studio/toolchain/risc-v embedded gcc/bin/../lib/gcc/riscv-none-embed/8.2.0/../../../../riscv-none-embed/lib/rv32imac/ilp32\libg_nano.a(lib_a-mprec.o)
                0x000000000000c12e                __pow5mult
 .text.__lshift
                0x000000000000c1ec       0xce d:/ide/mounriver/mounriver_studio/toolchain/risc-v embedded gcc/bin/../lib/gcc/riscv-none-embed/8.2.0/../../../../riscv-none-embed/lib/rv32imac/ilp32\libg_nano.a(lib_a-mprec.o)
                0x000000000000c1ec                __lshift
 .text.__mcmp   0x000000000000c2ba       0x32 d:/ide/mounriver/mounriver_studio/toolchain/risc-v embedded gcc/bin/../lib/gcc/riscv-none-embed/8.2.0/../../../../riscv-none-embed/lib/rv32imac/ilp32\libg_nano.a(lib_a-mprec.o)
                0x000000000000c2ba                __mcmp
 .text.__mdiff  0x000000000000c2ec       0xf2 d:/ide/mounriver/mounriver_studio/toolchain/risc-v embedded gcc/bin/../lib/gcc/riscv-none-embed/8.2.0/../../../../riscv-none-embed/lib/rv32imac/ilp32\libg_nano.a(lib_a-mprec.o)
                0x000000000000c2ec                __mdiff
 .text.__d2b    0x000000000000c3de       0xd4 d:/ide/mounriver/mounriver_studio/toolchain/risc-v embedded gcc/bin/../lib/gcc/riscv-none-embed/8.2.0/../../../../riscv-none-embed/lib/rv32imac/ilp32\libg_nano.a(lib_a-mprec.o)
                0x000000000000c3de                __d2b
 .text._calloc_r
                0x000000000000c4b2       0x26 d:/ide/mounriver/mounriver_studio/toolchain/risc-v embedded gcc/bin/../lib/gcc/riscv-none-embed/8.2.0/../../../../riscv-none-embed/lib/rv32imac/ilp32\libg_nano.a(lib_a-nano-callocr.o)
                0x000000000000c4b2                _calloc_r
 .text._free_r  0x000000000000c4d8       0xa4 d:/ide/mounriver/mounriver_studio/toolchain/risc-v embedded gcc/bin/../lib/gcc/riscv-none-embed/8.2.0/../../../../riscv-none-embed/lib/rv32imac/ilp32\libg_nano.a(lib_a-nano-freer.o)
                0x000000000000c4d8                _free_r
 .text._malloc_r
                0x000000000000c57c       0xce d:/ide/mounriver/mounriver_studio/toolchain/risc-v embedded gcc/bin/../lib/gcc/riscv-none-embed/8.2.0/../../../../riscv-none-embed/lib/rv32imac/ilp32\libg_nano.a(lib_a-nano-mallocr.o)
                0x000000000000c57c                _malloc_r
 .text.__sfputc_r
                0x000000000000c64a       0x2a d:/ide/mounriver/mounriver_studio/toolchain/risc-v embedded gcc/bin/../lib/gcc/riscv-none-embed/8.2.0/../../../../riscv-none-embed/lib/rv32imac/ilp32\libg_nano.a(lib_a-nano-vfprintf.o)
 .text.__sfputs_r
                0x000000000000c674       0x44 d:/ide/mounriver/mounriver_studio/toolchain/risc-v embedded gcc/bin/../lib/gcc/riscv-none-embed/8.2.0/../../../../riscv-none-embed/lib/rv32imac/ilp32\libg_nano.a(lib_a-nano-vfprintf.o)
                0x000000000000c674                __sfputs_r
 .text._vfprintf_r
                0x000000000000c6b8      0x2a0 d:/ide/mounriver/mounriver_studio/toolchain/risc-v embedded gcc/bin/../lib/gcc/riscv-none-embed/8.2.0/../../../../riscv-none-embed/lib/rv32imac/ilp32\libg_nano.a(lib_a-nano-vfprintf.o)
                0x000000000000c6b8                _vfprintf_r
                0x000000000000c6b8                _vfiprintf_r
 .text._sbrk_r  0x000000000000c958       0x30 d:/ide/mounriver/mounriver_studio/toolchain/risc-v embedded gcc/bin/../lib/gcc/riscv-none-embed/8.2.0/../../../../riscv-none-embed/lib/rv32imac/ilp32\libg_nano.a(lib_a-sbrkr.o)
                0x000000000000c958                _sbrk_r
 .text.__sread  0x000000000000c988       0x30 d:/ide/mounriver/mounriver_studio/toolchain/risc-v embedded gcc/bin/../lib/gcc/riscv-none-embed/8.2.0/../../../../riscv-none-embed/lib/rv32imac/ilp32\libg_nano.a(lib_a-stdio.o)
                0x000000000000c988                __sread
 .text.__swrite
                0x000000000000c9b8       0x4e d:/ide/mounriver/mounriver_studio/toolchain/risc-v embedded gcc/bin/../lib/gcc/riscv-none-embed/8.2.0/../../../../riscv-none-embed/lib/rv32imac/ilp32\libg_nano.a(lib_a-stdio.o)
                0x000000000000c9b8                __swrite
 .text.__sseek  0x000000000000ca06       0x36 d:/ide/mounriver/mounriver_studio/toolchain/risc-v embedded gcc/bin/../lib/gcc/riscv-none-embed/8.2.0/../../../../riscv-none-embed/lib/rv32imac/ilp32\libg_nano.a(lib_a-stdio.o)
                0x000000000000ca06                __sseek
 .text.__sclose
                0x000000000000ca3c        0x6 d:/ide/mounriver/mounriver_studio/toolchain/risc-v embedded gcc/bin/../lib/gcc/riscv-none-embed/8.2.0/../../../../riscv-none-embed/lib/rv32imac/ilp32\libg_nano.a(lib_a-stdio.o)
                0x000000000000ca3c                __sclose
 .text._write_r
                0x000000000000ca42       0x36 d:/ide/mounriver/mounriver_studio/toolchain/risc-v embedded gcc/bin/../lib/gcc/riscv-none-embed/8.2.0/../../../../riscv-none-embed/lib/rv32imac/ilp32\libg_nano.a(lib_a-writer.o)
                0x000000000000ca42                _write_r
 .text._close_r
                0x000000000000ca78       0x30 d:/ide/mounriver/mounriver_studio/toolchain/risc-v embedded gcc/bin/../lib/gcc/riscv-none-embed/8.2.0/../../../../riscv-none-embed/lib/rv32imac/ilp32\libg_nano.a(lib_a-closer.o)
                0x000000000000ca78                _close_r
 .text._fstat_r
                0x000000000000caa8       0x32 d:/ide/mounriver/mounriver_studio/toolchain/risc-v embedded gcc/bin/../lib/gcc/riscv-none-embed/8.2.0/../../../../riscv-none-embed/lib/rv32imac/ilp32\libg_nano.a(lib_a-fstatr.o)
                0x000000000000caa8                _fstat_r
 .text._isatty_r
                0x000000000000cada       0x30 d:/ide/mounriver/mounriver_studio/toolchain/risc-v embedded gcc/bin/../lib/gcc/riscv-none-embed/8.2.0/../../../../riscv-none-embed/lib/rv32imac/ilp32\libg_nano.a(lib_a-isattyr.o)
                0x000000000000cada                _isatty_r
 .text._lseek_r
                0x000000000000cb0a       0x34 d:/ide/mounriver/mounriver_studio/toolchain/risc-v embedded gcc/bin/../lib/gcc/riscv-none-embed/8.2.0/../../../../riscv-none-embed/lib/rv32imac/ilp32\libg_nano.a(lib_a-lseekr.o)
                0x000000000000cb0a                _lseek_r
 .text.__ascii_mbtowc
                0x000000000000cb3e       0x3a d:/ide/mounriver/mounriver_studio/toolchain/risc-v embedded gcc/bin/../lib/gcc/riscv-none-embed/8.2.0/../../../../riscv-none-embed/lib/rv32imac/ilp32\libg_nano.a(lib_a-mbtowc_r.o)
                0x000000000000cb3e                __ascii_mbtowc
 .text.__malloc_lock
                0x000000000000cb78        0x2 d:/ide/mounriver/mounriver_studio/toolchain/risc-v embedded gcc/bin/../lib/gcc/riscv-none-embed/8.2.0/../../../../riscv-none-embed/lib/rv32imac/ilp32\libg_nano.a(lib_a-mlock.o)
                0x000000000000cb78                __malloc_lock
 .text.__malloc_unlock
                0x000000000000cb7a        0x2 d:/ide/mounriver/mounriver_studio/toolchain/risc-v embedded gcc/bin/../lib/gcc/riscv-none-embed/8.2.0/../../../../riscv-none-embed/lib/rv32imac/ilp32\libg_nano.a(lib_a-mlock.o)
                0x000000000000cb7a                __malloc_unlock
 .text._read_r  0x000000000000cb7c       0x34 d:/ide/mounriver/mounriver_studio/toolchain/risc-v embedded gcc/bin/../lib/gcc/riscv-none-embed/8.2.0/../../../../riscv-none-embed/lib/rv32imac/ilp32\libg_nano.a(lib_a-readr.o)
                0x000000000000cb7c                _read_r
 .text.__ascii_wctomb
                0x000000000000cbb0       0x20 d:/ide/mounriver/mounriver_studio/toolchain/risc-v embedded gcc/bin/../lib/gcc/riscv-none-embed/8.2.0/../../../../riscv-none-embed/lib/rv32imac/ilp32\libg_nano.a(lib_a-wctomb_r.o)
                0x000000000000cbb0                __ascii_wctomb
 .text.__unorddf2
                0x000000000000cbd0       0x3c d:/ide/mounriver/mounriver_studio/toolchain/risc-v embedded gcc/bin/../lib/gcc/riscv-none-embed/8.2.0/rv32imac/ilp32\libgcc.a(unorddf2.o)
                0x000000000000cbd0                __unorddf2
 .text.__floatunsidf
                0x000000000000cc0c       0x68 d:/ide/mounriver/mounriver_studio/toolchain/risc-v embedded gcc/bin/../lib/gcc/riscv-none-embed/8.2.0/rv32imac/ilp32\libgcc.a(floatunsidf.o)
                0x000000000000cc0c                __floatunsidf
 .text.__trunctfdf2
                0x000000000000cc74      0x21e d:/ide/mounriver/mounriver_studio/toolchain/risc-v embedded gcc/bin/../lib/gcc/riscv-none-embed/8.2.0/rv32imac/ilp32\libgcc.a(trunctfdf2.o)
                0x000000000000cc74                __trunctfdf2
 .text._close   0x000000000000ce92       0x10 d:/ide/mounriver/mounriver_studio/toolchain/risc-v embedded gcc/bin/../lib/gcc/riscv-none-embed/8.2.0/../../../../riscv-none-embed/lib/rv32imac/ilp32\libnosys.a(close.o)
                0x000000000000ce92                _close
 .text._fstat   0x000000000000cea2       0x10 d:/ide/mounriver/mounriver_studio/toolchain/risc-v embedded gcc/bin/../lib/gcc/riscv-none-embed/8.2.0/../../../../riscv-none-embed/lib/rv32imac/ilp32\libnosys.a(fstat.o)
                0x000000000000cea2                _fstat
 .text._isatty  0x000000000000ceb2       0x10 d:/ide/mounriver/mounriver_studio/toolchain/risc-v embedded gcc/bin/../lib/gcc/riscv-none-embed/8.2.0/../../../../riscv-none-embed/lib/rv32imac/ilp32\libnosys.a(isatty.o)
                0x000000000000ceb2                _isatty
 .text._lseek   0x000000000000cec2       0x10 d:/ide/mounriver/mounriver_studio/toolchain/risc-v embedded gcc/bin/../lib/gcc/riscv-none-embed/8.2.0/../../../../riscv-none-embed/lib/rv32imac/ilp32\libnosys.a(lseek.o)
                0x000000000000cec2                _lseek
 .text._read    0x000000000000ced2       0x10 d:/ide/mounriver/mounriver_studio/toolchain/risc-v embedded gcc/bin/../lib/gcc/riscv-none-embed/8.2.0/../../../../riscv-none-embed/lib/rv32imac/ilp32\libnosys.a(read.o)
                0x000000000000ced2                _read
 .text._sbrk    0x000000000000cee2       0x24 d:/ide/mounriver/mounriver_studio/toolchain/risc-v embedded gcc/bin/../lib/gcc/riscv-none-embed/8.2.0/../../../../riscv-none-embed/lib/rv32imac/ilp32\libnosys.a(sbrk.o)
                0x000000000000cee2                _sbrk
 *(.rodata)
 *fill*         0x000000000000cf06        0x2 
 .rodata        0x000000000000cf08       0x52 ./zf_driver/zf_driver_encoder.o
 *fill*         0x000000000000cf5a        0x2 
 .rodata        0x000000000000cf5c       0x78 ./zf_driver/zf_driver_pit.o
 .rodata        0x000000000000cfd4       0x4e ./zf_driver/zf_driver_spi.o
 *fill*         0x000000000000d022        0x2 
 .rodata        0x000000000000d024      0x25f ./zf_device/zf_device_bluetooth_ch9141.o
 *fill*         0x000000000000d283        0x1 
 .rodata        0x000000000000d284      0x27f ./zf_device/zf_device_bluetooth_ch9141_ch2.o
 *fill*         0x000000000000d503        0x1 
 .rodata        0x000000000000d504       0x5b ./zf_device/zf_device_ips114.o
 *fill*         0x000000000000d55f        0x1 
 .rodata        0x000000000000d560       0x6e ./zf_device/zf_device_mpu6050.o
 *fill*         0x000000000000d5ce        0x2 
 .rodata        0x000000000000d5d0       0x56 ./zf_device/zf_device_mt9v03x_dvp.o
 *fill*         0x000000000000d626        0x2 
 .rodata        0x000000000000d628       0x45 ./zf_common/zf_common_debug.o
 *fill*         0x000000000000d66d        0x3 
 .rodata        0x000000000000d670       0x10 ./zf_common/zf_common_function.o
 .rodata        0x000000000000d680       0x18 ./user_c/main.o
 .rodata        0x000000000000d698       0x41 ./sdk/Peripheral/ch32v30x_usbotg_device.o
 *fill*         0x000000000000d6d9        0x3 
 .rodata        0x000000000000d6dc        0x4 ./code/Encoder.o
 *(.rodata*)
 .rodata.gpio_group
                0x000000000000d6e0       0x14 ./zf_driver/zf_driver_gpio.o
                0x000000000000d6e0                gpio_group
 .rodata.spi_index
                0x000000000000d6f4        0xc ./zf_driver/zf_driver_spi.o
                0x000000000000d6f4                spi_index
 .rodata.tim_index
                0x000000000000d700       0x28 ./zf_driver/zf_driver_timer.o
                0x000000000000d700                tim_index
 .rodata.uart_index
                0x000000000000d728       0x20 ./zf_driver/zf_driver_uart.o
                0x000000000000d728                uart_index
 .rodata.tft_ascii
                0x000000000000d748      0x5f0 ./zf_common/zf_common_font.o
                0x000000000000d748                tft_ascii
 .rodata.zf_sprintf
                0x000000000000dd38      0x150 ./zf_common/zf_common_function.o
 .rodata.MyDevDescrHD
                0x000000000000de88       0x12 ./sdk/Peripheral/ch32v30x_usbotg_device.o
                0x000000000000de88                MyDevDescrHD
 *fill*         0x000000000000de9a        0x2 
 .rodata.MyCfgDescrHD
                0x000000000000de9c       0x43 ./sdk/Peripheral/ch32v30x_usbotg_device.o
                0x000000000000de9c                MyCfgDescrHD
 *fill*         0x000000000000dedf        0x1 
 .rodata.MyReportDescHD
                0x000000000000dee0       0x14 ./sdk/Peripheral/ch32v30x_usbotg_device.o
                0x000000000000dee0                MyReportDescHD
 .rodata.MyManuInfoHD
                0x000000000000def4        0xe ./sdk/Peripheral/ch32v30x_usbotg_device.o
                0x000000000000def4                MyManuInfoHD
 *fill*         0x000000000000df02        0x2 
 .rodata.MyProdInfoHD
                0x000000000000df04        0xc ./sdk/Peripheral/ch32v30x_usbotg_device.o
                0x000000000000df04                MyProdInfoHD
 .rodata.MySerNumInfoHD
                0x000000000000df10       0x16 ./sdk/Peripheral/ch32v30x_usbotg_device.o
                0x000000000000df10                MySerNumInfoHD
 *fill*         0x000000000000df26        0x2 
 .rodata.MyUSBQUADescHD
                0x000000000000df28        0xa ./sdk/Peripheral/ch32v30x_usbotg_device.o
                0x000000000000df28                MyUSBQUADescHD
 *fill*         0x000000000000df32        0x2 
 .rodata.OTG_FS_IRQHandler
                0x000000000000df34       0xbc ./sdk/Peripheral/ch32v30x_usbotg_device.o
 .rodata.__divdf3
                0x000000000000dff0       0x40 d:/ide/mounriver/mounriver_studio/toolchain/risc-v embedded gcc/bin/../lib/gcc/riscv-none-embed/8.2.0/rv32imac/ilp32\libgcc.a(divdf3.o)
 .rodata.__muldf3
                0x000000000000e030       0x40 d:/ide/mounriver/mounriver_studio/toolchain/risc-v embedded gcc/bin/../lib/gcc/riscv-none-embed/8.2.0/rv32imac/ilp32\libgcc.a(muldf3.o)
 .rodata.__divsf3
                0x000000000000e070       0x80 d:/ide/mounriver/mounriver_studio/toolchain/risc-v embedded gcc/bin/../lib/gcc/riscv-none-embed/8.2.0/rv32imac/ilp32\libgcc.a(divsf3.o)
 .rodata.__mulsf3
                0x000000000000e0f0       0x40 d:/ide/mounriver/mounriver_studio/toolchain/risc-v embedded gcc/bin/../lib/gcc/riscv-none-embed/8.2.0/rv32imac/ilp32\libgcc.a(mulsf3.o)
 .rodata.__clz_tab
                0x000000000000e130      0x100 d:/ide/mounriver/mounriver_studio/toolchain/risc-v embedded gcc/bin/../lib/gcc/riscv-none-embed/8.2.0/rv32imac/ilp32\libgcc.a(_clz.o)
                0x000000000000e130                __clz_tab
 .rodata._printf_float.cst8
                0x000000000000e230        0x8 d:/ide/mounriver/mounriver_studio/toolchain/risc-v embedded gcc/bin/../lib/gcc/riscv-none-embed/8.2.0/../../../../riscv-none-embed/lib/rv32imac/ilp32\libg_nano.a(lib_a-nano-vfprintf_float.o)
 .rodata._printf_float.str1.4
                0x000000000000e238       0x12 d:/ide/mounriver/mounriver_studio/toolchain/risc-v embedded gcc/bin/../lib/gcc/riscv-none-embed/8.2.0/../../../../riscv-none-embed/lib/rv32imac/ilp32\libg_nano.a(lib_a-nano-vfprintf_float.o)
 *fill*         0x000000000000e24a        0x2 
 .rodata._printf_i.str1.4
                0x000000000000e24c       0x25 d:/ide/mounriver/mounriver_studio/toolchain/risc-v embedded gcc/bin/../lib/gcc/riscv-none-embed/8.2.0/../../../../riscv-none-embed/lib/rv32imac/ilp32\libg_nano.a(lib_a-nano-vfprintf_i.o)
 *fill*         0x000000000000e271        0x7 
 .rodata._dtoa_r.cst8
                0x000000000000e278       0x48 d:/ide/mounriver/mounriver_studio/toolchain/risc-v embedded gcc/bin/../lib/gcc/riscv-none-embed/8.2.0/../../../../riscv-none-embed/lib/rv32imac/ilp32\libg_nano.a(lib_a-dtoa.o)
 .rodata._dtoa_r.str1.4
                0x000000000000e2c0       0x10 d:/ide/mounriver/mounriver_studio/toolchain/risc-v embedded gcc/bin/../lib/gcc/riscv-none-embed/8.2.0/../../../../riscv-none-embed/lib/rv32imac/ilp32\libg_nano.a(lib_a-dtoa.o)
                                         0x12 (size before relaxing)
 .rodata.__sf_fake_stderr
                0x000000000000e2d0       0x20 d:/ide/mounriver/mounriver_studio/toolchain/risc-v embedded gcc/bin/../lib/gcc/riscv-none-embed/8.2.0/../../../../riscv-none-embed/lib/rv32imac/ilp32\libg_nano.a(lib_a-findfp.o)
                0x000000000000e2d0                __sf_fake_stderr
 .rodata.__sf_fake_stdin
                0x000000000000e2f0       0x20 d:/ide/mounriver/mounriver_studio/toolchain/risc-v embedded gcc/bin/../lib/gcc/riscv-none-embed/8.2.0/../../../../riscv-none-embed/lib/rv32imac/ilp32\libg_nano.a(lib_a-findfp.o)
                0x000000000000e2f0                __sf_fake_stdin
 .rodata.__sf_fake_stdout
                0x000000000000e310       0x20 d:/ide/mounriver/mounriver_studio/toolchain/risc-v embedded gcc/bin/../lib/gcc/riscv-none-embed/8.2.0/../../../../riscv-none-embed/lib/rv32imac/ilp32\libg_nano.a(lib_a-findfp.o)
                0x000000000000e310                __sf_fake_stdout
 .rodata.__mprec_bigtens
                0x000000000000e330       0x28 d:/ide/mounriver/mounriver_studio/toolchain/risc-v embedded gcc/bin/../lib/gcc/riscv-none-embed/8.2.0/../../../../riscv-none-embed/lib/rv32imac/ilp32\libg_nano.a(lib_a-mprec.o)
                0x000000000000e330                __mprec_bigtens
 .rodata.__mprec_tens
                0x000000000000e358       0xc8 d:/ide/mounriver/mounriver_studio/toolchain/risc-v embedded gcc/bin/../lib/gcc/riscv-none-embed/8.2.0/../../../../riscv-none-embed/lib/rv32imac/ilp32\libg_nano.a(lib_a-mprec.o)
                0x000000000000e358                __mprec_tens
 .rodata.p05.3319
                0x000000000000e420        0xc d:/ide/mounriver/mounriver_studio/toolchain/risc-v embedded gcc/bin/../lib/gcc/riscv-none-embed/8.2.0/../../../../riscv-none-embed/lib/rv32imac/ilp32\libg_nano.a(lib_a-mprec.o)
 .rodata._vfprintf_r.str1.4
                0x000000000000e42c       0x13 d:/ide/mounriver/mounriver_studio/toolchain/risc-v embedded gcc/bin/../lib/gcc/riscv-none-embed/8.2.0/../../../../riscv-none-embed/lib/rv32imac/ilp32\libg_nano.a(lib_a-nano-vfprintf.o)
 *fill*         0x000000000000e43f        0x1 
 .rodata._setlocale_r.str1.4
                0x000000000000e440        0xa d:/ide/mounriver/mounriver_studio/toolchain/risc-v embedded gcc/bin/../lib/gcc/riscv-none-embed/8.2.0/../../../../riscv-none-embed/lib/rv32imac/ilp32\libg_nano.a(lib_a-locale.o)
                                          0xd (size before relaxing)
 *fill*         0x000000000000e44a        0x2 
 .rodata.str1.4
                0x000000000000e44c        0x4 d:/ide/mounriver/mounriver_studio/toolchain/risc-v embedded gcc/bin/../lib/gcc/riscv-none-embed/8.2.0/../../../../riscv-none-embed/lib/rv32imac/ilp32\libg_nano.a(lib_a-locale.o)
                                          0x2 (size before relaxing)
 .rodata._ctype_
                0x000000000000e450      0x101 d:/ide/mounriver/mounriver_studio/toolchain/risc-v embedded gcc/bin/../lib/gcc/riscv-none-embed/8.2.0/../../../../riscv-none-embed/lib/rv32imac/ilp32\libg_nano.a(lib_a-ctype_.o)
                0x000000000000e450                _ctype_
 *(.glue_7)
 *(.glue_7t)
 *(.gnu.linkonce.t.*)
                0x000000000000e554                . = ALIGN (0x4)
 *fill*         0x000000000000e551        0x3 

.rela.dyn       0x000000000000e554        0x0
 .rela.init     0x000000000000e554        0x0 ./zf_driver/zf_driver_adc.o
 .rela.vector   0x000000000000e554        0x0 ./zf_driver/zf_driver_adc.o
 .rela.text.handle_reset
                0x000000000000e554        0x0 ./zf_driver/zf_driver_adc.o
 .rela.text._vfprintf_r
                0x000000000000e554        0x0 ./zf_driver/zf_driver_adc.o
 .rela.text._sbrk_r
                0x000000000000e554        0x0 ./zf_driver/zf_driver_adc.o
 .rela.text._write_r
                0x000000000000e554        0x0 ./zf_driver/zf_driver_adc.o
 .rela.text._close_r
                0x000000000000e554        0x0 ./zf_driver/zf_driver_adc.o
 .rela.text._fstat_r
                0x000000000000e554        0x0 ./zf_driver/zf_driver_adc.o
 .rela.text._isatty_r
                0x000000000000e554        0x0 ./zf_driver/zf_driver_adc.o
 .rela.text._lseek_r
                0x000000000000e554        0x0 ./zf_driver/zf_driver_adc.o
 .rela.text._read_r
                0x000000000000e554        0x0 ./zf_driver/zf_driver_adc.o
 .rela.text._close
                0x000000000000e554        0x0 ./zf_driver/zf_driver_adc.o
 .rela.text._fstat
                0x000000000000e554        0x0 ./zf_driver/zf_driver_adc.o
 .rela.text._isatty
                0x000000000000e554        0x0 ./zf_driver/zf_driver_adc.o
 .rela.text._lseek
                0x000000000000e554        0x0 ./zf_driver/zf_driver_adc.o
 .rela.text._read
                0x000000000000e554        0x0 ./zf_driver/zf_driver_adc.o
 .rela.text._sbrk
                0x000000000000e554        0x0 ./zf_driver/zf_driver_adc.o

.fini           0x000000000000e554        0x0
 *(SORT_NONE(.fini))
                0x000000000000e554                . = ALIGN (0x4)
                [!provide]                        PROVIDE (_etext = .)
                [!provide]                        PROVIDE (_eitcm = .)

.preinit_array  0x000000000000e554        0x0
                [!provide]                        PROVIDE (__preinit_array_start = .)
 *(.preinit_array)
                [!provide]                        PROVIDE (__preinit_array_end = .)

.init_array     0x000000000000e554        0x0
                [!provide]                        PROVIDE (__init_array_start = .)
 *(SORT_BY_INIT_PRIORITY(.init_array.*) SORT_BY_INIT_PRIORITY(.ctors.*))
 *(.init_array EXCLUDE_FILE(*crtend?.o *crtend.o *crtbegin?.o *crtbegin.o) .ctors)
                [!provide]                        PROVIDE (__init_array_end = .)

.fini_array     0x000000000000e554        0x0
                [!provide]                        PROVIDE (__fini_array_start = .)
 *(SORT_BY_INIT_PRIORITY(.fini_array.*) SORT_BY_INIT_PRIORITY(.dtors.*))
 *(.fini_array EXCLUDE_FILE(*crtend?.o *crtend.o *crtbegin?.o *crtbegin.o) .dtors)
                [!provide]                        PROVIDE (__fini_array_end = .)

.ctors
 *crtbegin.o(.ctors)
 *crtbegin?.o(.ctors)
 *(EXCLUDE_FILE(*crtend?.o *crtend.o) .ctors)
 *(SORT_BY_NAME(.ctors.*))
 *(.ctors)

.dtors
 *crtbegin.o(.dtors)
 *crtbegin?.o(.dtors)
 *(EXCLUDE_FILE(*crtend?.o *crtend.o) .dtors)
 *(SORT_BY_NAME(.dtors.*))
 *(.dtors)

.dalign         0x0000000020000000        0x0 load address 0x000000000000e554
                0x0000000020000000                . = ALIGN (0x4)
                0x0000000020000000                PROVIDE (_data_vma = .)

.dlalign        0x000000000000e554        0x0
                0x000000000000e554                . = ALIGN (0x4)
                0x000000000000e554                PROVIDE (_data_lma = .)

.data           0x0000000020000000      0x2b0 load address 0x000000000000e554
 *(.gnu.linkonce.r.*)
 *(.data .data.*)
 .data.mt9v03x_set_confing_buffer_dvp
                0x0000000020000000       0x28 ./zf_device/zf_device_mt9v03x_dvp.o
                0x0000000020000000                mt9v03x_set_confing_buffer_dvp
 .data.mt9v03x_get_confing_buffer_dvp
                0x0000000020000028       0x24 ./zf_device/zf_device_mt9v03x_dvp.o
                0x0000000020000028                mt9v03x_get_confing_buffer_dvp
 .data.APBAHBPrescTable
                0x000000002000004c       0x10 ./sdk/Peripheral/ch32v30x_rcc.o
 .data.TAB_USB_FS_OSC_DESC
                0x000000002000005c       0x43 ./sdk/Peripheral/ch32v30x_usbotg_device.o
                0x000000002000005c                TAB_USB_FS_OSC_DESC
 *fill*         0x000000002000009f        0x1 
 .data.impure_data
                0x00000000200000a0       0x60 d:/ide/mounriver/mounriver_studio/toolchain/risc-v embedded gcc/bin/../lib/gcc/riscv-none-embed/8.2.0/../../../../riscv-none-embed/lib/rv32imac/ilp32\libg_nano.a(lib_a-impure.o)
 .data.__global_locale
                0x0000000020000100      0x16c d:/ide/mounriver/mounriver_studio/toolchain/risc-v embedded gcc/bin/../lib/gcc/riscv-none-embed/8.2.0/../../../../riscv-none-embed/lib/rv32imac/ilp32\libg_nano.a(lib_a-locale.o)
                0x0000000020000100                __global_locale
 *(.gnu.linkonce.d.*)
                0x0000000020000270                . = ALIGN (0x8)
 *fill*         0x000000002000026c        0x4 
                0x0000000020000a70                PROVIDE (__global_pointer$ = (. + 0x800))
 *(.sdata .sdata.*)
 .sdata.encoder_dir_pin
                0x0000000020000270        0x8 ./zf_driver/zf_driver_encoder.o
 .sdata.ips114_pencolor
                0x0000000020000278        0x2 ./zf_device/zf_device_ips114.o
                0x0000000020000278                ips114_pencolor
 .sdata.ips114_bgcolor
                0x000000002000027a        0x2 ./zf_device/zf_device_ips114.o
                0x000000002000027a                ips114_bgcolor
 .sdata.ips114_display_dir
                0x000000002000027c        0x4 ./zf_device/zf_device_ips114.o
                0x000000002000027c                ips114_display_dir
 .sdata.ips114_x_max
                0x0000000020000280        0x1 ./zf_device/zf_device_ips114.o
                0x0000000020000280                ips114_x_max
 .sdata.ips114_y_max
                0x0000000020000281        0x1 ./zf_device/zf_device_ips114.o
                0x0000000020000281                ips114_y_max
 *fill*         0x0000000020000282        0x2 
 .sdata.ADCPrescTable
                0x0000000020000284        0x4 ./sdk/Peripheral/ch32v30x_rcc.o
 .sdata.USBHD_Dev_Speed
                0x0000000020000288        0x1 ./sdk/Peripheral/ch32v30x_usbotg_device.o
                0x0000000020000288                USBHD_Dev_Speed
 *fill*         0x0000000020000289        0x3 
 .sdata.LineCoding
                0x000000002000028c        0x7 ./sdk/Peripheral/ch32v30x_usbotg_device.o
                0x000000002000028c                LineCoding
 *fill*         0x0000000020000293        0x1 
 .sdata._last_desk
                0x0000000020000294        0x4 ./code/Desk_Change.o
                0x0000000020000294                _last_desk
 .sdata._now_mod
                0x0000000020000298        0x4 ./code/Desk_Change.o
                0x0000000020000298                _now_mod
 .sdata._impure_ptr
                0x000000002000029c        0x4 d:/ide/mounriver/mounriver_studio/toolchain/risc-v embedded gcc/bin/../lib/gcc/riscv-none-embed/8.2.0/../../../../riscv-none-embed/lib/rv32imac/ilp32\libg_nano.a(lib_a-impure.o)
                0x000000002000029c                _impure_ptr
 *(.sdata2.*)
 .sdata2.uart_irq
                0x00000000200002a0        0x8 ./zf_driver/zf_driver_uart.o
                0x00000000200002a0                uart_irq
 .sdata2.MyLangDescrHD
                0x00000000200002a8        0x4 ./sdk/Peripheral/ch32v30x_usbotg_device.o
                0x00000000200002a8                MyLangDescrHD
 .sdata2._global_impure_ptr
                0x00000000200002ac        0x4 d:/ide/mounriver/mounriver_studio/toolchain/risc-v embedded gcc/bin/../lib/gcc/riscv-none-embed/8.2.0/../../../../riscv-none-embed/lib/rv32imac/ilp32\libg_nano.a(lib_a-impure.o)
                0x00000000200002ac                _global_impure_ptr
 *(.gnu.linkonce.s.*)
                0x00000000200002b0                . = ALIGN (0x8)
 *(.srodata.cst16)
 *(.srodata.cst8)
 *(.srodata.cst4)
 *(.srodata.cst2)
 *(.srodata .srodata.*)
                0x00000000200002b0                . = ALIGN (0x4)
                0x00000000200002b0                PROVIDE (_edata = .)

.bss            0x00000000200002b0     0x5940 load address 0x000000000000e804
                0x00000000200002b0                . = ALIGN (0x4)
                0x00000000200002b0                PROVIDE (_sbss = .)
 *(.sbss*)
 .sbss.bluetooth_ch9141_data
                0x00000000200002b0        0x1 ./zf_device/zf_device_bluetooth_ch9141.o
 .sbss.bluetooth_ch9141_at_reply_index
                0x00000000200002b1        0x1 ./zf_device/zf_device_bluetooth_ch9141.o
 *fill*         0x00000000200002b2        0x2 
 .sbss.bluetooth_ch9141_at_cmd_state
                0x00000000200002b4        0x4 ./zf_device/zf_device_bluetooth_ch9141.o
 .sbss.bluetooth_ch9141_data_ch2
                0x00000000200002b8        0x1 ./zf_device/zf_device_bluetooth_ch9141_ch2.o
 .sbss.bluetooth_ch9141_at_reply_index_ch2
                0x00000000200002b9        0x1 ./zf_device/zf_device_bluetooth_ch9141_ch2.o
 *fill*         0x00000000200002ba        0x2 
 .sbss.bluetooth_ch9141_at_cmd_state_ch2
                0x00000000200002bc        0x4 ./zf_device/zf_device_bluetooth_ch9141_ch2.o
 .sbss.camera_buffer_addr
                0x00000000200002c0        0x4 ./zf_device/zf_device_mt9v03x_dvp.o
                0x00000000200002c0                camera_buffer_addr
 .sbss.mt9v03x_finish_flag_dvp
                0x00000000200002c4        0x1 ./zf_device/zf_device_mt9v03x_dvp.o
                0x00000000200002c4                mt9v03x_finish_flag_dvp
 *fill*         0x00000000200002c5        0x3 
 .sbss.receive_dvp
                0x00000000200002c8        0x3 ./zf_device/zf_device_mt9v03x_dvp.o
 .sbss.receive_num_dvp
                0x00000000200002cb        0x1 ./zf_device/zf_device_mt9v03x_dvp.o
 .sbss.uart_receive_flag_dvp
                0x00000000200002cc        0x1 ./zf_device/zf_device_mt9v03x_dvp.o
 *fill*         0x00000000200002cd        0x3 
 .sbss.scc8660_uart_receive_dvp
                0x00000000200002d0        0x3 ./zf_device/zf_device_scc8660_dvp.o
                0x00000000200002d0                scc8660_uart_receive_dvp
 .sbss.scc8660_uart_receive_num_dvp
                0x00000000200002d3        0x1 ./zf_device/zf_device_scc8660_dvp.o
                0x00000000200002d3                scc8660_uart_receive_num_dvp
 .sbss.scc8660_uart_receive_flag_dvp
                0x00000000200002d4        0x1 ./zf_device/zf_device_scc8660_dvp.o
                0x00000000200002d4                scc8660_uart_receive_flag_dvp
 .sbss.scc8660_finish_flag_dvp
                0x00000000200002d5        0x1 ./zf_device/zf_device_scc8660_dvp.o
                0x00000000200002d5                scc8660_finish_flag_dvp
 *fill*         0x00000000200002d6        0x2 
 .sbss.camera_type
                0x00000000200002d8        0x4 ./zf_device/zf_device_type.o
                0x00000000200002d8                camera_type
 .sbss.wireless_type
                0x00000000200002dc        0x4 ./zf_device/zf_device_type.o
                0x00000000200002dc                wireless_type
 .sbss.wireless_uart_data
                0x00000000200002e0        0x1 ./zf_device/zf_device_wireless_uart.o
 *fill*         0x00000000200002e1        0x3 
 .sbss.system_clock
                0x00000000200002e4        0x4 ./zf_common/zf_common_clock.o
                0x00000000200002e4                system_clock
 .sbss.zf_debug_init_flag
                0x00000000200002e8        0x1 ./zf_common/zf_common_debug.o
                0x00000000200002e8                zf_debug_init_flag
 *fill*         0x00000000200002e9        0x3 
 .sbss.EP0_DatabufHD
                0x00000000200002ec        0x8 ./sdk/Peripheral/ch32v30x_usbotg_device.o
                0x00000000200002ec                EP0_DatabufHD
 .sbss.pEP0_RAM_Addr
                0x00000000200002f4        0x4 ./sdk/Peripheral/ch32v30x_usbotg_device.o
                0x00000000200002f4                pEP0_RAM_Addr
 .sbss.pEP1_RAM_Addr
                0x00000000200002f8        0x4 ./sdk/Peripheral/ch32v30x_usbotg_device.o
                0x00000000200002f8                pEP1_RAM_Addr
 .sbss.pEP2_RAM_Addr
                0x00000000200002fc        0x4 ./sdk/Peripheral/ch32v30x_usbotg_device.o
                0x00000000200002fc                pEP2_RAM_Addr
 .sbss.pDescr   0x0000000020000300        0x4 ./sdk/Peripheral/ch32v30x_usbotg_device.o
                0x0000000020000300                pDescr
 .sbss.USBHD_Dev_SetupReqLen
                0x0000000020000304        0x2 ./sdk/Peripheral/ch32v30x_usbotg_device.o
                0x0000000020000304                USBHD_Dev_SetupReqLen
 .sbss.USBHD_Dev_SleepStatus
                0x0000000020000306        0x1 ./sdk/Peripheral/ch32v30x_usbotg_device.o
                0x0000000020000306                USBHD_Dev_SleepStatus
 .sbss.DevConfig
                0x0000000020000307        0x1 ./sdk/Peripheral/ch32v30x_usbotg_device.o
                0x0000000020000307                DevConfig
 .sbss.SetupReqCode
                0x0000000020000308        0x1 ./sdk/Peripheral/ch32v30x_usbotg_device.o
                0x0000000020000308                SetupReqCode
 *fill*         0x0000000020000309        0x1 
 .sbss.SetupReqLen
                0x000000002000030a        0x2 ./sdk/Peripheral/ch32v30x_usbotg_device.o
                0x000000002000030a                SetupReqLen
 .sbss.__malloc_free_list
                0x000000002000030c        0x4 d:/ide/mounriver/mounriver_studio/toolchain/risc-v embedded gcc/bin/../lib/gcc/riscv-none-embed/8.2.0/../../../../riscv-none-embed/lib/rv32imac/ilp32\libg_nano.a(lib_a-nano-mallocr.o)
                0x000000002000030c                __malloc_free_list
 .sbss.__malloc_sbrk_start
                0x0000000020000310        0x4 d:/ide/mounriver/mounriver_studio/toolchain/risc-v embedded gcc/bin/../lib/gcc/riscv-none-embed/8.2.0/../../../../riscv-none-embed/lib/rv32imac/ilp32\libg_nano.a(lib_a-nano-mallocr.o)
                0x0000000020000310                __malloc_sbrk_start
 .sbss.heap_end.1518
                0x0000000020000314        0x4 d:/ide/mounriver/mounriver_studio/toolchain/risc-v embedded gcc/bin/../lib/gcc/riscv-none-embed/8.2.0/../../../../riscv-none-embed/lib/rv32imac/ilp32\libnosys.a(sbrk.o)
 *(.gnu.linkonce.sb.*)
 *(.bss*)
 .bss.timer_function_state
                0x0000000020000318       0x28 ./zf_driver/zf_driver_timer.o
 .bss.bluetooth_ch9141_fifo
                0x0000000020000340       0x14 ./zf_device/zf_device_bluetooth_ch9141.o
 .bss.bluetooth_ch9141_at_reply
                0x0000000020000354       0x1e ./zf_device/zf_device_bluetooth_ch9141.o
 *fill*         0x0000000020000372        0x2 
 .bss.bluetooth_ch9141_fifo_ch2
                0x0000000020000374       0x14 ./zf_device/zf_device_bluetooth_ch9141_ch2.o
 .bss.bluetooth_ch9141_at_reply_ch2
                0x0000000020000388       0x1e ./zf_device/zf_device_bluetooth_ch9141_ch2.o
 *fill*         0x00000000200003a6        0x2 
 .bss.mpu6050_iic_struct
                0x00000000200003a8       0x10 ./zf_device/zf_device_mpu6050.o
 .bss.mt9v03x_image_dvp
                0x00000000200003b8     0x5820 ./zf_device/zf_device_mt9v03x_dvp.o
                0x00000000200003b8                mt9v03x_image_dvp
 .bss.wireless_uart_fifo
                0x0000000020005bd8       0x14 ./zf_device/zf_device_wireless_uart.o
 *(.gnu.linkonce.b.*)
 *(COMMON*)
 COMMON         0x0000000020005bec        0x4 d:/ide/mounriver/mounriver_studio/toolchain/risc-v embedded gcc/bin/../lib/gcc/riscv-none-embed/8.2.0/../../../../riscv-none-embed/lib/rv32imac/ilp32\libg_nano.a(lib_a-reent.o)
                0x0000000020005bec                errno
                0x0000000020005bf0                . = ALIGN (0x4)
                0x0000000020005bf0                PROVIDE (_ebss = .)
                [!provide]                        PROVIDE (_end = _ebss)
                0x0000000020005bf0                PROVIDE (end = .)

.stack          0x000000002000f800      0x800
                0x000000002000f800                . = ALIGN (0x4)
                [!provide]                        PROVIDE (_susrstack = .)
                0x0000000020010000                . = (. + __stack_size)
 *fill*         0x000000002000f800      0x800 
                0x0000000020010000                PROVIDE (_eusrstack = .)
OUTPUT(WML_Head_Car.elf elf32-littleriscv)

.debug_info     0x0000000000000000    0x2398b
 .debug_info    0x0000000000000000      0xf3f ./zf_driver/zf_driver_adc.o
 .debug_info    0x0000000000000f3f      0x141 ./zf_driver/zf_driver_delay.o
 .debug_info    0x0000000000001080      0xe95 ./zf_driver/zf_driver_dvp.o
 .debug_info    0x0000000000001f15     0x1283 ./zf_driver/zf_driver_encoder.o
 .debug_info    0x0000000000003198      0x5b5 ./zf_driver/zf_driver_gpio.o
 .debug_info    0x000000000000374d       0x26 ./zf_driver/zf_driver_irq.o
 .debug_info    0x0000000000003773     0x10ad ./zf_driver/zf_driver_pit.o
 .debug_info    0x0000000000004820     0x13e3 ./zf_driver/zf_driver_soft_iic.o
 .debug_info    0x0000000000005c03     0x151c ./zf_driver/zf_driver_spi.o
 .debug_info    0x000000000000711f      0xe85 ./zf_driver/zf_driver_timer.o
 .debug_info    0x0000000000007fa4     0x16a1 ./zf_driver/zf_driver_uart.o
 .debug_info    0x0000000000009645     0x136b ./zf_device/zf_device_bluetooth_ch9141.o
 .debug_info    0x000000000000a9b0     0x136b ./zf_device/zf_device_bluetooth_ch9141_ch2.o
 .debug_info    0x000000000000bd1b      0xc3d ./zf_device/zf_device_camera.o
 .debug_info    0x000000000000c958     0x1849 ./zf_device/zf_device_ips114.o
 .debug_info    0x000000000000e1a1      0xd59 ./zf_device/zf_device_mpu6050.o
 .debug_info    0x000000000000eefa     0x125d ./zf_device/zf_device_mt9v03x_dvp.o
 .debug_info    0x0000000000010157     0x147c ./zf_device/zf_device_scc8660_dvp.o
 .debug_info    0x00000000000115d3      0x10f ./zf_device/zf_device_type.o
 .debug_info    0x00000000000116e2     0x1075 ./zf_device/zf_device_wireless_uart.o
 .debug_info    0x0000000000012757      0xbd2 ./zf_common/zf_common_clock.o
 .debug_info    0x0000000000013329      0xfa5 ./zf_common/zf_common_debug.o
 .debug_info    0x00000000000142ce      0xbe3 ./zf_common/zf_common_fifo.o
 .debug_info    0x0000000000014eb1      0x1a9 ./zf_common/zf_common_font.o
 .debug_info    0x000000000001505a      0xf8b ./zf_common/zf_common_function.o
 .debug_info    0x0000000000015fe5      0x6a1 ./zf_common/zf_common_interrupt.o
 .debug_info    0x0000000000016686     0x15ce ./user_c/isr.o
 .debug_info    0x0000000000017c54     0x12b6 ./user_c/main.o
 .debug_info    0x0000000000018f0a       0x22 ./sdk/Startup/startup_ch32v30x.o
 .debug_info    0x0000000000018f2c      0x337 ./sdk/Startup/system_ch32v30x.o
 .debug_info    0x0000000000019263      0xd62 ./sdk/Peripheral/ch32v30x_adc.o
 .debug_info    0x0000000000019fc5      0x35f ./sdk/Peripheral/ch32v30x_exti.o
 .debug_info    0x000000000001a324      0x71b ./sdk/Peripheral/ch32v30x_gpio.o
 .debug_info    0x000000000001aa3f      0xc6a ./sdk/Peripheral/ch32v30x_rcc.o
 .debug_info    0x000000000001b6a9      0x95b ./sdk/Peripheral/ch32v30x_spi.o
 .debug_info    0x000000000001c004     0x1dde ./sdk/Peripheral/ch32v30x_tim.o
 .debug_info    0x000000000001dde2      0xa4e ./sdk/Peripheral/ch32v30x_usart.o
 .debug_info    0x000000000001e830     0x13b9 ./sdk/Peripheral/ch32v30x_usbotg_device.o
 .debug_info    0x000000000001fbe9      0x640 ./sdk/Core/core_riscv.o
 .debug_info    0x0000000000020229     0x13de ./code/Board_Common.o
 .debug_info    0x0000000000021607     0x117a ./code/Desk_Change.o
 .debug_info    0x0000000000022781     0x120a ./code/Encoder.o

.debug_abbrev   0x0000000000000000     0x5915
 .debug_abbrev  0x0000000000000000      0x268 ./zf_driver/zf_driver_adc.o
 .debug_abbrev  0x0000000000000268       0xbe ./zf_driver/zf_driver_delay.o
 .debug_abbrev  0x0000000000000326      0x24e ./zf_driver/zf_driver_dvp.o
 .debug_abbrev  0x0000000000000574      0x292 ./zf_driver/zf_driver_encoder.o
 .debug_abbrev  0x0000000000000806      0x1ac ./zf_driver/zf_driver_gpio.o
 .debug_abbrev  0x00000000000009b2       0x14 ./zf_driver/zf_driver_irq.o
 .debug_abbrev  0x00000000000009c6      0x25b ./zf_driver/zf_driver_pit.o
 .debug_abbrev  0x0000000000000c21      0x2fc ./zf_driver/zf_driver_soft_iic.o
 .debug_abbrev  0x0000000000000f1d      0x300 ./zf_driver/zf_driver_spi.o
 .debug_abbrev  0x000000000000121d      0x275 ./zf_driver/zf_driver_timer.o
 .debug_abbrev  0x0000000000001492      0x2e9 ./zf_driver/zf_driver_uart.o
 .debug_abbrev  0x000000000000177b      0x31d ./zf_device/zf_device_bluetooth_ch9141.o
 .debug_abbrev  0x0000000000001a98      0x31d ./zf_device/zf_device_bluetooth_ch9141_ch2.o
 .debug_abbrev  0x0000000000001db5      0x26b ./zf_device/zf_device_camera.o
 .debug_abbrev  0x0000000000002020      0x326 ./zf_device/zf_device_ips114.o
 .debug_abbrev  0x0000000000002346      0x264 ./zf_device/zf_device_mpu6050.o
 .debug_abbrev  0x00000000000025aa      0x330 ./zf_device/zf_device_mt9v03x_dvp.o
 .debug_abbrev  0x00000000000028da      0x330 ./zf_device/zf_device_scc8660_dvp.o
 .debug_abbrev  0x0000000000002c0a       0xb3 ./zf_device/zf_device_type.o
 .debug_abbrev  0x0000000000002cbd      0x25d ./zf_device/zf_device_wireless_uart.o
 .debug_abbrev  0x0000000000002f1a      0x278 ./zf_common/zf_common_clock.o
 .debug_abbrev  0x0000000000003192      0x2b1 ./zf_common/zf_common_debug.o
 .debug_abbrev  0x0000000000003443      0x278 ./zf_common/zf_common_fifo.o
 .debug_abbrev  0x00000000000036bb       0x8d ./zf_common/zf_common_font.o
 .debug_abbrev  0x0000000000003748      0x337 ./zf_common/zf_common_function.o
 .debug_abbrev  0x0000000000003a7f      0x19c ./zf_common/zf_common_interrupt.o
 .debug_abbrev  0x0000000000003c1b      0x24e ./user_c/isr.o
 .debug_abbrev  0x0000000000003e69      0x214 ./user_c/main.o
 .debug_abbrev  0x000000000000407d       0x12 ./sdk/Startup/startup_ch32v30x.o
 .debug_abbrev  0x000000000000408f      0x18e ./sdk/Startup/system_ch32v30x.o
 .debug_abbrev  0x000000000000421d      0x1c1 ./sdk/Peripheral/ch32v30x_adc.o
 .debug_abbrev  0x00000000000043de      0x157 ./sdk/Peripheral/ch32v30x_exti.o
 .debug_abbrev  0x0000000000004535      0x1da ./sdk/Peripheral/ch32v30x_gpio.o
 .debug_abbrev  0x000000000000470f      0x202 ./sdk/Peripheral/ch32v30x_rcc.o
 .debug_abbrev  0x0000000000004911      0x1b1 ./sdk/Peripheral/ch32v30x_spi.o
 .debug_abbrev  0x0000000000004ac2      0x1dc ./sdk/Peripheral/ch32v30x_tim.o
 .debug_abbrev  0x0000000000004c9e      0x1b1 ./sdk/Peripheral/ch32v30x_usart.o
 .debug_abbrev  0x0000000000004e4f      0x2ac ./sdk/Peripheral/ch32v30x_usbotg_device.o
 .debug_abbrev  0x00000000000050fb      0x10d ./sdk/Core/core_riscv.o
 .debug_abbrev  0x0000000000005208      0x252 ./code/Board_Common.o
 .debug_abbrev  0x000000000000545a      0x22b ./code/Desk_Change.o
 .debug_abbrev  0x0000000000005685      0x290 ./code/Encoder.o

.debug_aranges  0x0000000000000000     0x1570
 .debug_aranges
                0x0000000000000000       0x38 ./zf_driver/zf_driver_adc.o
 .debug_aranges
                0x0000000000000038       0x20 ./zf_driver/zf_driver_delay.o
 .debug_aranges
                0x0000000000000058       0x28 ./zf_driver/zf_driver_dvp.o
 .debug_aranges
                0x0000000000000080       0x40 ./zf_driver/zf_driver_encoder.o
 .debug_aranges
                0x00000000000000c0       0x38 ./zf_driver/zf_driver_gpio.o
 .debug_aranges
                0x00000000000000f8       0x20 ./zf_driver/zf_driver_irq.o
 .debug_aranges
                0x0000000000000118       0x30 ./zf_driver/zf_driver_pit.o
 .debug_aranges
                0x0000000000000148       0xe8 ./zf_driver/zf_driver_soft_iic.o
 .debug_aranges
                0x0000000000000230       0xb8 ./zf_driver/zf_driver_spi.o
 .debug_aranges
                0x00000000000002e8       0x40 ./zf_driver/zf_driver_timer.o
 .debug_aranges
                0x0000000000000328       0x68 ./zf_driver/zf_driver_uart.o
 .debug_aranges
                0x0000000000000390       0xb8 ./zf_device/zf_device_bluetooth_ch9141.o
 .debug_aranges
                0x0000000000000448       0xb8 ./zf_device/zf_device_bluetooth_ch9141_ch2.o
 .debug_aranges
                0x0000000000000500       0x48 ./zf_device/zf_device_camera.o
 .debug_aranges
                0x0000000000000548       0xb8 ./zf_device/zf_device_ips114.o
 .debug_aranges
                0x0000000000000600       0x38 ./zf_device/zf_device_mpu6050.o
 .debug_aranges
                0x0000000000000638       0x58 ./zf_device/zf_device_mt9v03x_dvp.o
 .debug_aranges
                0x0000000000000690       0x80 ./zf_device/zf_device_scc8660_dvp.o
 .debug_aranges
                0x0000000000000710       0x28 ./zf_device/zf_device_type.o
 .debug_aranges
                0x0000000000000738       0x38 ./zf_device/zf_device_wireless_uart.o
 .debug_aranges
                0x0000000000000770       0x30 ./zf_common/zf_common_clock.o
 .debug_aranges
                0x00000000000007a0       0x48 ./zf_common/zf_common_debug.o
 .debug_aranges
                0x00000000000007e8       0x50 ./zf_common/zf_common_fifo.o
 .debug_aranges
                0x0000000000000838       0x18 ./zf_common/zf_common_font.o
 .debug_aranges
                0x0000000000000850       0x70 ./zf_common/zf_common_function.o
 .debug_aranges
                0x00000000000008c0       0x60 ./zf_common/zf_common_interrupt.o
 .debug_aranges
                0x0000000000000920       0xf8 ./user_c/isr.o
 .debug_aranges
                0x0000000000000a18       0x20 ./user_c/main.o
 .debug_aranges
                0x0000000000000a38       0x30 ./sdk/Startup/startup_ch32v30x.o
 .debug_aranges
                0x0000000000000a68       0x38 ./sdk/Startup/system_ch32v30x.o
 .debug_aranges
                0x0000000000000aa0      0x150 ./sdk/Peripheral/ch32v30x_adc.o
 .debug_aranges
                0x0000000000000bf0       0x58 ./sdk/Peripheral/ch32v30x_exti.o
 .debug_aranges
                0x0000000000000c48       0xa8 ./sdk/Peripheral/ch32v30x_gpio.o
 .debug_aranges
                0x0000000000000cf0      0x1a8 ./sdk/Peripheral/ch32v30x_rcc.o
 .debug_aranges
                0x0000000000000e98       0xd0 ./sdk/Peripheral/ch32v30x_spi.o
 .debug_aranges
                0x0000000000000f68      0x2f0 ./sdk/Peripheral/ch32v30x_tim.o
 .debug_aranges
                0x0000000000001258      0x100 ./sdk/Peripheral/ch32v30x_usart.o
 .debug_aranges
                0x0000000000001358       0x50 ./sdk/Peripheral/ch32v30x_usbotg_device.o
 .debug_aranges
                0x00000000000013a8      0x138 ./sdk/Core/core_riscv.o
 .debug_aranges
                0x00000000000014e0       0x30 ./code/Board_Common.o
 .debug_aranges
                0x0000000000001510       0x20 ./code/Desk_Change.o
 .debug_aranges
                0x0000000000001530       0x40 ./code/Encoder.o

.debug_ranges   0x0000000000000000     0x12c0
 .debug_ranges  0x0000000000000000       0x28 ./zf_driver/zf_driver_adc.o
 .debug_ranges  0x0000000000000028       0x10 ./zf_driver/zf_driver_delay.o
 .debug_ranges  0x0000000000000038       0x18 ./zf_driver/zf_driver_dvp.o
 .debug_ranges  0x0000000000000050       0x30 ./zf_driver/zf_driver_encoder.o
 .debug_ranges  0x0000000000000080       0x28 ./zf_driver/zf_driver_gpio.o
 .debug_ranges  0x00000000000000a8       0x20 ./zf_driver/zf_driver_pit.o
 .debug_ranges  0x00000000000000c8       0xd8 ./zf_driver/zf_driver_soft_iic.o
 .debug_ranges  0x00000000000001a0       0xa8 ./zf_driver/zf_driver_spi.o
 .debug_ranges  0x0000000000000248       0x30 ./zf_driver/zf_driver_timer.o
 .debug_ranges  0x0000000000000278       0x58 ./zf_driver/zf_driver_uart.o
 .debug_ranges  0x00000000000002d0       0xa8 ./zf_device/zf_device_bluetooth_ch9141.o
 .debug_ranges  0x0000000000000378       0xa8 ./zf_device/zf_device_bluetooth_ch9141_ch2.o
 .debug_ranges  0x0000000000000420       0x38 ./zf_device/zf_device_camera.o
 .debug_ranges  0x0000000000000458       0xa8 ./zf_device/zf_device_ips114.o
 .debug_ranges  0x0000000000000500       0x28 ./zf_device/zf_device_mpu6050.o
 .debug_ranges  0x0000000000000528       0x48 ./zf_device/zf_device_mt9v03x_dvp.o
 .debug_ranges  0x0000000000000570       0x70 ./zf_device/zf_device_scc8660_dvp.o
 .debug_ranges  0x00000000000005e0       0x18 ./zf_device/zf_device_type.o
 .debug_ranges  0x00000000000005f8       0x28 ./zf_device/zf_device_wireless_uart.o
 .debug_ranges  0x0000000000000620       0x20 ./zf_common/zf_common_clock.o
 .debug_ranges  0x0000000000000640       0x38 ./zf_common/zf_common_debug.o
 .debug_ranges  0x0000000000000678       0x40 ./zf_common/zf_common_fifo.o
 .debug_ranges  0x00000000000006b8       0x60 ./zf_common/zf_common_function.o
 .debug_ranges  0x0000000000000718       0x50 ./zf_common/zf_common_interrupt.o
 .debug_ranges  0x0000000000000768       0xe8 ./user_c/isr.o
 .debug_ranges  0x0000000000000850       0x10 ./user_c/main.o
 .debug_ranges  0x0000000000000860       0x28 ./sdk/Startup/startup_ch32v30x.o
 .debug_ranges  0x0000000000000888       0x28 ./sdk/Startup/system_ch32v30x.o
 .debug_ranges  0x00000000000008b0      0x140 ./sdk/Peripheral/ch32v30x_adc.o
 .debug_ranges  0x00000000000009f0       0x48 ./sdk/Peripheral/ch32v30x_exti.o
 .debug_ranges  0x0000000000000a38       0x98 ./sdk/Peripheral/ch32v30x_gpio.o
 .debug_ranges  0x0000000000000ad0      0x198 ./sdk/Peripheral/ch32v30x_rcc.o
 .debug_ranges  0x0000000000000c68       0xc0 ./sdk/Peripheral/ch32v30x_spi.o
 .debug_ranges  0x0000000000000d28      0x2e0 ./sdk/Peripheral/ch32v30x_tim.o
 .debug_ranges  0x0000000000001008       0xf0 ./sdk/Peripheral/ch32v30x_usart.o
 .debug_ranges  0x00000000000010f8       0x40 ./sdk/Peripheral/ch32v30x_usbotg_device.o
 .debug_ranges  0x0000000000001138      0x128 ./sdk/Core/core_riscv.o
 .debug_ranges  0x0000000000001260       0x20 ./code/Board_Common.o
 .debug_ranges  0x0000000000001280       0x10 ./code/Desk_Change.o
 .debug_ranges  0x0000000000001290       0x30 ./code/Encoder.o

.debug_line     0x0000000000000000    0x190d2
 .debug_line    0x0000000000000000      0x710 ./zf_driver/zf_driver_adc.o
 .debug_line    0x0000000000000710      0x2ae ./zf_driver/zf_driver_delay.o
 .debug_line    0x00000000000009be      0x453 ./zf_driver/zf_driver_dvp.o
 .debug_line    0x0000000000000e11      0x7b5 ./zf_driver/zf_driver_encoder.o
 .debug_line    0x00000000000015c6      0x4fd ./zf_driver/zf_driver_gpio.o
 .debug_line    0x0000000000001ac3       0x96 ./zf_driver/zf_driver_irq.o
 .debug_line    0x0000000000001b59      0x4cc ./zf_driver/zf_driver_pit.o
 .debug_line    0x0000000000002025      0xedc ./zf_driver/zf_driver_soft_iic.o
 .debug_line    0x0000000000002f01     0x1a26 ./zf_driver/zf_driver_spi.o
 .debug_line    0x0000000000004927      0x635 ./zf_driver/zf_driver_timer.o
 .debug_line    0x0000000000004f5c      0xc66 ./zf_driver/zf_driver_uart.o
 .debug_line    0x0000000000005bc2      0xcda ./zf_device/zf_device_bluetooth_ch9141.o
 .debug_line    0x000000000000689c      0xcde ./zf_device/zf_device_bluetooth_ch9141_ch2.o
 .debug_line    0x000000000000757a      0x54c ./zf_device/zf_device_camera.o
 .debug_line    0x0000000000007ac6     0x1550 ./zf_device/zf_device_ips114.o
 .debug_line    0x0000000000009016      0x592 ./zf_device/zf_device_mpu6050.o
 .debug_line    0x00000000000095a8      0xbae ./zf_device/zf_device_mt9v03x_dvp.o
 .debug_line    0x000000000000a156      0xdbb ./zf_device/zf_device_scc8660_dvp.o
 .debug_line    0x000000000000af11       0xc7 ./zf_device/zf_device_type.o
 .debug_line    0x000000000000afd8      0x541 ./zf_device/zf_device_wireless_uart.o
 .debug_line    0x000000000000b519      0x5b4 ./zf_common/zf_common_clock.o
 .debug_line    0x000000000000bacd      0x5cf ./zf_common/zf_common_debug.o
 .debug_line    0x000000000000c09c      0x61e ./zf_common/zf_common_fifo.o
 .debug_line    0x000000000000c6ba      0x162 ./zf_common/zf_common_font.o
 .debug_line    0x000000000000c81c      0xdde ./zf_common/zf_common_function.o
 .debug_line    0x000000000000d5fa      0x3de ./zf_common/zf_common_interrupt.o
 .debug_line    0x000000000000d9d8      0xbfe ./user_c/isr.o
 .debug_line    0x000000000000e5d6      0x6d3 ./user_c/main.o
 .debug_line    0x000000000000eca9      0x38d ./sdk/Startup/startup_ch32v30x.o
 .debug_line    0x000000000000f036      0x5de ./sdk/Startup/system_ch32v30x.o
 .debug_line    0x000000000000f614     0x124e ./sdk/Peripheral/ch32v30x_adc.o
 .debug_line    0x0000000000010862      0x581 ./sdk/Peripheral/ch32v30x_exti.o
 .debug_line    0x0000000000010de3      0xa4e ./sdk/Peripheral/ch32v30x_gpio.o
 .debug_line    0x0000000000011831     0x129b ./sdk/Peripheral/ch32v30x_rcc.o
 .debug_line    0x0000000000012acc      0xa97 ./sdk/Peripheral/ch32v30x_spi.o
 .debug_line    0x0000000000013563     0x224b ./sdk/Peripheral/ch32v30x_tim.o
 .debug_line    0x00000000000157ae      0xc77 ./sdk/Peripheral/ch32v30x_usart.o
 .debug_line    0x0000000000016425     0x1416 ./sdk/Peripheral/ch32v30x_usbotg_device.o
 .debug_line    0x000000000001783b      0x6d1 ./sdk/Core/core_riscv.o
 .debug_line    0x0000000000017f0c      0x5e9 ./code/Board_Common.o
 .debug_line    0x00000000000184f5      0x557 ./code/Desk_Change.o
 .debug_line    0x0000000000018a4c      0x686 ./code/Encoder.o

.debug_str      0x0000000000000000     0x73d3
 .debug_str     0x0000000000000000      0x89d ./zf_driver/zf_driver_adc.o
                                        0x935 (size before relaxing)
 .debug_str     0x000000000000089d       0x87 ./zf_driver/zf_driver_delay.o
                                        0x22c (size before relaxing)
 .debug_str     0x0000000000000924      0x66e ./zf_driver/zf_driver_dvp.o
                                        0xcc9 (size before relaxing)
 .debug_str     0x0000000000000f92      0x74d ./zf_driver/zf_driver_encoder.o
                                        0xdde (size before relaxing)
 .debug_str     0x00000000000016df      0x244 ./zf_driver/zf_driver_gpio.o
                                        0x458 (size before relaxing)
 .debug_str     0x0000000000001923       0x5a ./zf_driver/zf_driver_irq.o
                                         0x94 (size before relaxing)
 .debug_str     0x000000000000197d      0x10e ./zf_driver/zf_driver_pit.o
                                        0xed5 (size before relaxing)
 .debug_str     0x0000000000001a8b      0x2f5 ./zf_driver/zf_driver_soft_iic.o
                                        0x9c0 (size before relaxing)
 .debug_str     0x0000000000001d80      0x405 ./zf_driver/zf_driver_spi.o
                                        0xb5c (size before relaxing)
 .debug_str     0x0000000000002185       0xf7 ./zf_driver/zf_driver_timer.o
                                        0x99f (size before relaxing)
 .debug_str     0x000000000000227c      0x4c9 ./zf_driver/zf_driver_uart.o
                                       0x1137 (size before relaxing)
 .debug_str     0x0000000000002745      0x7d4 ./zf_device/zf_device_bluetooth_ch9141.o
                                       0x10ad (size before relaxing)
 .debug_str     0x0000000000002f19      0x1ea ./zf_device/zf_device_bluetooth_ch9141_ch2.o
                                       0x10d5 (size before relaxing)
 .debug_str     0x0000000000003103      0x1b1 ./zf_device/zf_device_camera.o
                                        0x8a2 (size before relaxing)
 .debug_str     0x00000000000032b4      0x32d ./zf_device/zf_device_ips114.o
                                        0xb60 (size before relaxing)
 .debug_str     0x00000000000035e1       0xf4 ./zf_device/zf_device_mpu6050.o
                                        0x73b (size before relaxing)
 .debug_str     0x00000000000036d5      0x1a8 ./zf_device/zf_device_mt9v03x_dvp.o
                                        0xbc8 (size before relaxing)
 .debug_str     0x000000000000387d      0x2df ./zf_device/zf_device_scc8660_dvp.o
                                        0xd89 (size before relaxing)
 .debug_str     0x0000000000003b5c       0x7a ./zf_device/zf_device_type.o
                                        0x222 (size before relaxing)
 .debug_str     0x0000000000003bd6      0x17b ./zf_device/zf_device_wireless_uart.o
                                        0xb2e (size before relaxing)
 .debug_str     0x0000000000003d51      0x192 ./zf_common/zf_common_clock.o
                                        0x770 (size before relaxing)
 .debug_str     0x0000000000003ee3       0xce ./zf_common/zf_common_debug.o
                                        0x9c9 (size before relaxing)
 .debug_str     0x0000000000003fb1      0x134 ./zf_common/zf_common_fifo.o
                                        0x72b (size before relaxing)
 .debug_str     0x00000000000040e5       0x4f ./zf_common/zf_common_font.o
                                        0x21b (size before relaxing)
 .debug_str     0x0000000000004134      0x1a8 ./zf_common/zf_common_function.o
                                        0x797 (size before relaxing)
 .debug_str     0x00000000000042dc      0x113 ./zf_common/zf_common_interrupt.o
                                        0x8c0 (size before relaxing)
 .debug_str     0x00000000000043ef      0x518 ./user_c/isr.o
                                        0xfa7 (size before relaxing)
 .debug_str     0x0000000000004907       0xa3 ./user_c/main.o
                                        0xd99 (size before relaxing)
 .debug_str     0x00000000000049aa       0x53 ./sdk/Startup/startup_ch32v30x.o
                                         0x99 (size before relaxing)
 .debug_str     0x00000000000049fd       0xaa ./sdk/Startup/system_ch32v30x.o
                                        0x33b (size before relaxing)
 .debug_str     0x0000000000004aa7      0x4f3 ./sdk/Peripheral/ch32v30x_adc.o
                                        0x846 (size before relaxing)
 .debug_str     0x0000000000004f9a      0x1df ./sdk/Peripheral/ch32v30x_exti.o
                                        0x3d3 (size before relaxing)
 .debug_str     0x0000000000005179      0x24c ./sdk/Peripheral/ch32v30x_gpio.o
                                        0x5a0 (size before relaxing)
 .debug_str     0x00000000000053c5      0x631 ./sdk/Peripheral/ch32v30x_rcc.o
                                        0x907 (size before relaxing)
 .debug_str     0x00000000000059f6      0x2c9 ./sdk/Peripheral/ch32v30x_spi.o
                                        0x686 (size before relaxing)
 .debug_str     0x0000000000005cbf      0xa70 ./sdk/Peripheral/ch32v30x_tim.o
                                        0xe93 (size before relaxing)
 .debug_str     0x000000000000672f      0x3b3 ./sdk/Peripheral/ch32v30x_usart.o
                                        0x71d (size before relaxing)
 .debug_str     0x0000000000006ae2      0x560 ./sdk/Peripheral/ch32v30x_usbotg_device.o
                                        0xc86 (size before relaxing)
 .debug_str     0x0000000000007042      0x213 ./sdk/Core/core_riscv.o
                                        0x3a7 (size before relaxing)
 .debug_str     0x0000000000007255       0x7b ./code/Board_Common.o
                                        0xf96 (size before relaxing)
 .debug_str     0x00000000000072d0       0x52 ./code/Desk_Change.o
                                        0xbfc (size before relaxing)
 .debug_str     0x0000000000007322       0xb1 ./code/Encoder.o
                                        0xfed (size before relaxing)

.comment        0x0000000000000000       0x33
 .comment       0x0000000000000000       0x33 ./zf_driver/zf_driver_adc.o
                                         0x34 (size before relaxing)
 .comment       0x0000000000000033       0x34 ./zf_driver/zf_driver_delay.o
 .comment       0x0000000000000033       0x34 ./zf_driver/zf_driver_dvp.o
 .comment       0x0000000000000033       0x34 ./zf_driver/zf_driver_encoder.o
 .comment       0x0000000000000033       0x34 ./zf_driver/zf_driver_gpio.o
 .comment       0x0000000000000033       0x34 ./zf_driver/zf_driver_pit.o
 .comment       0x0000000000000033       0x34 ./zf_driver/zf_driver_soft_iic.o
 .comment       0x0000000000000033       0x34 ./zf_driver/zf_driver_spi.o
 .comment       0x0000000000000033       0x34 ./zf_driver/zf_driver_timer.o
 .comment       0x0000000000000033       0x34 ./zf_driver/zf_driver_uart.o
 .comment       0x0000000000000033       0x34 ./zf_device/zf_device_bluetooth_ch9141.o
 .comment       0x0000000000000033       0x34 ./zf_device/zf_device_bluetooth_ch9141_ch2.o
 .comment       0x0000000000000033       0x34 ./zf_device/zf_device_camera.o
 .comment       0x0000000000000033       0x34 ./zf_device/zf_device_ips114.o
 .comment       0x0000000000000033       0x34 ./zf_device/zf_device_mpu6050.o
 .comment       0x0000000000000033       0x34 ./zf_device/zf_device_mt9v03x_dvp.o
 .comment       0x0000000000000033       0x34 ./zf_device/zf_device_scc8660_dvp.o
 .comment       0x0000000000000033       0x34 ./zf_device/zf_device_type.o
 .comment       0x0000000000000033       0x34 ./zf_device/zf_device_wireless_uart.o
 .comment       0x0000000000000033       0x34 ./zf_common/zf_common_clock.o
 .comment       0x0000000000000033       0x34 ./zf_common/zf_common_debug.o
 .comment       0x0000000000000033       0x34 ./zf_common/zf_common_fifo.o
 .comment       0x0000000000000033       0x34 ./zf_common/zf_common_font.o
 .comment       0x0000000000000033       0x34 ./zf_common/zf_common_function.o
 .comment       0x0000000000000033       0x34 ./zf_common/zf_common_interrupt.o
 .comment       0x0000000000000033       0x34 ./user_c/isr.o
 .comment       0x0000000000000033       0x34 ./user_c/main.o
 .comment       0x0000000000000033       0x34 ./sdk/Startup/system_ch32v30x.o
 .comment       0x0000000000000033       0x34 ./sdk/Peripheral/ch32v30x_adc.o
 .comment       0x0000000000000033       0x34 ./sdk/Peripheral/ch32v30x_exti.o
 .comment       0x0000000000000033       0x34 ./sdk/Peripheral/ch32v30x_gpio.o
 .comment       0x0000000000000033       0x34 ./sdk/Peripheral/ch32v30x_rcc.o
 .comment       0x0000000000000033       0x34 ./sdk/Peripheral/ch32v30x_spi.o
 .comment       0x0000000000000033       0x34 ./sdk/Peripheral/ch32v30x_tim.o
 .comment       0x0000000000000033       0x34 ./sdk/Peripheral/ch32v30x_usart.o
 .comment       0x0000000000000033       0x34 ./sdk/Peripheral/ch32v30x_usbotg_device.o
 .comment       0x0000000000000033       0x34 ./sdk/Core/core_riscv.o
 .comment       0x0000000000000033       0x34 ./code/Board_Common.o
 .comment       0x0000000000000033       0x34 ./code/Desk_Change.o
 .comment       0x0000000000000033       0x34 ./code/Encoder.o

.debug_frame    0x0000000000000000     0x6030
 .debug_frame   0x0000000000000000       0xa4 ./zf_driver/zf_driver_adc.o
 .debug_frame   0x00000000000000a4       0x30 ./zf_driver/zf_driver_delay.o
 .debug_frame   0x00000000000000d4       0x60 ./zf_driver/zf_driver_dvp.o
 .debug_frame   0x0000000000000134       0xc8 ./zf_driver/zf_driver_encoder.o
 .debug_frame   0x00000000000001fc       0x98 ./zf_driver/zf_driver_gpio.o
 .debug_frame   0x0000000000000294       0x80 ./zf_driver/zf_driver_pit.o
 .debug_frame   0x0000000000000314      0x3dc ./zf_driver/zf_driver_soft_iic.o
 .debug_frame   0x00000000000006f0      0x2b8 ./zf_driver/zf_driver_spi.o
 .debug_frame   0x00000000000009a8       0xbc ./zf_driver/zf_driver_timer.o
 .debug_frame   0x0000000000000a64      0x174 ./zf_driver/zf_driver_uart.o
 .debug_frame   0x0000000000000bd8      0x320 ./zf_device/zf_device_bluetooth_ch9141.o
 .debug_frame   0x0000000000000ef8      0x320 ./zf_device/zf_device_bluetooth_ch9141_ch2.o
 .debug_frame   0x0000000000001218       0xdc ./zf_device/zf_device_camera.o
 .debug_frame   0x00000000000012f4      0x330 ./zf_device/zf_device_ips114.o
 .debug_frame   0x0000000000001624       0xb4 ./zf_device/zf_device_mpu6050.o
 .debug_frame   0x00000000000016d8      0x17c ./zf_device/zf_device_mt9v03x_dvp.o
 .debug_frame   0x0000000000001854      0x244 ./zf_device/zf_device_scc8660_dvp.o
 .debug_frame   0x0000000000001a98       0x50 ./zf_device/zf_device_type.o
 .debug_frame   0x0000000000001ae8       0xb4 ./zf_device/zf_device_wireless_uart.o
 .debug_frame   0x0000000000001b9c       0x78 ./zf_common/zf_common_clock.o
 .debug_frame   0x0000000000001c14      0x10c ./zf_common/zf_common_debug.o
 .debug_frame   0x0000000000001d20      0x104 ./zf_common/zf_common_fifo.o
 .debug_frame   0x0000000000001e24      0x190 ./zf_common/zf_common_function.o
 .debug_frame   0x0000000000001fb4      0x144 ./zf_common/zf_common_interrupt.o
 .debug_frame   0x00000000000020f8      0x38c ./user_c/isr.o
 .debug_frame   0x0000000000002484       0x2c ./user_c/main.o
 .debug_frame   0x00000000000024b0       0xa0 ./sdk/Startup/system_ch32v30x.o
 .debug_frame   0x0000000000002550      0x504 ./sdk/Peripheral/ch32v30x_adc.o
 .debug_frame   0x0000000000002a54      0x114 ./sdk/Peripheral/ch32v30x_exti.o
 .debug_frame   0x0000000000002b68      0x264 ./sdk/Peripheral/ch32v30x_gpio.o
 .debug_frame   0x0000000000002dcc      0x658 ./sdk/Peripheral/ch32v30x_rcc.o
 .debug_frame   0x0000000000003424      0x2fc ./sdk/Peripheral/ch32v30x_spi.o
 .debug_frame   0x0000000000003720      0xbbc ./sdk/Peripheral/ch32v30x_tim.o
 .debug_frame   0x00000000000042dc      0x3bc ./sdk/Peripheral/ch32v30x_usart.o
 .debug_frame   0x0000000000004698      0x100 ./sdk/Peripheral/ch32v30x_usbotg_device.o
 .debug_frame   0x0000000000004798      0x490 ./sdk/Core/core_riscv.o
 .debug_frame   0x0000000000004c28       0x84 ./code/Board_Common.o
 .debug_frame   0x0000000000004cac       0x34 ./code/Desk_Change.o
 .debug_frame   0x0000000000004ce0       0xc4 ./code/Encoder.o
 .debug_frame   0x0000000000004da4       0x44 d:/ide/mounriver/mounriver_studio/toolchain/risc-v embedded gcc/bin/../lib/gcc/riscv-none-embed/8.2.0/rv32imac/ilp32\libgcc.a(adddf3.o)
 .debug_frame   0x0000000000004de8       0x50 d:/ide/mounriver/mounriver_studio/toolchain/risc-v embedded gcc/bin/../lib/gcc/riscv-none-embed/8.2.0/rv32imac/ilp32\libgcc.a(divdf3.o)
 .debug_frame   0x0000000000004e38       0x20 d:/ide/mounriver/mounriver_studio/toolchain/risc-v embedded gcc/bin/../lib/gcc/riscv-none-embed/8.2.0/rv32imac/ilp32\libgcc.a(eqdf2.o)
 .debug_frame   0x0000000000004e58       0x20 d:/ide/mounriver/mounriver_studio/toolchain/risc-v embedded gcc/bin/../lib/gcc/riscv-none-embed/8.2.0/rv32imac/ilp32\libgcc.a(gedf2.o)
 .debug_frame   0x0000000000004e78       0x20 d:/ide/mounriver/mounriver_studio/toolchain/risc-v embedded gcc/bin/../lib/gcc/riscv-none-embed/8.2.0/rv32imac/ilp32\libgcc.a(ledf2.o)
 .debug_frame   0x0000000000004e98       0x54 d:/ide/mounriver/mounriver_studio/toolchain/risc-v embedded gcc/bin/../lib/gcc/riscv-none-embed/8.2.0/rv32imac/ilp32\libgcc.a(muldf3.o)
 .debug_frame   0x0000000000004eec       0x44 d:/ide/mounriver/mounriver_studio/toolchain/risc-v embedded gcc/bin/../lib/gcc/riscv-none-embed/8.2.0/rv32imac/ilp32\libgcc.a(subdf3.o)
 .debug_frame   0x0000000000004f30       0x20 d:/ide/mounriver/mounriver_studio/toolchain/risc-v embedded gcc/bin/../lib/gcc/riscv-none-embed/8.2.0/rv32imac/ilp32\libgcc.a(fixdfsi.o)
 .debug_frame   0x0000000000004f50       0x38 d:/ide/mounriver/mounriver_studio/toolchain/risc-v embedded gcc/bin/../lib/gcc/riscv-none-embed/8.2.0/rv32imac/ilp32\libgcc.a(floatsidf.o)
 .debug_frame   0x0000000000004f88       0x50 d:/ide/mounriver/mounriver_studio/toolchain/risc-v embedded gcc/bin/../lib/gcc/riscv-none-embed/8.2.0/rv32imac/ilp32\libgcc.a(divsf3.o)
 .debug_frame   0x0000000000004fd8       0x50 d:/ide/mounriver/mounriver_studio/toolchain/risc-v embedded gcc/bin/../lib/gcc/riscv-none-embed/8.2.0/rv32imac/ilp32\libgcc.a(mulsf3.o)
 .debug_frame   0x0000000000005028       0x38 d:/ide/mounriver/mounriver_studio/toolchain/risc-v embedded gcc/bin/../lib/gcc/riscv-none-embed/8.2.0/rv32imac/ilp32\libgcc.a(floatsisf.o)
 .debug_frame   0x0000000000005060       0x38 d:/ide/mounriver/mounriver_studio/toolchain/risc-v embedded gcc/bin/../lib/gcc/riscv-none-embed/8.2.0/rv32imac/ilp32\libgcc.a(extendsfdf2.o)
 .debug_frame   0x0000000000005098       0x20 d:/ide/mounriver/mounriver_studio/toolchain/risc-v embedded gcc/bin/../lib/gcc/riscv-none-embed/8.2.0/rv32imac/ilp32\libgcc.a(_clzsi2.o)
 .debug_frame   0x00000000000050b8       0x20 d:/ide/mounriver/mounriver_studio/toolchain/risc-v embedded gcc/bin/../lib/gcc/riscv-none-embed/8.2.0/../../../../riscv-none-embed/lib/rv32imac/ilp32\libg_nano.a(lib_a-memcpy.o)
 .debug_frame   0x00000000000050d8       0xbc d:/ide/mounriver/mounriver_studio/toolchain/risc-v embedded gcc/bin/../lib/gcc/riscv-none-embed/8.2.0/../../../../riscv-none-embed/lib/rv32imac/ilp32\libg_nano.a(lib_a-nano-vfprintf_float.o)
 .debug_frame   0x0000000000005194       0x8c d:/ide/mounriver/mounriver_studio/toolchain/risc-v embedded gcc/bin/../lib/gcc/riscv-none-embed/8.2.0/../../../../riscv-none-embed/lib/rv32imac/ilp32\libg_nano.a(lib_a-nano-vfprintf_i.o)
 .debug_frame   0x0000000000005220       0x54 d:/ide/mounriver/mounriver_studio/toolchain/risc-v embedded gcc/bin/../lib/gcc/riscv-none-embed/8.2.0/../../../../riscv-none-embed/lib/rv32imac/ilp32\libg_nano.a(lib_a-printf.o)
 .debug_frame   0x0000000000005274       0x20 d:/ide/mounriver/mounriver_studio/toolchain/risc-v embedded gcc/bin/../lib/gcc/riscv-none-embed/8.2.0/../../../../riscv-none-embed/lib/rv32imac/ilp32\libg_nano.a(lib_a-strlen.o)
 .debug_frame   0x0000000000005294       0x20 d:/ide/mounriver/mounriver_studio/toolchain/risc-v embedded gcc/bin/../lib/gcc/riscv-none-embed/8.2.0/../../../../riscv-none-embed/lib/rv32imac/ilp32\libg_nano.a(lib_a-strncmp.o)
 .debug_frame   0x00000000000052b4       0x50 d:/ide/mounriver/mounriver_studio/toolchain/risc-v embedded gcc/bin/../lib/gcc/riscv-none-embed/8.2.0/../../../../riscv-none-embed/lib/rv32imac/ilp32\libg_nano.a(lib_a-wbuf.o)
 .debug_frame   0x0000000000005304       0x3c d:/ide/mounriver/mounriver_studio/toolchain/risc-v embedded gcc/bin/../lib/gcc/riscv-none-embed/8.2.0/../../../../riscv-none-embed/lib/rv32imac/ilp32\libg_nano.a(lib_a-wsetup.o)
 .debug_frame   0x0000000000005340       0x98 d:/ide/mounriver/mounriver_studio/toolchain/risc-v embedded gcc/bin/../lib/gcc/riscv-none-embed/8.2.0/../../../../riscv-none-embed/lib/rv32imac/ilp32\libg_nano.a(lib_a-dtoa.o)
 .debug_frame   0x00000000000053d8       0x7c d:/ide/mounriver/mounriver_studio/toolchain/risc-v embedded gcc/bin/../lib/gcc/riscv-none-embed/8.2.0/../../../../riscv-none-embed/lib/rv32imac/ilp32\libg_nano.a(lib_a-fflush.o)
 .debug_frame   0x0000000000005454      0x148 d:/ide/mounriver/mounriver_studio/toolchain/risc-v embedded gcc/bin/../lib/gcc/riscv-none-embed/8.2.0/../../../../riscv-none-embed/lib/rv32imac/ilp32\libg_nano.a(lib_a-findfp.o)
 .debug_frame   0x000000000000559c       0x88 d:/ide/mounriver/mounriver_studio/toolchain/risc-v embedded gcc/bin/../lib/gcc/riscv-none-embed/8.2.0/../../../../riscv-none-embed/lib/rv32imac/ilp32\libg_nano.a(lib_a-fwalk.o)
 .debug_frame   0x0000000000005624       0x40 d:/ide/mounriver/mounriver_studio/toolchain/risc-v embedded gcc/bin/../lib/gcc/riscv-none-embed/8.2.0/../../../../riscv-none-embed/lib/rv32imac/ilp32\libg_nano.a(lib_a-localeconv.o)
 .debug_frame   0x0000000000005664       0x64 d:/ide/mounriver/mounriver_studio/toolchain/risc-v embedded gcc/bin/../lib/gcc/riscv-none-embed/8.2.0/../../../../riscv-none-embed/lib/rv32imac/ilp32\libg_nano.a(lib_a-makebuf.o)
 .debug_frame   0x00000000000056c8       0x30 d:/ide/mounriver/mounriver_studio/toolchain/risc-v embedded gcc/bin/../lib/gcc/riscv-none-embed/8.2.0/../../../../riscv-none-embed/lib/rv32imac/ilp32\libg_nano.a(lib_a-malloc.o)
 .debug_frame   0x00000000000056f8       0x20 d:/ide/mounriver/mounriver_studio/toolchain/risc-v embedded gcc/bin/../lib/gcc/riscv-none-embed/8.2.0/../../../../riscv-none-embed/lib/rv32imac/ilp32\libg_nano.a(lib_a-memchr.o)
 .debug_frame   0x0000000000005718      0x2e0 d:/ide/mounriver/mounriver_studio/toolchain/risc-v embedded gcc/bin/../lib/gcc/riscv-none-embed/8.2.0/../../../../riscv-none-embed/lib/rv32imac/ilp32\libg_nano.a(lib_a-mprec.o)
 .debug_frame   0x00000000000059f8       0x30 d:/ide/mounriver/mounriver_studio/toolchain/risc-v embedded gcc/bin/../lib/gcc/riscv-none-embed/8.2.0/../../../../riscv-none-embed/lib/rv32imac/ilp32\libg_nano.a(lib_a-nano-callocr.o)
 .debug_frame   0x0000000000005a28       0x40 d:/ide/mounriver/mounriver_studio/toolchain/risc-v embedded gcc/bin/../lib/gcc/riscv-none-embed/8.2.0/../../../../riscv-none-embed/lib/rv32imac/ilp32\libg_nano.a(lib_a-nano-freer.o)
 .debug_frame   0x0000000000005a68       0x40 d:/ide/mounriver/mounriver_studio/toolchain/risc-v embedded gcc/bin/../lib/gcc/riscv-none-embed/8.2.0/../../../../riscv-none-embed/lib/rv32imac/ilp32\libg_nano.a(lib_a-nano-mallocr.o)
 .debug_frame   0x0000000000005aa8       0xd0 d:/ide/mounriver/mounriver_studio/toolchain/risc-v embedded gcc/bin/../lib/gcc/riscv-none-embed/8.2.0/../../../../riscv-none-embed/lib/rv32imac/ilp32\libg_nano.a(lib_a-nano-vfprintf.o)
 .debug_frame   0x0000000000005b78       0x30 d:/ide/mounriver/mounriver_studio/toolchain/risc-v embedded gcc/bin/../lib/gcc/riscv-none-embed/8.2.0/../../../../riscv-none-embed/lib/rv32imac/ilp32\libg_nano.a(lib_a-sbrkr.o)
 .debug_frame   0x0000000000005ba8       0xa4 d:/ide/mounriver/mounriver_studio/toolchain/risc-v embedded gcc/bin/../lib/gcc/riscv-none-embed/8.2.0/../../../../riscv-none-embed/lib/rv32imac/ilp32\libg_nano.a(lib_a-stdio.o)
 .debug_frame   0x0000000000005c4c       0x30 d:/ide/mounriver/mounriver_studio/toolchain/risc-v embedded gcc/bin/../lib/gcc/riscv-none-embed/8.2.0/../../../../riscv-none-embed/lib/rv32imac/ilp32\libg_nano.a(lib_a-writer.o)
 .debug_frame   0x0000000000005c7c       0x30 d:/ide/mounriver/mounriver_studio/toolchain/risc-v embedded gcc/bin/../lib/gcc/riscv-none-embed/8.2.0/../../../../riscv-none-embed/lib/rv32imac/ilp32\libg_nano.a(lib_a-closer.o)
 .debug_frame   0x0000000000005cac       0x30 d:/ide/mounriver/mounriver_studio/toolchain/risc-v embedded gcc/bin/../lib/gcc/riscv-none-embed/8.2.0/../../../../riscv-none-embed/lib/rv32imac/ilp32\libg_nano.a(lib_a-fstatr.o)
 .debug_frame   0x0000000000005cdc       0x30 d:/ide/mounriver/mounriver_studio/toolchain/risc-v embedded gcc/bin/../lib/gcc/riscv-none-embed/8.2.0/../../../../riscv-none-embed/lib/rv32imac/ilp32\libg_nano.a(lib_a-isattyr.o)
 .debug_frame   0x0000000000005d0c       0x78 d:/ide/mounriver/mounriver_studio/toolchain/risc-v embedded gcc/bin/../lib/gcc/riscv-none-embed/8.2.0/../../../../riscv-none-embed/lib/rv32imac/ilp32\libg_nano.a(lib_a-locale.o)
 .debug_frame   0x0000000000005d84       0x30 d:/ide/mounriver/mounriver_studio/toolchain/risc-v embedded gcc/bin/../lib/gcc/riscv-none-embed/8.2.0/../../../../riscv-none-embed/lib/rv32imac/ilp32\libg_nano.a(lib_a-lseekr.o)
 .debug_frame   0x0000000000005db4       0x38 d:/ide/mounriver/mounriver_studio/toolchain/risc-v embedded gcc/bin/../lib/gcc/riscv-none-embed/8.2.0/../../../../riscv-none-embed/lib/rv32imac/ilp32\libg_nano.a(lib_a-mbtowc_r.o)
 .debug_frame   0x0000000000005dec       0x30 d:/ide/mounriver/mounriver_studio/toolchain/risc-v embedded gcc/bin/../lib/gcc/riscv-none-embed/8.2.0/../../../../riscv-none-embed/lib/rv32imac/ilp32\libg_nano.a(lib_a-mlock.o)
 .debug_frame   0x0000000000005e1c       0x30 d:/ide/mounriver/mounriver_studio/toolchain/risc-v embedded gcc/bin/../lib/gcc/riscv-none-embed/8.2.0/../../../../riscv-none-embed/lib/rv32imac/ilp32\libg_nano.a(lib_a-readr.o)
 .debug_frame   0x0000000000005e4c       0x70 d:/ide/mounriver/mounriver_studio/toolchain/risc-v embedded gcc/bin/../lib/gcc/riscv-none-embed/8.2.0/../../../../riscv-none-embed/lib/rv32imac/ilp32\libg_nano.a(lib_a-reent.o)
 .debug_frame   0x0000000000005ebc       0x30 d:/ide/mounriver/mounriver_studio/toolchain/risc-v embedded gcc/bin/../lib/gcc/riscv-none-embed/8.2.0/../../../../riscv-none-embed/lib/rv32imac/ilp32\libg_nano.a(lib_a-wctomb_r.o)
 .debug_frame   0x0000000000005eec       0x20 d:/ide/mounriver/mounriver_studio/toolchain/risc-v embedded gcc/bin/../lib/gcc/riscv-none-embed/8.2.0/rv32imac/ilp32\libgcc.a(unorddf2.o)
 .debug_frame   0x0000000000005f0c       0x38 d:/ide/mounriver/mounriver_studio/toolchain/risc-v embedded gcc/bin/../lib/gcc/riscv-none-embed/8.2.0/rv32imac/ilp32\libgcc.a(floatunsidf.o)
 .debug_frame   0x0000000000005f44       0x2c d:/ide/mounriver/mounriver_studio/toolchain/risc-v embedded gcc/bin/../lib/gcc/riscv-none-embed/8.2.0/rv32imac/ilp32\libgcc.a(trunctfdf2.o)
 .debug_frame   0x0000000000005f70       0x20 d:/ide/mounriver/mounriver_studio/toolchain/risc-v embedded gcc/bin/../lib/gcc/riscv-none-embed/8.2.0/../../../../riscv-none-embed/lib/rv32imac/ilp32\libnosys.a(close.o)
 .debug_frame   0x0000000000005f90       0x20 d:/ide/mounriver/mounriver_studio/toolchain/risc-v embedded gcc/bin/../lib/gcc/riscv-none-embed/8.2.0/../../../../riscv-none-embed/lib/rv32imac/ilp32\libnosys.a(fstat.o)
 .debug_frame   0x0000000000005fb0       0x20 d:/ide/mounriver/mounriver_studio/toolchain/risc-v embedded gcc/bin/../lib/gcc/riscv-none-embed/8.2.0/../../../../riscv-none-embed/lib/rv32imac/ilp32\libnosys.a(isatty.o)
 .debug_frame   0x0000000000005fd0       0x20 d:/ide/mounriver/mounriver_studio/toolchain/risc-v embedded gcc/bin/../lib/gcc/riscv-none-embed/8.2.0/../../../../riscv-none-embed/lib/rv32imac/ilp32\libnosys.a(lseek.o)
 .debug_frame   0x0000000000005ff0       0x20 d:/ide/mounriver/mounriver_studio/toolchain/risc-v embedded gcc/bin/../lib/gcc/riscv-none-embed/8.2.0/../../../../riscv-none-embed/lib/rv32imac/ilp32\libnosys.a(read.o)
 .debug_frame   0x0000000000006010       0x20 d:/ide/mounriver/mounriver_studio/toolchain/risc-v embedded gcc/bin/../lib/gcc/riscv-none-embed/8.2.0/../../../../riscv-none-embed/lib/rv32imac/ilp32\libnosys.a(sbrk.o)

.stab           0x0000000000000000       0x84
 .stab          0x0000000000000000       0x24 d:/ide/mounriver/mounriver_studio/toolchain/risc-v embedded gcc/bin/../lib/gcc/riscv-none-embed/8.2.0/../../../../riscv-none-embed/lib/rv32imac/ilp32\libnosys.a(close.o)
 .stab          0x0000000000000024       0x18 d:/ide/mounriver/mounriver_studio/toolchain/risc-v embedded gcc/bin/../lib/gcc/riscv-none-embed/8.2.0/../../../../riscv-none-embed/lib/rv32imac/ilp32\libnosys.a(fstat.o)
                                         0x24 (size before relaxing)
 .stab          0x000000000000003c       0x18 d:/ide/mounriver/mounriver_studio/toolchain/risc-v embedded gcc/bin/../lib/gcc/riscv-none-embed/8.2.0/../../../../riscv-none-embed/lib/rv32imac/ilp32\libnosys.a(isatty.o)
                                         0x24 (size before relaxing)
 .stab          0x0000000000000054       0x18 d:/ide/mounriver/mounriver_studio/toolchain/risc-v embedded gcc/bin/../lib/gcc/riscv-none-embed/8.2.0/../../../../riscv-none-embed/lib/rv32imac/ilp32\libnosys.a(lseek.o)
                                         0x24 (size before relaxing)
 .stab          0x000000000000006c       0x18 d:/ide/mounriver/mounriver_studio/toolchain/risc-v embedded gcc/bin/../lib/gcc/riscv-none-embed/8.2.0/../../../../riscv-none-embed/lib/rv32imac/ilp32\libnosys.a(read.o)
                                         0x24 (size before relaxing)

.stabstr        0x0000000000000000      0x117
 .stabstr       0x0000000000000000      0x117 d:/ide/mounriver/mounriver_studio/toolchain/risc-v embedded gcc/bin/../lib/gcc/riscv-none-embed/8.2.0/../../../../riscv-none-embed/lib/rv32imac/ilp32\libnosys.a(close.o)
