
WML_Head_Car.elf:     file format elf32-littleriscv
WML_Head_Car.elf
architecture: riscv:rv32, flags 0x00000112:
EXEC_P, HAS_SYMS, D_PAGED
start address 0x00000000

Program Header:
    LOAD off    0x00001000 vaddr 0x00000000 paddr 0x00000000 align 2**12
         filesz 0x0000e554 memsz 0x0000e554 flags r-x
    LOAD off    0x00010000 vaddr 0x20000000 paddr 0x0000e554 align 2**12
         filesz 0x000002b0 memsz 0x00005bf0 flags rw-
    LOAD off    0x00010800 vaddr 0x2000f800 paddr 0x2000f800 align 2**12
         filesz 0x00000000 memsz 0x00000800 flags rw-

Sections:
Idx Name           Size      VMA       LMA       File off  Algn  Flags
  0 .init          00000038  00000000  00000000  00001000  2**1  CONTENTS, ALLOC, LOAD, READONLY, CODE
  1 .vector        000001c8  00000038  00000038  00001038  2**1  CONTENTS, ALLOC, LOAD, READONLY, CODE
  2 .text          0000e354  00000200  00000200  00001200  2**3  CONTENTS, ALLOC, LOAD, READONLY, CODE
  3 .fini          00000000  0000e554  0000e554  000102b0  2**0  CONTENTS, ALLOC, LOAD, CODE
  4 .dalign        00000000  20000000  20000000  000102b0  2**0  CONTENTS
  5 .dlalign       00000000  0000e554  0000e554  000102b0  2**0  CONTENTS
  6 .data          000002b0  20000000  0000e554  00010000  2**2  CONTENTS, ALLOC, LOAD, DATA
  7 .bss           00005940  200002b0  0000e804  000102b0  2**2  ALLOC
  8 .stack         00000800  2000f800  2000f800  00010800  2**0  ALLOC
  9 .debug_info    0002398b  00000000  00000000  000102b0  2**0  CONTENTS, READONLY, DEBUGGING
 10 .debug_abbrev  00005915  00000000  00000000  00033c3b  2**0  CONTENTS, READONLY, DEBUGGING
 11 .debug_aranges 00001570  00000000  00000000  00039550  2**3  CONTENTS, READONLY, DEBUGGING
 12 .debug_ranges  000012c0  00000000  00000000  0003aac0  2**3  CONTENTS, READONLY, DEBUGGING
 13 .debug_line    000190d2  00000000  00000000  0003bd80  2**0  CONTENTS, READONLY, DEBUGGING
 14 .debug_str     000073d3  00000000  00000000  00054e52  2**0  CONTENTS, READONLY, DEBUGGING
 15 .comment       00000033  00000000  00000000  0005c225  2**0  CONTENTS, READONLY
 16 .debug_frame   00006030  00000000  00000000  0005c258  2**2  CONTENTS, READONLY, DEBUGGING
 17 .stab          00000084  00000000  00000000  00062288  2**2  CONTENTS, READONLY, DEBUGGING
 18 .stabstr       00000117  00000000  00000000  0006230c  2**0  CONTENTS, READONLY, DEBUGGING
SYMBOL TABLE:
00000000 l    d  .init	00000000 .init
00000038 l    d  .vector	00000000 .vector
00000200 l    d  .text	00000000 .text
0000e554 l    d  .fini	00000000 .fini
20000000 l    d  .dalign	00000000 .dalign
0000e554 l    d  .dlalign	00000000 .dlalign
20000000 l    d  .data	00000000 .data
200002b0 l    d  .bss	00000000 .bss
2000f800 l    d  .stack	00000000 .stack
00000000 l    d  .debug_info	00000000 .debug_info
00000000 l    d  .debug_abbrev	00000000 .debug_abbrev
00000000 l    d  .debug_aranges	00000000 .debug_aranges
00000000 l    d  .debug_ranges	00000000 .debug_ranges
00000000 l    d  .debug_line	00000000 .debug_line
00000000 l    d  .debug_str	00000000 .debug_str
00000000 l    d  .comment	00000000 .comment
00000000 l    d  .debug_frame	00000000 .debug_frame
00000000 l    d  .stab	00000000 .stab
00000000 l    d  .stabstr	00000000 .stabstr
00000000 l    df *ABS*	00000000 ./sdk/Startup/startup_ch32v30x.o
00000038 l       .vector	00000000 _vector_base
00000000 l    df *ABS*	00000000 zf_driver_adc.c
00000000 l    df *ABS*	00000000 zf_driver_delay.c
00000000 l    df *ABS*	00000000 zf_driver_dvp.c
00000000 l    df *ABS*	00000000 zf_driver_encoder.c
20000270 l     O .data	00000008 encoder_dir_pin
00000000 l    df *ABS*	00000000 zf_driver_gpio.c
00000000 l    df *ABS*	00000000 zf_driver_pit.c
00000000 l    df *ABS*	00000000 zf_driver_soft_iic.c
00000e58 l     F .text	0000002a soft_iic_delay
00000eec l     F .text	000000e2 soft_iic_start
00000fce l     F .text	000000ec soft_iic_stop
000010ba l     F .text	00000128 soft_iic_send_ack
000011e2 l     F .text	000000dc soft_iic_wait_ack
000012be l     F .text	00000128 soft_iic_send_data
000013e6 l     F .text	0000018c soft_iic_read_data
00000000 l    df *ABS*	00000000 zf_driver_spi.c
00000000 l    df *ABS*	00000000 zf_driver_timer.c
20000318 l     O .bss	00000028 timer_function_state
00000000 l    df *ABS*	00000000 zf_driver_uart.c
00000000 l    df *ABS*	00000000 zf_device_bluetooth_ch9141.c
20000340 l     O .bss	00000014 bluetooth_ch9141_fifo
200002b0 l     O .bss	00000001 bluetooth_ch9141_data
20000354 l     O .bss	0000001e bluetooth_ch9141_at_reply
200002b1 l     O .bss	00000001 bluetooth_ch9141_at_reply_index
200002b4 l     O .bss	00000004 bluetooth_ch9141_at_cmd_state
00000000 l    df *ABS*	00000000 zf_device_bluetooth_ch9141_ch2.c
20000374 l     O .bss	00000014 bluetooth_ch9141_fifo_ch2
200002b8 l     O .bss	00000001 bluetooth_ch9141_data_ch2
20000388 l     O .bss	0000001e bluetooth_ch9141_at_reply_ch2
200002b9 l     O .bss	00000001 bluetooth_ch9141_at_reply_index_ch2
200002bc l     O .bss	00000004 bluetooth_ch9141_at_cmd_state_ch2
00000000 l    df *ABS*	00000000 zf_device_camera.c
00000000 l    df *ABS*	00000000 zf_device_ips114.c
000026f4 l     F .text	0000007c ips114_write_index
00002770 l     F .text	0000026c ips114_set_region
00000000 l    df *ABS*	00000000 zf_device_mpu6050.c
200003a8 l     O .bss	00000010 mpu6050_iic_struct
00003230 l     F .text	000000b4 mpu6050_self1_check
00000000 l    df *ABS*	00000000 zf_device_mt9v03x_dvp.c
200002c8 l     O .bss	00000003 receive_dvp
200002cb l     O .bss	00000001 receive_num_dvp
200002cc l     O .bss	00000001 uart_receive_flag_dvp
000033b6 l     F .text	00000190 mt9v03x_set_config_dvp
00003546 l     F .text	0000012c mt9v03x_get_config_dvp
00000000 l    df *ABS*	00000000 zf_device_scc8660_dvp.c
00000000 l    df *ABS*	00000000 zf_device_type.c
00000000 l    df *ABS*	00000000 zf_device_wireless_uart.c
20005bd8 l     O .bss	00000014 wireless_uart_fifo
200002e0 l     O .bss	00000001 wireless_uart_data
00000000 l    df *ABS*	00000000 zf_common_clock.c
0000391e l     F .text	00000076 clock_reset
00003994 l     F .text	00000260 clock_set_freq
00000000 l    df *ABS*	00000000 zf_common_debug.c
00000000 l    df *ABS*	00000000 zf_common_fifo.c
00000000 l    df *ABS*	00000000 zf_common_function.c
00004108 l     F .text	0000011e number_conversion_ascii
00004226 l     F .text	00000088 printf_reverse_order
00000000 l    df *ABS*	00000000 zf_common_interrupt.c
00004830 l     F .text	00000032 NVIC_EnableIRQ
00004862 l     F .text	00000032 NVIC_DisableIRQ
00004894 l     F .text	0000002a NVIC_SetPriority
00000000 l    df *ABS*	00000000 isr.c
00000000 l    df *ABS*	00000000 main.c
00000000 l    df *ABS*	00000000 system_ch32v30x.c
0000534c l     F .text	00000014 SetSysClock
00005360 l     F .text	00000162 SetSysClockTo144
00000000 l    df *ABS*	00000000 ch32v30x_adc.c
00000000 l    df *ABS*	00000000 ch32v30x_exti.c
00000000 l    df *ABS*	00000000 ch32v30x_gpio.c
00000000 l    df *ABS*	00000000 ch32v30x_rcc.c
2000004c l     O .data	00000010 APBAHBPrescTable
20000284 l     O .data	00000004 ADCPrescTable
00000000 l    df *ABS*	00000000 ch32v30x_spi.c
00000000 l    df *ABS*	00000000 ch32v30x_tim.c
00000000 l    df *ABS*	00000000 ch32v30x_usart.c
00000000 l    df *ABS*	00000000 ch32v30x_usbotg_device.c
00000000 l    df *ABS*	00000000 core_riscv.c
00000000 l    df *ABS*	00000000 Board_Common.c
00000000 l    df *ABS*	00000000 Desk_Change.c
00000000 l    df *ABS*	00000000 Encoder.c
000079da l     F .text	0000004e get_L_Length
00007a28 l     F .text	0000004e get_R_Length
00000000 l    df *ABS*	00000000 adddf3.c
00000000 l    df *ABS*	00000000 divdf3.c
00000000 l    df *ABS*	00000000 eqdf2.c
00000000 l    df *ABS*	00000000 gedf2.c
00000000 l    df *ABS*	00000000 ledf2.c
00000000 l    df *ABS*	00000000 muldf3.c
00000000 l    df *ABS*	00000000 subdf3.c
00000000 l    df *ABS*	00000000 fixdfsi.c
00000000 l    df *ABS*	00000000 floatsidf.c
00000000 l    df *ABS*	00000000 divsf3.c
00000000 l    df *ABS*	00000000 mulsf3.c
00000000 l    df *ABS*	00000000 floatsisf.c
00000000 l    df *ABS*	00000000 extendsfdf2.c
00000000 l    df *ABS*	00000000 libgcc2.c
00000000 l    df *ABS*	00000000 memcpy.c
00000000 l    df *ABS*	00000000 nano-vfprintf_float.c
00000000 l    df *ABS*	00000000 nano-vfprintf_i.c
00000000 l    df *ABS*	00000000 printf.c
00000000 l    df *ABS*	00000000 strlen.c
00000000 l    df *ABS*	00000000 strncmp.c
00000000 l    df *ABS*	00000000 wbuf.c
00000000 l    df *ABS*	00000000 wsetup.c
00000000 l    df *ABS*	00000000 dtoa.c
0000ab50 l     F .text	0000013a quorem
00000000 l    df *ABS*	00000000 fflush.c
00000000 l    df *ABS*	00000000 findfp.c
0000ba4c l     F .text	0000006a std
00000000 l    df *ABS*	00000000 fwalk.c
00000000 l    df *ABS*	00000000 localeconv.c
00000000 l    df *ABS*	00000000 makebuf.c
00000000 l    df *ABS*	00000000 malloc.c
00000000 l    df *ABS*	00000000 memchr.c
00000000 l    df *ABS*	00000000 mprec.c
0000e420 l     O .text	0000000c p05.3319
00000000 l    df *ABS*	00000000 nano-mallocr.c
00000000 l    df *ABS*	00000000 nano-mallocr.c
00000000 l    df *ABS*	00000000 nano-mallocr.c
00000000 l    df *ABS*	00000000 nano-vfprintf.c
0000c64a l     F .text	0000002a __sfputc_r
00000000 l    df *ABS*	00000000 sbrkr.c
00000000 l    df *ABS*	00000000 stdio.c
00000000 l    df *ABS*	00000000 writer.c
00000000 l    df *ABS*	00000000 closer.c
00000000 l    df *ABS*	00000000 fstatr.c
00000000 l    df *ABS*	00000000 isattyr.c
00000000 l    df *ABS*	00000000 lseekr.c
00000000 l    df *ABS*	00000000 mbtowc_r.c
00000000 l    df *ABS*	00000000 mlock.c
00000000 l    df *ABS*	00000000 readr.c
00000000 l    df *ABS*	00000000 wctomb_r.c
00000000 l    df *ABS*	00000000 unorddf2.c
00000000 l    df *ABS*	00000000 floatunsidf.c
00000000 l    df *ABS*	00000000 trunctfdf2.c
00000000 l    df *ABS*	00000000 close.c
00000000 l    df *ABS*	00000000 fstat.c
00000000 l    df *ABS*	00000000 isatty.c
00000000 l    df *ABS*	00000000 lseek.c
00000000 l    df *ABS*	00000000 read.c
00000000 l    df *ABS*	00000000 sbrk.c
20000314 l     O .bss	00000004 heap_end.1518
00000000 l    df *ABS*	00000000 zf_common_font.c
00000000 l    df *ABS*	00000000 libgcc2.c
00000000 l    df *ABS*	00000000 locale.c
00000000 l    df *ABS*	00000000 ctype_.c
00000000 l    df *ABS*	00000000 impure.c
200000a0 l     O .data	00000060 impure_data
00000000 l    df *ABS*	00000000 reent.c
0000630e g     F .text	0000003c TIM_TimeBaseStructInit
00009f02 g     F .text	000000ee __cvt
00004bc6 g     F .text	00000024 EXTI2_IRQHandler
200002dc g     O .bss	00000004 wireless_type
000051e8  w      .text	00000000 TIM8_TRG_COM_IRQHandler
000051ea  w      .text	00000000 TIM8_CC_IRQHandler
00003c28 g     F .text	00000126 debug_assert_handler
0000224c g     F .text	0000005e uart_query_byte
20000306 g     O .bss	00000001 USBHD_Dev_SleepStatus
0000cada g     F .text	00000030 _isatty_r
200003b8 g     O .bss	00005820 mt9v03x_image_dvp
00006a60 g     F .text	0000003e DevEP1_IN_Deal
0000cb0a g     F .text	00000034 _lseek_r
200002d4 g     O .bss	00000001 scc8660_uart_receive_flag_dvp
00004b14 g     F .text	0000002c UART8_IRQHandler
0000888a g     F .text	0000006a .hidden __eqdf2
0000a8f8 g     F .text	00000042 printf
20000a70 g       .data	00000000 __global_pointer$
000051c4  w      .text	00000000 TIM1_CC_IRQHandler
0000ca06 g     F .text	00000036 __sseek
0000bb08 g     F .text	0000006c __sinit
0000a978 g     F .text	000000c6 __swbuf_r
00003ed0 g     F .text	0000010c fifo_write_buffer
00004f26 g     F .text	00000008 HardFault_Handler
0000bac0 g     F .text	00000048 __sfmoreglue
0000cb7a g     F .text	00000002 __malloc_unlock
0000268a g     F .text	0000003a camera_uart_handler
00004e36 g     F .text	00000028 TIM6_IRQHandler
00009726 g     F .text	000002ae .hidden __divsf3
0000518a  w      .text	00000000 SysTick_Handler
000056b4 g     F .text	00000022 ADC_StartCalibration
00005190  w      .text	00000000 PVD_IRQHandler
000051f0  w      .text	00000000 SDIO_IRQHandler
00005222  w      .text	00000000 TIM9_BRK_IRQHandler
0000380e g     F .text	00000066 scc8660_uart_callback_dvp
00005fc8 g     F .text	00000076 SPI_I2S_DeInit
00005236  w      .text	00000000 DMA2_Channel8_IRQHandler
00004f16 g     F .text	00000010 NMI_Handler
0000bdba g     F .text	00000088 _Balloc
00005210  w      .text	00000000 CAN2_RX1_IRQHandler
00004bea g     F .text	00000024 EXTI3_IRQHandler
200002d8 g     O .bss	00000004 camera_type
000088f4 g     F .text	000000ae .hidden __gtdf2
0000781c g     F .text	0000001a __get_MSTATUS
00005218  w      .text	00000000 USBHS_IRQHandler
0000518c  w      .text	00000000 SW_handler
000068ca g     F .text	00000046 USART_GetFlagStatus
00005238  w      .text	00000000 DMA2_Channel9_IRQHandler
0000caa8 g     F .text	00000032 _fstat_r
0000dee0 g     O .text	00000014 MyReportDescHD
00005230  w      .text	00000000 TIM10_CC_IRQHandler
20005bec g     O .bss	00000004 errno
2000005c g     O .data	00000043 TAB_USB_FS_OSC_DESC
200002b0 g       .bss	00000000 _sbss
00000800 g       *ABS*	00000000 __stack_size
00003fdc g     F .text	0000012c fifo_read_buffer
00000206 g       .text	00000000 en_interrupt
20000307 g     O .bss	00000001 DevConfig
000048dc g     F .text	0000001e interrupt_disable
0000255c g     F .text	00000096 bluetooth_ch9141_uart_callback_ch1
00009e4c g     F .text	000000b6 memcpy
200002a0 g     O .data	00000008 uart_irq
00005624 g     F .text	0000003e ADC_Cmd
00001572 g     F .text	00000062 soft_iic_write_8bit_register
0000bab6 g     F .text	0000000a _cleanup_r
00005a22 g     F .text	0000013c GPIO_PinRemapConfig
000096b6 g     F .text	00000070 .hidden __floatsidf
200002d5 g     O .bss	00000001 scc8660_finish_flag_dvp
000089a2 g     F .text	000000b6 .hidden __ltdf2
00004b7e g     F .text	00000024 EXTI0_IRQHandler
000051d0  w      .text	00000000 I2C2_EV_IRQHandler
0000522e  w      .text	00000000 TIM10_TRG_COM_IRQHandler
2000030a g     O .bss	00000002 SetupReqLen
0000634a g     F .text	00000058 TIM_Cmd
0000df10 g     O .text	00000016 MySerNumInfoHD
0000d700 g     O .text	00000028 tim_index
0000bd94 g     F .text	0000000c malloc
0000cea2 g     F .text	00000010 _fstat
00001886 g     F .text	00000264 spi_init
0000e358 g     O .text	000000c8 __mprec_tens
00000038 g       .init	00000000 _einit
00006516 g     F .text	0000002e TIM_ClearITPendingBit
0000df28 g     O .text	0000000a MyUSBQUADescHD
00007aa2 g     F .text	00000082 get_LE
00002f88 g     F .text	000000c4 ips114_show_string
00004924 g     F .text	0000000e interrupt_init
00005eb0 g     F .text	00000046 RCC_APB2PeriphClockCmd
00003712 g     F .text	000000fc mt9v03x_init_dvp
0000d748 g     O .text	000005f0 tft_ascii
00005212  w      .text	00000000 CAN2_SCE_IRQHandler
000051b2  w      .text	00000000 ADC1_2_IRQHandler
000057c0 g     F .text	0000022a GPIO_Init
00005b5e g     F .text	00000046 RCC_ADCCLKConfig
00005188  w      .text	00000000 Break_Point_Handler
20000308 g     O .bss	00000001 SetupReqCode
0000bc80 g     F .text	00000018 _localeconv_r
0000bfce g     F .text	0000001c __i2b
00003e12 g     F .text	0000004e fifo_head_offset
000051d4  w      .text	00000000 SPI1_IRQHandler
00005662 g     F .text	00000022 ADC_ResetCalibration
00006778 g     F .text	00000060 USART_Cmd
0000c958 g     F .text	00000030 _sbrk_r
00005192  w      .text	00000000 TAMPER_IRQHandler
000002bc g     F .text	0000019e adc_gpio_init
0000cb7c g     F .text	00000034 _read_r
00006a12 g     F .text	0000004e USART_ClearITPendingBit
0000520e  w      .text	00000000 CAN2_RX0_IRQHandler
000008b8 g     F .text	00000026 encoder_clean_count
00009d2a g     F .text	000000ac .hidden __extendsfdf2
00004e8e g     F .text	00000030 TIM8_UP_IRQHandler
00005ef6 g     F .text	00000046 RCC_APB1PeriphClockCmd
00007ba6 g     F .text	00000730 .hidden __adddf3
00005184  w      .text	00000000 Ecall_M_Mode_Handler
00001c3e g     F .text	000000e2 timer_clock_enable
00003874 g     F .text	0000003a scc8660_vsync_dvp
0000ceb2 g     F .text	00000010 _isatty
200002ac g     O .data	00000004 _global_impure_ptr
00005200  w      .text	00000000 DMA2_Channel2_IRQHandler
00005e6a g     F .text	00000046 RCC_AHBPeriphClockCmd
000051aa  w      .text	00000000 DMA1_Channel4_IRQHandler
0000e330 g     O .text	00000028 __mprec_bigtens
000007d8 g     F .text	00000036 encoder_gpio_init
0000cc0c g     F .text	00000068 .hidden __floatunsidf
0000cee2 g     F .text	00000024 _sbrk
0000c2ba g     F .text	00000032 __mcmp
00007a76 g     F .text	0000002c Encoder_INIT
00003672 g     F .text	00000066 mt9v03x_uart_callback_dvp
00004ebe g     F .text	00000030 TIM9_UP_IRQHandler
00000cbc g     F .text	0000019c pit_init
000049fc g     F .text	00000034 USART3_IRQHandler
000057a0 g     F .text	00000020 EXTI_ClearITPendingBit
20000000 g     O .data	00000028 mt9v03x_set_confing_buffer_dvp
00005194  w      .text	00000000 RTC_IRQHandler
000056d6 g     F .text	00000030 ADC_GetCalibrationStatus
20005bf0 g       .bss	00000000 _ebss
000015d4 g     F .text	0000008e soft_iic_read_8bit_register
00006910 g     F .text	00000102 USART_GetITStatus
000051b0  w      .text	00000000 DMA1_Channel7_IRQHandler
00005684 g     F .text	00000030 ADC_GetResetCalibrationStatus
0000df04 g     O .text	0000000c MyProdInfoHD
0000bf1e g     F .text	00000046 __hi0bits
000051b8  w      .text	00000000 CAN1_RX1_IRQHandler
0000964e g     F .text	00000068 .hidden __fixdfsi
000029dc g     F .text	00000394 ips114_init
00004b40 g     F .text	0000003e DVP_IRQHandler
00004a64 g     F .text	00000030 UART5_IRQHandler
00002d70 g     F .text	00000072 ips114_clear
20000300 g     O .bss	00000004 pDescr
00007b24 g     F .text	00000082 get_RE
200002a8 g     O .data	00000004 MyLangDescrHD
200002e4 g     O .bss	00000004 system_clock
00004dd6 g     F .text	00000030 TIM4_IRQHandler
000089a2 g     F .text	000000b6 .hidden __ledf2
000059ea g     F .text	00000038 GPIO_WriteBit
000038f4 g     F .text	0000002a clock_init
000051fe  w      .text	00000000 DMA2_Channel1_IRQHandler
0000c12e g     F .text	000000be __pow5mult
0000e2d0 g     O .text	00000020 __sf_fake_stderr
20005bf0 g       .bss	00000000 end
2000028c g     O .data	00000007 LineCoding
000051cc  w      .text	00000000 I2C1_EV_IRQHandler
000064a6 g     F .text	00000070 TIM_GetITStatus
00001b40 g     F .text	000000a6 spi_write_16bit
00005ba4 g     F .text	000002c6 RCC_GetClocksFreq
20000294 g     O .data	00000004 _last_desk
000051ae  w      .text	00000000 DMA1_Channel6_IRQHandler
00009dd6 g     F .text	00000076 .hidden __clzsi2
0000c674 g     F .text	00000044 __sfputs_r
000022aa g     F .text	000002b2 uart_init
00004a30 g     F .text	00000034 UART4_IRQHandler
00005204  w      .text	00000000 DMA2_Channel4_IRQHandler
0000bda0 g     F .text	0000001a memchr
0000a07c  w    F .text	000004c4 _printf_float
00006544 g     F .text	00000234 USART_Init
0000c4d8 g     F .text	000000a4 _free_r
00004da6 g     F .text	00000030 TIM3_IRQHandler
00005198  w      .text	00000000 RCC_IRQHandler
00001d20 g     F .text	0000040a uart_gpio_init
000051c2  w      .text	00000000 TIM1_TRG_COM_IRQHandler
000032e4 g     F .text	000000d2 mpu6050_init
000051a4  w      .text	00000000 DMA1_Channel1_IRQHandler
20000281 g     O .data	00000001 ips114_y_max
00000000 g       .init	00000000 _start
00005234  w      .text	00000000 DMA2_Channel7_IRQHandler
0000cec2 g     F .text	00000010 _lseek
0000c1ec g     F .text	000000ce __lshift
00006458 g     F .text	0000004e TIM_SelectInputTrigger
00009c64 g     F .text	000000c6 .hidden __floatsisf
00004cba g     F .text	00000094 EXTI15_10_IRQHandler
000063a2 g     F .text	00000070 TIM_ITConfig
00000200 g       .text	00000000 dis_interrupt
0000a94c g     F .text	0000002c strncmp
000021c6 g     F .text	00000086 uart_rx_interrupt
000067d8 g     F .text	000000c4 USART_ITConfig
200002fc g     O .bss	00000004 pEP2_RAM_Addr
20000278 g     O .data	00000002 ips114_pencolor
0000bfea g     F .text	00000144 __multiply
0000c3de g     F .text	000000d4 __d2b
000025f2 g     F .text	00000098 bluetooth_ch9141_uart_callback_ch2
0000051a g     F .text	0000005c system_delay
00004e5e g     F .text	00000030 TIM7_IRQHandler
0000ca78 g     F .text	00000030 _close_r
0000520c  w      .text	00000000 CAN2_TX_IRQHandler
20000000 g       .dalign	00000000 _data_vma
00004e06 g     F .text	00000030 TIM5_IRQHandler
00006b42 g     F .text	00000066 DevEP2_OUT_Deal
0000aa3e g     F .text	00000112 __swsetup_r
00000576 g     F .text	00000102 dvp_gpio_init
00004c32 g     F .text	00000088 EXTI9_5_IRQHandler
000082d6 g     F .text	000005b4 .hidden __divdf3
0000bb74 g     F .text	000000a0 __sfp
00003e60 g     F .text	0000004e fifo_end_offset
00001be6 g     F .text	00000058 timer_funciton_check
20000298 g     O .data	00000004 _now_mod
00008a58 g     F .text	000004b8 .hidden __muldf3
0000c988 g     F .text	00000030 __sread
0000520a  w      .text	00000000 ETH_WKUP_IRQHandler
00006adc g     F .text	00000066 DevEP1_OUT_Deal
0000cb78 g     F .text	00000002 __malloc_lock
0000b9e6 g     F .text	00000066 _fflush_r
0000c4b2 g     F .text	00000026 _calloc_r
0000574a g     F .text	00000056 EXTI_GetITStatus
200002f4 g     O .bss	00000004 pEP0_RAM_Addr
200002c4 g     O .bss	00000001 mt9v03x_finish_flag_dvp
000051d6  w      .text	00000000 SPI2_IRQHandler
0000e2f0 g     O .text	00000020 __sf_fake_stdin
0000de88 g     O .text	00000012 MyDevDescrHD
00000214 g     F .text	000000a8 memset
00004f2e g     F .text	00000252 main
00004954 g     F .text	00000022 interrupt_disable_all
0000522a  w      .text	00000000 TIM10_BRK_IRQHandler
00006412 g     F .text	00000046 TIM_ITRxExternalClockConfig
00005228  w      .text	00000000 TIM9_CC_IRQHandler
000042ae g     F .text	00000582 zf_sprintf
0000ca3c g     F .text	00000006 __sclose
00005206  w      .text	00000000 DMA2_Channel5_IRQHandler
20000288 g     O .data	00000001 USBHD_Dev_Speed
200002d3 g     O .bss	00000001 scc8660_uart_receive_num_dvp
00000e82 g     F .text	0000006a soft_iic_init
0000ac8a g     F .text	00000c1e _dtoa_r
0000c57c g     F .text	000000ce _malloc_r
0000cbb0 g     F .text	00000020 __ascii_wctomb
0000def4 g     O .text	0000000e MyManuInfoHD
200002d0 g     O .bss	00000003 scc8660_uart_receive_dvp
000051ac  w      .text	00000000 DMA1_Channel5_IRQHandler
200002e8 g     O .bss	00000001 zf_debug_init_flag
0000d728 g     O .text	00000020 uart_index
00004c0e g     F .text	00000024 EXTI4_IRQHandler
000051b6  w      .text	00000000 USB_LP_CAN1_RX0_IRQHandler
000036d8 g     F .text	0000003a mt9v03x_handler_dvp
000099d4 g     F .text	00000290 .hidden __mulsf3
00005706 g     F .text	00000044 ADC_BufferCmd
00006136 g     F .text	0000005a SPI_Cmd
00003bf4 g     F .text	00000034 debug_init
200002c0 g     O .bss	00000004 camera_buffer_addr
000052d0 g     F .text	0000007c SystemInit
000051ec  w      .text	00000000 RNG_IRQHandler
000048fa g     F .text	0000002a interrupt_set_priority
0000888a g     F .text	0000006a .hidden __nedf2
00002e50 g     F .text	00000138 ips114_show_char
0000a8f8 g     F .text	00000042 iprintf
200002ec g     O .bss	00000008 EP0_DatabufHD
000051b4  w      .text	00000000 USB_HP_CAN1_TX_IRQHandler
0000e130 g     O .text	00000100 .hidden __clz_tab
00009ff0 g     F .text	0000008c __exponent
00000000 g       .init	00000000 _sinit
00006a9e g     F .text	0000003e DevEP2_IN_Deal
0000ca42 g     F .text	00000036 _write_r
000051a8  w      .text	00000000 DMA1_Channel3_IRQHandler
0000080e g     F .text	000000aa encoder_get_count
0000d6f4 g     O .text	0000000c spi_index
000051ee  w      .text	00000000 FSMC_IRQHandler
00005208  w      .text	00000000 ETH_IRQHandler
0000a540 g     F .text	0000010c _printf_common
2000029c g     O .data	00000004 _impure_ptr
00004d4e g     F .text	00000030 TIM1_UP_IRQHandler
0000045a g     F .text	000000c0 adc_init
0000b8a8 g     F .text	0000013e __sflush_r
00007904 g     F .text	0000006a Key_Down
0000518e  w      .text	00000000 WWDG_IRQHandler
00005216  w      .text	00000000 USBHSWakeup_IRQHandler
0000523c  w      .text	00000000 DMA2_Channel11_IRQHandler
00005f82 g     F .text	00000046 RCC_APB1PeriphResetCmd
0000cb3e g     F .text	0000003a __ascii_mbtowc
00005186  w      .text	00000000 Ecall_U_Mode_Handler
000008de g     F .text	00000208 encoder_init_dir
00005232  w      .text	00000000 DMA2_Channel6_IRQHandler
00004d7e g     F .text	00000028 TIM2_IRQHandler
20010000 g       .stack	00000000 _eusrstack
00002de2 g     F .text	00000042 ips114_set_dir
00002e24 g     F .text	0000002c ips114_set_color
000054c2 g     F .text	00000060 ADC_DeInit
00001aea g     F .text	00000056 spi_write_8bit
0000de9c g     O .text	00000043 MyCfgDescrHD
000051be  w      .text	00000000 TIM1_BRK_IRQHandler
0000bc98 g     F .text	0000005a __swhatbuf_r
00005522 g     F .text	00000102 ADC_Init
0000689c g     F .text	0000002e USART_SendData
0000523a  w      .text	00000000 DMA2_Channel10_IRQHandler
00004ba2 g     F .text	00000024 EXTI1_IRQHandler
2000027c g     O .data	00000004 ips114_display_dir
000038ae g     F .text	0000001a set_camera_type
00003d96 g     F .text	0000007c _write
200002b0 g       .data	00000000 _edata
000038c8 g     F .text	0000002c wireless_uart_callback
20000304 g     O .bss	00000002 USBHD_Dev_SetupReqLen
00006190 g     F .text	0000017e TIM_TimeBaseInit
000051e0  w      .text	00000000 RTCAlarm_IRQHandler
00004932 g     F .text	00000022 interrupt_enable_all
0000e554 g       .dlalign	00000000 _data_lma
00004eee g     F .text	00000028 TIM10_UP_IRQHandler
00005226  w      .text	00000000 TIM9_TRG_COM_IRQHandler
00004ac8 g     F .text	0000004c UART7_IRQHandler
00007836 g     F .text	000000ce Board_Common_Init
000049aa g     F .text	00000052 USART2_IRQHandler
00004a94 g     F .text	00000034 UART6_IRQHandler
0000c9b8 g     F .text	0000004e __swrite
0000c6b8 g     F .text	000002a0 _vfiprintf_r
0000bc14 g     F .text	0000006c _fwalk_reent
0000c2ec g     F .text	000000f2 __mdiff
000051d2  w      .text	00000000 I2C2_ER_IRQHandler
000051a6  w      .text	00000000 DMA1_Channel2_IRQHandler
0000796e g     F .text	0000006c _Key_Control
00003d4e g     F .text	00000048 debug_log_handler
0000e310 g     O .text	00000020 __sf_fake_stdout
000051e4  w      .text	00000000 TIM8_BRK_IRQHandler
0000e450 g     O .text	00000101 _ctype_
2000027a g     O .data	00000002 ips114_bgcolor
0000ced2 g     F .text	00000010 _read
0000cbd0 g     F .text	0000003c .hidden __unorddf2
0000523e  w      .text	00000000 handle_reset
000051ba  w      .text	00000000 CAN1_SCE_IRQHandler
0000d6e0 g     O .text	00000014 gpio_group
00005196  w      .text	00000000 FLASH_IRQHandler
0000304c g     F .text	000001e4 ips114_show_float
00004976 g     F .text	00000034 USART1_IRQHandler
0000bcf2 g     F .text	000000a2 __smakebuf_r
00002180 g     F .text	00000046 uart_write_buffer
000048be g     F .text	0000001e interrupt_enable
0000a93a g     F .text	00000012 strlen
00006ba8 g     F .text	00000c74 OTG_FS_IRQHandler
0000a64c g     F .text	000002ac _printf_i
000051f4  w      .text	00000000 SPI3_IRQHandler
000026c4 g     F .text	00000030 camera_dvp_handler
00003eae g     F .text	00000022 fifo_used
000088f4 g     F .text	000000ae .hidden __gedf2
20000310 g     O .bss	00000004 __malloc_sbrk_start
00005f3c g     F .text	00000046 RCC_APB2PeriphResetCmd
000051ce  w      .text	00000000 I2C1_ER_IRQHandler
00000ae6 g     F .text	00000040 gpio_get_level
0000603e g     F .text	000000f8 SPI_Init
00001662 g     F .text	00000224 spi_gpio_init
20000280 g     O .data	00000001 ips114_x_max
00000b26 g     F .text	00000196 gpio_init
2000030c g     O .bss	00000004 __malloc_free_list
00008f10 g     F .text	0000073e .hidden __subdf3
0000c6b8 g     F .text	000002a0 _vfprintf_r
20000028 g     O .data	00000024 mt9v03x_get_confing_buffer_dvp
0000bf64 g     F .text	0000006a __lo0bits
200002f8 g     O .bss	00000004 pEP1_RAM_Addr
00000678 g     F .text	00000160 dvp_camera_init
20000100 g     O .data	0000016c __global_locale
000051e2  w      .text	00000000 USBWakeUp_IRQHandler
0000cc74 g     F .text	0000021e .hidden __trunctfdf2
0000ce92 g     F .text	00000010 _close
00005202  w      .text	00000000 DMA2_Channel3_IRQHandler
0000be86 g     F .text	00000098 __multadd
0000be42 g     F .text	00000044 _Bfree
0000212a g     F .text	00000056 uart_write_byte



Disassembly of section .init:

00000000 <_sinit>:
_start():
G:/WWW_Project/MSR_Project/WCH_Header_Car/libraries/sdk/Startup/startup_ch32v30x.S:13

	.section	.init,"ax",@progbits
	.global	_start
	.align	1
_start:
	j	handle_reset
   0:	23e0506f          	j	523e <handle_reset>
   4:	00000013          	nop
   8:	00000013          	nop
   c:	00000013          	nop
  10:	00000013          	nop
  14:	00000013          	nop
  18:	00000013          	nop
  1c:	00000013          	nop
  20:	00000013          	nop
  24:	00000013          	nop
  28:	00000013          	nop
  2c:	00000013          	nop
  30:	00000013          	nop
  34:	00100073          	ebreak

Disassembly of section .vector:

00000038 <_vector_base>:
	...
_vector_base():
  40:	4f16                	lw	t5,68(sp)
  42:	0000                	unimp
  44:	4f26                	lw	t5,72(sp)
  46:	0000                	unimp
  48:	0000                	unimp
  4a:	0000                	unimp
  4c:	5184                	lw	s1,32(a1)
	...
  56:	0000                	unimp
  58:	5186                	lw	gp,96(sp)
  5a:	0000                	unimp
  5c:	5188                	lw	a0,32(a1)
	...
  66:	0000                	unimp
  68:	518a                	lw	gp,160(sp)
  6a:	0000                	unimp
  6c:	0000                	unimp
  6e:	0000                	unimp
  70:	518c                	lw	a1,32(a1)
  72:	0000                	unimp
  74:	0000                	unimp
  76:	0000                	unimp
  78:	518e                	lw	gp,224(sp)
  7a:	0000                	unimp
  7c:	5190                	lw	a2,32(a1)
  7e:	0000                	unimp
  80:	5192                	lw	gp,36(sp)
  82:	0000                	unimp
  84:	5194                	lw	a3,32(a1)
  86:	0000                	unimp
  88:	5196                	lw	gp,100(sp)
  8a:	0000                	unimp
  8c:	5198                	lw	a4,32(a1)
  8e:	0000                	unimp
  90:	4b7e                	lw	s6,220(sp)
  92:	0000                	unimp
  94:	4ba2                	lw	s7,8(sp)
  96:	0000                	unimp
  98:	4bc6                	lw	s7,80(sp)
  9a:	0000                	unimp
  9c:	4bea                	lw	s7,152(sp)
  9e:	0000                	unimp
  a0:	4c0e                	lw	s8,192(sp)
  a2:	0000                	unimp
  a4:	51a4                	lw	s1,96(a1)
  a6:	0000                	unimp
  a8:	51a6                	lw	gp,104(sp)
  aa:	0000                	unimp
  ac:	51a8                	lw	a0,96(a1)
  ae:	0000                	unimp
  b0:	51aa                	lw	gp,168(sp)
  b2:	0000                	unimp
  b4:	51ac                	lw	a1,96(a1)
  b6:	0000                	unimp
  b8:	51ae                	lw	gp,232(sp)
  ba:	0000                	unimp
  bc:	51b0                	lw	a2,96(a1)
  be:	0000                	unimp
  c0:	51b2                	lw	gp,44(sp)
  c2:	0000                	unimp
  c4:	51b4                	lw	a3,96(a1)
  c6:	0000                	unimp
  c8:	51b6                	lw	gp,108(sp)
  ca:	0000                	unimp
  cc:	51b8                	lw	a4,96(a1)
  ce:	0000                	unimp
  d0:	51ba                	lw	gp,172(sp)
  d2:	0000                	unimp
  d4:	4c32                	lw	s8,12(sp)
  d6:	0000                	unimp
  d8:	51be                	lw	gp,236(sp)
  da:	0000                	unimp
  dc:	4d4e                	lw	s10,208(sp)
  de:	0000                	unimp
  e0:	51c2                	lw	gp,48(sp)
  e2:	0000                	unimp
  e4:	51c4                	lw	s1,36(a1)
  e6:	0000                	unimp
  e8:	4d7e                	lw	s10,220(sp)
  ea:	0000                	unimp
  ec:	4da6                	lw	s11,72(sp)
  ee:	0000                	unimp
  f0:	4dd6                	lw	s11,84(sp)
  f2:	0000                	unimp
  f4:	51cc                	lw	a1,36(a1)
  f6:	0000                	unimp
  f8:	51ce                	lw	gp,240(sp)
  fa:	0000                	unimp
  fc:	51d0                	lw	a2,36(a1)
  fe:	0000                	unimp
 100:	51d2                	lw	gp,52(sp)
 102:	0000                	unimp
 104:	51d4                	lw	a3,36(a1)
 106:	0000                	unimp
 108:	51d6                	lw	gp,116(sp)
 10a:	0000                	unimp
 10c:	4976                	lw	s2,92(sp)
 10e:	0000                	unimp
 110:	49aa                	lw	s3,136(sp)
 112:	0000                	unimp
 114:	49fc                	lw	a5,84(a1)
 116:	0000                	unimp
 118:	4cba                	lw	s9,140(sp)
 11a:	0000                	unimp
 11c:	51e0                	lw	s0,100(a1)
 11e:	0000                	unimp
 120:	51e2                	lw	gp,56(sp)
 122:	0000                	unimp
 124:	51e4                	lw	s1,100(a1)
 126:	0000                	unimp
 128:	4e8e                	lw	t4,192(sp)
 12a:	0000                	unimp
 12c:	51e8                	lw	a0,100(a1)
 12e:	0000                	unimp
 130:	51ea                	lw	gp,184(sp)
 132:	0000                	unimp
 134:	51ec                	lw	a1,100(a1)
 136:	0000                	unimp
 138:	51ee                	lw	gp,248(sp)
 13a:	0000                	unimp
 13c:	51f0                	lw	a2,100(a1)
 13e:	0000                	unimp
 140:	4e06                	lw	t3,64(sp)
 142:	0000                	unimp
 144:	51f4                	lw	a3,100(a1)
 146:	0000                	unimp
 148:	4a30                	lw	a2,80(a2)
 14a:	0000                	unimp
 14c:	4a64                	lw	s1,84(a2)
 14e:	0000                	unimp
 150:	4e36                	lw	t3,76(sp)
 152:	0000                	unimp
 154:	4e5e                	lw	t3,212(sp)
 156:	0000                	unimp
 158:	51fe                	lw	gp,252(sp)
 15a:	0000                	unimp
 15c:	5200                	lw	s0,32(a2)
 15e:	0000                	unimp
 160:	5202                	lw	tp,32(sp)
 162:	0000                	unimp
 164:	5204                	lw	s1,32(a2)
 166:	0000                	unimp
 168:	5206                	lw	tp,96(sp)
 16a:	0000                	unimp
 16c:	5208                	lw	a0,32(a2)
 16e:	0000                	unimp
 170:	520a                	lw	tp,160(sp)
 172:	0000                	unimp
 174:	520c                	lw	a1,32(a2)
 176:	0000                	unimp
 178:	520e                	lw	tp,224(sp)
 17a:	0000                	unimp
 17c:	5210                	lw	a2,32(a2)
 17e:	0000                	unimp
 180:	5212                	lw	tp,36(sp)
 182:	0000                	unimp
 184:	6ba8                	flw	fa0,80(a5)
 186:	0000                	unimp
 188:	5216                	lw	tp,100(sp)
 18a:	0000                	unimp
 18c:	5218                	lw	a4,32(a2)
 18e:	0000                	unimp
 190:	4b40                	lw	s0,20(a4)
 192:	0000                	unimp
 194:	4a94                	lw	a3,16(a3)
 196:	0000                	unimp
 198:	4ac8                	lw	a0,20(a3)
 19a:	0000                	unimp
 19c:	4b14                	lw	a3,16(a4)
 19e:	0000                	unimp
 1a0:	5222                	lw	tp,40(sp)
 1a2:	0000                	unimp
 1a4:	4ebe                	lw	t4,204(sp)
 1a6:	0000                	unimp
 1a8:	5226                	lw	tp,104(sp)
 1aa:	0000                	unimp
 1ac:	5228                	lw	a0,96(a2)
 1ae:	0000                	unimp
 1b0:	522a                	lw	tp,168(sp)
 1b2:	0000                	unimp
 1b4:	4eee                	lw	t4,216(sp)
 1b6:	0000                	unimp
 1b8:	522e                	lw	tp,232(sp)
 1ba:	0000                	unimp
 1bc:	5230                	lw	a2,96(a2)
 1be:	0000                	unimp
 1c0:	5232                	lw	tp,44(sp)
 1c2:	0000                	unimp
 1c4:	5234                	lw	a3,96(a2)
 1c6:	0000                	unimp
 1c8:	5236                	lw	tp,108(sp)
 1ca:	0000                	unimp
 1cc:	5238                	lw	a4,96(a2)
 1ce:	0000                	unimp
 1d0:	523a                	lw	tp,172(sp)
 1d2:	0000                	unimp
 1d4:	523c                	lw	a5,96(a2)
	...

Disassembly of section .text:

00000200 <dis_interrupt>:
dis_interrupt():
G:/WWW_Project/MSR_Project/WCH_Header_Car/libraries/zf_driver/zf_driver_irq.S:39
#a0 = 0x7888
#mstatus中的第11 12位MPP
#00 用户模式  (U)
#01 监管者模式(S)
#11 机器模式  (M) 只有该模式允许使用SCR指令
    csrrci a0, mstatus, 0x8
     200:	30047573          	csrrci	a0,mstatus,8
G:/WWW_Project/MSR_Project/WCH_Header_Car/libraries/zf_driver/zf_driver_irq.S:40
    ret
     204:	8082                	ret

00000206 <en_interrupt>:
en_interrupt():
G:/WWW_Project/MSR_Project/WCH_Header_Car/libraries/zf_driver/zf_driver_irq.S:57

#	li t0, 0x1f
#	csrw 0x804, t0

#mstatus寄存器中的MIE位置1，切换为用户模式
   	li t0, 0x6088
     206:	000062b7          	lui	t0,0x6
     20a:	08828293          	addi	t0,t0,136 # 6088 <SPI_Init+0x4a>
G:/WWW_Project/MSR_Project/WCH_Header_Car/libraries/zf_driver/zf_driver_irq.S:58
   	csrs mstatus, t0
     20e:	3002a073          	csrs	mstatus,t0
G:/WWW_Project/MSR_Project/WCH_Header_Car/libraries/zf_driver/zf_driver_irq.S:59
    ret
     212:	8082                	ret

00000214 <memset>:
memset():
     214:	433d                	li	t1,15
     216:	872a                	mv	a4,a0
     218:	02c37363          	bgeu	t1,a2,23e <memset+0x2a>
     21c:	00f77793          	andi	a5,a4,15
     220:	efbd                	bnez	a5,29e <memset+0x8a>
     222:	e5ad                	bnez	a1,28c <memset+0x78>
     224:	ff067693          	andi	a3,a2,-16
     228:	8a3d                	andi	a2,a2,15
     22a:	96ba                	add	a3,a3,a4
     22c:	c30c                	sw	a1,0(a4)
     22e:	c34c                	sw	a1,4(a4)
     230:	c70c                	sw	a1,8(a4)
     232:	c74c                	sw	a1,12(a4)
     234:	0741                	addi	a4,a4,16
     236:	fed76be3          	bltu	a4,a3,22c <memset+0x18>
     23a:	e211                	bnez	a2,23e <memset+0x2a>
     23c:	8082                	ret
     23e:	40c306b3          	sub	a3,t1,a2
     242:	068a                	slli	a3,a3,0x2
     244:	00000297          	auipc	t0,0x0
     248:	9696                	add	a3,a3,t0
     24a:	00a68067          	jr	10(a3)
     24e:	00b70723          	sb	a1,14(a4)
     252:	00b706a3          	sb	a1,13(a4)
     256:	00b70623          	sb	a1,12(a4)
     25a:	00b705a3          	sb	a1,11(a4)
     25e:	00b70523          	sb	a1,10(a4)
     262:	00b704a3          	sb	a1,9(a4)
     266:	00b70423          	sb	a1,8(a4)
     26a:	00b703a3          	sb	a1,7(a4)
     26e:	00b70323          	sb	a1,6(a4)
     272:	00b702a3          	sb	a1,5(a4)
     276:	00b70223          	sb	a1,4(a4)
     27a:	00b701a3          	sb	a1,3(a4)
     27e:	00b70123          	sb	a1,2(a4)
     282:	00b700a3          	sb	a1,1(a4)
     286:	00b70023          	sb	a1,0(a4)
     28a:	8082                	ret
     28c:	0ff5f593          	andi	a1,a1,255
     290:	00859693          	slli	a3,a1,0x8
     294:	8dd5                	or	a1,a1,a3
     296:	01059693          	slli	a3,a1,0x10
     29a:	8dd5                	or	a1,a1,a3
     29c:	b761                	j	224 <memset+0x10>
     29e:	00279693          	slli	a3,a5,0x2
     2a2:	00000297          	auipc	t0,0x0
     2a6:	9696                	add	a3,a3,t0
     2a8:	8286                	mv	t0,ra
     2aa:	fa8680e7          	jalr	-88(a3)
     2ae:	8096                	mv	ra,t0
     2b0:	17c1                	addi	a5,a5,-16
     2b2:	8f1d                	sub	a4,a4,a5
     2b4:	963e                	add	a2,a2,a5
     2b6:	f8c374e3          	bgeu	t1,a2,23e <memset+0x2a>
     2ba:	b7a5                	j	222 <memset+0xe>

000002bc <adc_gpio_init>:
adc_gpio_init():
G:/WWW_Project/MSR_Project/WCH_Header_Car/libraries/zf_driver/zf_driver_adc.c:32
//  @param      adc_ch      adc_ch通道(可选择范围由zf_adc.h内ADC_CH_enum枚举值确定)
//  @return     void
//  Sample usage:           内部使用  用户无需关心
//-------------------------------------------------------------------------------------------------------------------
void adc_gpio_init(ADC_CH_enum adc_ch)
{
     2bc:	1101                	addi	sp,sp,-32
     2be:	ce06                	sw	ra,28(sp)
     2c0:	cc22                	sw	s0,24(sp)
     2c2:	1000                	addi	s0,sp,32
     2c4:	fea42623          	sw	a0,-20(s0)
G:/WWW_Project/MSR_Project/WCH_Header_Car/libraries/zf_driver/zf_driver_adc.c:33
    if(ADC_IN0_A0 == adc_ch)            gpio_init(A0, GPI, 0, GPI_ANAOG_IN);
     2c8:	fec42783          	lw	a5,-20(s0)
     2cc:	eb81                	bnez	a5,2dc <adc_gpio_init+0x20>
G:/WWW_Project/MSR_Project/WCH_Header_Car/libraries/zf_driver/zf_driver_adc.c:33 (discriminator 1)
     2ce:	4681                	li	a3,0
     2d0:	4601                	li	a2,0
     2d2:	4581                	li	a1,0
     2d4:	4501                	li	a0,0
     2d6:	051000ef          	jal	ra,b26 <gpio_init>
G:/WWW_Project/MSR_Project/WCH_Header_Car/libraries/zf_driver/zf_driver_adc.c:49 (discriminator 1)
    else if(ADC_IN11_C1 == adc_ch)      gpio_init(C1, GPI, 0, GPI_ANAOG_IN);
    else if(ADC_IN12_C2 == adc_ch)      gpio_init(C2, GPI, 0, GPI_ANAOG_IN);
    else if(ADC_IN13_C3 == adc_ch)      gpio_init(C3, GPI, 0, GPI_ANAOG_IN);
    else if(ADC_IN14_C4 == adc_ch)      gpio_init(C4, GPI, 0, GPI_ANAOG_IN);
    else if(ADC_IN15_C5 == adc_ch)      gpio_init(C5, GPI, 0, GPI_ANAOG_IN);
}
     2da:	aa9d                	j	450 <adc_gpio_init+0x194>
G:/WWW_Project/MSR_Project/WCH_Header_Car/libraries/zf_driver/zf_driver_adc.c:34
    else if(ADC_IN1_A1 == adc_ch)       gpio_init(A1, GPI, 0, GPI_ANAOG_IN);
     2dc:	fec42703          	lw	a4,-20(s0)
     2e0:	4785                	li	a5,1
     2e2:	00f71963          	bne	a4,a5,2f4 <adc_gpio_init+0x38>
G:/WWW_Project/MSR_Project/WCH_Header_Car/libraries/zf_driver/zf_driver_adc.c:34 (discriminator 1)
     2e6:	4681                	li	a3,0
     2e8:	4601                	li	a2,0
     2ea:	4581                	li	a1,0
     2ec:	4505                	li	a0,1
     2ee:	039000ef          	jal	ra,b26 <gpio_init>
G:/WWW_Project/MSR_Project/WCH_Header_Car/libraries/zf_driver/zf_driver_adc.c:49 (discriminator 1)
}
     2f2:	aab9                	j	450 <adc_gpio_init+0x194>
G:/WWW_Project/MSR_Project/WCH_Header_Car/libraries/zf_driver/zf_driver_adc.c:35
    else if(ADC_IN2_A2 == adc_ch)       gpio_init(A2, GPI, 0, GPI_ANAOG_IN);
     2f4:	fec42703          	lw	a4,-20(s0)
     2f8:	4789                	li	a5,2
     2fa:	00f71963          	bne	a4,a5,30c <adc_gpio_init+0x50>
G:/WWW_Project/MSR_Project/WCH_Header_Car/libraries/zf_driver/zf_driver_adc.c:35 (discriminator 1)
     2fe:	4681                	li	a3,0
     300:	4601                	li	a2,0
     302:	4581                	li	a1,0
     304:	4509                	li	a0,2
     306:	021000ef          	jal	ra,b26 <gpio_init>
G:/WWW_Project/MSR_Project/WCH_Header_Car/libraries/zf_driver/zf_driver_adc.c:49 (discriminator 1)
}
     30a:	a299                	j	450 <adc_gpio_init+0x194>
G:/WWW_Project/MSR_Project/WCH_Header_Car/libraries/zf_driver/zf_driver_adc.c:36
    else if(ADC_IN3_A3 == adc_ch)       gpio_init(A3, GPI, 0, GPI_ANAOG_IN);
     30c:	fec42703          	lw	a4,-20(s0)
     310:	478d                	li	a5,3
     312:	00f71963          	bne	a4,a5,324 <adc_gpio_init+0x68>
G:/WWW_Project/MSR_Project/WCH_Header_Car/libraries/zf_driver/zf_driver_adc.c:36 (discriminator 1)
     316:	4681                	li	a3,0
     318:	4601                	li	a2,0
     31a:	4581                	li	a1,0
     31c:	450d                	li	a0,3
     31e:	009000ef          	jal	ra,b26 <gpio_init>
G:/WWW_Project/MSR_Project/WCH_Header_Car/libraries/zf_driver/zf_driver_adc.c:49 (discriminator 1)
}
     322:	a23d                	j	450 <adc_gpio_init+0x194>
G:/WWW_Project/MSR_Project/WCH_Header_Car/libraries/zf_driver/zf_driver_adc.c:37
    else if(ADC_IN4_A4 == adc_ch)       gpio_init(A4, GPI, 0, GPI_ANAOG_IN);
     324:	fec42703          	lw	a4,-20(s0)
     328:	4791                	li	a5,4
     32a:	00f71963          	bne	a4,a5,33c <adc_gpio_init+0x80>
G:/WWW_Project/MSR_Project/WCH_Header_Car/libraries/zf_driver/zf_driver_adc.c:37 (discriminator 1)
     32e:	4681                	li	a3,0
     330:	4601                	li	a2,0
     332:	4581                	li	a1,0
     334:	4511                	li	a0,4
     336:	7f0000ef          	jal	ra,b26 <gpio_init>
G:/WWW_Project/MSR_Project/WCH_Header_Car/libraries/zf_driver/zf_driver_adc.c:49 (discriminator 1)
}
     33a:	aa19                	j	450 <adc_gpio_init+0x194>
G:/WWW_Project/MSR_Project/WCH_Header_Car/libraries/zf_driver/zf_driver_adc.c:38
    else if(ADC_IN5_A5 == adc_ch)       gpio_init(A5, GPI, 0, GPI_ANAOG_IN);
     33c:	fec42703          	lw	a4,-20(s0)
     340:	4795                	li	a5,5
     342:	00f71963          	bne	a4,a5,354 <adc_gpio_init+0x98>
G:/WWW_Project/MSR_Project/WCH_Header_Car/libraries/zf_driver/zf_driver_adc.c:38 (discriminator 1)
     346:	4681                	li	a3,0
     348:	4601                	li	a2,0
     34a:	4581                	li	a1,0
     34c:	4515                	li	a0,5
     34e:	7d8000ef          	jal	ra,b26 <gpio_init>
G:/WWW_Project/MSR_Project/WCH_Header_Car/libraries/zf_driver/zf_driver_adc.c:49 (discriminator 1)
}
     352:	a8fd                	j	450 <adc_gpio_init+0x194>
G:/WWW_Project/MSR_Project/WCH_Header_Car/libraries/zf_driver/zf_driver_adc.c:39
    else if(ADC_IN6_A6 == adc_ch)       gpio_init(A6, GPI, 0, GPI_ANAOG_IN);
     354:	fec42703          	lw	a4,-20(s0)
     358:	4799                	li	a5,6
     35a:	00f71963          	bne	a4,a5,36c <adc_gpio_init+0xb0>
G:/WWW_Project/MSR_Project/WCH_Header_Car/libraries/zf_driver/zf_driver_adc.c:39 (discriminator 1)
     35e:	4681                	li	a3,0
     360:	4601                	li	a2,0
     362:	4581                	li	a1,0
     364:	4519                	li	a0,6
     366:	7c0000ef          	jal	ra,b26 <gpio_init>
G:/WWW_Project/MSR_Project/WCH_Header_Car/libraries/zf_driver/zf_driver_adc.c:49 (discriminator 1)
}
     36a:	a0dd                	j	450 <adc_gpio_init+0x194>
G:/WWW_Project/MSR_Project/WCH_Header_Car/libraries/zf_driver/zf_driver_adc.c:40
    else if(ADC_IN7_A7 == adc_ch)       gpio_init(A7, GPI, 0, GPI_ANAOG_IN);
     36c:	fec42703          	lw	a4,-20(s0)
     370:	479d                	li	a5,7
     372:	00f71963          	bne	a4,a5,384 <adc_gpio_init+0xc8>
G:/WWW_Project/MSR_Project/WCH_Header_Car/libraries/zf_driver/zf_driver_adc.c:40 (discriminator 1)
     376:	4681                	li	a3,0
     378:	4601                	li	a2,0
     37a:	4581                	li	a1,0
     37c:	451d                	li	a0,7
     37e:	7a8000ef          	jal	ra,b26 <gpio_init>
G:/WWW_Project/MSR_Project/WCH_Header_Car/libraries/zf_driver/zf_driver_adc.c:49 (discriminator 1)
}
     382:	a0f9                	j	450 <adc_gpio_init+0x194>
G:/WWW_Project/MSR_Project/WCH_Header_Car/libraries/zf_driver/zf_driver_adc.c:41
    else if(ADC_IN8_B0 == adc_ch)       gpio_init(B0, GPI, 0, GPI_ANAOG_IN);
     384:	fec42703          	lw	a4,-20(s0)
     388:	47a1                	li	a5,8
     38a:	00f71a63          	bne	a4,a5,39e <adc_gpio_init+0xe2>
G:/WWW_Project/MSR_Project/WCH_Header_Car/libraries/zf_driver/zf_driver_adc.c:41 (discriminator 1)
     38e:	4681                	li	a3,0
     390:	4601                	li	a2,0
     392:	4581                	li	a1,0
     394:	02000513          	li	a0,32
     398:	78e000ef          	jal	ra,b26 <gpio_init>
G:/WWW_Project/MSR_Project/WCH_Header_Car/libraries/zf_driver/zf_driver_adc.c:49 (discriminator 1)
}
     39c:	a855                	j	450 <adc_gpio_init+0x194>
G:/WWW_Project/MSR_Project/WCH_Header_Car/libraries/zf_driver/zf_driver_adc.c:42
    else if(ADC_IN9_B1 == adc_ch)       gpio_init(B1, GPI, 0, GPI_ANAOG_IN);
     39e:	fec42703          	lw	a4,-20(s0)
     3a2:	47a5                	li	a5,9
     3a4:	00f71a63          	bne	a4,a5,3b8 <adc_gpio_init+0xfc>
G:/WWW_Project/MSR_Project/WCH_Header_Car/libraries/zf_driver/zf_driver_adc.c:42 (discriminator 1)
     3a8:	4681                	li	a3,0
     3aa:	4601                	li	a2,0
     3ac:	4581                	li	a1,0
     3ae:	02100513          	li	a0,33
     3b2:	774000ef          	jal	ra,b26 <gpio_init>
G:/WWW_Project/MSR_Project/WCH_Header_Car/libraries/zf_driver/zf_driver_adc.c:49 (discriminator 1)
}
     3b6:	a869                	j	450 <adc_gpio_init+0x194>
G:/WWW_Project/MSR_Project/WCH_Header_Car/libraries/zf_driver/zf_driver_adc.c:43
    else if(ADC_IN10_C0 == adc_ch)      gpio_init(C0, GPI, 0, GPI_ANAOG_IN);
     3b8:	fec42703          	lw	a4,-20(s0)
     3bc:	47a9                	li	a5,10
     3be:	00f71a63          	bne	a4,a5,3d2 <adc_gpio_init+0x116>
G:/WWW_Project/MSR_Project/WCH_Header_Car/libraries/zf_driver/zf_driver_adc.c:43 (discriminator 1)
     3c2:	4681                	li	a3,0
     3c4:	4601                	li	a2,0
     3c6:	4581                	li	a1,0
     3c8:	04000513          	li	a0,64
     3cc:	75a000ef          	jal	ra,b26 <gpio_init>
G:/WWW_Project/MSR_Project/WCH_Header_Car/libraries/zf_driver/zf_driver_adc.c:49 (discriminator 1)
}
     3d0:	a041                	j	450 <adc_gpio_init+0x194>
G:/WWW_Project/MSR_Project/WCH_Header_Car/libraries/zf_driver/zf_driver_adc.c:44
    else if(ADC_IN11_C1 == adc_ch)      gpio_init(C1, GPI, 0, GPI_ANAOG_IN);
     3d2:	fec42703          	lw	a4,-20(s0)
     3d6:	47ad                	li	a5,11
     3d8:	00f71a63          	bne	a4,a5,3ec <adc_gpio_init+0x130>
G:/WWW_Project/MSR_Project/WCH_Header_Car/libraries/zf_driver/zf_driver_adc.c:44 (discriminator 1)
     3dc:	4681                	li	a3,0
     3de:	4601                	li	a2,0
     3e0:	4581                	li	a1,0
     3e2:	04100513          	li	a0,65
     3e6:	740000ef          	jal	ra,b26 <gpio_init>
G:/WWW_Project/MSR_Project/WCH_Header_Car/libraries/zf_driver/zf_driver_adc.c:49 (discriminator 1)
}
     3ea:	a09d                	j	450 <adc_gpio_init+0x194>
G:/WWW_Project/MSR_Project/WCH_Header_Car/libraries/zf_driver/zf_driver_adc.c:45
    else if(ADC_IN12_C2 == adc_ch)      gpio_init(C2, GPI, 0, GPI_ANAOG_IN);
     3ec:	fec42703          	lw	a4,-20(s0)
     3f0:	47b1                	li	a5,12
     3f2:	00f71a63          	bne	a4,a5,406 <adc_gpio_init+0x14a>
G:/WWW_Project/MSR_Project/WCH_Header_Car/libraries/zf_driver/zf_driver_adc.c:45 (discriminator 1)
     3f6:	4681                	li	a3,0
     3f8:	4601                	li	a2,0
     3fa:	4581                	li	a1,0
     3fc:	04200513          	li	a0,66
     400:	726000ef          	jal	ra,b26 <gpio_init>
G:/WWW_Project/MSR_Project/WCH_Header_Car/libraries/zf_driver/zf_driver_adc.c:49 (discriminator 1)
}
     404:	a0b1                	j	450 <adc_gpio_init+0x194>
G:/WWW_Project/MSR_Project/WCH_Header_Car/libraries/zf_driver/zf_driver_adc.c:46
    else if(ADC_IN13_C3 == adc_ch)      gpio_init(C3, GPI, 0, GPI_ANAOG_IN);
     406:	fec42703          	lw	a4,-20(s0)
     40a:	47b5                	li	a5,13
     40c:	00f71a63          	bne	a4,a5,420 <adc_gpio_init+0x164>
G:/WWW_Project/MSR_Project/WCH_Header_Car/libraries/zf_driver/zf_driver_adc.c:46 (discriminator 1)
     410:	4681                	li	a3,0
     412:	4601                	li	a2,0
     414:	4581                	li	a1,0
     416:	04300513          	li	a0,67
     41a:	70c000ef          	jal	ra,b26 <gpio_init>
G:/WWW_Project/MSR_Project/WCH_Header_Car/libraries/zf_driver/zf_driver_adc.c:49 (discriminator 1)
}
     41e:	a80d                	j	450 <adc_gpio_init+0x194>
G:/WWW_Project/MSR_Project/WCH_Header_Car/libraries/zf_driver/zf_driver_adc.c:47
    else if(ADC_IN14_C4 == adc_ch)      gpio_init(C4, GPI, 0, GPI_ANAOG_IN);
     420:	fec42703          	lw	a4,-20(s0)
     424:	47b9                	li	a5,14
     426:	00f71a63          	bne	a4,a5,43a <adc_gpio_init+0x17e>
G:/WWW_Project/MSR_Project/WCH_Header_Car/libraries/zf_driver/zf_driver_adc.c:47 (discriminator 1)
     42a:	4681                	li	a3,0
     42c:	4601                	li	a2,0
     42e:	4581                	li	a1,0
     430:	04400513          	li	a0,68
     434:	6f2000ef          	jal	ra,b26 <gpio_init>
G:/WWW_Project/MSR_Project/WCH_Header_Car/libraries/zf_driver/zf_driver_adc.c:49 (discriminator 1)
}
     438:	a821                	j	450 <adc_gpio_init+0x194>
G:/WWW_Project/MSR_Project/WCH_Header_Car/libraries/zf_driver/zf_driver_adc.c:48
    else if(ADC_IN15_C5 == adc_ch)      gpio_init(C5, GPI, 0, GPI_ANAOG_IN);
     43a:	fec42703          	lw	a4,-20(s0)
     43e:	47bd                	li	a5,15
     440:	00f71863          	bne	a4,a5,450 <adc_gpio_init+0x194>
G:/WWW_Project/MSR_Project/WCH_Header_Car/libraries/zf_driver/zf_driver_adc.c:48 (discriminator 1)
     444:	4681                	li	a3,0
     446:	4601                	li	a2,0
     448:	4581                	li	a1,0
     44a:	04500513          	li	a0,69
     44e:	2de1                	jal	b26 <gpio_init>
G:/WWW_Project/MSR_Project/WCH_Header_Car/libraries/zf_driver/zf_driver_adc.c:49
}
     450:	0001                	nop
     452:	40f2                	lw	ra,28(sp)
     454:	4462                	lw	s0,24(sp)
     456:	6105                	addi	sp,sp,32
     458:	8082                	ret

0000045a <adc_init>:
adc_init():
G:/WWW_Project/MSR_Project/WCH_Header_Car/libraries/zf_driver/zf_driver_adc.c:101
//  @param      adc_ch      adc_ch通道(可选择范围由zf_adc.h内ADC_CH_enum枚举值确定)
//  @return     void
//  Sample usage:           adc_init(ADC_IN0_A0);//初始化A0引脚为ADC功能
//-------------------------------------------------------------------------------------------------------------------
void adc_init(ADC_CH_enum adc_ch)
{
     45a:	7139                	addi	sp,sp,-64
     45c:	de06                	sw	ra,60(sp)
     45e:	dc22                	sw	s0,56(sp)
     460:	0080                	addi	s0,sp,64
     462:	fca42623          	sw	a0,-52(s0)
G:/WWW_Project/MSR_Project/WCH_Header_Car/libraries/zf_driver/zf_driver_adc.c:106


    ADC_InitTypeDef ADC_InitStructure;

    adc_gpio_init(adc_ch);                                              //GPIO初始化
     466:	fcc42503          	lw	a0,-52(s0)
     46a:	3d89                	jal	2bc <adc_gpio_init>
G:/WWW_Project/MSR_Project/WCH_Header_Car/libraries/zf_driver/zf_driver_adc.c:108

    RCC_APB2PeriphClockCmd(RCC_APB2Periph_ADC1 , ENABLE );              //使能ADC1通道时钟
     46c:	4585                	li	a1,1
     46e:	20000513          	li	a0,512
     472:	23f050ef          	jal	ra,5eb0 <RCC_APB2PeriphClockCmd>
G:/WWW_Project/MSR_Project/WCH_Header_Car/libraries/zf_driver/zf_driver_adc.c:109
    RCC_ADCCLKConfig(RCC_PCLK2_Div2);
     476:	4501                	li	a0,0
     478:	6e6050ef          	jal	ra,5b5e <RCC_ADCCLKConfig>
G:/WWW_Project/MSR_Project/WCH_Header_Car/libraries/zf_driver/zf_driver_adc.c:113

//    if(SystemCoreClock > 84000000)  RCC_ADCCLKConfig(RCC_PCLK2_Div8);   //设置ADC分频因子，ADC最大速率不能超过14M
//    else RCC_ADCCLKConfig(RCC_PCLK2_Div6);
    ADC_DeInit(ADC1);
     47c:	400127b7          	lui	a5,0x40012
     480:	40078513          	addi	a0,a5,1024 # 40012400 <_eusrstack+0x20002400>
     484:	03e050ef          	jal	ra,54c2 <ADC_DeInit>
G:/WWW_Project/MSR_Project/WCH_Header_Car/libraries/zf_driver/zf_driver_adc.c:114
    ADC_InitStructure.ADC_Mode = ADC_Mode_Independent;                  //ADC工作模式:ADC1工作在独立模式
     488:	fc042823          	sw	zero,-48(s0)
G:/WWW_Project/MSR_Project/WCH_Header_Car/libraries/zf_driver/zf_driver_adc.c:115
    ADC_InitStructure.ADC_ScanConvMode = DISABLE;                       //模数转换工作在单通道模式
     48c:	fc042a23          	sw	zero,-44(s0)
G:/WWW_Project/MSR_Project/WCH_Header_Car/libraries/zf_driver/zf_driver_adc.c:116
    ADC_InitStructure.ADC_ContinuousConvMode = DISABLE;                 //模数转换工作在单次转换模式
     490:	fc042c23          	sw	zero,-40(s0)
G:/WWW_Project/MSR_Project/WCH_Header_Car/libraries/zf_driver/zf_driver_adc.c:117
    ADC_InitStructure.ADC_ExternalTrigConv = ADC_ExternalTrigConv_None; //转换由软件而不是外部触发启动
     494:	000e07b7          	lui	a5,0xe0
     498:	fcf42e23          	sw	a5,-36(s0)
G:/WWW_Project/MSR_Project/WCH_Header_Car/libraries/zf_driver/zf_driver_adc.c:118
    ADC_InitStructure.ADC_DataAlign = ADC_DataAlign_Right;              //ADC数据右对齐
     49c:	fe042023          	sw	zero,-32(s0)
G:/WWW_Project/MSR_Project/WCH_Header_Car/libraries/zf_driver/zf_driver_adc.c:119
    ADC_InitStructure.ADC_NbrOfChannel = 1;                             //顺序进行规则转换的ADC通道的数目
     4a0:	4785                	li	a5,1
     4a2:	fef40223          	sb	a5,-28(s0)
G:/WWW_Project/MSR_Project/WCH_Header_Car/libraries/zf_driver/zf_driver_adc.c:120
    ADC_Init(ADC1, &ADC_InitStructure);                                 //根据ADC_InitStruct中指定的参数初始化外设ADCx的寄存器
     4a6:	fd040793          	addi	a5,s0,-48
     4aa:	85be                	mv	a1,a5
     4ac:	400127b7          	lui	a5,0x40012
     4b0:	40078513          	addi	a0,a5,1024 # 40012400 <_eusrstack+0x20002400>
     4b4:	06e050ef          	jal	ra,5522 <ADC_Init>
G:/WWW_Project/MSR_Project/WCH_Header_Car/libraries/zf_driver/zf_driver_adc.c:122

    ADC_Cmd(ADC1, ENABLE);                                              //使能指定的ADC1
     4b8:	4585                	li	a1,1
     4ba:	400127b7          	lui	a5,0x40012
     4be:	40078513          	addi	a0,a5,1024 # 40012400 <_eusrstack+0x20002400>
     4c2:	162050ef          	jal	ra,5624 <ADC_Cmd>
G:/WWW_Project/MSR_Project/WCH_Header_Car/libraries/zf_driver/zf_driver_adc.c:123
    ADC_BufferCmd(ADC1, DISABLE);                                       //disable buffer
     4c6:	4581                	li	a1,0
     4c8:	400127b7          	lui	a5,0x40012
     4cc:	40078513          	addi	a0,a5,1024 # 40012400 <_eusrstack+0x20002400>
     4d0:	236050ef          	jal	ra,5706 <ADC_BufferCmd>
G:/WWW_Project/MSR_Project/WCH_Header_Car/libraries/zf_driver/zf_driver_adc.c:125

    ADC_ResetCalibration(ADC1);                                         //使能复位校准
     4d4:	400127b7          	lui	a5,0x40012
     4d8:	40078513          	addi	a0,a5,1024 # 40012400 <_eusrstack+0x20002400>
     4dc:	186050ef          	jal	ra,5662 <ADC_ResetCalibration>
G:/WWW_Project/MSR_Project/WCH_Header_Car/libraries/zf_driver/zf_driver_adc.c:126
    while(ADC_GetResetCalibrationStatus(ADC1));                         //等待复位校准结束
     4e0:	0001                	nop
G:/WWW_Project/MSR_Project/WCH_Header_Car/libraries/zf_driver/zf_driver_adc.c:126 (discriminator 1)
     4e2:	400127b7          	lui	a5,0x40012
     4e6:	40078513          	addi	a0,a5,1024 # 40012400 <_eusrstack+0x20002400>
     4ea:	19a050ef          	jal	ra,5684 <ADC_GetResetCalibrationStatus>
     4ee:	87aa                	mv	a5,a0
     4f0:	fbed                	bnez	a5,4e2 <adc_init+0x88>
G:/WWW_Project/MSR_Project/WCH_Header_Car/libraries/zf_driver/zf_driver_adc.c:127
    ADC_StartCalibration(ADC1);                                         //开启AD校准
     4f2:	400127b7          	lui	a5,0x40012
     4f6:	40078513          	addi	a0,a5,1024 # 40012400 <_eusrstack+0x20002400>
     4fa:	1ba050ef          	jal	ra,56b4 <ADC_StartCalibration>
G:/WWW_Project/MSR_Project/WCH_Header_Car/libraries/zf_driver/zf_driver_adc.c:128
    while(ADC_GetCalibrationStatus(ADC1));                              //等待校准结束
     4fe:	0001                	nop
G:/WWW_Project/MSR_Project/WCH_Header_Car/libraries/zf_driver/zf_driver_adc.c:128 (discriminator 1)
     500:	400127b7          	lui	a5,0x40012
     504:	40078513          	addi	a0,a5,1024 # 40012400 <_eusrstack+0x20002400>
     508:	1ce050ef          	jal	ra,56d6 <ADC_GetCalibrationStatus>
     50c:	87aa                	mv	a5,a0
     50e:	fbed                	bnez	a5,500 <adc_init+0xa6>
G:/WWW_Project/MSR_Project/WCH_Header_Car/libraries/zf_driver/zf_driver_adc.c:131
    //ADC_BufferCmd(ADC1, ENABLE);                                        //enable buffer

}
     510:	0001                	nop
     512:	50f2                	lw	ra,60(sp)
     514:	5462                	lw	s0,56(sp)
     516:	6121                	addi	sp,sp,64
     518:	8082                	ret

0000051a <system_delay>:
system_delay():
G:/WWW_Project/MSR_Project/WCH_Header_Car/libraries/zf_driver/zf_driver_delay.c:28
//  @param      time                us
//  @return     void
//  Sample usage:                   内部使用，用户无需关心
//-------------------------------------------------------------------------------------------------------------------
void system_delay(uint64_t time)
{
     51a:	1101                	addi	sp,sp,-32
     51c:	ce22                	sw	s0,28(sp)
     51e:	1000                	addi	s0,sp,32
     520:	fea42423          	sw	a0,-24(s0)
     524:	feb42623          	sw	a1,-20(s0)
G:/WWW_Project/MSR_Project/WCH_Header_Car/libraries/zf_driver/zf_driver_delay.c:29
    SysTick->CTLR = 0;
     528:	e000f7b7          	lui	a5,0xe000f
     52c:	0007a023          	sw	zero,0(a5) # e000f000 <_eusrstack+0xbffff000>
G:/WWW_Project/MSR_Project/WCH_Header_Car/libraries/zf_driver/zf_driver_delay.c:30
    SysTick->CNT  = 0;
     530:	e000f7b7          	lui	a5,0xe000f
     534:	4681                	li	a3,0
     536:	4701                	li	a4,0
     538:	c794                	sw	a3,8(a5)
     53a:	c7d8                	sw	a4,12(a5)
G:/WWW_Project/MSR_Project/WCH_Header_Car/libraries/zf_driver/zf_driver_delay.c:31
    SysTick->CTLR = 1;          //启动系统计数器 systick（HCLK/8 时基） us
     53c:	e000f7b7          	lui	a5,0xe000f
     540:	4705                	li	a4,1
     542:	c398                	sw	a4,0(a5)
G:/WWW_Project/MSR_Project/WCH_Header_Car/libraries/zf_driver/zf_driver_delay.c:34

    //while((*(volatile uint32*)0xE000F004) <= time);
    while(SysTick->CNT <= time);
     544:	0001                	nop
G:/WWW_Project/MSR_Project/WCH_Header_Car/libraries/zf_driver/zf_driver_delay.c:34 (discriminator 1)
     546:	e000f7b7          	lui	a5,0xe000f
     54a:	00c7a803          	lw	a6,12(a5) # e000f00c <_eusrstack+0xbffff00c>
     54e:	479c                	lw	a5,8(a5)
     550:	fec42703          	lw	a4,-20(s0)
     554:	86c2                	mv	a3,a6
     556:	00d76c63          	bltu	a4,a3,56e <system_delay+0x54>
     55a:	fec42703          	lw	a4,-20(s0)
     55e:	86c2                	mv	a3,a6
     560:	fed713e3          	bne	a4,a3,546 <system_delay+0x2c>
     564:	fe842703          	lw	a4,-24(s0)
     568:	00f76363          	bltu	a4,a5,56e <system_delay+0x54>
     56c:	bfe9                	j	546 <system_delay+0x2c>
G:/WWW_Project/MSR_Project/WCH_Header_Car/libraries/zf_driver/zf_driver_delay.c:36

}
     56e:	0001                	nop
     570:	4472                	lw	s0,28(sp)
     572:	6105                	addi	sp,sp,32
     574:	8082                	ret

00000576 <dvp_gpio_init>:
dvp_gpio_init():
G:/WWW_Project/MSR_Project/WCH_Header_Car/libraries/zf_driver/zf_driver_dvp.c:31

void dvp_gpio_init(
        uint8_t dvp_d0,uint8_t dvp_d1,uint8_t dvp_d2,uint8_t dvp_d3,
        uint8_t dvp_d4,uint8_t dvp_d5,uint8_t dvp_d6,uint8_t dvp_d7,
        uint8_t dvp_pclk,uint8_t dvp_vsync,uint8_t dvp_hsync)
{
     576:	1101                	addi	sp,sp,-32
     578:	ce06                	sw	ra,28(sp)
     57a:	cc22                	sw	s0,24(sp)
     57c:	1000                	addi	s0,sp,32
     57e:	8eaa                	mv	t4,a0
     580:	8e2e                	mv	t3,a1
     582:	8332                	mv	t1,a2
     584:	8536                	mv	a0,a3
     586:	85ba                	mv	a1,a4
     588:	863e                	mv	a2,a5
     58a:	86c2                	mv	a3,a6
     58c:	8746                	mv	a4,a7
     58e:	87f6                	mv	a5,t4
     590:	fef407a3          	sb	a5,-17(s0)
     594:	87f2                	mv	a5,t3
     596:	fef40723          	sb	a5,-18(s0)
     59a:	879a                	mv	a5,t1
     59c:	fef406a3          	sb	a5,-19(s0)
     5a0:	87aa                	mv	a5,a0
     5a2:	fef40623          	sb	a5,-20(s0)
     5a6:	87ae                	mv	a5,a1
     5a8:	fef405a3          	sb	a5,-21(s0)
     5ac:	87b2                	mv	a5,a2
     5ae:	fef40523          	sb	a5,-22(s0)
     5b2:	87b6                	mv	a5,a3
     5b4:	fef404a3          	sb	a5,-23(s0)
     5b8:	87ba                	mv	a5,a4
     5ba:	fef40423          	sb	a5,-24(s0)
G:/WWW_Project/MSR_Project/WCH_Header_Car/libraries/zf_driver/zf_driver_dvp.c:33
    //DVP_D0 到 DVP_ D7
    gpio_init(dvp_d0, GPI, 0, GPI_PULL_UP);
     5be:	fef44783          	lbu	a5,-17(s0)
     5c2:	04800693          	li	a3,72
     5c6:	4601                	li	a2,0
     5c8:	4581                	li	a1,0
     5ca:	853e                	mv	a0,a5
     5cc:	2ba9                	jal	b26 <gpio_init>
G:/WWW_Project/MSR_Project/WCH_Header_Car/libraries/zf_driver/zf_driver_dvp.c:34
    gpio_init(dvp_d1, GPI, 0, GPI_PULL_UP);
     5ce:	fee44783          	lbu	a5,-18(s0)
     5d2:	04800693          	li	a3,72
     5d6:	4601                	li	a2,0
     5d8:	4581                	li	a1,0
     5da:	853e                	mv	a0,a5
     5dc:	23a9                	jal	b26 <gpio_init>
G:/WWW_Project/MSR_Project/WCH_Header_Car/libraries/zf_driver/zf_driver_dvp.c:35
    gpio_init(dvp_d2, GPI, 0, GPI_PULL_UP);
     5de:	fed44783          	lbu	a5,-19(s0)
     5e2:	04800693          	li	a3,72
     5e6:	4601                	li	a2,0
     5e8:	4581                	li	a1,0
     5ea:	853e                	mv	a0,a5
     5ec:	2b2d                	jal	b26 <gpio_init>
G:/WWW_Project/MSR_Project/WCH_Header_Car/libraries/zf_driver/zf_driver_dvp.c:36
    gpio_init(dvp_d3, GPI, 0, GPI_PULL_UP);
     5ee:	fec44783          	lbu	a5,-20(s0)
     5f2:	04800693          	li	a3,72
     5f6:	4601                	li	a2,0
     5f8:	4581                	li	a1,0
     5fa:	853e                	mv	a0,a5
     5fc:	232d                	jal	b26 <gpio_init>
G:/WWW_Project/MSR_Project/WCH_Header_Car/libraries/zf_driver/zf_driver_dvp.c:37
    gpio_init(dvp_d4, GPI, 0, GPI_PULL_UP);
     5fe:	feb44783          	lbu	a5,-21(s0)
     602:	04800693          	li	a3,72
     606:	4601                	li	a2,0
     608:	4581                	li	a1,0
     60a:	853e                	mv	a0,a5
     60c:	2b29                	jal	b26 <gpio_init>
G:/WWW_Project/MSR_Project/WCH_Header_Car/libraries/zf_driver/zf_driver_dvp.c:38
    gpio_init(dvp_d5, GPI, 0, GPI_PULL_UP);
     60e:	fea44783          	lbu	a5,-22(s0)
     612:	04800693          	li	a3,72
     616:	4601                	li	a2,0
     618:	4581                	li	a1,0
     61a:	853e                	mv	a0,a5
     61c:	2329                	jal	b26 <gpio_init>
G:/WWW_Project/MSR_Project/WCH_Header_Car/libraries/zf_driver/zf_driver_dvp.c:39
    gpio_init(dvp_d6, GPI, 0, GPI_PULL_UP);
     61e:	fe944783          	lbu	a5,-23(s0)
     622:	04800693          	li	a3,72
     626:	4601                	li	a2,0
     628:	4581                	li	a1,0
     62a:	853e                	mv	a0,a5
     62c:	29ed                	jal	b26 <gpio_init>
G:/WWW_Project/MSR_Project/WCH_Header_Car/libraries/zf_driver/zf_driver_dvp.c:40
    gpio_init(dvp_d7, GPI, 0, GPI_PULL_UP);
     62e:	fe844783          	lbu	a5,-24(s0)
     632:	04800693          	li	a3,72
     636:	4601                	li	a2,0
     638:	4581                	li	a1,0
     63a:	853e                	mv	a0,a5
     63c:	21ed                	jal	b26 <gpio_init>
G:/WWW_Project/MSR_Project/WCH_Header_Car/libraries/zf_driver/zf_driver_dvp.c:42
    //DVP_VSYNC
    gpio_init(dvp_vsync, GPI, 0, GPI_PULL_UP);
     63e:	00444783          	lbu	a5,4(s0)
     642:	04800693          	li	a3,72
     646:	4601                	li	a2,0
     648:	4581                	li	a1,0
     64a:	853e                	mv	a0,a5
     64c:	29e9                	jal	b26 <gpio_init>
G:/WWW_Project/MSR_Project/WCH_Header_Car/libraries/zf_driver/zf_driver_dvp.c:44
    //DVP_PCLK
    gpio_init(dvp_pclk,  GPI, 0, GPI_PULL_UP);
     64e:	00044783          	lbu	a5,0(s0)
     652:	04800693          	li	a3,72
     656:	4601                	li	a2,0
     658:	4581                	li	a1,0
     65a:	853e                	mv	a0,a5
     65c:	21e9                	jal	b26 <gpio_init>
G:/WWW_Project/MSR_Project/WCH_Header_Car/libraries/zf_driver/zf_driver_dvp.c:46
    //DVP_HSYNC
    gpio_init(dvp_hsync, GPI, 0, GPI_PULL_UP);
     65e:	00844783          	lbu	a5,8(s0)
     662:	04800693          	li	a3,72
     666:	4601                	li	a2,0
     668:	4581                	li	a1,0
     66a:	853e                	mv	a0,a5
     66c:	296d                	jal	b26 <gpio_init>
G:/WWW_Project/MSR_Project/WCH_Header_Car/libraries/zf_driver/zf_driver_dvp.c:47
}
     66e:	0001                	nop
     670:	40f2                	lw	ra,28(sp)
     672:	4462                	lw	s0,24(sp)
     674:	6105                	addi	sp,sp,32
     676:	8082                	ret

00000678 <dvp_camera_init>:
dvp_camera_init():
G:/WWW_Project/MSR_Project/WCH_Header_Car/libraries/zf_driver/zf_driver_dvp.c:51

//DVP接口初始化
void dvp_camera_init(uint32_t *image0, uint32_t *image1, uint16_t col_len, uint16_t row_len)
{
     678:	1101                	addi	sp,sp,-32
     67a:	ce06                	sw	ra,28(sp)
     67c:	cc22                	sw	s0,24(sp)
     67e:	1000                	addi	s0,sp,32
     680:	fea42623          	sw	a0,-20(s0)
     684:	feb42423          	sw	a1,-24(s0)
     688:	87b2                	mv	a5,a2
     68a:	8736                	mv	a4,a3
     68c:	fef41323          	sh	a5,-26(s0)
     690:	87ba                	mv	a5,a4
     692:	fef41223          	sh	a5,-28(s0)
G:/WWW_Project/MSR_Project/WCH_Header_Car/libraries/zf_driver/zf_driver_dvp.c:52
    RCC_AHBPeriphClockCmd(RCC_AHBPeriph_DVP, ENABLE);
     696:	4585                	li	a1,1
     698:	6509                	lui	a0,0x2
     69a:	7d0050ef          	jal	ra,5e6a <RCC_AHBPeriphClockCmd>
G:/WWW_Project/MSR_Project/WCH_Header_Car/libraries/zf_driver/zf_driver_dvp.c:54

    DVP->CR0 &= ~RB_DVP_MSK_DAT_MOD;
     69e:	500507b7          	lui	a5,0x50050
     6a2:	0007c783          	lbu	a5,0(a5) # 50050000 <_eusrstack+0x30040000>
     6a6:	0ff7f713          	andi	a4,a5,255
     6aa:	500507b7          	lui	a5,0x50050
     6ae:	fcf77713          	andi	a4,a4,-49
     6b2:	0ff77713          	andi	a4,a4,255
     6b6:	00e78023          	sb	a4,0(a5) # 50050000 <_eusrstack+0x30040000>
G:/WWW_Project/MSR_Project/WCH_Header_Car/libraries/zf_driver/zf_driver_dvp.c:57

    /* VSYNC、HSYNC:High level active */
    DVP->CR0 |= RB_DVP_D8_MOD | RB_DVP_JPEG | RB_DVP_V_POLAR ;
     6ba:	500507b7          	lui	a5,0x50050
     6be:	0007c783          	lbu	a5,0(a5) # 50050000 <_eusrstack+0x30040000>
     6c2:	0ff7f713          	andi	a4,a5,255
     6c6:	500507b7          	lui	a5,0x50050
     6ca:	04276713          	ori	a4,a4,66
     6ce:	0ff77713          	andi	a4,a4,255
     6d2:	00e78023          	sb	a4,0(a5) # 50050000 <_eusrstack+0x30040000>
G:/WWW_Project/MSR_Project/WCH_Header_Car/libraries/zf_driver/zf_driver_dvp.c:58
    DVP->CR1 &= ~((RB_DVP_ALL_CLR)| RB_DVP_RCV_CLR);
     6d6:	500507b7          	lui	a5,0x50050
     6da:	0017c783          	lbu	a5,1(a5) # 50050001 <_eusrstack+0x30040001>
     6de:	0ff7f713          	andi	a4,a5,255
     6e2:	500507b7          	lui	a5,0x50050
     6e6:	9b65                	andi	a4,a4,-7
     6e8:	0ff77713          	andi	a4,a4,255
     6ec:	00e780a3          	sb	a4,1(a5) # 50050001 <_eusrstack+0x30040001>
G:/WWW_Project/MSR_Project/WCH_Header_Car/libraries/zf_driver/zf_driver_dvp.c:59
    DVP->ROW_NUM = row_len;                         // rows行数
     6f0:	500507b7          	lui	a5,0x50050
     6f4:	fe445703          	lhu	a4,-28(s0)
     6f8:	00e79223          	sh	a4,4(a5) # 50050004 <_eusrstack+0x30040004>
G:/WWW_Project/MSR_Project/WCH_Header_Car/libraries/zf_driver/zf_driver_dvp.c:60
    DVP->COL_NUM = col_len;                         // cols列数
     6fc:	500507b7          	lui	a5,0x50050
     700:	fe645703          	lhu	a4,-26(s0)
     704:	00e79323          	sh	a4,6(a5) # 50050006 <_eusrstack+0x30040006>
G:/WWW_Project/MSR_Project/WCH_Header_Car/libraries/zf_driver/zf_driver_dvp.c:62

    DVP->DMA_BUF0 = (uint32_t)image0;               //DMA addr0
     708:	500507b7          	lui	a5,0x50050
     70c:	fec42703          	lw	a4,-20(s0)
     710:	c798                	sw	a4,8(a5)
G:/WWW_Project/MSR_Project/WCH_Header_Car/libraries/zf_driver/zf_driver_dvp.c:63
    DVP->DMA_BUF1 = (uint32_t)image1;               //DMA addr1
     712:	500507b7          	lui	a5,0x50050
     716:	fe842703          	lw	a4,-24(s0)
     71a:	c7d8                	sw	a4,12(a5)
G:/WWW_Project/MSR_Project/WCH_Header_Car/libraries/zf_driver/zf_driver_dvp.c:67


    /* Set frame capture rate */
    DVP->CR1 &= ~RB_DVP_FCRC;
     71c:	500507b7          	lui	a5,0x50050
     720:	0017c783          	lbu	a5,1(a5) # 50050001 <_eusrstack+0x30040001>
     724:	0ff7f713          	andi	a4,a5,255
     728:	500507b7          	lui	a5,0x50050
     72c:	03f77713          	andi	a4,a4,63
     730:	0ff77713          	andi	a4,a4,255
     734:	00e780a3          	sb	a4,1(a5) # 50050001 <_eusrstack+0x30040001>
G:/WWW_Project/MSR_Project/WCH_Header_Car/libraries/zf_driver/zf_driver_dvp.c:68
    DVP->CR1 |= DVP_RATE_100P;  //100%
     738:	50050737          	lui	a4,0x50050
     73c:	500507b7          	lui	a5,0x50050
     740:	00174703          	lbu	a4,1(a4) # 50050001 <_eusrstack+0x30040001>
     744:	0ff77713          	andi	a4,a4,255
     748:	00e780a3          	sb	a4,1(a5) # 50050001 <_eusrstack+0x30040001>
G:/WWW_Project/MSR_Project/WCH_Header_Car/libraries/zf_driver/zf_driver_dvp.c:69
    DVP->CR1 |= RB_DVP_CM;
     74c:	500507b7          	lui	a5,0x50050
     750:	0017c783          	lbu	a5,1(a5) # 50050001 <_eusrstack+0x30040001>
     754:	0ff7f713          	andi	a4,a5,255
     758:	500507b7          	lui	a5,0x50050
     75c:	01076713          	ori	a4,a4,16
     760:	0ff77713          	andi	a4,a4,255
     764:	00e780a3          	sb	a4,1(a5) # 50050001 <_eusrstack+0x30040001>
G:/WWW_Project/MSR_Project/WCH_Header_Car/libraries/zf_driver/zf_driver_dvp.c:76


    //Interupt Enable
//    DVP->IER |= RB_DVP_IE_STR_FRM;
//    DVP->IER |= RB_DVP_IE_ROW_DONE;
    DVP->IER |= RB_DVP_IE_FRM_DONE;
     768:	500507b7          	lui	a5,0x50050
     76c:	0027c783          	lbu	a5,2(a5) # 50050002 <_eusrstack+0x30040002>
     770:	0ff7f713          	andi	a4,a5,255
     774:	500507b7          	lui	a5,0x50050
     778:	00476713          	ori	a4,a4,4
     77c:	0ff77713          	andi	a4,a4,255
     780:	00e78123          	sb	a4,2(a5) # 50050002 <_eusrstack+0x30040002>
G:/WWW_Project/MSR_Project/WCH_Header_Car/libraries/zf_driver/zf_driver_dvp.c:81
//    DVP->IER |= RB_DVP_IE_FIFO_OV;
//    DVP->IER |= RB_DVP_IE_STP_FRM;


    DVP->CR1 |= RB_DVP_DMA_EN;  //enable DMA
     784:	500507b7          	lui	a5,0x50050
     788:	0017c783          	lbu	a5,1(a5) # 50050001 <_eusrstack+0x30040001>
     78c:	0ff7f713          	andi	a4,a5,255
     790:	500507b7          	lui	a5,0x50050
     794:	00176713          	ori	a4,a4,1
     798:	0ff77713          	andi	a4,a4,255
     79c:	00e780a3          	sb	a4,1(a5) # 50050001 <_eusrstack+0x30040001>
G:/WWW_Project/MSR_Project/WCH_Header_Car/libraries/zf_driver/zf_driver_dvp.c:82
    DVP->CR0 |= RB_DVP_ENABLE;  //enable DVP
     7a0:	500507b7          	lui	a5,0x50050
     7a4:	0007c783          	lbu	a5,0(a5) # 50050000 <_eusrstack+0x30040000>
     7a8:	0ff7f713          	andi	a4,a5,255
     7ac:	500507b7          	lui	a5,0x50050
     7b0:	00176713          	ori	a4,a4,1
     7b4:	0ff77713          	andi	a4,a4,255
     7b8:	00e78023          	sb	a4,0(a5) # 50050000 <_eusrstack+0x30040000>
G:/WWW_Project/MSR_Project/WCH_Header_Car/libraries/zf_driver/zf_driver_dvp.c:84

    interrupt_set_priority(DVP_IRQn, 0x03);
     7bc:	458d                	li	a1,3
     7be:	05600513          	li	a0,86
     7c2:	138040ef          	jal	ra,48fa <interrupt_set_priority>
G:/WWW_Project/MSR_Project/WCH_Header_Car/libraries/zf_driver/zf_driver_dvp.c:85
    interrupt_enable(DVP_IRQn);
     7c6:	05600513          	li	a0,86
     7ca:	0f4040ef          	jal	ra,48be <interrupt_enable>
G:/WWW_Project/MSR_Project/WCH_Header_Car/libraries/zf_driver/zf_driver_dvp.c:87

}
     7ce:	0001                	nop
     7d0:	40f2                	lw	ra,28(sp)
     7d2:	4462                	lw	s0,24(sp)
     7d4:	6105                	addi	sp,sp,32
     7d6:	8082                	ret

000007d8 <encoder_gpio_init>:
encoder_gpio_init():
G:/WWW_Project/MSR_Project/WCH_Header_Car/libraries/zf_driver/zf_driver_encoder.c:34
//  @param      phaseB      通道B以及引脚
//  @return     void
//  Sample usage:           内部使用，用户无需关心
//-------------------------------------------------------------------------------------------------------------------
void encoder_gpio_init(gpio_pin_enum pin_ch1, gpio_pin_enum pin_ch2)
{
     7d8:	1101                	addi	sp,sp,-32
     7da:	ce06                	sw	ra,28(sp)
     7dc:	cc22                	sw	s0,24(sp)
     7de:	1000                	addi	s0,sp,32
     7e0:	fea42623          	sw	a0,-20(s0)
     7e4:	feb42423          	sw	a1,-24(s0)
G:/WWW_Project/MSR_Project/WCH_Header_Car/libraries/zf_driver/zf_driver_encoder.c:35
    gpio_init(pin_ch1, GPI, 0, GPI_PULL_UP);
     7e8:	04800693          	li	a3,72
     7ec:	4601                	li	a2,0
     7ee:	4581                	li	a1,0
     7f0:	fec42503          	lw	a0,-20(s0)
     7f4:	2e0d                	jal	b26 <gpio_init>
G:/WWW_Project/MSR_Project/WCH_Header_Car/libraries/zf_driver/zf_driver_encoder.c:36
    gpio_init(pin_ch2, GPI, 0, GPI_PULL_UP);
     7f6:	04800693          	li	a3,72
     7fa:	4601                	li	a2,0
     7fc:	4581                	li	a1,0
     7fe:	fe842503          	lw	a0,-24(s0)
     802:	2615                	jal	b26 <gpio_init>
G:/WWW_Project/MSR_Project/WCH_Header_Car/libraries/zf_driver/zf_driver_encoder.c:37
}
     804:	0001                	nop
     806:	40f2                	lw	ra,28(sp)
     808:	4462                	lw	s0,24(sp)
     80a:	6105                	addi	sp,sp,32
     80c:	8082                	ret

0000080e <encoder_get_count>:
encoder_get_count():
G:/WWW_Project/MSR_Project/WCH_Header_Car/libraries/zf_driver/zf_driver_encoder.c:46
//  @param      timer_ch      定时器枚举体
//  @return     void
//  Sample usage:
//-------------------------------------------------------------------------------------------------------------------
int16_t encoder_get_count(encoder_index_enum encoder_n)
{
     80e:	1101                	addi	sp,sp,-32
     810:	ce06                	sw	ra,28(sp)
     812:	cc22                	sw	s0,24(sp)
     814:	1000                	addi	s0,sp,32
     816:	fea42623          	sw	a0,-20(s0)
G:/WWW_Project/MSR_Project/WCH_Header_Car/libraries/zf_driver/zf_driver_encoder.c:47
    if(encoder_dir_pin[encoder_n] == 0xFF)
     81a:	200007b7          	lui	a5,0x20000
     81e:	27078713          	addi	a4,a5,624 # 20000270 <encoder_dir_pin>
     822:	fec42783          	lw	a5,-20(s0)
     826:	97ba                	add	a5,a5,a4
     828:	0007c703          	lbu	a4,0(a5)
     82c:	0ff00793          	li	a5,255
     830:	02f71163          	bne	a4,a5,852 <encoder_get_count+0x44>
G:/WWW_Project/MSR_Project/WCH_Header_Car/libraries/zf_driver/zf_driver_encoder.c:49
    {
        return ((TIM_TypeDef*)tim_index[encoder_n])->CNT;
     834:	67b5                	lui	a5,0xd
     836:	fec42703          	lw	a4,-20(s0)
     83a:	070a                	slli	a4,a4,0x2
     83c:	70078793          	addi	a5,a5,1792 # d700 <tim_index>
     840:	97ba                	add	a5,a5,a4
     842:	439c                	lw	a5,0(a5)
     844:	0247d783          	lhu	a5,36(a5)
     848:	07c2                	slli	a5,a5,0x10
     84a:	83c1                	srli	a5,a5,0x10
     84c:	07c2                	slli	a5,a5,0x10
     84e:	87c1                	srai	a5,a5,0x10
     850:	a8b9                	j	8ae <encoder_get_count+0xa0>
G:/WWW_Project/MSR_Project/WCH_Header_Car/libraries/zf_driver/zf_driver_encoder.c:53
    }
    else
    {
        if(gpio_get_level(encoder_dir_pin[encoder_n]))                  // 方向引脚高电平
     852:	200007b7          	lui	a5,0x20000
     856:	27078713          	addi	a4,a5,624 # 20000270 <encoder_dir_pin>
     85a:	fec42783          	lw	a5,-20(s0)
     85e:	97ba                	add	a5,a5,a4
     860:	0007c783          	lbu	a5,0(a5)
     864:	853e                	mv	a0,a5
     866:	2441                	jal	ae6 <gpio_get_level>
     868:	87aa                	mv	a5,a0
     86a:	c385                	beqz	a5,88a <encoder_get_count+0x7c>
G:/WWW_Project/MSR_Project/WCH_Header_Car/libraries/zf_driver/zf_driver_encoder.c:54
            return (uint16_t)((TIM_TypeDef*)tim_index[encoder_n])->CNT;                                 // 返回正数值
     86c:	67b5                	lui	a5,0xd
     86e:	fec42703          	lw	a4,-20(s0)
     872:	070a                	slli	a4,a4,0x2
     874:	70078793          	addi	a5,a5,1792 # d700 <tim_index>
     878:	97ba                	add	a5,a5,a4
     87a:	439c                	lw	a5,0(a5)
     87c:	0247d783          	lhu	a5,36(a5)
     880:	07c2                	slli	a5,a5,0x10
     882:	83c1                	srli	a5,a5,0x10
     884:	07c2                	slli	a5,a5,0x10
     886:	87c1                	srai	a5,a5,0x10
     888:	a01d                	j	8ae <encoder_get_count+0xa0>
G:/WWW_Project/MSR_Project/WCH_Header_Car/libraries/zf_driver/zf_driver_encoder.c:56
        else                                                            // 方向引脚低电平
            return -((uint16_t)((TIM_TypeDef*)tim_index[encoder_n])->CNT);                              // 返回负数值
     88a:	67b5                	lui	a5,0xd
     88c:	fec42703          	lw	a4,-20(s0)
     890:	070a                	slli	a4,a4,0x2
     892:	70078793          	addi	a5,a5,1792 # d700 <tim_index>
     896:	97ba                	add	a5,a5,a4
     898:	439c                	lw	a5,0(a5)
     89a:	0247d783          	lhu	a5,36(a5)
     89e:	07c2                	slli	a5,a5,0x10
     8a0:	83c1                	srli	a5,a5,0x10
     8a2:	40f007b3          	neg	a5,a5
     8a6:	07c2                	slli	a5,a5,0x10
     8a8:	83c1                	srli	a5,a5,0x10
     8aa:	07c2                	slli	a5,a5,0x10
     8ac:	87c1                	srai	a5,a5,0x10
G:/WWW_Project/MSR_Project/WCH_Header_Car/libraries/zf_driver/zf_driver_encoder.c:59
    }

}
     8ae:	853e                	mv	a0,a5
     8b0:	40f2                	lw	ra,28(sp)
     8b2:	4462                	lw	s0,24(sp)
     8b4:	6105                	addi	sp,sp,32
     8b6:	8082                	ret

000008b8 <encoder_clean_count>:
encoder_clean_count():
G:/WWW_Project/MSR_Project/WCH_Header_Car/libraries/zf_driver/zf_driver_encoder.c:68
//  @param      timer_ch      定时器枚举体
//  @return     void
//  Sample usage:
//-------------------------------------------------------------------------------------------------------------------
void encoder_clean_count(encoder_index_enum encoder_n)
{
     8b8:	1101                	addi	sp,sp,-32
     8ba:	ce22                	sw	s0,28(sp)
     8bc:	1000                	addi	s0,sp,32
     8be:	fea42623          	sw	a0,-20(s0)
G:/WWW_Project/MSR_Project/WCH_Header_Car/libraries/zf_driver/zf_driver_encoder.c:69
    ((TIM_TypeDef*)tim_index[encoder_n])->CNT = 0;
     8c2:	67b5                	lui	a5,0xd
     8c4:	fec42703          	lw	a4,-20(s0)
     8c8:	070a                	slli	a4,a4,0x2
     8ca:	70078793          	addi	a5,a5,1792 # d700 <tim_index>
     8ce:	97ba                	add	a5,a5,a4
     8d0:	439c                	lw	a5,0(a5)
     8d2:	02079223          	sh	zero,36(a5)
G:/WWW_Project/MSR_Project/WCH_Header_Car/libraries/zf_driver/zf_driver_encoder.c:70
}
     8d6:	0001                	nop
     8d8:	4472                	lw	s0,28(sp)
     8da:	6105                	addi	sp,sp,32
     8dc:	8082                	ret

000008de <encoder_init_dir>:
encoder_init_dir():
G:/WWW_Project/MSR_Project/WCH_Header_Car/libraries/zf_driver/zf_driver_encoder.c:124
//  @param      phaseB      通道B以及引脚
//  @return     void
//  Sample usage:           推荐使用正交解码编码器。
//-------------------------------------------------------------------------------------------------------------------
void encoder_init_dir(encoder_index_enum encoder_n, encoder_channel_enum ch1_pin, encoder_channel_enum ch2_pin)
{
     8de:	7179                	addi	sp,sp,-48
     8e0:	d606                	sw	ra,44(sp)
     8e2:	d422                	sw	s0,40(sp)
     8e4:	1800                	addi	s0,sp,48
     8e6:	fca42e23          	sw	a0,-36(s0)
     8ea:	fcb42c23          	sw	a1,-40(s0)
     8ee:	fcc42a23          	sw	a2,-44(s0)
G:/WWW_Project/MSR_Project/WCH_Header_Car/libraries/zf_driver/zf_driver_encoder.c:125
    zf_assert(timer_funciton_check((timer_index_enum)encoder_n, TIMER_FUNCTION_ENCODER));
     8f2:	4591                	li	a1,4
     8f4:	fdc42503          	lw	a0,-36(s0)
     8f8:	2ee010ef          	jal	ra,1be6 <timer_funciton_check>
     8fc:	87aa                	mv	a5,a0
     8fe:	873e                	mv	a4,a5
     900:	07d00613          	li	a2,125
     904:	67b5                	lui	a5,0xd
     906:	f0878593          	addi	a1,a5,-248 # cf08 <_sbrk+0x26>
     90a:	853a                	mv	a0,a4
     90c:	31c030ef          	jal	ra,3c28 <debug_assert_handler>
G:/WWW_Project/MSR_Project/WCH_Header_Car/libraries/zf_driver/zf_driver_encoder.c:129

    TIM_TimeBaseInitTypeDef TIM_TimeBaseStructure;

    timer_clock_enable(encoder_n);
     910:	fdc42503          	lw	a0,-36(s0)
     914:	32a010ef          	jal	ra,1c3e <timer_clock_enable>
G:/WWW_Project/MSR_Project/WCH_Header_Car/libraries/zf_driver/zf_driver_encoder.c:131

    encoder_gpio_init((gpio_pin_enum)(ch1_pin & 0xFF), (gpio_pin_enum)(ch2_pin & 0xFF));
     918:	fd842783          	lw	a5,-40(s0)
     91c:	0ff7f713          	andi	a4,a5,255
     920:	fd442783          	lw	a5,-44(s0)
     924:	0ff7f793          	andi	a5,a5,255
     928:	85be                	mv	a1,a5
     92a:	853a                	mv	a0,a4
     92c:	3575                	jal	7d8 <encoder_gpio_init>
G:/WWW_Project/MSR_Project/WCH_Header_Car/libraries/zf_driver/zf_driver_encoder.c:133

    encoder_dir_pin[encoder_n] = (ch1_pin &0xFF);           //将方向引脚号存入数组中
     92e:	fd842783          	lw	a5,-40(s0)
     932:	0ff7f713          	andi	a4,a5,255
     936:	200007b7          	lui	a5,0x20000
     93a:	27078693          	addi	a3,a5,624 # 20000270 <encoder_dir_pin>
     93e:	fdc42783          	lw	a5,-36(s0)
     942:	97b6                	add	a5,a5,a3
     944:	00e78023          	sb	a4,0(a5)
G:/WWW_Project/MSR_Project/WCH_Header_Car/libraries/zf_driver/zf_driver_encoder.c:135

    if((ch1_pin >> 8) == 0x01)      GPIO_PinRemapConfig(GPIO_FullRemap_TIM1, ENABLE);
     948:	fd842783          	lw	a5,-40(s0)
     94c:	0087d713          	srli	a4,a5,0x8
     950:	4785                	li	a5,1
     952:	00f71a63          	bne	a4,a5,966 <encoder_init_dir+0x88>
G:/WWW_Project/MSR_Project/WCH_Header_Car/libraries/zf_driver/zf_driver_encoder.c:135 (discriminator 1)
     956:	4585                	li	a1,1
     958:	001607b7          	lui	a5,0x160
     95c:	0c078513          	addi	a0,a5,192 # 1600c0 <_data_lma+0x151b6c>
     960:	0c2050ef          	jal	ra,5a22 <GPIO_PinRemapConfig>
     964:	a201                	j	a64 <encoder_init_dir+0x186>
G:/WWW_Project/MSR_Project/WCH_Header_Car/libraries/zf_driver/zf_driver_encoder.c:136
    else if((ch1_pin >> 8) == 0x11) GPIO_PinRemapConfig(GPIO_FullRemap_TIM2, ENABLE);
     966:	fd842783          	lw	a5,-40(s0)
     96a:	0087d713          	srli	a4,a5,0x8
     96e:	47c5                	li	a5,17
     970:	00f71a63          	bne	a4,a5,984 <encoder_init_dir+0xa6>
G:/WWW_Project/MSR_Project/WCH_Header_Car/libraries/zf_driver/zf_driver_encoder.c:136 (discriminator 1)
     974:	4585                	li	a1,1
     976:	001807b7          	lui	a5,0x180
     97a:	30078513          	addi	a0,a5,768 # 180300 <_data_lma+0x171dac>
     97e:	0a4050ef          	jal	ra,5a22 <GPIO_PinRemapConfig>
     982:	a0cd                	j	a64 <encoder_init_dir+0x186>
G:/WWW_Project/MSR_Project/WCH_Header_Car/libraries/zf_driver/zf_driver_encoder.c:137
    else if((ch1_pin >> 8) == 0x21) GPIO_PinRemapConfig(GPIO_FullRemap_TIM3, ENABLE);
     984:	fd842783          	lw	a5,-40(s0)
     988:	0087d713          	srli	a4,a5,0x8
     98c:	02100793          	li	a5,33
     990:	00f71a63          	bne	a4,a5,9a4 <encoder_init_dir+0xc6>
G:/WWW_Project/MSR_Project/WCH_Header_Car/libraries/zf_driver/zf_driver_encoder.c:137 (discriminator 1)
     994:	4585                	li	a1,1
     996:	001a17b7          	lui	a5,0x1a1
     99a:	c0078513          	addi	a0,a5,-1024 # 1a0c00 <_data_lma+0x1926ac>
     99e:	084050ef          	jal	ra,5a22 <GPIO_PinRemapConfig>
     9a2:	a0c9                	j	a64 <encoder_init_dir+0x186>
G:/WWW_Project/MSR_Project/WCH_Header_Car/libraries/zf_driver/zf_driver_encoder.c:138
    else if((ch1_pin >> 8) == 0x22) GPIO_PinRemapConfig(GPIO_PartialRemap_TIM3, ENABLE);
     9a4:	fd842783          	lw	a5,-40(s0)
     9a8:	0087d713          	srli	a4,a5,0x8
     9ac:	02200793          	li	a5,34
     9b0:	00f71a63          	bne	a4,a5,9c4 <encoder_init_dir+0xe6>
G:/WWW_Project/MSR_Project/WCH_Header_Car/libraries/zf_driver/zf_driver_encoder.c:138 (discriminator 1)
     9b4:	4585                	li	a1,1
     9b6:	001a17b7          	lui	a5,0x1a1
     9ba:	80078513          	addi	a0,a5,-2048 # 1a0800 <_data_lma+0x1922ac>
     9be:	064050ef          	jal	ra,5a22 <GPIO_PinRemapConfig>
     9c2:	a04d                	j	a64 <encoder_init_dir+0x186>
G:/WWW_Project/MSR_Project/WCH_Header_Car/libraries/zf_driver/zf_driver_encoder.c:139
    else if((ch1_pin >> 8) == 0x31) GPIO_PinRemapConfig(GPIO_Remap_TIM4, ENABLE);
     9c4:	fd842783          	lw	a5,-40(s0)
     9c8:	0087d713          	srli	a4,a5,0x8
     9cc:	03100793          	li	a5,49
     9d0:	00f71763          	bne	a4,a5,9de <encoder_init_dir+0x100>
G:/WWW_Project/MSR_Project/WCH_Header_Car/libraries/zf_driver/zf_driver_encoder.c:139 (discriminator 1)
     9d4:	4585                	li	a1,1
     9d6:	6505                	lui	a0,0x1
     9d8:	04a050ef          	jal	ra,5a22 <GPIO_PinRemapConfig>
     9dc:	a061                	j	a64 <encoder_init_dir+0x186>
G:/WWW_Project/MSR_Project/WCH_Header_Car/libraries/zf_driver/zf_driver_encoder.c:140
    else if((ch1_pin >> 8) == 0x71) AFIO->PCFR2 |= 0x01<<2;
     9de:	fd842783          	lw	a5,-40(s0)
     9e2:	0087d713          	srli	a4,a5,0x8
     9e6:	07100793          	li	a5,113
     9ea:	00f71b63          	bne	a4,a5,a00 <encoder_init_dir+0x122>
G:/WWW_Project/MSR_Project/WCH_Header_Car/libraries/zf_driver/zf_driver_encoder.c:140 (discriminator 1)
     9ee:	400107b7          	lui	a5,0x40010
     9f2:	4fd8                	lw	a4,28(a5)
     9f4:	400107b7          	lui	a5,0x40010
     9f8:	00476713          	ori	a4,a4,4
     9fc:	cfd8                	sw	a4,28(a5)
     9fe:	a09d                	j	a64 <encoder_init_dir+0x186>
G:/WWW_Project/MSR_Project/WCH_Header_Car/libraries/zf_driver/zf_driver_encoder.c:141
    else if((ch1_pin >> 8) == 0x81) AFIO->PCFR2 |= 0x02<<3;
     a00:	fd842783          	lw	a5,-40(s0)
     a04:	0087d713          	srli	a4,a5,0x8
     a08:	08100793          	li	a5,129
     a0c:	00f71b63          	bne	a4,a5,a22 <encoder_init_dir+0x144>
G:/WWW_Project/MSR_Project/WCH_Header_Car/libraries/zf_driver/zf_driver_encoder.c:141 (discriminator 1)
     a10:	400107b7          	lui	a5,0x40010
     a14:	4fd8                	lw	a4,28(a5)
     a16:	400107b7          	lui	a5,0x40010
     a1a:	01076713          	ori	a4,a4,16
     a1e:	cfd8                	sw	a4,28(a5)
     a20:	a091                	j	a64 <encoder_init_dir+0x186>
G:/WWW_Project/MSR_Project/WCH_Header_Car/libraries/zf_driver/zf_driver_encoder.c:142
    else if((ch1_pin >> 8) == 0x91) AFIO->PCFR2 |= 0x02<<5;
     a22:	fd842783          	lw	a5,-40(s0)
     a26:	0087d713          	srli	a4,a5,0x8
     a2a:	09100793          	li	a5,145
     a2e:	00f71b63          	bne	a4,a5,a44 <encoder_init_dir+0x166>
G:/WWW_Project/MSR_Project/WCH_Header_Car/libraries/zf_driver/zf_driver_encoder.c:142 (discriminator 1)
     a32:	400107b7          	lui	a5,0x40010
     a36:	4fd8                	lw	a4,28(a5)
     a38:	400107b7          	lui	a5,0x40010
     a3c:	04076713          	ori	a4,a4,64
     a40:	cfd8                	sw	a4,28(a5)
     a42:	a00d                	j	a64 <encoder_init_dir+0x186>
G:/WWW_Project/MSR_Project/WCH_Header_Car/libraries/zf_driver/zf_driver_encoder.c:143
    else if((ch1_pin >> 8) == 0x92) AFIO->PCFR2 |= 0x01<<5;
     a44:	fd842783          	lw	a5,-40(s0)
     a48:	0087d713          	srli	a4,a5,0x8
     a4c:	09200793          	li	a5,146
     a50:	00f71a63          	bne	a4,a5,a64 <encoder_init_dir+0x186>
G:/WWW_Project/MSR_Project/WCH_Header_Car/libraries/zf_driver/zf_driver_encoder.c:143 (discriminator 1)
     a54:	400107b7          	lui	a5,0x40010
     a58:	4fd8                	lw	a4,28(a5)
     a5a:	400107b7          	lui	a5,0x40010
     a5e:	02076713          	ori	a4,a4,32
     a62:	cfd8                	sw	a4,28(a5)
G:/WWW_Project/MSR_Project/WCH_Header_Car/libraries/zf_driver/zf_driver_encoder.c:145

    RCC_APB2PeriphClockCmd(RCC_APB2Periph_AFIO, ENABLE);                                    //使能AFIO复用功能模块时钟
     a64:	4585                	li	a1,1
     a66:	4505                	li	a0,1
     a68:	448050ef          	jal	ra,5eb0 <RCC_APB2PeriphClockCmd>
G:/WWW_Project/MSR_Project/WCH_Header_Car/libraries/zf_driver/zf_driver_encoder.c:147

    TIM_TimeBaseStructInit(&TIM_TimeBaseStructure);
     a6c:	fe440793          	addi	a5,s0,-28
     a70:	853e                	mv	a0,a5
     a72:	09d050ef          	jal	ra,630e <TIM_TimeBaseStructInit>
G:/WWW_Project/MSR_Project/WCH_Header_Car/libraries/zf_driver/zf_driver_encoder.c:148
    TIM_TimeBaseStructure.TIM_Prescaler = 0;                                                //预分频器
     a76:	fe041223          	sh	zero,-28(s0)
G:/WWW_Project/MSR_Project/WCH_Header_Car/libraries/zf_driver/zf_driver_encoder.c:149
    TIM_TimeBaseStructure.TIM_Period = 0xFFFF;                                              //设定计数器自动重装值
     a7a:	57fd                	li	a5,-1
     a7c:	fef41423          	sh	a5,-24(s0)
G:/WWW_Project/MSR_Project/WCH_Header_Car/libraries/zf_driver/zf_driver_encoder.c:150
    TIM_TimeBaseStructure.TIM_ClockDivision = TIM_CKD_DIV1;                                 //选择时钟分频：不分频
     a80:	fe041523          	sh	zero,-22(s0)
G:/WWW_Project/MSR_Project/WCH_Header_Car/libraries/zf_driver/zf_driver_encoder.c:151
    TIM_TimeBaseStructure.TIM_CounterMode = TIM_CounterMode_Up;                             //TIM向上计数
     a84:	fe041323          	sh	zero,-26(s0)
G:/WWW_Project/MSR_Project/WCH_Header_Car/libraries/zf_driver/zf_driver_encoder.c:152
    TIM_TimeBaseStructure.TIM_RepetitionCounter = 0;                                        //重复计数器
     a88:	fe040623          	sb	zero,-20(s0)
G:/WWW_Project/MSR_Project/WCH_Header_Car/libraries/zf_driver/zf_driver_encoder.c:153
    TIM_TimeBaseInit((TIM_TypeDef*)tim_index[encoder_n], &TIM_TimeBaseStructure);           //初始化结构体
     a8c:	67b5                	lui	a5,0xd
     a8e:	fdc42703          	lw	a4,-36(s0)
     a92:	070a                	slli	a4,a4,0x2
     a94:	70078793          	addi	a5,a5,1792 # d700 <tim_index>
     a98:	97ba                	add	a5,a5,a4
     a9a:	439c                	lw	a5,0(a5)
     a9c:	873e                	mv	a4,a5
     a9e:	fe440793          	addi	a5,s0,-28
     aa2:	85be                	mv	a1,a5
     aa4:	853a                	mv	a0,a4
     aa6:	6ea050ef          	jal	ra,6190 <TIM_TimeBaseInit>
G:/WWW_Project/MSR_Project/WCH_Header_Car/libraries/zf_driver/zf_driver_encoder.c:155

    TIM_ITRxExternalClockConfig((TIM_TypeDef*)tim_index[encoder_n], TIM_TS_TI2FP2);          //配置外部触发，否则不会计数
     aaa:	67b5                	lui	a5,0xd
     aac:	fdc42703          	lw	a4,-36(s0)
     ab0:	070a                	slli	a4,a4,0x2
     ab2:	70078793          	addi	a5,a5,1792 # d700 <tim_index>
     ab6:	97ba                	add	a5,a5,a4
     ab8:	439c                	lw	a5,0(a5)
     aba:	06000593          	li	a1,96
     abe:	853e                	mv	a0,a5
     ac0:	153050ef          	jal	ra,6412 <TIM_ITRxExternalClockConfig>
G:/WWW_Project/MSR_Project/WCH_Header_Car/libraries/zf_driver/zf_driver_encoder.c:157

    TIM_Cmd((TIM_TypeDef*)tim_index[encoder_n], ENABLE);                                    //定时器使能
     ac4:	67b5                	lui	a5,0xd
     ac6:	fdc42703          	lw	a4,-36(s0)
     aca:	070a                	slli	a4,a4,0x2
     acc:	70078793          	addi	a5,a5,1792 # d700 <tim_index>
     ad0:	97ba                	add	a5,a5,a4
     ad2:	439c                	lw	a5,0(a5)
     ad4:	4585                	li	a1,1
     ad6:	853e                	mv	a0,a5
     ad8:	073050ef          	jal	ra,634a <TIM_Cmd>
G:/WWW_Project/MSR_Project/WCH_Header_Car/libraries/zf_driver/zf_driver_encoder.c:158
}
     adc:	0001                	nop
     ade:	50b2                	lw	ra,44(sp)
     ae0:	5422                	lw	s0,40(sp)
     ae2:	6145                	addi	sp,sp,48
     ae4:	8082                	ret

00000ae6 <gpio_get_level>:
gpio_get_level():
G:/WWW_Project/MSR_Project/WCH_Header_Car/libraries/zf_driver/zf_driver_gpio.c:49
//  @param      pin         选择的引脚 (可选择范围由 common.h 内GPIO_PIN_enum枚举值确定)
//  @return     uint8_t       0：低电平 1：高电平
//  Sample usage:           uint8_t status = gpio_get(D0);//获取D0引脚电平
//-------------------------------------------------------------------------------------------------------------------
uint8_t gpio_get_level(gpio_pin_enum pin)
{
     ae6:	1101                	addi	sp,sp,-32
     ae8:	ce22                	sw	s0,28(sp)
     aea:	1000                	addi	s0,sp,32
     aec:	fea42623          	sw	a0,-20(s0)
G:/WWW_Project/MSR_Project/WCH_Header_Car/libraries/zf_driver/zf_driver_gpio.c:50
    if(((GPIO_TypeDef*)gpio_group[(pin&0xE0)>>5])->INDR & (((uint16_t)0x0001) << (pin&0x1F)))     // 读取引脚值
     af0:	fec42783          	lw	a5,-20(s0)
     af4:	8395                	srli	a5,a5,0x5
     af6:	0077f713          	andi	a4,a5,7
     afa:	67b5                	lui	a5,0xd
     afc:	070a                	slli	a4,a4,0x2
     afe:	6e078793          	addi	a5,a5,1760 # d6e0 <gpio_group>
     b02:	97ba                	add	a5,a5,a4
     b04:	439c                	lw	a5,0(a5)
     b06:	479c                	lw	a5,8(a5)
     b08:	fec42703          	lw	a4,-20(s0)
     b0c:	8b7d                	andi	a4,a4,31
     b0e:	4685                	li	a3,1
     b10:	00e69733          	sll	a4,a3,a4
     b14:	8ff9                	and	a5,a5,a4
     b16:	c399                	beqz	a5,b1c <gpio_get_level+0x36>
G:/WWW_Project/MSR_Project/WCH_Header_Car/libraries/zf_driver/zf_driver_gpio.c:51
        return 1;
     b18:	4785                	li	a5,1
     b1a:	a011                	j	b1e <gpio_get_level+0x38>
G:/WWW_Project/MSR_Project/WCH_Header_Car/libraries/zf_driver/zf_driver_gpio.c:52
    return 0;
     b1c:	4781                	li	a5,0
G:/WWW_Project/MSR_Project/WCH_Header_Car/libraries/zf_driver/zf_driver_gpio.c:54

}
     b1e:	853e                	mv	a0,a5
     b20:	4472                	lw	s0,28(sp)
     b22:	6105                	addi	sp,sp,32
     b24:	8082                	ret

00000b26 <gpio_init>:
gpio_init():
G:/WWW_Project/MSR_Project/WCH_Header_Car/libraries/zf_driver/zf_driver_gpio.c:80
//  @param      pinconf     引脚配置（可设置参数由zf_gpio.h文件内GPIOSPEED_enum与GPIOMODE_enum枚举值确定，多个条件使用 | 相或）
//  @return     void
//  Sample usage:           gpio_init(D0, GPO, 1, GPIO_PIN_CONFIG);//D0初始化为GPIO功能、输出模式、输出高电平、速度100MHZ 推挽输出
//-------------------------------------------------------------------------------------------------------------------
void gpio_init(gpio_pin_enum gpio_pin, gpio_dir_enum gpio_dir, gpio_level_enum dat, uint32_t pinconf)
{
     b26:	7179                	addi	sp,sp,-48
     b28:	d606                	sw	ra,44(sp)
     b2a:	d422                	sw	s0,40(sp)
     b2c:	1800                	addi	s0,sp,48
     b2e:	fca42e23          	sw	a0,-36(s0)
     b32:	fcb42c23          	sw	a1,-40(s0)
     b36:	fcc42a23          	sw	a2,-44(s0)
     b3a:	fcd42823          	sw	a3,-48(s0)
G:/WWW_Project/MSR_Project/WCH_Header_Car/libraries/zf_driver/zf_driver_gpio.c:82
    GPIO_InitTypeDef GPIO_InitStructure;
    uint8_t io_group = (gpio_pin & 0xF0) >> 5;
     b3e:	fdc42783          	lw	a5,-36(s0)
     b42:	8395                	srli	a5,a5,0x5
     b44:	0ff7f793          	andi	a5,a5,255
     b48:	8b9d                	andi	a5,a5,7
     b4a:	fef407a3          	sb	a5,-17(s0)
G:/WWW_Project/MSR_Project/WCH_Header_Car/libraries/zf_driver/zf_driver_gpio.c:83
    uint8_t io_pin = gpio_pin & 0x0F;
     b4e:	fdc42783          	lw	a5,-36(s0)
     b52:	0ff7f793          	andi	a5,a5,255
     b56:	8bbd                	andi	a5,a5,15
     b58:	fef40723          	sb	a5,-18(s0)
G:/WWW_Project/MSR_Project/WCH_Header_Car/libraries/zf_driver/zf_driver_gpio.c:87

    //GPIO_DeInit((GPIO_TypeDef *)(GPION[io_group]));
    //  空引脚则返回
    if(PIN_NULL == gpio_pin) return;
     b5c:	fdc42703          	lw	a4,-36(s0)
     b60:	0ff00793          	li	a5,255
     b64:	14f70563          	beq	a4,a5,cae <gpio_init+0x188>
G:/WWW_Project/MSR_Project/WCH_Header_Car/libraries/zf_driver/zf_driver_gpio.c:88
    if(SPI_CS_NULL == gpio_pin) return;
     b68:	fdc42703          	lw	a4,-36(s0)
     b6c:	0ff00793          	li	a5,255
     b70:	14f70163          	beq	a4,a5,cb2 <gpio_init+0x18c>
G:/WWW_Project/MSR_Project/WCH_Header_Car/libraries/zf_driver/zf_driver_gpio.c:91

    //  GPIO总线使能
    if(0 == io_group)      RCC_APB2PeriphClockCmd(RCC_APB2Periph_GPIOA, ENABLE);
     b74:	fef44783          	lbu	a5,-17(s0)
     b78:	e791                	bnez	a5,b84 <gpio_init+0x5e>
G:/WWW_Project/MSR_Project/WCH_Header_Car/libraries/zf_driver/zf_driver_gpio.c:91 (discriminator 1)
     b7a:	4585                	li	a1,1
     b7c:	4511                	li	a0,4
     b7e:	332050ef          	jal	ra,5eb0 <RCC_APB2PeriphClockCmd>
     b82:	a041                	j	c02 <gpio_init+0xdc>
G:/WWW_Project/MSR_Project/WCH_Header_Car/libraries/zf_driver/zf_driver_gpio.c:92
    else if(1 == io_group) RCC_APB2PeriphClockCmd(RCC_APB2Periph_GPIOB, ENABLE);
     b84:	fef44703          	lbu	a4,-17(s0)
     b88:	4785                	li	a5,1
     b8a:	00f71763          	bne	a4,a5,b98 <gpio_init+0x72>
G:/WWW_Project/MSR_Project/WCH_Header_Car/libraries/zf_driver/zf_driver_gpio.c:92 (discriminator 1)
     b8e:	4585                	li	a1,1
     b90:	4521                	li	a0,8
     b92:	31e050ef          	jal	ra,5eb0 <RCC_APB2PeriphClockCmd>
     b96:	a0b5                	j	c02 <gpio_init+0xdc>
G:/WWW_Project/MSR_Project/WCH_Header_Car/libraries/zf_driver/zf_driver_gpio.c:93
    else if(2 == io_group) RCC_APB2PeriphClockCmd(RCC_APB2Periph_GPIOC, ENABLE);
     b98:	fef44703          	lbu	a4,-17(s0)
     b9c:	4789                	li	a5,2
     b9e:	00f71763          	bne	a4,a5,bac <gpio_init+0x86>
G:/WWW_Project/MSR_Project/WCH_Header_Car/libraries/zf_driver/zf_driver_gpio.c:93 (discriminator 1)
     ba2:	4585                	li	a1,1
     ba4:	4541                	li	a0,16
     ba6:	30a050ef          	jal	ra,5eb0 <RCC_APB2PeriphClockCmd>
     baa:	a8a1                	j	c02 <gpio_init+0xdc>
G:/WWW_Project/MSR_Project/WCH_Header_Car/libraries/zf_driver/zf_driver_gpio.c:94
    else if(3 == io_group) RCC_APB2PeriphClockCmd(RCC_APB2Periph_GPIOD, ENABLE);
     bac:	fef44703          	lbu	a4,-17(s0)
     bb0:	478d                	li	a5,3
     bb2:	00f71863          	bne	a4,a5,bc2 <gpio_init+0x9c>
G:/WWW_Project/MSR_Project/WCH_Header_Car/libraries/zf_driver/zf_driver_gpio.c:94 (discriminator 1)
     bb6:	4585                	li	a1,1
     bb8:	02000513          	li	a0,32
     bbc:	2f4050ef          	jal	ra,5eb0 <RCC_APB2PeriphClockCmd>
     bc0:	a089                	j	c02 <gpio_init+0xdc>
G:/WWW_Project/MSR_Project/WCH_Header_Car/libraries/zf_driver/zf_driver_gpio.c:95
    else if(4 == io_group) RCC_APB2PeriphClockCmd(RCC_APB2Periph_GPIOE, ENABLE);
     bc2:	fef44703          	lbu	a4,-17(s0)
     bc6:	4791                	li	a5,4
     bc8:	00f71863          	bne	a4,a5,bd8 <gpio_init+0xb2>
G:/WWW_Project/MSR_Project/WCH_Header_Car/libraries/zf_driver/zf_driver_gpio.c:95 (discriminator 1)
     bcc:	4585                	li	a1,1
     bce:	04000513          	li	a0,64
     bd2:	2de050ef          	jal	ra,5eb0 <RCC_APB2PeriphClockCmd>
     bd6:	a035                	j	c02 <gpio_init+0xdc>
G:/WWW_Project/MSR_Project/WCH_Header_Car/libraries/zf_driver/zf_driver_gpio.c:96
    else if(5 == io_group) RCC_APB2PeriphClockCmd(RCC_APB2Periph_GPIOF, ENABLE);
     bd8:	fef44703          	lbu	a4,-17(s0)
     bdc:	4795                	li	a5,5
     bde:	00f71863          	bne	a4,a5,bee <gpio_init+0xc8>
G:/WWW_Project/MSR_Project/WCH_Header_Car/libraries/zf_driver/zf_driver_gpio.c:96 (discriminator 1)
     be2:	4585                	li	a1,1
     be4:	08000513          	li	a0,128
     be8:	2c8050ef          	jal	ra,5eb0 <RCC_APB2PeriphClockCmd>
     bec:	a819                	j	c02 <gpio_init+0xdc>
G:/WWW_Project/MSR_Project/WCH_Header_Car/libraries/zf_driver/zf_driver_gpio.c:97
    else if(6 == io_group) RCC_APB2PeriphClockCmd(RCC_APB2Periph_GPIOG, ENABLE);
     bee:	fef44703          	lbu	a4,-17(s0)
     bf2:	4799                	li	a5,6
     bf4:	00f71763          	bne	a4,a5,c02 <gpio_init+0xdc>
G:/WWW_Project/MSR_Project/WCH_Header_Car/libraries/zf_driver/zf_driver_gpio.c:97 (discriminator 1)
     bf8:	4585                	li	a1,1
     bfa:	10000513          	li	a0,256
     bfe:	2b2050ef          	jal	ra,5eb0 <RCC_APB2PeriphClockCmd>
G:/WWW_Project/MSR_Project/WCH_Header_Car/libraries/zf_driver/zf_driver_gpio.c:100

    //  设置引脚号
    GPIO_InitStructure.GPIO_Pin = (uint16_t)(1 << io_pin);
     c02:	fee44783          	lbu	a5,-18(s0)
     c06:	4705                	li	a4,1
     c08:	00f717b3          	sll	a5,a4,a5
     c0c:	07c2                	slli	a5,a5,0x10
     c0e:	83c1                	srli	a5,a5,0x10
     c10:	fef41023          	sh	a5,-32(s0)
G:/WWW_Project/MSR_Project/WCH_Header_Car/libraries/zf_driver/zf_driver_gpio.c:103

    //  只有输出需要设置速度
    if(GPO == gpio_dir)
     c14:	fd842703          	lw	a4,-40(s0)
     c18:	4785                	li	a5,1
     c1a:	02f71763          	bne	a4,a5,c48 <gpio_init+0x122>
G:/WWW_Project/MSR_Project/WCH_Header_Car/libraries/zf_driver/zf_driver_gpio.c:105
    {
        if((uint16_t)pinconf >> 8 == 0) GPIO_InitStructure.GPIO_Speed = (GPIOSpeed_TypeDef)(GPIO_Speed_50MHz);            //防止没有填写这个参数,默认设置50Mhz
     c1e:	fd042783          	lw	a5,-48(s0)
     c22:	07c2                	slli	a5,a5,0x10
     c24:	83c1                	srli	a5,a5,0x10
     c26:	83a1                	srli	a5,a5,0x8
     c28:	07c2                	slli	a5,a5,0x10
     c2a:	83c1                	srli	a5,a5,0x10
     c2c:	e789                	bnez	a5,c36 <gpio_init+0x110>
G:/WWW_Project/MSR_Project/WCH_Header_Car/libraries/zf_driver/zf_driver_gpio.c:105 (discriminator 1)
     c2e:	478d                	li	a5,3
     c30:	fef42223          	sw	a5,-28(s0)
     c34:	a811                	j	c48 <gpio_init+0x122>
G:/WWW_Project/MSR_Project/WCH_Header_Car/libraries/zf_driver/zf_driver_gpio.c:106
        else GPIO_InitStructure.GPIO_Speed = (gpio_speed_enum)((uint16_t)pinconf >> 8);         //已经填写了该参数。根据值来设置
     c36:	fd042783          	lw	a5,-48(s0)
     c3a:	07c2                	slli	a5,a5,0x10
     c3c:	83c1                	srli	a5,a5,0x10
     c3e:	83a1                	srli	a5,a5,0x8
     c40:	07c2                	slli	a5,a5,0x10
     c42:	83c1                	srli	a5,a5,0x10
     c44:	fef42223          	sw	a5,-28(s0)
G:/WWW_Project/MSR_Project/WCH_Header_Car/libraries/zf_driver/zf_driver_gpio.c:110
    }

    //  设置模式
    GPIO_InitStructure.GPIO_Mode = (GPIOMode_TypeDef)((uint16_t)pinconf & 0xFF);
     c48:	fd042783          	lw	a5,-48(s0)
     c4c:	07c2                	slli	a5,a5,0x10
     c4e:	83c1                	srli	a5,a5,0x10
     c50:	0ff7f793          	andi	a5,a5,255
     c54:	fef42423          	sw	a5,-24(s0)
G:/WWW_Project/MSR_Project/WCH_Header_Car/libraries/zf_driver/zf_driver_gpio.c:111
    GPIO_Init((GPIO_TypeDef*)gpio_group[io_group], &GPIO_InitStructure);
     c58:	fef44703          	lbu	a4,-17(s0)
     c5c:	67b5                	lui	a5,0xd
     c5e:	070a                	slli	a4,a4,0x2
     c60:	6e078793          	addi	a5,a5,1760 # d6e0 <gpio_group>
     c64:	97ba                	add	a5,a5,a4
     c66:	439c                	lw	a5,0(a5)
     c68:	873e                	mv	a4,a5
     c6a:	fe040793          	addi	a5,s0,-32
     c6e:	85be                	mv	a1,a5
     c70:	853a                	mv	a0,a4
     c72:	34f040ef          	jal	ra,57c0 <GPIO_Init>
G:/WWW_Project/MSR_Project/WCH_Header_Car/libraries/zf_driver/zf_driver_gpio.c:114

    //  只有输出需要设置引脚状态
    if(GPO == gpio_dir)
     c76:	fd842703          	lw	a4,-40(s0)
     c7a:	4785                	li	a5,1
     c7c:	02f71c63          	bne	a4,a5,cb4 <gpio_init+0x18e>
G:/WWW_Project/MSR_Project/WCH_Header_Car/libraries/zf_driver/zf_driver_gpio.c:116
    {
        GPIO_WriteBit((GPIO_TypeDef*)gpio_group[io_group], (uint16_t)(1 << io_pin), dat);
     c80:	fef44703          	lbu	a4,-17(s0)
     c84:	67b5                	lui	a5,0xd
     c86:	070a                	slli	a4,a4,0x2
     c88:	6e078793          	addi	a5,a5,1760 # d6e0 <gpio_group>
     c8c:	97ba                	add	a5,a5,a4
     c8e:	439c                	lw	a5,0(a5)
     c90:	86be                	mv	a3,a5
     c92:	fee44783          	lbu	a5,-18(s0)
     c96:	4705                	li	a4,1
     c98:	00f717b3          	sll	a5,a4,a5
     c9c:	07c2                	slli	a5,a5,0x10
     c9e:	83c1                	srli	a5,a5,0x10
     ca0:	fd442603          	lw	a2,-44(s0)
     ca4:	85be                	mv	a1,a5
     ca6:	8536                	mv	a0,a3
     ca8:	543040ef          	jal	ra,59ea <GPIO_WriteBit>
     cac:	a021                	j	cb4 <gpio_init+0x18e>
G:/WWW_Project/MSR_Project/WCH_Header_Car/libraries/zf_driver/zf_driver_gpio.c:87
    if(PIN_NULL == gpio_pin) return;
     cae:	0001                	nop
     cb0:	a011                	j	cb4 <gpio_init+0x18e>
G:/WWW_Project/MSR_Project/WCH_Header_Car/libraries/zf_driver/zf_driver_gpio.c:88
    if(SPI_CS_NULL == gpio_pin) return;
     cb2:	0001                	nop
G:/WWW_Project/MSR_Project/WCH_Header_Car/libraries/zf_driver/zf_driver_gpio.c:118
    }
}
     cb4:	50b2                	lw	ra,44(sp)
     cb6:	5422                	lw	s0,40(sp)
     cb8:	6145                	addi	sp,sp,48
     cba:	8082                	ret

00000cbc <pit_init>:
pit_init():
G:/WWW_Project/MSR_Project/WCH_Header_Car/libraries/zf_driver/zf_driver_pit.c:30
//  @param      us          定时周期(1-65535)
//  @return     void
//  Sample usage:           timer_pit_interrupt(TIMER_1, 5); 使用定时器1作为5ms一次的周期中断
//-------------------------------------------------------------------------------------------------------------------
void pit_init (pit_index_enum pit_n, uint32_t period)
{
     cbc:	711d                	addi	sp,sp,-96
     cbe:	ce86                	sw	ra,92(sp)
     cc0:	cca2                	sw	s0,88(sp)
     cc2:	1080                	addi	s0,sp,96
     cc4:	faa42623          	sw	a0,-84(s0)
     cc8:	fab42423          	sw	a1,-88(s0)
G:/WWW_Project/MSR_Project/WCH_Header_Car/libraries/zf_driver/zf_driver_pit.c:31
    const uint32_t  irq_index[10] =
     ccc:	67b5                	lui	a5,0xd
     cce:	fac7ae03          	lw	t3,-84(a5) # cfac <_sbrk+0xca>
     cd2:	fac78713          	addi	a4,a5,-84
     cd6:	00472303          	lw	t1,4(a4)
     cda:	fac78713          	addi	a4,a5,-84
     cde:	00872883          	lw	a7,8(a4)
     ce2:	fac78713          	addi	a4,a5,-84
     ce6:	00c72803          	lw	a6,12(a4)
     cea:	fac78713          	addi	a4,a5,-84
     cee:	4b08                	lw	a0,16(a4)
     cf0:	fac78713          	addi	a4,a5,-84
     cf4:	4b4c                	lw	a1,20(a4)
     cf6:	fac78713          	addi	a4,a5,-84
     cfa:	4f10                	lw	a2,24(a4)
     cfc:	fac78713          	addi	a4,a5,-84
     d00:	4f54                	lw	a3,28(a4)
     d02:	fac78713          	addi	a4,a5,-84
     d06:	5318                	lw	a4,32(a4)
     d08:	fac78793          	addi	a5,a5,-84
     d0c:	53dc                	lw	a5,36(a5)
     d0e:	fdc42223          	sw	t3,-60(s0)
     d12:	fc642423          	sw	t1,-56(s0)
     d16:	fd142623          	sw	a7,-52(s0)
     d1a:	fd042823          	sw	a6,-48(s0)
     d1e:	fca42a23          	sw	a0,-44(s0)
     d22:	fcb42c23          	sw	a1,-40(s0)
     d26:	fcc42e23          	sw	a2,-36(s0)
     d2a:	fed42023          	sw	a3,-32(s0)
     d2e:	fee42223          	sw	a4,-28(s0)
     d32:	fef42423          	sw	a5,-24(s0)
G:/WWW_Project/MSR_Project/WCH_Header_Car/libraries/zf_driver/zf_driver_pit.c:37
    {
        TIM1_UP_IRQn, TIM2_IRQn, TIM3_IRQn, TIM4_IRQn,
        TIM5_IRQn, TIM6_IRQn, TIM7_IRQn, TIM8_UP_IRQn,
        TIM9_UP_IRQn, TIM10_UP_IRQn
    };
    zf_assert(timer_funciton_check((timer_index_enum)pit_n, TIMER_FUNCTION_TIMER));
     d36:	4585                	li	a1,1
     d38:	fac42503          	lw	a0,-84(s0)
     d3c:	6ab000ef          	jal	ra,1be6 <timer_funciton_check>
     d40:	87aa                	mv	a5,a0
     d42:	873e                	mv	a4,a5
     d44:	02500613          	li	a2,37
     d48:	67b5                	lui	a5,0xd
     d4a:	f5c78593          	addi	a1,a5,-164 # cf5c <_sbrk+0x7a>
     d4e:	853a                	mv	a0,a4
     d50:	6d9020ef          	jal	ra,3c28 <debug_assert_handler>
G:/WWW_Project/MSR_Project/WCH_Header_Car/libraries/zf_driver/zf_driver_pit.c:38
    zf_assert(period!=0);
     d54:	fa842783          	lw	a5,-88(s0)
     d58:	00f037b3          	snez	a5,a5
     d5c:	0ff7f793          	andi	a5,a5,255
     d60:	873e                	mv	a4,a5
     d62:	02600613          	li	a2,38
     d66:	67b5                	lui	a5,0xd
     d68:	f5c78593          	addi	a1,a5,-164 # cf5c <_sbrk+0x7a>
     d6c:	853a                	mv	a0,a4
     d6e:	6bb020ef          	jal	ra,3c28 <debug_assert_handler>
G:/WWW_Project/MSR_Project/WCH_Header_Car/libraries/zf_driver/zf_driver_pit.c:40

    uint16_t freq_div = (period >> 15);                                 // 计算预分频
     d72:	fa842783          	lw	a5,-88(s0)
     d76:	83bd                	srli	a5,a5,0xf
     d78:	fef41723          	sh	a5,-18(s0)
G:/WWW_Project/MSR_Project/WCH_Header_Car/libraries/zf_driver/zf_driver_pit.c:41
    uint16_t period_temp = (period / (freq_div+1));                     // 计算自动重装载值
     d7c:	fee45783          	lhu	a5,-18(s0)
     d80:	0785                	addi	a5,a5,1
     d82:	873e                	mv	a4,a5
     d84:	fa842783          	lw	a5,-88(s0)
     d88:	02e7d7b3          	divu	a5,a5,a4
     d8c:	fef41623          	sh	a5,-20(s0)
G:/WWW_Project/MSR_Project/WCH_Header_Car/libraries/zf_driver/zf_driver_pit.c:43

    timer_clock_enable(pit_n);
     d90:	fac42503          	lw	a0,-84(s0)
     d94:	6ab000ef          	jal	ra,1c3e <timer_clock_enable>
G:/WWW_Project/MSR_Project/WCH_Header_Car/libraries/zf_driver/zf_driver_pit.c:46

    TIM_TimeBaseInitTypeDef  TIM_TimeBaseStructure;
    TIM_TimeBaseStructure.TIM_Period = period_temp;
     d98:	fec45783          	lhu	a5,-20(s0)
     d9c:	faf41e23          	sh	a5,-68(s0)
G:/WWW_Project/MSR_Project/WCH_Header_Car/libraries/zf_driver/zf_driver_pit.c:47
    TIM_TimeBaseStructure.TIM_Prescaler = freq_div;                     // 分频值
     da0:	fee45783          	lhu	a5,-18(s0)
     da4:	faf41c23          	sh	a5,-72(s0)
G:/WWW_Project/MSR_Project/WCH_Header_Car/libraries/zf_driver/zf_driver_pit.c:48
    TIM_TimeBaseStructure.TIM_ClockDivision = TIM_CKD_DIV1;             // 设置时钟分割:TDTS = Tck_tim
     da8:	fa041f23          	sh	zero,-66(s0)
G:/WWW_Project/MSR_Project/WCH_Header_Car/libraries/zf_driver/zf_driver_pit.c:49
    TIM_TimeBaseStructure.TIM_CounterMode = TIM_CounterMode_Up;         // TIM向上计数模式
     dac:	fa041d23          	sh	zero,-70(s0)
G:/WWW_Project/MSR_Project/WCH_Header_Car/libraries/zf_driver/zf_driver_pit.c:50
    TIM_TimeBaseStructure.TIM_RepetitionCounter = 0;                    // 重复计数器设置为0
     db0:	fc040023          	sb	zero,-64(s0)
G:/WWW_Project/MSR_Project/WCH_Header_Car/libraries/zf_driver/zf_driver_pit.c:51
    TIM_TimeBaseInit((TIM_TypeDef*)tim_index[pit_n], &TIM_TimeBaseStructure);         // 根据指定的参数初始化TIMx的时间基数单位
     db4:	67b5                	lui	a5,0xd
     db6:	fac42703          	lw	a4,-84(s0)
     dba:	070a                	slli	a4,a4,0x2
     dbc:	70078793          	addi	a5,a5,1792 # d700 <tim_index>
     dc0:	97ba                	add	a5,a5,a4
     dc2:	439c                	lw	a5,0(a5)
     dc4:	873e                	mv	a4,a5
     dc6:	fb840793          	addi	a5,s0,-72
     dca:	85be                	mv	a1,a5
     dcc:	853a                	mv	a0,a4
     dce:	3c2050ef          	jal	ra,6190 <TIM_TimeBaseInit>
G:/WWW_Project/MSR_Project/WCH_Header_Car/libraries/zf_driver/zf_driver_pit.c:52
    TIM_ITConfig((TIM_TypeDef*)tim_index[pit_n],TIM_IT_Update,ENABLE );               // 使能指定的TIM中断,允许更新中断
     dd2:	67b5                	lui	a5,0xd
     dd4:	fac42703          	lw	a4,-84(s0)
     dd8:	070a                	slli	a4,a4,0x2
     dda:	70078793          	addi	a5,a5,1792 # d700 <tim_index>
     dde:	97ba                	add	a5,a5,a4
     de0:	439c                	lw	a5,0(a5)
     de2:	4605                	li	a2,1
     de4:	4585                	li	a1,1
     de6:	853e                	mv	a0,a5
     de8:	5ba050ef          	jal	ra,63a2 <TIM_ITConfig>
G:/WWW_Project/MSR_Project/WCH_Header_Car/libraries/zf_driver/zf_driver_pit.c:53
    TIM_ClearITPendingBit((TIM_TypeDef*)tim_index[pit_n], TIM_IT_Update);
     dec:	67b5                	lui	a5,0xd
     dee:	fac42703          	lw	a4,-84(s0)
     df2:	070a                	slli	a4,a4,0x2
     df4:	70078793          	addi	a5,a5,1792 # d700 <tim_index>
     df8:	97ba                	add	a5,a5,a4
     dfa:	439c                	lw	a5,0(a5)
     dfc:	4585                	li	a1,1
     dfe:	853e                	mv	a0,a5
     e00:	716050ef          	jal	ra,6516 <TIM_ClearITPendingBit>
G:/WWW_Project/MSR_Project/WCH_Header_Car/libraries/zf_driver/zf_driver_pit.c:55

    interrupt_set_priority((IRQn_Type)irq_index[(uint8_t)pit_n], 0x03);                    // 设置中断优先级
     e04:	fac42783          	lw	a5,-84(s0)
     e08:	0ff7f793          	andi	a5,a5,255
     e0c:	078a                	slli	a5,a5,0x2
     e0e:	ff040713          	addi	a4,s0,-16
     e12:	97ba                	add	a5,a5,a4
     e14:	fd47a783          	lw	a5,-44(a5)
     e18:	458d                	li	a1,3
     e1a:	853e                	mv	a0,a5
     e1c:	2df030ef          	jal	ra,48fa <interrupt_set_priority>
G:/WWW_Project/MSR_Project/WCH_Header_Car/libraries/zf_driver/zf_driver_pit.c:56
    interrupt_enable((IRQn_Type)irq_index[pit_n]);                                // 使能中断
     e20:	fac42783          	lw	a5,-84(s0)
     e24:	078a                	slli	a5,a5,0x2
     e26:	ff040713          	addi	a4,s0,-16
     e2a:	97ba                	add	a5,a5,a4
     e2c:	fd47a783          	lw	a5,-44(a5)
     e30:	853e                	mv	a0,a5
     e32:	28d030ef          	jal	ra,48be <interrupt_enable>
G:/WWW_Project/MSR_Project/WCH_Header_Car/libraries/zf_driver/zf_driver_pit.c:58

    TIM_Cmd((TIM_TypeDef*)tim_index[pit_n], ENABLE);                                 // 使能定时器
     e36:	67b5                	lui	a5,0xd
     e38:	fac42703          	lw	a4,-84(s0)
     e3c:	070a                	slli	a4,a4,0x2
     e3e:	70078793          	addi	a5,a5,1792 # d700 <tim_index>
     e42:	97ba                	add	a5,a5,a4
     e44:	439c                	lw	a5,0(a5)
     e46:	4585                	li	a1,1
     e48:	853e                	mv	a0,a5
     e4a:	500050ef          	jal	ra,634a <TIM_Cmd>
G:/WWW_Project/MSR_Project/WCH_Header_Car/libraries/zf_driver/zf_driver_pit.c:60

}
     e4e:	0001                	nop
     e50:	40f6                	lw	ra,92(sp)
     e52:	4466                	lw	s0,88(sp)
     e54:	6125                	addi	sp,sp,96
     e56:	8082                	ret

00000e58 <soft_iic_delay>:
soft_iic_delay():
G:/WWW_Project/MSR_Project/WCH_Header_Car/libraries/zf_driver/zf_driver_soft_iic.c:28
// @brief       软件 IIC 延时 内部调用
// @param       void
// @return      void
//-------------------------------------------------------------------------------------------------------------------
static void soft_iic_delay (uint32_t delay)
{
     e58:	7179                	addi	sp,sp,-48
     e5a:	d622                	sw	s0,44(sp)
     e5c:	1800                	addi	s0,sp,48
     e5e:	fca42e23          	sw	a0,-36(s0)
G:/WWW_Project/MSR_Project/WCH_Header_Car/libraries/zf_driver/zf_driver_soft_iic.c:29
    volatile uint32_t count = delay;
     e62:	fdc42783          	lw	a5,-36(s0)
     e66:	fef42623          	sw	a5,-20(s0)
G:/WWW_Project/MSR_Project/WCH_Header_Car/libraries/zf_driver/zf_driver_soft_iic.c:30
    while(count--);
     e6a:	0001                	nop
G:/WWW_Project/MSR_Project/WCH_Header_Car/libraries/zf_driver/zf_driver_soft_iic.c:30 (discriminator 1)
     e6c:	fec42783          	lw	a5,-20(s0)
     e70:	fff78713          	addi	a4,a5,-1
     e74:	fee42623          	sw	a4,-20(s0)
     e78:	fbf5                	bnez	a5,e6c <soft_iic_delay+0x14>
G:/WWW_Project/MSR_Project/WCH_Header_Car/libraries/zf_driver/zf_driver_soft_iic.c:31
}
     e7a:	0001                	nop
     e7c:	5432                	lw	s0,44(sp)
     e7e:	6145                	addi	sp,sp,48
     e80:	8082                	ret

00000e82 <soft_iic_init>:
soft_iic_init():
G:/WWW_Project/MSR_Project/WCH_Header_Car/libraries/zf_driver/zf_driver_soft_iic.c:44
// @param       sda_pin         软件 IIC 数据引脚 参照 zf_driver_gpio.h 内 gpio_pin_enum 枚举体定义
// @return      void            
// Sample usage:                soft_iic_init(&soft_iic_obj, addr, 100, B6, B7);
//-------------------------------------------------------------------------------------------------------------------
void soft_iic_init (soft_iic_info_struct *soft_iic_obj, uint8_t addr, uint32_t delay, gpio_pin_enum scl_pin, gpio_pin_enum sda_pin)
{
     e82:	7179                	addi	sp,sp,-48
     e84:	d606                	sw	ra,44(sp)
     e86:	d422                	sw	s0,40(sp)
     e88:	1800                	addi	s0,sp,48
     e8a:	fea42623          	sw	a0,-20(s0)
     e8e:	87ae                	mv	a5,a1
     e90:	fec42223          	sw	a2,-28(s0)
     e94:	fed42023          	sw	a3,-32(s0)
     e98:	fce42e23          	sw	a4,-36(s0)
     e9c:	fef405a3          	sb	a5,-21(s0)
G:/WWW_Project/MSR_Project/WCH_Header_Car/libraries/zf_driver/zf_driver_soft_iic.c:45
    soft_iic_obj->scl_pin = scl_pin;
     ea0:	fec42783          	lw	a5,-20(s0)
     ea4:	fe042703          	lw	a4,-32(s0)
     ea8:	c398                	sw	a4,0(a5)
G:/WWW_Project/MSR_Project/WCH_Header_Car/libraries/zf_driver/zf_driver_soft_iic.c:46
    soft_iic_obj->sda_pin = sda_pin;
     eaa:	fec42783          	lw	a5,-20(s0)
     eae:	fdc42703          	lw	a4,-36(s0)
     eb2:	c3d8                	sw	a4,4(a5)
G:/WWW_Project/MSR_Project/WCH_Header_Car/libraries/zf_driver/zf_driver_soft_iic.c:47
    soft_iic_obj->addr = addr;
     eb4:	fec42783          	lw	a5,-20(s0)
     eb8:	feb44703          	lbu	a4,-21(s0)
     ebc:	00e78423          	sb	a4,8(a5)
G:/WWW_Project/MSR_Project/WCH_Header_Car/libraries/zf_driver/zf_driver_soft_iic.c:48
    soft_iic_obj->delay = delay;
     ec0:	fec42783          	lw	a5,-20(s0)
     ec4:	fe442703          	lw	a4,-28(s0)
     ec8:	c7d8                	sw	a4,12(a5)
G:/WWW_Project/MSR_Project/WCH_Header_Car/libraries/zf_driver/zf_driver_soft_iic.c:49
    gpio_init(scl_pin, GPO, GPIO_HIGH, GPO_PUSH_PULL);                          // 提取对应IO索引 AF功能编码
     eca:	46c1                	li	a3,16
     ecc:	4605                	li	a2,1
     ece:	4585                	li	a1,1
     ed0:	fe042503          	lw	a0,-32(s0)
     ed4:	3989                	jal	b26 <gpio_init>
G:/WWW_Project/MSR_Project/WCH_Header_Car/libraries/zf_driver/zf_driver_soft_iic.c:50
    gpio_init(sda_pin, GPO, GPIO_HIGH, GPO_OPEN_DTAIN);                         // 提取对应IO索引 AF功能编码
     ed6:	46d1                	li	a3,20
     ed8:	4605                	li	a2,1
     eda:	4585                	li	a1,1
     edc:	fdc42503          	lw	a0,-36(s0)
     ee0:	3199                	jal	b26 <gpio_init>
G:/WWW_Project/MSR_Project/WCH_Header_Car/libraries/zf_driver/zf_driver_soft_iic.c:51
}
     ee2:	0001                	nop
     ee4:	50b2                	lw	ra,44(sp)
     ee6:	5422                	lw	s0,40(sp)
     ee8:	6145                	addi	sp,sp,48
     eea:	8082                	ret

00000eec <soft_iic_start>:
soft_iic_start():
G:/WWW_Project/MSR_Project/WCH_Header_Car/libraries/zf_driver/zf_driver_soft_iic.c:59
// @brief       软件 IIC START 信号 内部调用
// @param       *soft_iic_obj   软件 IIC 指定信息 可以参照 zf_driver_soft_iic.h 里的格式看看
// @return      void
//-------------------------------------------------------------------------------------------------------------------
static void soft_iic_start (soft_iic_info_struct *soft_iic_obj)
{
     eec:	1101                	addi	sp,sp,-32
     eee:	ce06                	sw	ra,28(sp)
     ef0:	cc22                	sw	s0,24(sp)
     ef2:	1000                	addi	s0,sp,32
     ef4:	fea42623          	sw	a0,-20(s0)
G:/WWW_Project/MSR_Project/WCH_Header_Car/libraries/zf_driver/zf_driver_soft_iic.c:60
    gpio_high(soft_iic_obj->scl_pin);                                           // SCL 高电平
     ef8:	fec42783          	lw	a5,-20(s0)
     efc:	439c                	lw	a5,0(a5)
     efe:	8bbd                	andi	a5,a5,15
     f00:	4705                	li	a4,1
     f02:	00f717b3          	sll	a5,a4,a5
     f06:	01079693          	slli	a3,a5,0x10
     f0a:	82c1                	srli	a3,a3,0x10
     f0c:	fec42783          	lw	a5,-20(s0)
     f10:	439c                	lw	a5,0(a5)
     f12:	0057d713          	srli	a4,a5,0x5
     f16:	67b5                	lui	a5,0xd
     f18:	070a                	slli	a4,a4,0x2
     f1a:	6e078793          	addi	a5,a5,1760 # d6e0 <gpio_group>
     f1e:	97ba                	add	a5,a5,a4
     f20:	439c                	lw	a5,0(a5)
     f22:	8736                	mv	a4,a3
     f24:	cb98                	sw	a4,16(a5)
G:/WWW_Project/MSR_Project/WCH_Header_Car/libraries/zf_driver/zf_driver_soft_iic.c:61
    gpio_high(soft_iic_obj->sda_pin);                                           // SDA 高电平
     f26:	fec42783          	lw	a5,-20(s0)
     f2a:	43dc                	lw	a5,4(a5)
     f2c:	8bbd                	andi	a5,a5,15
     f2e:	4705                	li	a4,1
     f30:	00f717b3          	sll	a5,a4,a5
     f34:	01079693          	slli	a3,a5,0x10
     f38:	82c1                	srli	a3,a3,0x10
     f3a:	fec42783          	lw	a5,-20(s0)
     f3e:	43dc                	lw	a5,4(a5)
     f40:	0057d713          	srli	a4,a5,0x5
     f44:	67b5                	lui	a5,0xd
     f46:	070a                	slli	a4,a4,0x2
     f48:	6e078793          	addi	a5,a5,1760 # d6e0 <gpio_group>
     f4c:	97ba                	add	a5,a5,a4
     f4e:	439c                	lw	a5,0(a5)
     f50:	8736                	mv	a4,a3
     f52:	cb98                	sw	a4,16(a5)
G:/WWW_Project/MSR_Project/WCH_Header_Car/libraries/zf_driver/zf_driver_soft_iic.c:63

    soft_iic_delay(soft_iic_obj->delay);
     f54:	fec42783          	lw	a5,-20(s0)
     f58:	47dc                	lw	a5,12(a5)
     f5a:	853e                	mv	a0,a5
     f5c:	3df5                	jal	e58 <soft_iic_delay>
G:/WWW_Project/MSR_Project/WCH_Header_Car/libraries/zf_driver/zf_driver_soft_iic.c:64
    gpio_low(soft_iic_obj->sda_pin);                                            // SDA 先拉低
     f5e:	fec42783          	lw	a5,-20(s0)
     f62:	43dc                	lw	a5,4(a5)
     f64:	8bbd                	andi	a5,a5,15
     f66:	4705                	li	a4,1
     f68:	00f717b3          	sll	a5,a4,a5
     f6c:	01079693          	slli	a3,a5,0x10
     f70:	82c1                	srli	a3,a3,0x10
     f72:	fec42783          	lw	a5,-20(s0)
     f76:	43dc                	lw	a5,4(a5)
     f78:	0057d713          	srli	a4,a5,0x5
     f7c:	67b5                	lui	a5,0xd
     f7e:	070a                	slli	a4,a4,0x2
     f80:	6e078793          	addi	a5,a5,1760 # d6e0 <gpio_group>
     f84:	97ba                	add	a5,a5,a4
     f86:	439c                	lw	a5,0(a5)
     f88:	8736                	mv	a4,a3
     f8a:	cbd8                	sw	a4,20(a5)
G:/WWW_Project/MSR_Project/WCH_Header_Car/libraries/zf_driver/zf_driver_soft_iic.c:65
    soft_iic_delay(soft_iic_obj->delay);
     f8c:	fec42783          	lw	a5,-20(s0)
     f90:	47dc                	lw	a5,12(a5)
     f92:	853e                	mv	a0,a5
     f94:	35d1                	jal	e58 <soft_iic_delay>
G:/WWW_Project/MSR_Project/WCH_Header_Car/libraries/zf_driver/zf_driver_soft_iic.c:66
    gpio_low(soft_iic_obj->scl_pin);                                            // SCL 再拉低
     f96:	fec42783          	lw	a5,-20(s0)
     f9a:	439c                	lw	a5,0(a5)
     f9c:	8bbd                	andi	a5,a5,15
     f9e:	4705                	li	a4,1
     fa0:	00f717b3          	sll	a5,a4,a5
     fa4:	01079693          	slli	a3,a5,0x10
     fa8:	82c1                	srli	a3,a3,0x10
     faa:	fec42783          	lw	a5,-20(s0)
     fae:	439c                	lw	a5,0(a5)
     fb0:	0057d713          	srli	a4,a5,0x5
     fb4:	67b5                	lui	a5,0xd
     fb6:	070a                	slli	a4,a4,0x2
     fb8:	6e078793          	addi	a5,a5,1760 # d6e0 <gpio_group>
     fbc:	97ba                	add	a5,a5,a4
     fbe:	439c                	lw	a5,0(a5)
     fc0:	8736                	mv	a4,a3
     fc2:	cbd8                	sw	a4,20(a5)
G:/WWW_Project/MSR_Project/WCH_Header_Car/libraries/zf_driver/zf_driver_soft_iic.c:67
}
     fc4:	0001                	nop
     fc6:	40f2                	lw	ra,28(sp)
     fc8:	4462                	lw	s0,24(sp)
     fca:	6105                	addi	sp,sp,32
     fcc:	8082                	ret

00000fce <soft_iic_stop>:
soft_iic_stop():
G:/WWW_Project/MSR_Project/WCH_Header_Car/libraries/zf_driver/zf_driver_soft_iic.c:75
// @brief       软件 IIC STOP 信号 内部调用
// @param       *soft_iic_obj   软件 IIC 指定信息 可以参照 zf_driver_soft_iic.h 里的格式看看
// @return      void
//-------------------------------------------------------------------------------------------------------------------
static void soft_iic_stop (soft_iic_info_struct *soft_iic_obj)
{
     fce:	1101                	addi	sp,sp,-32
     fd0:	ce06                	sw	ra,28(sp)
     fd2:	cc22                	sw	s0,24(sp)
     fd4:	1000                	addi	s0,sp,32
     fd6:	fea42623          	sw	a0,-20(s0)
G:/WWW_Project/MSR_Project/WCH_Header_Car/libraries/zf_driver/zf_driver_soft_iic.c:76
    gpio_low(soft_iic_obj->sda_pin);                                            // SDA 低电平
     fda:	fec42783          	lw	a5,-20(s0)
     fde:	43dc                	lw	a5,4(a5)
     fe0:	8bbd                	andi	a5,a5,15
     fe2:	4705                	li	a4,1
     fe4:	00f717b3          	sll	a5,a4,a5
     fe8:	01079693          	slli	a3,a5,0x10
     fec:	82c1                	srli	a3,a3,0x10
     fee:	fec42783          	lw	a5,-20(s0)
     ff2:	43dc                	lw	a5,4(a5)
     ff4:	0057d713          	srli	a4,a5,0x5
     ff8:	67b5                	lui	a5,0xd
     ffa:	070a                	slli	a4,a4,0x2
     ffc:	6e078793          	addi	a5,a5,1760 # d6e0 <gpio_group>
    1000:	97ba                	add	a5,a5,a4
    1002:	439c                	lw	a5,0(a5)
    1004:	8736                	mv	a4,a3
    1006:	cbd8                	sw	a4,20(a5)
G:/WWW_Project/MSR_Project/WCH_Header_Car/libraries/zf_driver/zf_driver_soft_iic.c:77
    gpio_low(soft_iic_obj->scl_pin);                                            // SCL 低电平
    1008:	fec42783          	lw	a5,-20(s0)
    100c:	439c                	lw	a5,0(a5)
    100e:	8bbd                	andi	a5,a5,15
    1010:	4705                	li	a4,1
    1012:	00f717b3          	sll	a5,a4,a5
    1016:	01079693          	slli	a3,a5,0x10
    101a:	82c1                	srli	a3,a3,0x10
    101c:	fec42783          	lw	a5,-20(s0)
    1020:	439c                	lw	a5,0(a5)
    1022:	0057d713          	srli	a4,a5,0x5
    1026:	67b5                	lui	a5,0xd
    1028:	070a                	slli	a4,a4,0x2
    102a:	6e078793          	addi	a5,a5,1760 # d6e0 <gpio_group>
    102e:	97ba                	add	a5,a5,a4
    1030:	439c                	lw	a5,0(a5)
    1032:	8736                	mv	a4,a3
    1034:	cbd8                	sw	a4,20(a5)
G:/WWW_Project/MSR_Project/WCH_Header_Car/libraries/zf_driver/zf_driver_soft_iic.c:79

    soft_iic_delay(soft_iic_obj->delay);
    1036:	fec42783          	lw	a5,-20(s0)
    103a:	47dc                	lw	a5,12(a5)
    103c:	853e                	mv	a0,a5
    103e:	3d29                	jal	e58 <soft_iic_delay>
G:/WWW_Project/MSR_Project/WCH_Header_Car/libraries/zf_driver/zf_driver_soft_iic.c:80
    gpio_high(soft_iic_obj->scl_pin);                                           // SCL 先拉高
    1040:	fec42783          	lw	a5,-20(s0)
    1044:	439c                	lw	a5,0(a5)
    1046:	8bbd                	andi	a5,a5,15
    1048:	4705                	li	a4,1
    104a:	00f717b3          	sll	a5,a4,a5
    104e:	01079693          	slli	a3,a5,0x10
    1052:	82c1                	srli	a3,a3,0x10
    1054:	fec42783          	lw	a5,-20(s0)
    1058:	439c                	lw	a5,0(a5)
    105a:	0057d713          	srli	a4,a5,0x5
    105e:	67b5                	lui	a5,0xd
    1060:	070a                	slli	a4,a4,0x2
    1062:	6e078793          	addi	a5,a5,1760 # d6e0 <gpio_group>
    1066:	97ba                	add	a5,a5,a4
    1068:	439c                	lw	a5,0(a5)
    106a:	8736                	mv	a4,a3
    106c:	cb98                	sw	a4,16(a5)
G:/WWW_Project/MSR_Project/WCH_Header_Car/libraries/zf_driver/zf_driver_soft_iic.c:81
    soft_iic_delay(soft_iic_obj->delay);
    106e:	fec42783          	lw	a5,-20(s0)
    1072:	47dc                	lw	a5,12(a5)
    1074:	853e                	mv	a0,a5
    1076:	33cd                	jal	e58 <soft_iic_delay>
G:/WWW_Project/MSR_Project/WCH_Header_Car/libraries/zf_driver/zf_driver_soft_iic.c:82
    gpio_high(soft_iic_obj->sda_pin);                                           // SDA 再拉高
    1078:	fec42783          	lw	a5,-20(s0)
    107c:	43dc                	lw	a5,4(a5)
    107e:	8bbd                	andi	a5,a5,15
    1080:	4705                	li	a4,1
    1082:	00f717b3          	sll	a5,a4,a5
    1086:	01079693          	slli	a3,a5,0x10
    108a:	82c1                	srli	a3,a3,0x10
    108c:	fec42783          	lw	a5,-20(s0)
    1090:	43dc                	lw	a5,4(a5)
    1092:	0057d713          	srli	a4,a5,0x5
    1096:	67b5                	lui	a5,0xd
    1098:	070a                	slli	a4,a4,0x2
    109a:	6e078793          	addi	a5,a5,1760 # d6e0 <gpio_group>
    109e:	97ba                	add	a5,a5,a4
    10a0:	439c                	lw	a5,0(a5)
    10a2:	8736                	mv	a4,a3
    10a4:	cb98                	sw	a4,16(a5)
G:/WWW_Project/MSR_Project/WCH_Header_Car/libraries/zf_driver/zf_driver_soft_iic.c:83
    soft_iic_delay(soft_iic_obj->delay);
    10a6:	fec42783          	lw	a5,-20(s0)
    10aa:	47dc                	lw	a5,12(a5)
    10ac:	853e                	mv	a0,a5
    10ae:	336d                	jal	e58 <soft_iic_delay>
G:/WWW_Project/MSR_Project/WCH_Header_Car/libraries/zf_driver/zf_driver_soft_iic.c:84
}
    10b0:	0001                	nop
    10b2:	40f2                	lw	ra,28(sp)
    10b4:	4462                	lw	s0,24(sp)
    10b6:	6105                	addi	sp,sp,32
    10b8:	8082                	ret

000010ba <soft_iic_send_ack>:
soft_iic_send_ack():
G:/WWW_Project/MSR_Project/WCH_Header_Car/libraries/zf_driver/zf_driver_soft_iic.c:92
// @brief       软件 IIC 发送 ACK/NAKC 信号 内部调用
// @param       *soft_iic_obj   软件 IIC 指定信息 可以参照 zf_driver_soft_iic.h 里的格式看看
// @return      void
//-------------------------------------------------------------------------------------------------------------------
static void soft_iic_send_ack (soft_iic_info_struct *soft_iic_obj, uint8_t ack)
{
    10ba:	1101                	addi	sp,sp,-32
    10bc:	ce06                	sw	ra,28(sp)
    10be:	cc22                	sw	s0,24(sp)
    10c0:	1000                	addi	s0,sp,32
    10c2:	fea42623          	sw	a0,-20(s0)
    10c6:	87ae                	mv	a5,a1
    10c8:	fef405a3          	sb	a5,-21(s0)
G:/WWW_Project/MSR_Project/WCH_Header_Car/libraries/zf_driver/zf_driver_soft_iic.c:93
    gpio_low(soft_iic_obj->scl_pin);                                            // SCL 低电平
    10cc:	fec42783          	lw	a5,-20(s0)
    10d0:	439c                	lw	a5,0(a5)
    10d2:	8bbd                	andi	a5,a5,15
    10d4:	4705                	li	a4,1
    10d6:	00f717b3          	sll	a5,a4,a5
    10da:	01079693          	slli	a3,a5,0x10
    10de:	82c1                	srli	a3,a3,0x10
    10e0:	fec42783          	lw	a5,-20(s0)
    10e4:	439c                	lw	a5,0(a5)
    10e6:	0057d713          	srli	a4,a5,0x5
    10ea:	67b5                	lui	a5,0xd
    10ec:	070a                	slli	a4,a4,0x2
    10ee:	6e078793          	addi	a5,a5,1760 # d6e0 <gpio_group>
    10f2:	97ba                	add	a5,a5,a4
    10f4:	439c                	lw	a5,0(a5)
    10f6:	8736                	mv	a4,a3
    10f8:	cbd8                	sw	a4,20(a5)
G:/WWW_Project/MSR_Project/WCH_Header_Car/libraries/zf_driver/zf_driver_soft_iic.c:95

    soft_iic_delay(soft_iic_obj->delay);
    10fa:	fec42783          	lw	a5,-20(s0)
    10fe:	47dc                	lw	a5,12(a5)
    1100:	853e                	mv	a0,a5
    1102:	3b99                	jal	e58 <soft_iic_delay>
G:/WWW_Project/MSR_Project/WCH_Header_Car/libraries/zf_driver/zf_driver_soft_iic.c:96
    if(ack)
    1104:	feb44783          	lbu	a5,-21(s0)
    1108:	cb8d                	beqz	a5,113a <soft_iic_send_ack+0x80>
G:/WWW_Project/MSR_Project/WCH_Header_Car/libraries/zf_driver/zf_driver_soft_iic.c:97
        gpio_high(soft_iic_obj->sda_pin);                                       // SDA 拉高
    110a:	fec42783          	lw	a5,-20(s0)
    110e:	43dc                	lw	a5,4(a5)
    1110:	8bbd                	andi	a5,a5,15
    1112:	4705                	li	a4,1
    1114:	00f717b3          	sll	a5,a4,a5
    1118:	01079693          	slli	a3,a5,0x10
    111c:	82c1                	srli	a3,a3,0x10
    111e:	fec42783          	lw	a5,-20(s0)
    1122:	43dc                	lw	a5,4(a5)
    1124:	0057d713          	srli	a4,a5,0x5
    1128:	67b5                	lui	a5,0xd
    112a:	070a                	slli	a4,a4,0x2
    112c:	6e078793          	addi	a5,a5,1760 # d6e0 <gpio_group>
    1130:	97ba                	add	a5,a5,a4
    1132:	439c                	lw	a5,0(a5)
    1134:	8736                	mv	a4,a3
    1136:	cb98                	sw	a4,16(a5)
    1138:	a805                	j	1168 <soft_iic_send_ack+0xae>
G:/WWW_Project/MSR_Project/WCH_Header_Car/libraries/zf_driver/zf_driver_soft_iic.c:99
    else
        gpio_low(soft_iic_obj->sda_pin);                                        // SDA 拉低
    113a:	fec42783          	lw	a5,-20(s0)
    113e:	43dc                	lw	a5,4(a5)
    1140:	8bbd                	andi	a5,a5,15
    1142:	4705                	li	a4,1
    1144:	00f717b3          	sll	a5,a4,a5
    1148:	01079693          	slli	a3,a5,0x10
    114c:	82c1                	srli	a3,a3,0x10
    114e:	fec42783          	lw	a5,-20(s0)
    1152:	43dc                	lw	a5,4(a5)
    1154:	0057d713          	srli	a4,a5,0x5
    1158:	67b5                	lui	a5,0xd
    115a:	070a                	slli	a4,a4,0x2
    115c:	6e078793          	addi	a5,a5,1760 # d6e0 <gpio_group>
    1160:	97ba                	add	a5,a5,a4
    1162:	439c                	lw	a5,0(a5)
    1164:	8736                	mv	a4,a3
    1166:	cbd8                	sw	a4,20(a5)
G:/WWW_Project/MSR_Project/WCH_Header_Car/libraries/zf_driver/zf_driver_soft_iic.c:101

    gpio_high(soft_iic_obj->scl_pin);                                           // SCL 拉高
    1168:	fec42783          	lw	a5,-20(s0)
    116c:	439c                	lw	a5,0(a5)
    116e:	8bbd                	andi	a5,a5,15
    1170:	4705                	li	a4,1
    1172:	00f717b3          	sll	a5,a4,a5
    1176:	01079693          	slli	a3,a5,0x10
    117a:	82c1                	srli	a3,a3,0x10
    117c:	fec42783          	lw	a5,-20(s0)
    1180:	439c                	lw	a5,0(a5)
    1182:	0057d713          	srli	a4,a5,0x5
    1186:	67b5                	lui	a5,0xd
    1188:	070a                	slli	a4,a4,0x2
    118a:	6e078793          	addi	a5,a5,1760 # d6e0 <gpio_group>
    118e:	97ba                	add	a5,a5,a4
    1190:	439c                	lw	a5,0(a5)
    1192:	8736                	mv	a4,a3
    1194:	cb98                	sw	a4,16(a5)
G:/WWW_Project/MSR_Project/WCH_Header_Car/libraries/zf_driver/zf_driver_soft_iic.c:102
    soft_iic_delay(soft_iic_obj->delay);
    1196:	fec42783          	lw	a5,-20(s0)
    119a:	47dc                	lw	a5,12(a5)
    119c:	853e                	mv	a0,a5
    119e:	396d                	jal	e58 <soft_iic_delay>
G:/WWW_Project/MSR_Project/WCH_Header_Car/libraries/zf_driver/zf_driver_soft_iic.c:103
    gpio_low(soft_iic_obj->scl_pin);                                            // SCL 拉低
    11a0:	fec42783          	lw	a5,-20(s0)
    11a4:	439c                	lw	a5,0(a5)
    11a6:	8bbd                	andi	a5,a5,15
    11a8:	4705                	li	a4,1
    11aa:	00f717b3          	sll	a5,a4,a5
    11ae:	01079693          	slli	a3,a5,0x10
    11b2:	82c1                	srli	a3,a3,0x10
    11b4:	fec42783          	lw	a5,-20(s0)
    11b8:	439c                	lw	a5,0(a5)
    11ba:	0057d713          	srli	a4,a5,0x5
    11be:	67b5                	lui	a5,0xd
    11c0:	070a                	slli	a4,a4,0x2
    11c2:	6e078793          	addi	a5,a5,1760 # d6e0 <gpio_group>
    11c6:	97ba                	add	a5,a5,a4
    11c8:	439c                	lw	a5,0(a5)
    11ca:	8736                	mv	a4,a3
    11cc:	cbd8                	sw	a4,20(a5)
G:/WWW_Project/MSR_Project/WCH_Header_Car/libraries/zf_driver/zf_driver_soft_iic.c:104
    soft_iic_delay(soft_iic_obj->delay);
    11ce:	fec42783          	lw	a5,-20(s0)
    11d2:	47dc                	lw	a5,12(a5)
    11d4:	853e                	mv	a0,a5
    11d6:	3149                	jal	e58 <soft_iic_delay>
G:/WWW_Project/MSR_Project/WCH_Header_Car/libraries/zf_driver/zf_driver_soft_iic.c:105
}
    11d8:	0001                	nop
    11da:	40f2                	lw	ra,28(sp)
    11dc:	4462                	lw	s0,24(sp)
    11de:	6105                	addi	sp,sp,32
    11e0:	8082                	ret

000011e2 <soft_iic_wait_ack>:
soft_iic_wait_ack():
G:/WWW_Project/MSR_Project/WCH_Header_Car/libraries/zf_driver/zf_driver_soft_iic.c:113
// @brief       软件 IIC 获取 ACK/NAKC 信号 内部调用
// @param       *soft_iic_obj   软件 IIC 指定信息 可以参照 zf_driver_soft_iic.h 里的格式看看
// @return      uint8_t         ACK 状态
//-------------------------------------------------------------------------------------------------------------------
static uint8_t soft_iic_wait_ack (soft_iic_info_struct *soft_iic_obj)
{
    11e2:	7179                	addi	sp,sp,-48
    11e4:	d606                	sw	ra,44(sp)
    11e6:	d422                	sw	s0,40(sp)
    11e8:	1800                	addi	s0,sp,48
    11ea:	fca42e23          	sw	a0,-36(s0)
G:/WWW_Project/MSR_Project/WCH_Header_Car/libraries/zf_driver/zf_driver_soft_iic.c:114
    uint8_t temp = 0;
    11ee:	fe0407a3          	sb	zero,-17(s0)
G:/WWW_Project/MSR_Project/WCH_Header_Car/libraries/zf_driver/zf_driver_soft_iic.c:115
    gpio_low(soft_iic_obj->scl_pin);                                            // SCL 低电平
    11f2:	fdc42783          	lw	a5,-36(s0)
    11f6:	439c                	lw	a5,0(a5)
    11f8:	8bbd                	andi	a5,a5,15
    11fa:	4705                	li	a4,1
    11fc:	00f717b3          	sll	a5,a4,a5
    1200:	01079693          	slli	a3,a5,0x10
    1204:	82c1                	srli	a3,a3,0x10
    1206:	fdc42783          	lw	a5,-36(s0)
    120a:	439c                	lw	a5,0(a5)
    120c:	0057d713          	srli	a4,a5,0x5
    1210:	67b5                	lui	a5,0xd
    1212:	070a                	slli	a4,a4,0x2
    1214:	6e078793          	addi	a5,a5,1760 # d6e0 <gpio_group>
    1218:	97ba                	add	a5,a5,a4
    121a:	439c                	lw	a5,0(a5)
    121c:	8736                	mv	a4,a3
    121e:	cbd8                	sw	a4,20(a5)
G:/WWW_Project/MSR_Project/WCH_Header_Car/libraries/zf_driver/zf_driver_soft_iic.c:116
    soft_iic_delay(soft_iic_obj->delay);
    1220:	fdc42783          	lw	a5,-36(s0)
    1224:	47dc                	lw	a5,12(a5)
    1226:	853e                	mv	a0,a5
    1228:	3905                	jal	e58 <soft_iic_delay>
G:/WWW_Project/MSR_Project/WCH_Header_Car/libraries/zf_driver/zf_driver_soft_iic.c:118

    gpio_high(soft_iic_obj->scl_pin);                                           // SCL 高电平
    122a:	fdc42783          	lw	a5,-36(s0)
    122e:	439c                	lw	a5,0(a5)
    1230:	8bbd                	andi	a5,a5,15
    1232:	4705                	li	a4,1
    1234:	00f717b3          	sll	a5,a4,a5
    1238:	01079693          	slli	a3,a5,0x10
    123c:	82c1                	srli	a3,a3,0x10
    123e:	fdc42783          	lw	a5,-36(s0)
    1242:	439c                	lw	a5,0(a5)
    1244:	0057d713          	srli	a4,a5,0x5
    1248:	67b5                	lui	a5,0xd
    124a:	070a                	slli	a4,a4,0x2
    124c:	6e078793          	addi	a5,a5,1760 # d6e0 <gpio_group>
    1250:	97ba                	add	a5,a5,a4
    1252:	439c                	lw	a5,0(a5)
    1254:	8736                	mv	a4,a3
    1256:	cb98                	sw	a4,16(a5)
G:/WWW_Project/MSR_Project/WCH_Header_Car/libraries/zf_driver/zf_driver_soft_iic.c:119
    soft_iic_delay(soft_iic_obj->delay);
    1258:	fdc42783          	lw	a5,-36(s0)
    125c:	47dc                	lw	a5,12(a5)
    125e:	853e                	mv	a0,a5
    1260:	3ee5                	jal	e58 <soft_iic_delay>
G:/WWW_Project/MSR_Project/WCH_Header_Car/libraries/zf_driver/zf_driver_soft_iic.c:121

    if(gpio_get_level(soft_iic_obj->sda_pin))
    1262:	fdc42783          	lw	a5,-36(s0)
    1266:	43dc                	lw	a5,4(a5)
    1268:	853e                	mv	a0,a5
    126a:	87dff0ef          	jal	ra,ae6 <gpio_get_level>
    126e:	87aa                	mv	a5,a0
    1270:	c781                	beqz	a5,1278 <soft_iic_wait_ack+0x96>
G:/WWW_Project/MSR_Project/WCH_Header_Car/libraries/zf_driver/zf_driver_soft_iic.c:122
        temp = 1;
    1272:	4785                	li	a5,1
    1274:	fef407a3          	sb	a5,-17(s0)
G:/WWW_Project/MSR_Project/WCH_Header_Car/libraries/zf_driver/zf_driver_soft_iic.c:123
    gpio_low(soft_iic_obj->scl_pin);                                            // SCL 低电平
    1278:	fdc42783          	lw	a5,-36(s0)
    127c:	439c                	lw	a5,0(a5)
    127e:	8bbd                	andi	a5,a5,15
    1280:	4705                	li	a4,1
    1282:	00f717b3          	sll	a5,a4,a5
    1286:	01079693          	slli	a3,a5,0x10
    128a:	82c1                	srli	a3,a3,0x10
    128c:	fdc42783          	lw	a5,-36(s0)
    1290:	439c                	lw	a5,0(a5)
    1292:	0057d713          	srli	a4,a5,0x5
    1296:	67b5                	lui	a5,0xd
    1298:	070a                	slli	a4,a4,0x2
    129a:	6e078793          	addi	a5,a5,1760 # d6e0 <gpio_group>
    129e:	97ba                	add	a5,a5,a4
    12a0:	439c                	lw	a5,0(a5)
    12a2:	8736                	mv	a4,a3
    12a4:	cbd8                	sw	a4,20(a5)
G:/WWW_Project/MSR_Project/WCH_Header_Car/libraries/zf_driver/zf_driver_soft_iic.c:124
    soft_iic_delay(soft_iic_obj->delay);
    12a6:	fdc42783          	lw	a5,-36(s0)
    12aa:	47dc                	lw	a5,12(a5)
    12ac:	853e                	mv	a0,a5
    12ae:	366d                	jal	e58 <soft_iic_delay>
G:/WWW_Project/MSR_Project/WCH_Header_Car/libraries/zf_driver/zf_driver_soft_iic.c:126

    return temp;
    12b0:	fef44783          	lbu	a5,-17(s0)
G:/WWW_Project/MSR_Project/WCH_Header_Car/libraries/zf_driver/zf_driver_soft_iic.c:127
}
    12b4:	853e                	mv	a0,a5
    12b6:	50b2                	lw	ra,44(sp)
    12b8:	5422                	lw	s0,40(sp)
    12ba:	6145                	addi	sp,sp,48
    12bc:	8082                	ret

000012be <soft_iic_send_data>:
soft_iic_send_data():
G:/WWW_Project/MSR_Project/WCH_Header_Car/libraries/zf_driver/zf_driver_soft_iic.c:136
// @param       *soft_iic_obj   软件 IIC 指定信息 可以参照 zf_driver_soft_iic.h 里的格式看看
// @param       data            数据
// @return      uint8_t         ACK 状态
//-------------------------------------------------------------------------------------------------------------------
static uint8_t soft_iic_send_data (soft_iic_info_struct *soft_iic_obj, uint8_t data)
{
    12be:	7179                	addi	sp,sp,-48
    12c0:	d606                	sw	ra,44(sp)
    12c2:	d422                	sw	s0,40(sp)
    12c4:	1800                	addi	s0,sp,48
    12c6:	fca42e23          	sw	a0,-36(s0)
    12ca:	87ae                	mv	a5,a1
    12cc:	fcf40da3          	sb	a5,-37(s0)
G:/WWW_Project/MSR_Project/WCH_Header_Car/libraries/zf_driver/zf_driver_soft_iic.c:137
    uint8_t temp = 8;
    12d0:	47a1                	li	a5,8
    12d2:	fef407a3          	sb	a5,-17(s0)
G:/WWW_Project/MSR_Project/WCH_Header_Car/libraries/zf_driver/zf_driver_soft_iic.c:139

    while(temp--)
    12d6:	a0cd                	j	13b8 <soft_iic_send_data+0xfa>
G:/WWW_Project/MSR_Project/WCH_Header_Car/libraries/zf_driver/zf_driver_soft_iic.c:141
    {
        if(data & 0x80)
    12d8:	fdb40783          	lb	a5,-37(s0)
    12dc:	0207da63          	bgez	a5,1310 <soft_iic_send_data+0x52>
G:/WWW_Project/MSR_Project/WCH_Header_Car/libraries/zf_driver/zf_driver_soft_iic.c:142
            gpio_high(soft_iic_obj->sda_pin);                                   // SDA 高电平
    12e0:	fdc42783          	lw	a5,-36(s0)
    12e4:	43dc                	lw	a5,4(a5)
    12e6:	8bbd                	andi	a5,a5,15
    12e8:	4705                	li	a4,1
    12ea:	00f717b3          	sll	a5,a4,a5
    12ee:	01079693          	slli	a3,a5,0x10
    12f2:	82c1                	srli	a3,a3,0x10
    12f4:	fdc42783          	lw	a5,-36(s0)
    12f8:	43dc                	lw	a5,4(a5)
    12fa:	0057d713          	srli	a4,a5,0x5
    12fe:	67b5                	lui	a5,0xd
    1300:	070a                	slli	a4,a4,0x2
    1302:	6e078793          	addi	a5,a5,1760 # d6e0 <gpio_group>
    1306:	97ba                	add	a5,a5,a4
    1308:	439c                	lw	a5,0(a5)
    130a:	8736                	mv	a4,a3
    130c:	cb98                	sw	a4,16(a5)
    130e:	a805                	j	133e <soft_iic_send_data+0x80>
G:/WWW_Project/MSR_Project/WCH_Header_Car/libraries/zf_driver/zf_driver_soft_iic.c:144
        else
            gpio_low(soft_iic_obj->sda_pin);                                    // SDA 低电平
    1310:	fdc42783          	lw	a5,-36(s0)
    1314:	43dc                	lw	a5,4(a5)
    1316:	8bbd                	andi	a5,a5,15
    1318:	4705                	li	a4,1
    131a:	00f717b3          	sll	a5,a4,a5
    131e:	01079693          	slli	a3,a5,0x10
    1322:	82c1                	srli	a3,a3,0x10
    1324:	fdc42783          	lw	a5,-36(s0)
    1328:	43dc                	lw	a5,4(a5)
    132a:	0057d713          	srli	a4,a5,0x5
    132e:	67b5                	lui	a5,0xd
    1330:	070a                	slli	a4,a4,0x2
    1332:	6e078793          	addi	a5,a5,1760 # d6e0 <gpio_group>
    1336:	97ba                	add	a5,a5,a4
    1338:	439c                	lw	a5,0(a5)
    133a:	8736                	mv	a4,a3
    133c:	cbd8                	sw	a4,20(a5)
G:/WWW_Project/MSR_Project/WCH_Header_Car/libraries/zf_driver/zf_driver_soft_iic.c:145
        data = data << 1;
    133e:	fdb44783          	lbu	a5,-37(s0)
    1342:	0786                	slli	a5,a5,0x1
    1344:	fcf40da3          	sb	a5,-37(s0)
G:/WWW_Project/MSR_Project/WCH_Header_Car/libraries/zf_driver/zf_driver_soft_iic.c:147

        soft_iic_delay(soft_iic_obj->delay);
    1348:	fdc42783          	lw	a5,-36(s0)
    134c:	47dc                	lw	a5,12(a5)
    134e:	853e                	mv	a0,a5
    1350:	3621                	jal	e58 <soft_iic_delay>
G:/WWW_Project/MSR_Project/WCH_Header_Car/libraries/zf_driver/zf_driver_soft_iic.c:148
        gpio_high(soft_iic_obj->scl_pin);                                       // SCL 拉高
    1352:	fdc42783          	lw	a5,-36(s0)
    1356:	439c                	lw	a5,0(a5)
    1358:	8bbd                	andi	a5,a5,15
    135a:	4705                	li	a4,1
    135c:	00f717b3          	sll	a5,a4,a5
    1360:	01079693          	slli	a3,a5,0x10
    1364:	82c1                	srli	a3,a3,0x10
    1366:	fdc42783          	lw	a5,-36(s0)
    136a:	439c                	lw	a5,0(a5)
    136c:	0057d713          	srli	a4,a5,0x5
    1370:	67b5                	lui	a5,0xd
    1372:	070a                	slli	a4,a4,0x2
    1374:	6e078793          	addi	a5,a5,1760 # d6e0 <gpio_group>
    1378:	97ba                	add	a5,a5,a4
    137a:	439c                	lw	a5,0(a5)
    137c:	8736                	mv	a4,a3
    137e:	cb98                	sw	a4,16(a5)
G:/WWW_Project/MSR_Project/WCH_Header_Car/libraries/zf_driver/zf_driver_soft_iic.c:149
        soft_iic_delay(soft_iic_obj->delay);
    1380:	fdc42783          	lw	a5,-36(s0)
    1384:	47dc                	lw	a5,12(a5)
    1386:	853e                	mv	a0,a5
    1388:	3cc1                	jal	e58 <soft_iic_delay>
G:/WWW_Project/MSR_Project/WCH_Header_Car/libraries/zf_driver/zf_driver_soft_iic.c:150
        gpio_low(soft_iic_obj->scl_pin);                                        // SCL 拉低
    138a:	fdc42783          	lw	a5,-36(s0)
    138e:	439c                	lw	a5,0(a5)
    1390:	8bbd                	andi	a5,a5,15
    1392:	4705                	li	a4,1
    1394:	00f717b3          	sll	a5,a4,a5
    1398:	01079693          	slli	a3,a5,0x10
    139c:	82c1                	srli	a3,a3,0x10
    139e:	fdc42783          	lw	a5,-36(s0)
    13a2:	439c                	lw	a5,0(a5)
    13a4:	0057d713          	srli	a4,a5,0x5
    13a8:	67b5                	lui	a5,0xd
    13aa:	070a                	slli	a4,a4,0x2
    13ac:	6e078793          	addi	a5,a5,1760 # d6e0 <gpio_group>
    13b0:	97ba                	add	a5,a5,a4
    13b2:	439c                	lw	a5,0(a5)
    13b4:	8736                	mv	a4,a3
    13b6:	cbd8                	sw	a4,20(a5)
G:/WWW_Project/MSR_Project/WCH_Header_Car/libraries/zf_driver/zf_driver_soft_iic.c:139
    while(temp--)
    13b8:	fef44783          	lbu	a5,-17(s0)
    13bc:	fff78713          	addi	a4,a5,-1
    13c0:	fee407a3          	sb	a4,-17(s0)
    13c4:	fb91                	bnez	a5,12d8 <soft_iic_send_data+0x1a>
G:/WWW_Project/MSR_Project/WCH_Header_Car/libraries/zf_driver/zf_driver_soft_iic.c:152
    }
    if(soft_iic_wait_ack(soft_iic_obj) == 1)
    13c6:	fdc42503          	lw	a0,-36(s0)
    13ca:	3d21                	jal	11e2 <soft_iic_wait_ack>
    13cc:	87aa                	mv	a5,a0
    13ce:	873e                	mv	a4,a5
    13d0:	4785                	li	a5,1
    13d2:	00f71463          	bne	a4,a5,13da <soft_iic_send_data+0x11c>
G:/WWW_Project/MSR_Project/WCH_Header_Car/libraries/zf_driver/zf_driver_soft_iic.c:153
        return 0;
    13d6:	4781                	li	a5,0
    13d8:	a011                	j	13dc <soft_iic_send_data+0x11e>
G:/WWW_Project/MSR_Project/WCH_Header_Car/libraries/zf_driver/zf_driver_soft_iic.c:154
    return 1;
    13da:	4785                	li	a5,1
G:/WWW_Project/MSR_Project/WCH_Header_Car/libraries/zf_driver/zf_driver_soft_iic.c:155
}
    13dc:	853e                	mv	a0,a5
    13de:	50b2                	lw	ra,44(sp)
    13e0:	5422                	lw	s0,40(sp)
    13e2:	6145                	addi	sp,sp,48
    13e4:	8082                	ret

000013e6 <soft_iic_read_data>:
soft_iic_read_data():
G:/WWW_Project/MSR_Project/WCH_Header_Car/libraries/zf_driver/zf_driver_soft_iic.c:164
// @param       *soft_iic_obj   软件 IIC 指定信息 可以参照 zf_driver_soft_iic.h 里的格式看看
// @param       ack             ACK 或 NACK
// @return      uint8_t         数据
//-------------------------------------------------------------------------------------------------------------------
static uint8_t soft_iic_read_data (soft_iic_info_struct *soft_iic_obj, uint8_t ack)
{
    13e6:	7179                	addi	sp,sp,-48
    13e8:	d606                	sw	ra,44(sp)
    13ea:	d422                	sw	s0,40(sp)
    13ec:	1800                	addi	s0,sp,48
    13ee:	fca42e23          	sw	a0,-36(s0)
    13f2:	87ae                	mv	a5,a1
    13f4:	fcf40da3          	sb	a5,-37(s0)
G:/WWW_Project/MSR_Project/WCH_Header_Car/libraries/zf_driver/zf_driver_soft_iic.c:165
    uint8_t data = 0x00;
    13f8:	fe0407a3          	sb	zero,-17(s0)
G:/WWW_Project/MSR_Project/WCH_Header_Car/libraries/zf_driver/zf_driver_soft_iic.c:166
    uint8_t temp = 8;
    13fc:	47a1                	li	a5,8
    13fe:	fef40723          	sb	a5,-18(s0)
G:/WWW_Project/MSR_Project/WCH_Header_Car/libraries/zf_driver/zf_driver_soft_iic.c:167
    gpio_low(soft_iic_obj->scl_pin);                                            // SCL 低电平
    1402:	fdc42783          	lw	a5,-36(s0)
    1406:	439c                	lw	a5,0(a5)
    1408:	8bbd                	andi	a5,a5,15
    140a:	4705                	li	a4,1
    140c:	00f717b3          	sll	a5,a4,a5
    1410:	01079693          	slli	a3,a5,0x10
    1414:	82c1                	srli	a3,a3,0x10
    1416:	fdc42783          	lw	a5,-36(s0)
    141a:	439c                	lw	a5,0(a5)
    141c:	0057d713          	srli	a4,a5,0x5
    1420:	67b5                	lui	a5,0xd
    1422:	070a                	slli	a4,a4,0x2
    1424:	6e078793          	addi	a5,a5,1760 # d6e0 <gpio_group>
    1428:	97ba                	add	a5,a5,a4
    142a:	439c                	lw	a5,0(a5)
    142c:	8736                	mv	a4,a3
    142e:	cbd8                	sw	a4,20(a5)
G:/WWW_Project/MSR_Project/WCH_Header_Car/libraries/zf_driver/zf_driver_soft_iic.c:168
    soft_iic_delay(soft_iic_obj->delay);
    1430:	fdc42783          	lw	a5,-36(s0)
    1434:	47dc                	lw	a5,12(a5)
    1436:	853e                	mv	a0,a5
    1438:	3405                	jal	e58 <soft_iic_delay>
G:/WWW_Project/MSR_Project/WCH_Header_Car/libraries/zf_driver/zf_driver_soft_iic.c:169
    gpio_high(soft_iic_obj->sda_pin);                                           // SDA 高电平 释放 SDA
    143a:	fdc42783          	lw	a5,-36(s0)
    143e:	43dc                	lw	a5,4(a5)
    1440:	8bbd                	andi	a5,a5,15
    1442:	4705                	li	a4,1
    1444:	00f717b3          	sll	a5,a4,a5
    1448:	01079693          	slli	a3,a5,0x10
    144c:	82c1                	srli	a3,a3,0x10
    144e:	fdc42783          	lw	a5,-36(s0)
    1452:	43dc                	lw	a5,4(a5)
    1454:	0057d713          	srli	a4,a5,0x5
    1458:	67b5                	lui	a5,0xd
    145a:	070a                	slli	a4,a4,0x2
    145c:	6e078793          	addi	a5,a5,1760 # d6e0 <gpio_group>
    1460:	97ba                	add	a5,a5,a4
    1462:	439c                	lw	a5,0(a5)
    1464:	8736                	mv	a4,a3
    1466:	cb98                	sw	a4,16(a5)
G:/WWW_Project/MSR_Project/WCH_Header_Car/libraries/zf_driver/zf_driver_soft_iic.c:171

    while(temp--)
    1468:	a065                	j	1510 <soft_iic_read_data+0x12a>
G:/WWW_Project/MSR_Project/WCH_Header_Car/libraries/zf_driver/zf_driver_soft_iic.c:173
    {
        soft_iic_delay(soft_iic_obj->delay);
    146a:	fdc42783          	lw	a5,-36(s0)
    146e:	47dc                	lw	a5,12(a5)
    1470:	853e                	mv	a0,a5
    1472:	9e7ff0ef          	jal	ra,e58 <soft_iic_delay>
G:/WWW_Project/MSR_Project/WCH_Header_Car/libraries/zf_driver/zf_driver_soft_iic.c:174
        gpio_low(soft_iic_obj->scl_pin);                                        // SCL 拉低
    1476:	fdc42783          	lw	a5,-36(s0)
    147a:	439c                	lw	a5,0(a5)
    147c:	8bbd                	andi	a5,a5,15
    147e:	4705                	li	a4,1
    1480:	00f717b3          	sll	a5,a4,a5
    1484:	01079693          	slli	a3,a5,0x10
    1488:	82c1                	srli	a3,a3,0x10
    148a:	fdc42783          	lw	a5,-36(s0)
    148e:	439c                	lw	a5,0(a5)
    1490:	0057d713          	srli	a4,a5,0x5
    1494:	67b5                	lui	a5,0xd
    1496:	070a                	slli	a4,a4,0x2
    1498:	6e078793          	addi	a5,a5,1760 # d6e0 <gpio_group>
    149c:	97ba                	add	a5,a5,a4
    149e:	439c                	lw	a5,0(a5)
    14a0:	8736                	mv	a4,a3
    14a2:	cbd8                	sw	a4,20(a5)
G:/WWW_Project/MSR_Project/WCH_Header_Car/libraries/zf_driver/zf_driver_soft_iic.c:175
        soft_iic_delay(soft_iic_obj->delay);
    14a4:	fdc42783          	lw	a5,-36(s0)
    14a8:	47dc                	lw	a5,12(a5)
    14aa:	853e                	mv	a0,a5
    14ac:	9adff0ef          	jal	ra,e58 <soft_iic_delay>
G:/WWW_Project/MSR_Project/WCH_Header_Car/libraries/zf_driver/zf_driver_soft_iic.c:176
        gpio_high(soft_iic_obj->scl_pin);                                       // SCL 拉高
    14b0:	fdc42783          	lw	a5,-36(s0)
    14b4:	439c                	lw	a5,0(a5)
    14b6:	8bbd                	andi	a5,a5,15
    14b8:	4705                	li	a4,1
    14ba:	00f717b3          	sll	a5,a4,a5
    14be:	01079693          	slli	a3,a5,0x10
    14c2:	82c1                	srli	a3,a3,0x10
    14c4:	fdc42783          	lw	a5,-36(s0)
    14c8:	439c                	lw	a5,0(a5)
    14ca:	0057d713          	srli	a4,a5,0x5
    14ce:	67b5                	lui	a5,0xd
    14d0:	070a                	slli	a4,a4,0x2
    14d2:	6e078793          	addi	a5,a5,1760 # d6e0 <gpio_group>
    14d6:	97ba                	add	a5,a5,a4
    14d8:	439c                	lw	a5,0(a5)
    14da:	8736                	mv	a4,a3
    14dc:	cb98                	sw	a4,16(a5)
G:/WWW_Project/MSR_Project/WCH_Header_Car/libraries/zf_driver/zf_driver_soft_iic.c:177
        soft_iic_delay(soft_iic_obj->delay);
    14de:	fdc42783          	lw	a5,-36(s0)
    14e2:	47dc                	lw	a5,12(a5)
    14e4:	853e                	mv	a0,a5
    14e6:	973ff0ef          	jal	ra,e58 <soft_iic_delay>
G:/WWW_Project/MSR_Project/WCH_Header_Car/libraries/zf_driver/zf_driver_soft_iic.c:178
        data = data << 1;
    14ea:	fef44783          	lbu	a5,-17(s0)
    14ee:	0786                	slli	a5,a5,0x1
    14f0:	fef407a3          	sb	a5,-17(s0)
G:/WWW_Project/MSR_Project/WCH_Header_Car/libraries/zf_driver/zf_driver_soft_iic.c:179
        if(gpio_get_level(soft_iic_obj->sda_pin))
    14f4:	fdc42783          	lw	a5,-36(s0)
    14f8:	43dc                	lw	a5,4(a5)
    14fa:	853e                	mv	a0,a5
    14fc:	deaff0ef          	jal	ra,ae6 <gpio_get_level>
    1500:	87aa                	mv	a5,a0
    1502:	c799                	beqz	a5,1510 <soft_iic_read_data+0x12a>
G:/WWW_Project/MSR_Project/WCH_Header_Car/libraries/zf_driver/zf_driver_soft_iic.c:180
            data |= 1;
    1504:	fef44783          	lbu	a5,-17(s0)
    1508:	0017e793          	ori	a5,a5,1
    150c:	fef407a3          	sb	a5,-17(s0)
G:/WWW_Project/MSR_Project/WCH_Header_Car/libraries/zf_driver/zf_driver_soft_iic.c:171
    while(temp--)
    1510:	fee44783          	lbu	a5,-18(s0)
    1514:	fff78713          	addi	a4,a5,-1
    1518:	fee40723          	sb	a4,-18(s0)
    151c:	f7b9                	bnez	a5,146a <soft_iic_read_data+0x84>
G:/WWW_Project/MSR_Project/WCH_Header_Car/libraries/zf_driver/zf_driver_soft_iic.c:182
    }
    gpio_low(soft_iic_obj->scl_pin);                                            // SCL 低电平
    151e:	fdc42783          	lw	a5,-36(s0)
    1522:	439c                	lw	a5,0(a5)
    1524:	8bbd                	andi	a5,a5,15
    1526:	4705                	li	a4,1
    1528:	00f717b3          	sll	a5,a4,a5
    152c:	01079693          	slli	a3,a5,0x10
    1530:	82c1                	srli	a3,a3,0x10
    1532:	fdc42783          	lw	a5,-36(s0)
    1536:	439c                	lw	a5,0(a5)
    1538:	0057d713          	srli	a4,a5,0x5
    153c:	67b5                	lui	a5,0xd
    153e:	070a                	slli	a4,a4,0x2
    1540:	6e078793          	addi	a5,a5,1760 # d6e0 <gpio_group>
    1544:	97ba                	add	a5,a5,a4
    1546:	439c                	lw	a5,0(a5)
    1548:	8736                	mv	a4,a3
    154a:	cbd8                	sw	a4,20(a5)
G:/WWW_Project/MSR_Project/WCH_Header_Car/libraries/zf_driver/zf_driver_soft_iic.c:183
    soft_iic_delay(soft_iic_obj->delay);
    154c:	fdc42783          	lw	a5,-36(s0)
    1550:	47dc                	lw	a5,12(a5)
    1552:	853e                	mv	a0,a5
    1554:	905ff0ef          	jal	ra,e58 <soft_iic_delay>
G:/WWW_Project/MSR_Project/WCH_Header_Car/libraries/zf_driver/zf_driver_soft_iic.c:184
    soft_iic_send_ack(soft_iic_obj, ack);
    1558:	fdb44783          	lbu	a5,-37(s0)
    155c:	85be                	mv	a1,a5
    155e:	fdc42503          	lw	a0,-36(s0)
    1562:	3ea1                	jal	10ba <soft_iic_send_ack>
G:/WWW_Project/MSR_Project/WCH_Header_Car/libraries/zf_driver/zf_driver_soft_iic.c:185
    return data;
    1564:	fef44783          	lbu	a5,-17(s0)
G:/WWW_Project/MSR_Project/WCH_Header_Car/libraries/zf_driver/zf_driver_soft_iic.c:186
}
    1568:	853e                	mv	a0,a5
    156a:	50b2                	lw	ra,44(sp)
    156c:	5422                	lw	s0,40(sp)
    156e:	6145                	addi	sp,sp,48
    1570:	8082                	ret

00001572 <soft_iic_write_8bit_register>:
soft_iic_write_8bit_register():
G:/WWW_Project/MSR_Project/WCH_Header_Car/libraries/zf_driver/zf_driver_soft_iic.c:266
// @param       data            要写入的数据
// @return      void            
// Sample usage:                soft_iic_write_8bit_register(soft_iic_obj,0x01,0x01);
//-------------------------------------------------------------------------------------------------------------------
void soft_iic_write_8bit_register (soft_iic_info_struct *soft_iic_obj, uint8_t register_name, uint8_t data)
{
    1572:	1101                	addi	sp,sp,-32
    1574:	ce06                	sw	ra,28(sp)
    1576:	cc22                	sw	s0,24(sp)
    1578:	1000                	addi	s0,sp,32
    157a:	fea42623          	sw	a0,-20(s0)
    157e:	87ae                	mv	a5,a1
    1580:	8732                	mv	a4,a2
    1582:	fef405a3          	sb	a5,-21(s0)
    1586:	87ba                	mv	a5,a4
    1588:	fef40523          	sb	a5,-22(s0)
G:/WWW_Project/MSR_Project/WCH_Header_Car/libraries/zf_driver/zf_driver_soft_iic.c:267
    soft_iic_start(soft_iic_obj);
    158c:	fec42503          	lw	a0,-20(s0)
    1590:	95dff0ef          	jal	ra,eec <soft_iic_start>
G:/WWW_Project/MSR_Project/WCH_Header_Car/libraries/zf_driver/zf_driver_soft_iic.c:268
    soft_iic_send_data(soft_iic_obj, soft_iic_obj->addr << 1);
    1594:	fec42783          	lw	a5,-20(s0)
    1598:	0087c783          	lbu	a5,8(a5)
    159c:	0786                	slli	a5,a5,0x1
    159e:	0ff7f793          	andi	a5,a5,255
    15a2:	85be                	mv	a1,a5
    15a4:	fec42503          	lw	a0,-20(s0)
    15a8:	3b19                	jal	12be <soft_iic_send_data>
G:/WWW_Project/MSR_Project/WCH_Header_Car/libraries/zf_driver/zf_driver_soft_iic.c:269
    soft_iic_send_data(soft_iic_obj, register_name);
    15aa:	feb44783          	lbu	a5,-21(s0)
    15ae:	85be                	mv	a1,a5
    15b0:	fec42503          	lw	a0,-20(s0)
    15b4:	3329                	jal	12be <soft_iic_send_data>
G:/WWW_Project/MSR_Project/WCH_Header_Car/libraries/zf_driver/zf_driver_soft_iic.c:270
    soft_iic_send_data(soft_iic_obj, data);
    15b6:	fea44783          	lbu	a5,-22(s0)
    15ba:	85be                	mv	a1,a5
    15bc:	fec42503          	lw	a0,-20(s0)
    15c0:	39fd                	jal	12be <soft_iic_send_data>
G:/WWW_Project/MSR_Project/WCH_Header_Car/libraries/zf_driver/zf_driver_soft_iic.c:271
    soft_iic_stop(soft_iic_obj);
    15c2:	fec42503          	lw	a0,-20(s0)
    15c6:	a09ff0ef          	jal	ra,fce <soft_iic_stop>
G:/WWW_Project/MSR_Project/WCH_Header_Car/libraries/zf_driver/zf_driver_soft_iic.c:272
}
    15ca:	0001                	nop
    15cc:	40f2                	lw	ra,28(sp)
    15ce:	4462                	lw	s0,24(sp)
    15d0:	6105                	addi	sp,sp,32
    15d2:	8082                	ret

000015d4 <soft_iic_read_8bit_register>:
soft_iic_read_8bit_register():
G:/WWW_Project/MSR_Project/WCH_Header_Car/libraries/zf_driver/zf_driver_soft_iic.c:420
// @param       register_name   传感器的寄存器地址
// @return      uint8_t         返回读取的 8bit 数据
// Sample usage:                soft_iic_read_8bit_register(soft_iic_obj,0x01);
//-------------------------------------------------------------------------------------------------------------------
uint8_t soft_iic_read_8bit_register (soft_iic_info_struct *soft_iic_obj, uint8_t register_name)
{
    15d4:	7179                	addi	sp,sp,-48
    15d6:	d606                	sw	ra,44(sp)
    15d8:	d422                	sw	s0,40(sp)
    15da:	1800                	addi	s0,sp,48
    15dc:	fca42e23          	sw	a0,-36(s0)
    15e0:	87ae                	mv	a5,a1
    15e2:	fcf40da3          	sb	a5,-37(s0)
G:/WWW_Project/MSR_Project/WCH_Header_Car/libraries/zf_driver/zf_driver_soft_iic.c:421
    uint8_t temp = 0;
    15e6:	fe0407a3          	sb	zero,-17(s0)
G:/WWW_Project/MSR_Project/WCH_Header_Car/libraries/zf_driver/zf_driver_soft_iic.c:422
    soft_iic_start(soft_iic_obj);
    15ea:	fdc42503          	lw	a0,-36(s0)
    15ee:	8ffff0ef          	jal	ra,eec <soft_iic_start>
G:/WWW_Project/MSR_Project/WCH_Header_Car/libraries/zf_driver/zf_driver_soft_iic.c:423
    soft_iic_send_data(soft_iic_obj, soft_iic_obj->addr << 1);
    15f2:	fdc42783          	lw	a5,-36(s0)
    15f6:	0087c783          	lbu	a5,8(a5)
    15fa:	0786                	slli	a5,a5,0x1
    15fc:	0ff7f793          	andi	a5,a5,255
    1600:	85be                	mv	a1,a5
    1602:	fdc42503          	lw	a0,-36(s0)
    1606:	3965                	jal	12be <soft_iic_send_data>
G:/WWW_Project/MSR_Project/WCH_Header_Car/libraries/zf_driver/zf_driver_soft_iic.c:424
    soft_iic_send_data(soft_iic_obj, register_name);
    1608:	fdb44783          	lbu	a5,-37(s0)
    160c:	85be                	mv	a1,a5
    160e:	fdc42503          	lw	a0,-36(s0)
    1612:	3175                	jal	12be <soft_iic_send_data>
G:/WWW_Project/MSR_Project/WCH_Header_Car/libraries/zf_driver/zf_driver_soft_iic.c:425
    soft_iic_start(soft_iic_obj);
    1614:	fdc42503          	lw	a0,-36(s0)
    1618:	8d5ff0ef          	jal	ra,eec <soft_iic_start>
G:/WWW_Project/MSR_Project/WCH_Header_Car/libraries/zf_driver/zf_driver_soft_iic.c:426
    soft_iic_send_data(soft_iic_obj, soft_iic_obj->addr << 1 | 0x01);
    161c:	fdc42783          	lw	a5,-36(s0)
    1620:	0087c783          	lbu	a5,8(a5)
    1624:	0786                	slli	a5,a5,0x1
    1626:	07e2                	slli	a5,a5,0x18
    1628:	87e1                	srai	a5,a5,0x18
    162a:	0017e793          	ori	a5,a5,1
    162e:	07e2                	slli	a5,a5,0x18
    1630:	87e1                	srai	a5,a5,0x18
    1632:	0ff7f793          	andi	a5,a5,255
    1636:	85be                	mv	a1,a5
    1638:	fdc42503          	lw	a0,-36(s0)
    163c:	3149                	jal	12be <soft_iic_send_data>
G:/WWW_Project/MSR_Project/WCH_Header_Car/libraries/zf_driver/zf_driver_soft_iic.c:427
    temp = soft_iic_read_data(soft_iic_obj, 1);
    163e:	4585                	li	a1,1
    1640:	fdc42503          	lw	a0,-36(s0)
    1644:	334d                	jal	13e6 <soft_iic_read_data>
    1646:	87aa                	mv	a5,a0
    1648:	fef407a3          	sb	a5,-17(s0)
G:/WWW_Project/MSR_Project/WCH_Header_Car/libraries/zf_driver/zf_driver_soft_iic.c:428
    soft_iic_stop(soft_iic_obj);
    164c:	fdc42503          	lw	a0,-36(s0)
    1650:	97fff0ef          	jal	ra,fce <soft_iic_stop>
G:/WWW_Project/MSR_Project/WCH_Header_Car/libraries/zf_driver/zf_driver_soft_iic.c:429
    return temp;
    1654:	fef44783          	lbu	a5,-17(s0)
G:/WWW_Project/MSR_Project/WCH_Header_Car/libraries/zf_driver/zf_driver_soft_iic.c:430
}
    1658:	853e                	mv	a0,a5
    165a:	50b2                	lw	ra,44(sp)
    165c:	5422                	lw	s0,40(sp)
    165e:	6145                	addi	sp,sp,48
    1660:	8082                	ret

00001662 <spi_gpio_init>:
spi_gpio_init():
G:/WWW_Project/MSR_Project/WCH_Header_Car/libraries/zf_driver/zf_driver_spi.c:35
//  @param      cs_pin      片选引脚(可选择范围由common.h内PIN_enum枚举值确定)
//  @return     void
//  Sample usage:           内部使用  用户无需关心
//-------------------------------------------------------------------------------------------------------------------
void spi_gpio_init(spi_pin_enum sck_pin, spi_pin_enum mosi_pin, spi_pin_enum miso_pin, gpio_pin_enum cs_pin)
{
    1662:	1101                	addi	sp,sp,-32
    1664:	ce06                	sw	ra,28(sp)
    1666:	cc22                	sw	s0,24(sp)
    1668:	1000                	addi	s0,sp,32
    166a:	fea42623          	sw	a0,-20(s0)
    166e:	feb42423          	sw	a1,-24(s0)
    1672:	fec42223          	sw	a2,-28(s0)
    1676:	fed42023          	sw	a3,-32(s0)
G:/WWW_Project/MSR_Project/WCH_Header_Car/libraries/zf_driver/zf_driver_spi.c:36
    if(SPI1_SCK_A5        == sck_pin)    gpio_init(A5,  GPO, 1, SPEED_50MHZ|GPO_AF_PUSH_PULL);
    167a:	fec42783          	lw	a5,-20(s0)
    167e:	eb89                	bnez	a5,1690 <spi_gpio_init+0x2e>
G:/WWW_Project/MSR_Project/WCH_Header_Car/libraries/zf_driver/zf_driver_spi.c:36 (discriminator 1)
    1680:	31800693          	li	a3,792
    1684:	4605                	li	a2,1
    1686:	4585                	li	a1,1
    1688:	4515                	li	a0,5
    168a:	c9cff0ef          	jal	ra,b26 <gpio_init>
    168e:	a061                	j	1716 <spi_gpio_init+0xb4>
G:/WWW_Project/MSR_Project/WCH_Header_Car/libraries/zf_driver/zf_driver_spi.c:37
    else if(SPI1_SCK_B3   == sck_pin)    gpio_init(B3,  GPO, 1, SPEED_50MHZ|GPO_AF_PUSH_PULL);
    1690:	fec42703          	lw	a4,-20(s0)
    1694:	47c1                	li	a5,16
    1696:	00f71b63          	bne	a4,a5,16ac <spi_gpio_init+0x4a>
G:/WWW_Project/MSR_Project/WCH_Header_Car/libraries/zf_driver/zf_driver_spi.c:37 (discriminator 1)
    169a:	31800693          	li	a3,792
    169e:	4605                	li	a2,1
    16a0:	4585                	li	a1,1
    16a2:	02300513          	li	a0,35
    16a6:	c80ff0ef          	jal	ra,b26 <gpio_init>
    16aa:	a0b5                	j	1716 <spi_gpio_init+0xb4>
G:/WWW_Project/MSR_Project/WCH_Header_Car/libraries/zf_driver/zf_driver_spi.c:38
    else if(SPI2_SCK_B13  == sck_pin)    gpio_init(B13, GPO, 1, SPEED_50MHZ|GPO_AF_PUSH_PULL);
    16ac:	fec42703          	lw	a4,-20(s0)
    16b0:	02000793          	li	a5,32
    16b4:	00f71b63          	bne	a4,a5,16ca <spi_gpio_init+0x68>
G:/WWW_Project/MSR_Project/WCH_Header_Car/libraries/zf_driver/zf_driver_spi.c:38 (discriminator 1)
    16b8:	31800693          	li	a3,792
    16bc:	4605                	li	a2,1
    16be:	4585                	li	a1,1
    16c0:	02d00513          	li	a0,45
    16c4:	c62ff0ef          	jal	ra,b26 <gpio_init>
    16c8:	a0b9                	j	1716 <spi_gpio_init+0xb4>
G:/WWW_Project/MSR_Project/WCH_Header_Car/libraries/zf_driver/zf_driver_spi.c:39
    else if(SPI3_SCK_B3   == sck_pin)    gpio_init(B3,  GPO, 1, SPEED_50MHZ|GPO_AF_PUSH_PULL);
    16ca:	fec42703          	lw	a4,-20(s0)
    16ce:	03000793          	li	a5,48
    16d2:	00f71b63          	bne	a4,a5,16e8 <spi_gpio_init+0x86>
G:/WWW_Project/MSR_Project/WCH_Header_Car/libraries/zf_driver/zf_driver_spi.c:39 (discriminator 1)
    16d6:	31800693          	li	a3,792
    16da:	4605                	li	a2,1
    16dc:	4585                	li	a1,1
    16de:	02300513          	li	a0,35
    16e2:	c44ff0ef          	jal	ra,b26 <gpio_init>
    16e6:	a805                	j	1716 <spi_gpio_init+0xb4>
G:/WWW_Project/MSR_Project/WCH_Header_Car/libraries/zf_driver/zf_driver_spi.c:40
    else if(SPI3_SCK_C10  == sck_pin)    gpio_init(C10, GPO, 1, SPEED_50MHZ|GPO_AF_PUSH_PULL);
    16e8:	fec42703          	lw	a4,-20(s0)
    16ec:	04000793          	li	a5,64
    16f0:	00f71b63          	bne	a4,a5,1706 <spi_gpio_init+0xa4>
G:/WWW_Project/MSR_Project/WCH_Header_Car/libraries/zf_driver/zf_driver_spi.c:40 (discriminator 1)
    16f4:	31800693          	li	a3,792
    16f8:	4605                	li	a2,1
    16fa:	4585                	li	a1,1
    16fc:	04a00513          	li	a0,74
    1700:	c26ff0ef          	jal	ra,b26 <gpio_init>
    1704:	a809                	j	1716 <spi_gpio_init+0xb4>
G:/WWW_Project/MSR_Project/WCH_Header_Car/libraries/zf_driver/zf_driver_spi.c:41
    else zf_assert(0);         //无此参数进入断言
    1706:	02900613          	li	a2,41
    170a:	67b5                	lui	a5,0xd
    170c:	fd478593          	addi	a1,a5,-44 # cfd4 <_sbrk+0xf2>
    1710:	4501                	li	a0,0
    1712:	516020ef          	jal	ra,3c28 <debug_assert_handler>
G:/WWW_Project/MSR_Project/WCH_Header_Car/libraries/zf_driver/zf_driver_spi.c:43

    if(SPI1_MOSI_A7       == mosi_pin)   gpio_init(A7,  GPO, 1, SPEED_50MHZ|GPO_AF_PUSH_PULL);
    1716:	fe842703          	lw	a4,-24(s0)
    171a:	4789                	li	a5,2
    171c:	00f71a63          	bne	a4,a5,1730 <spi_gpio_init+0xce>
G:/WWW_Project/MSR_Project/WCH_Header_Car/libraries/zf_driver/zf_driver_spi.c:43 (discriminator 1)
    1720:	31800693          	li	a3,792
    1724:	4605                	li	a2,1
    1726:	4585                	li	a1,1
    1728:	451d                	li	a0,7
    172a:	bfcff0ef          	jal	ra,b26 <gpio_init>
    172e:	a061                	j	17b6 <spi_gpio_init+0x154>
G:/WWW_Project/MSR_Project/WCH_Header_Car/libraries/zf_driver/zf_driver_spi.c:44
    else if(SPI1_MOSI_B5  == mosi_pin)   gpio_init(B5,  GPO, 1, SPEED_50MHZ|GPO_AF_PUSH_PULL);
    1730:	fe842703          	lw	a4,-24(s0)
    1734:	47c9                	li	a5,18
    1736:	00f71b63          	bne	a4,a5,174c <spi_gpio_init+0xea>
G:/WWW_Project/MSR_Project/WCH_Header_Car/libraries/zf_driver/zf_driver_spi.c:44 (discriminator 1)
    173a:	31800693          	li	a3,792
    173e:	4605                	li	a2,1
    1740:	4585                	li	a1,1
    1742:	02500513          	li	a0,37
    1746:	be0ff0ef          	jal	ra,b26 <gpio_init>
    174a:	a0b5                	j	17b6 <spi_gpio_init+0x154>
G:/WWW_Project/MSR_Project/WCH_Header_Car/libraries/zf_driver/zf_driver_spi.c:45
    else if(SPI2_MOSI_B15 == mosi_pin)   gpio_init(B15, GPO, 1, SPEED_50MHZ|GPO_AF_PUSH_PULL);
    174c:	fe842703          	lw	a4,-24(s0)
    1750:	02200793          	li	a5,34
    1754:	00f71b63          	bne	a4,a5,176a <spi_gpio_init+0x108>
G:/WWW_Project/MSR_Project/WCH_Header_Car/libraries/zf_driver/zf_driver_spi.c:45 (discriminator 1)
    1758:	31800693          	li	a3,792
    175c:	4605                	li	a2,1
    175e:	4585                	li	a1,1
    1760:	02f00513          	li	a0,47
    1764:	bc2ff0ef          	jal	ra,b26 <gpio_init>
    1768:	a0b9                	j	17b6 <spi_gpio_init+0x154>
G:/WWW_Project/MSR_Project/WCH_Header_Car/libraries/zf_driver/zf_driver_spi.c:46
    else if(SPI3_MOSI_B5  == mosi_pin)   gpio_init(B5,  GPO, 1, SPEED_50MHZ|GPO_AF_PUSH_PULL);
    176a:	fe842703          	lw	a4,-24(s0)
    176e:	03200793          	li	a5,50
    1772:	00f71b63          	bne	a4,a5,1788 <spi_gpio_init+0x126>
G:/WWW_Project/MSR_Project/WCH_Header_Car/libraries/zf_driver/zf_driver_spi.c:46 (discriminator 1)
    1776:	31800693          	li	a3,792
    177a:	4605                	li	a2,1
    177c:	4585                	li	a1,1
    177e:	02500513          	li	a0,37
    1782:	ba4ff0ef          	jal	ra,b26 <gpio_init>
    1786:	a805                	j	17b6 <spi_gpio_init+0x154>
G:/WWW_Project/MSR_Project/WCH_Header_Car/libraries/zf_driver/zf_driver_spi.c:47
    else if(SPI3_MOSI_C12 == mosi_pin)   gpio_init(C12, GPO, 1, SPEED_50MHZ|GPO_AF_PUSH_PULL);
    1788:	fe842703          	lw	a4,-24(s0)
    178c:	04200793          	li	a5,66
    1790:	00f71b63          	bne	a4,a5,17a6 <spi_gpio_init+0x144>
G:/WWW_Project/MSR_Project/WCH_Header_Car/libraries/zf_driver/zf_driver_spi.c:47 (discriminator 1)
    1794:	31800693          	li	a3,792
    1798:	4605                	li	a2,1
    179a:	4585                	li	a1,1
    179c:	04c00513          	li	a0,76
    17a0:	b86ff0ef          	jal	ra,b26 <gpio_init>
    17a4:	a809                	j	17b6 <spi_gpio_init+0x154>
G:/WWW_Project/MSR_Project/WCH_Header_Car/libraries/zf_driver/zf_driver_spi.c:48
    else zf_assert(0);         //无此参数进入断言
    17a6:	03000613          	li	a2,48
    17aa:	67b5                	lui	a5,0xd
    17ac:	fd478593          	addi	a1,a5,-44 # cfd4 <_sbrk+0xf2>
    17b0:	4501                	li	a0,0
    17b2:	476020ef          	jal	ra,3c28 <debug_assert_handler>
G:/WWW_Project/MSR_Project/WCH_Header_Car/libraries/zf_driver/zf_driver_spi.c:50

    if(SPI1_MISO_A6       == miso_pin)   gpio_init(A6,  GPI, 1, SPEED_50MHZ|GPI_FLOATING_IN);
    17b6:	fe442703          	lw	a4,-28(s0)
    17ba:	4785                	li	a5,1
    17bc:	00f71a63          	bne	a4,a5,17d0 <spi_gpio_init+0x16e>
G:/WWW_Project/MSR_Project/WCH_Header_Car/libraries/zf_driver/zf_driver_spi.c:50 (discriminator 1)
    17c0:	30400693          	li	a3,772
    17c4:	4605                	li	a2,1
    17c6:	4581                	li	a1,0
    17c8:	4519                	li	a0,6
    17ca:	b5cff0ef          	jal	ra,b26 <gpio_init>
    17ce:	a879                	j	186c <spi_gpio_init+0x20a>
G:/WWW_Project/MSR_Project/WCH_Header_Car/libraries/zf_driver/zf_driver_spi.c:51
    else if(SPI1_MISO_B4  == miso_pin)   gpio_init(B4,  GPI, 1, SPEED_50MHZ|GPI_FLOATING_IN);
    17d0:	fe442703          	lw	a4,-28(s0)
    17d4:	47c5                	li	a5,17
    17d6:	00f71b63          	bne	a4,a5,17ec <spi_gpio_init+0x18a>
G:/WWW_Project/MSR_Project/WCH_Header_Car/libraries/zf_driver/zf_driver_spi.c:51 (discriminator 1)
    17da:	30400693          	li	a3,772
    17de:	4605                	li	a2,1
    17e0:	4581                	li	a1,0
    17e2:	02400513          	li	a0,36
    17e6:	b40ff0ef          	jal	ra,b26 <gpio_init>
    17ea:	a049                	j	186c <spi_gpio_init+0x20a>
G:/WWW_Project/MSR_Project/WCH_Header_Car/libraries/zf_driver/zf_driver_spi.c:52
    else if(SPI2_MISO_B14 == miso_pin)   gpio_init(B14, GPI, 1, SPEED_50MHZ|GPI_FLOATING_IN);
    17ec:	fe442703          	lw	a4,-28(s0)
    17f0:	02100793          	li	a5,33
    17f4:	00f71b63          	bne	a4,a5,180a <spi_gpio_init+0x1a8>
G:/WWW_Project/MSR_Project/WCH_Header_Car/libraries/zf_driver/zf_driver_spi.c:52 (discriminator 1)
    17f8:	30400693          	li	a3,772
    17fc:	4605                	li	a2,1
    17fe:	4581                	li	a1,0
    1800:	02e00513          	li	a0,46
    1804:	b22ff0ef          	jal	ra,b26 <gpio_init>
    1808:	a095                	j	186c <spi_gpio_init+0x20a>
G:/WWW_Project/MSR_Project/WCH_Header_Car/libraries/zf_driver/zf_driver_spi.c:53
    else if(SPI3_MISO_C11 == miso_pin)   gpio_init(C11, GPI, 1, SPEED_50MHZ|GPI_FLOATING_IN);
    180a:	fe442703          	lw	a4,-28(s0)
    180e:	04100793          	li	a5,65
    1812:	00f71b63          	bne	a4,a5,1828 <spi_gpio_init+0x1c6>
G:/WWW_Project/MSR_Project/WCH_Header_Car/libraries/zf_driver/zf_driver_spi.c:53 (discriminator 1)
    1816:	30400693          	li	a3,772
    181a:	4605                	li	a2,1
    181c:	4581                	li	a1,0
    181e:	04b00513          	li	a0,75
    1822:	b04ff0ef          	jal	ra,b26 <gpio_init>
    1826:	a099                	j	186c <spi_gpio_init+0x20a>
G:/WWW_Project/MSR_Project/WCH_Header_Car/libraries/zf_driver/zf_driver_spi.c:54
    else if(SPI3_MISO_B4  == miso_pin)   gpio_init(B4,  GPI, 1, SPEED_50MHZ|GPI_FLOATING_IN);
    1828:	fe442703          	lw	a4,-28(s0)
    182c:	03100793          	li	a5,49
    1830:	00f71b63          	bne	a4,a5,1846 <spi_gpio_init+0x1e4>
G:/WWW_Project/MSR_Project/WCH_Header_Car/libraries/zf_driver/zf_driver_spi.c:54 (discriminator 1)
    1834:	30400693          	li	a3,772
    1838:	4605                	li	a2,1
    183a:	4581                	li	a1,0
    183c:	02400513          	li	a0,36
    1840:	ae6ff0ef          	jal	ra,b26 <gpio_init>
    1844:	a025                	j	186c <spi_gpio_init+0x20a>
G:/WWW_Project/MSR_Project/WCH_Header_Car/libraries/zf_driver/zf_driver_spi.c:55
    else if(SPI_MISO_NULL == miso_pin)   miso_pin = SPI_MISO_NULL;
    1846:	fe442703          	lw	a4,-28(s0)
    184a:	0ff00793          	li	a5,255
    184e:	00f71763          	bne	a4,a5,185c <spi_gpio_init+0x1fa>
G:/WWW_Project/MSR_Project/WCH_Header_Car/libraries/zf_driver/zf_driver_spi.c:55 (discriminator 1)
    1852:	0ff00793          	li	a5,255
    1856:	fef42223          	sw	a5,-28(s0)
    185a:	a809                	j	186c <spi_gpio_init+0x20a>
G:/WWW_Project/MSR_Project/WCH_Header_Car/libraries/zf_driver/zf_driver_spi.c:56
    else  zf_assert(0);         //无此参数进入断言
    185c:	03800613          	li	a2,56
    1860:	67b5                	lui	a5,0xd
    1862:	fd478593          	addi	a1,a5,-44 # cfd4 <_sbrk+0xf2>
    1866:	4501                	li	a0,0
    1868:	3c0020ef          	jal	ra,3c28 <debug_assert_handler>
G:/WWW_Project/MSR_Project/WCH_Header_Car/libraries/zf_driver/zf_driver_spi.c:59

    //初始化CS引脚
    gpio_init(cs_pin, GPO, 0, SPEED_50MHZ|GPO_PUSH_PULL);
    186c:	31000693          	li	a3,784
    1870:	4601                	li	a2,0
    1872:	4585                	li	a1,1
    1874:	fe042503          	lw	a0,-32(s0)
    1878:	aaeff0ef          	jal	ra,b26 <gpio_init>
G:/WWW_Project/MSR_Project/WCH_Header_Car/libraries/zf_driver/zf_driver_spi.c:61

}
    187c:	0001                	nop
    187e:	40f2                	lw	ra,28(sp)
    1880:	4462                	lw	s0,24(sp)
    1882:	6105                	addi	sp,sp,32
    1884:	8082                	ret

00001886 <spi_init>:
spi_init():
G:/WWW_Project/MSR_Project/WCH_Header_Car/libraries/zf_driver/zf_driver_spi.c:76
// @param       cs_pin          选择 CS 引脚 参照 zf_driver_gpio.h 内 gpio_pin_enum 枚举体定义
// @return      void
// Sample usage:                spi_init(SPI_1, 0, 1*1000*1000, SPI1_SCK_A05, SPI1_MOSI_A07, SPI1_MISO_A06, SPI1_NSS_A04);  //硬件SPI初始化  模式0 波特率为1Mhz
//-------------------------------------------------------------------------------------------------------------------
void spi_init(spi_index_enum spi_n, spi_mode_enum mode, uint32_t baud, spi_pin_enum sck_pin, spi_pin_enum mosi_pin, spi_pin_enum miso_pin, gpio_pin_enum cs_pin)
{
    1886:	715d                	addi	sp,sp,-80
    1888:	c686                	sw	ra,76(sp)
    188a:	c4a2                	sw	s0,72(sp)
    188c:	0880                	addi	s0,sp,80
    188e:	fca42623          	sw	a0,-52(s0)
    1892:	fcb42423          	sw	a1,-56(s0)
    1896:	fcc42223          	sw	a2,-60(s0)
    189a:	fcd42023          	sw	a3,-64(s0)
    189e:	fae42e23          	sw	a4,-68(s0)
    18a2:	faf42c23          	sw	a5,-72(s0)
    18a6:	fb042a23          	sw	a6,-76(s0)
G:/WWW_Project/MSR_Project/WCH_Header_Car/libraries/zf_driver/zf_driver_spi.c:77
    uint16_t psc = 0;
    18aa:	fe041723          	sh	zero,-18(s0)
G:/WWW_Project/MSR_Project/WCH_Header_Car/libraries/zf_driver/zf_driver_spi.c:88
//    {
//        assert(0);
//        return;
//    }

    SPI_I2S_DeInit((SPI_TypeDef *)(spi_index[spi_n]));
    18ae:	67b5                	lui	a5,0xd
    18b0:	fcc42703          	lw	a4,-52(s0)
    18b4:	070a                	slli	a4,a4,0x2
    18b6:	6f478793          	addi	a5,a5,1780 # d6f4 <spi_index>
    18ba:	97ba                	add	a5,a5,a4
    18bc:	439c                	lw	a5,0(a5)
    18be:	853e                	mv	a0,a5
    18c0:	708040ef          	jal	ra,5fc8 <SPI_I2S_DeInit>
G:/WWW_Project/MSR_Project/WCH_Header_Car/libraries/zf_driver/zf_driver_spi.c:90

    RCC_APB2PeriphClockCmd(RCC_APB2Periph_AFIO, ENABLE);                                           // 复用总线使能
    18c4:	4585                	li	a1,1
    18c6:	4505                	li	a0,1
    18c8:	5e8040ef          	jal	ra,5eb0 <RCC_APB2PeriphClockCmd>
G:/WWW_Project/MSR_Project/WCH_Header_Car/libraries/zf_driver/zf_driver_spi.c:92

    if(sck_pin == SPI1_SCK_B3 && mosi_pin == SPI1_MOSI_B5 && miso_pin == SPI1_MISO_B4)
    18cc:	fc042703          	lw	a4,-64(s0)
    18d0:	47c1                	li	a5,16
    18d2:	02f71163          	bne	a4,a5,18f4 <spi_init+0x6e>
G:/WWW_Project/MSR_Project/WCH_Header_Car/libraries/zf_driver/zf_driver_spi.c:92 (discriminator 1)
    18d6:	fbc42703          	lw	a4,-68(s0)
    18da:	47c9                	li	a5,18
    18dc:	00f71c63          	bne	a4,a5,18f4 <spi_init+0x6e>
G:/WWW_Project/MSR_Project/WCH_Header_Car/libraries/zf_driver/zf_driver_spi.c:92 (discriminator 2)
    18e0:	fb842703          	lw	a4,-72(s0)
    18e4:	47c5                	li	a5,17
    18e6:	00f71763          	bne	a4,a5,18f4 <spi_init+0x6e>
G:/WWW_Project/MSR_Project/WCH_Header_Car/libraries/zf_driver/zf_driver_spi.c:93
        GPIO_PinRemapConfig(GPIO_Remap_SPI1, ENABLE);
    18ea:	4585                	li	a1,1
    18ec:	4505                	li	a0,1
    18ee:	134040ef          	jal	ra,5a22 <GPIO_PinRemapConfig>
    18f2:	a815                	j	1926 <spi_init+0xa0>
G:/WWW_Project/MSR_Project/WCH_Header_Car/libraries/zf_driver/zf_driver_spi.c:94
    else if(sck_pin == SPI3_SCK_C10 && mosi_pin == SPI3_MOSI_C12 && miso_pin == SPI3_MISO_C11)
    18f4:	fc042703          	lw	a4,-64(s0)
    18f8:	04000793          	li	a5,64
    18fc:	02f71563          	bne	a4,a5,1926 <spi_init+0xa0>
G:/WWW_Project/MSR_Project/WCH_Header_Car/libraries/zf_driver/zf_driver_spi.c:94 (discriminator 1)
    1900:	fbc42703          	lw	a4,-68(s0)
    1904:	04200793          	li	a5,66
    1908:	00f71f63          	bne	a4,a5,1926 <spi_init+0xa0>
G:/WWW_Project/MSR_Project/WCH_Header_Car/libraries/zf_driver/zf_driver_spi.c:94 (discriminator 2)
    190c:	fb842703          	lw	a4,-72(s0)
    1910:	04100793          	li	a5,65
    1914:	00f71963          	bne	a4,a5,1926 <spi_init+0xa0>
G:/WWW_Project/MSR_Project/WCH_Header_Car/libraries/zf_driver/zf_driver_spi.c:95
        GPIO_PinRemapConfig(GPIO_Remap_SPI3, ENABLE);
    1918:	4585                	li	a1,1
    191a:	002017b7          	lui	a5,0x201
    191e:	10078513          	addi	a0,a5,256 # 201100 <_data_lma+0x1f2bac>
    1922:	100040ef          	jal	ra,5a22 <GPIO_PinRemapConfig>
G:/WWW_Project/MSR_Project/WCH_Header_Car/libraries/zf_driver/zf_driver_spi.c:98


         if(SPI_1 == spi_n)   RCC_APB2PeriphClockCmd(RCC_APB2Periph_SPI1, ENABLE);                // SPI1时钟使能
    1926:	fcc42783          	lw	a5,-52(s0)
    192a:	e791                	bnez	a5,1936 <spi_init+0xb0>
G:/WWW_Project/MSR_Project/WCH_Header_Car/libraries/zf_driver/zf_driver_spi.c:98 (discriminator 1)
    192c:	4585                	li	a1,1
    192e:	6505                	lui	a0,0x1
    1930:	580040ef          	jal	ra,5eb0 <RCC_APB2PeriphClockCmd>
    1934:	a025                	j	195c <spi_init+0xd6>
G:/WWW_Project/MSR_Project/WCH_Header_Car/libraries/zf_driver/zf_driver_spi.c:99
    else if(SPI_2 == spi_n)   RCC_APB1PeriphClockCmd(RCC_APB1Periph_SPI2, ENABLE);                // SPI2时钟使能
    1936:	fcc42703          	lw	a4,-52(s0)
    193a:	4785                	li	a5,1
    193c:	00f71763          	bne	a4,a5,194a <spi_init+0xc4>
G:/WWW_Project/MSR_Project/WCH_Header_Car/libraries/zf_driver/zf_driver_spi.c:99 (discriminator 1)
    1940:	4585                	li	a1,1
    1942:	6511                	lui	a0,0x4
    1944:	5b2040ef          	jal	ra,5ef6 <RCC_APB1PeriphClockCmd>
    1948:	a811                	j	195c <spi_init+0xd6>
G:/WWW_Project/MSR_Project/WCH_Header_Car/libraries/zf_driver/zf_driver_spi.c:100
    else if(SPI_3 == spi_n)   RCC_APB1PeriphClockCmd(RCC_APB1Periph_SPI3, ENABLE);                // SPI3时钟使能
    194a:	fcc42703          	lw	a4,-52(s0)
    194e:	4789                	li	a5,2
    1950:	00f71663          	bne	a4,a5,195c <spi_init+0xd6>
G:/WWW_Project/MSR_Project/WCH_Header_Car/libraries/zf_driver/zf_driver_spi.c:100 (discriminator 1)
    1954:	4585                	li	a1,1
    1956:	6521                	lui	a0,0x8
    1958:	59e040ef          	jal	ra,5ef6 <RCC_APB1PeriphClockCmd>
G:/WWW_Project/MSR_Project/WCH_Header_Car/libraries/zf_driver/zf_driver_spi.c:101
    spi_gpio_init(sck_pin, mosi_pin, miso_pin, cs_pin);
    195c:	fb442683          	lw	a3,-76(s0)
    1960:	fb842603          	lw	a2,-72(s0)
    1964:	fbc42583          	lw	a1,-68(s0)
    1968:	fc042503          	lw	a0,-64(s0)
    196c:	39dd                	jal	1662 <spi_gpio_init>
G:/WWW_Project/MSR_Project/WCH_Header_Car/libraries/zf_driver/zf_driver_spi.c:104


    SPI_InitStructure.SPI_Direction = SPI_Direction_2Lines_FullDuplex;      // SPI设置为双线双向全双工
    196e:	fc041e23          	sh	zero,-36(s0)
G:/WWW_Project/MSR_Project/WCH_Header_Car/libraries/zf_driver/zf_driver_spi.c:105
    SPI_InitStructure.SPI_Mode = SPI_Mode_Master;                           // 设置SPI工作模式:设置为主SPI
    1972:	10400793          	li	a5,260
    1976:	fcf41f23          	sh	a5,-34(s0)
G:/WWW_Project/MSR_Project/WCH_Header_Car/libraries/zf_driver/zf_driver_spi.c:106
    SPI_InitStructure.SPI_DataSize = SPI_DataSize_8b;                       // 设置SPI的数据大小:SPI发送接收8位帧结构
    197a:	fe041023          	sh	zero,-32(s0)
    197e:	fc842703          	lw	a4,-56(s0)
    1982:	4785                	li	a5,1
    1984:	02f70563          	beq	a4,a5,19ae <spi_init+0x128>
    1988:	fc842783          	lw	a5,-56(s0)
    198c:	cf81                	beqz	a5,19a4 <spi_init+0x11e>
    198e:	fc842703          	lw	a4,-56(s0)
    1992:	4789                	li	a5,2
    1994:	02f70363          	beq	a4,a5,19ba <spi_init+0x134>
    1998:	fc842703          	lw	a4,-56(s0)
    199c:	478d                	li	a5,3
    199e:	02f70463          	beq	a4,a5,19c6 <spi_init+0x140>
    19a2:	a80d                	j	19d4 <spi_init+0x14e>
G:/WWW_Project/MSR_Project/WCH_Header_Car/libraries/zf_driver/zf_driver_spi.c:112

    switch(mode)
    {
        case SPI_MODE0:
        {
            SPI_InitStructure.SPI_CPOL = SPI_CPOL_Low;                      // 串行同步时钟的空闲状态为低电平
    19a4:	fe041123          	sh	zero,-30(s0)
G:/WWW_Project/MSR_Project/WCH_Header_Car/libraries/zf_driver/zf_driver_spi.c:113
            SPI_InitStructure.SPI_CPHA = SPI_CPHA_1Edge;                    // 串行同步时钟的第一个跳变沿（上升或下降）数据被采样
    19a8:	fe041223          	sh	zero,-28(s0)
G:/WWW_Project/MSR_Project/WCH_Header_Car/libraries/zf_driver/zf_driver_spi.c:114
        }break;
    19ac:	a025                	j	19d4 <spi_init+0x14e>
G:/WWW_Project/MSR_Project/WCH_Header_Car/libraries/zf_driver/zf_driver_spi.c:117
        case SPI_MODE1:
        {
            SPI_InitStructure.SPI_CPOL = SPI_CPOL_Low;                      // 串行同步时钟的空闲状态为低电平
    19ae:	fe041123          	sh	zero,-30(s0)
G:/WWW_Project/MSR_Project/WCH_Header_Car/libraries/zf_driver/zf_driver_spi.c:118
            SPI_InitStructure.SPI_CPHA = SPI_CPHA_2Edge;                    // 串行同步时钟的第二个跳变沿（上升或下降）数据被采样
    19b2:	4785                	li	a5,1
    19b4:	fef41223          	sh	a5,-28(s0)
G:/WWW_Project/MSR_Project/WCH_Header_Car/libraries/zf_driver/zf_driver_spi.c:119
        }break;
    19b8:	a831                	j	19d4 <spi_init+0x14e>
G:/WWW_Project/MSR_Project/WCH_Header_Car/libraries/zf_driver/zf_driver_spi.c:122
        case SPI_MODE2:
        {
            SPI_InitStructure.SPI_CPOL = SPI_CPOL_High;                     // 串行同步时钟的空闲状态为高电平
    19ba:	4789                	li	a5,2
    19bc:	fef41123          	sh	a5,-30(s0)
G:/WWW_Project/MSR_Project/WCH_Header_Car/libraries/zf_driver/zf_driver_spi.c:123
            SPI_InitStructure.SPI_CPHA = SPI_CPHA_1Edge;                    // 串行同步时钟的第一个跳变沿（上升或下降）数据被采样
    19c0:	fe041223          	sh	zero,-28(s0)
G:/WWW_Project/MSR_Project/WCH_Header_Car/libraries/zf_driver/zf_driver_spi.c:124
        }break;
    19c4:	a801                	j	19d4 <spi_init+0x14e>
G:/WWW_Project/MSR_Project/WCH_Header_Car/libraries/zf_driver/zf_driver_spi.c:127
        case SPI_MODE3:
        {
            SPI_InitStructure.SPI_CPOL = SPI_CPOL_High;                     // 串行同步时钟的空闲状态为高电平
    19c6:	4789                	li	a5,2
    19c8:	fef41123          	sh	a5,-30(s0)
G:/WWW_Project/MSR_Project/WCH_Header_Car/libraries/zf_driver/zf_driver_spi.c:128
            SPI_InitStructure.SPI_CPHA = SPI_CPHA_2Edge;                    // 串行同步时钟的第二个跳变沿（上升或下降）数据被采样
    19cc:	4785                	li	a5,1
    19ce:	fef41223          	sh	a5,-28(s0)
G:/WWW_Project/MSR_Project/WCH_Header_Car/libraries/zf_driver/zf_driver_spi.c:129
        }break;
    19d2:	0001                	nop
G:/WWW_Project/MSR_Project/WCH_Header_Car/libraries/zf_driver/zf_driver_spi.c:132
    }

    psc = system_clock / baud;                                              // 计算分频值
    19d4:	8741a703          	lw	a4,-1932(gp) # 200002e4 <system_clock>
    19d8:	fc442783          	lw	a5,-60(s0)
    19dc:	02f757b3          	divu	a5,a4,a5
    19e0:	fef41723          	sh	a5,-18(s0)
G:/WWW_Project/MSR_Project/WCH_Header_Car/libraries/zf_driver/zf_driver_spi.c:133
         if(psc >= 256) psc = SPI_BaudRatePrescaler_256;                    // 计算最佳分频值
    19e4:	fee45703          	lhu	a4,-18(s0)
    19e8:	0ff00793          	li	a5,255
    19ec:	00e7f763          	bgeu	a5,a4,19fa <spi_init+0x174>
G:/WWW_Project/MSR_Project/WCH_Header_Car/libraries/zf_driver/zf_driver_spi.c:133 (discriminator 1)
    19f0:	03800793          	li	a5,56
    19f4:	fef41723          	sh	a5,-18(s0)
    19f8:	a861                	j	1a90 <spi_init+0x20a>
G:/WWW_Project/MSR_Project/WCH_Header_Car/libraries/zf_driver/zf_driver_spi.c:134
    else if(psc >= 128) psc = SPI_BaudRatePrescaler_128;
    19fa:	fee45703          	lhu	a4,-18(s0)
    19fe:	07f00793          	li	a5,127
    1a02:	00e7f763          	bgeu	a5,a4,1a10 <spi_init+0x18a>
G:/WWW_Project/MSR_Project/WCH_Header_Car/libraries/zf_driver/zf_driver_spi.c:134 (discriminator 1)
    1a06:	03000793          	li	a5,48
    1a0a:	fef41723          	sh	a5,-18(s0)
    1a0e:	a049                	j	1a90 <spi_init+0x20a>
G:/WWW_Project/MSR_Project/WCH_Header_Car/libraries/zf_driver/zf_driver_spi.c:135
    else if(psc >= 64)  psc = SPI_BaudRatePrescaler_64;
    1a10:	fee45703          	lhu	a4,-18(s0)
    1a14:	03f00793          	li	a5,63
    1a18:	00e7f763          	bgeu	a5,a4,1a26 <spi_init+0x1a0>
G:/WWW_Project/MSR_Project/WCH_Header_Car/libraries/zf_driver/zf_driver_spi.c:135 (discriminator 1)
    1a1c:	02800793          	li	a5,40
    1a20:	fef41723          	sh	a5,-18(s0)
    1a24:	a0b5                	j	1a90 <spi_init+0x20a>
G:/WWW_Project/MSR_Project/WCH_Header_Car/libraries/zf_driver/zf_driver_spi.c:136
    else if(psc >= 32)  psc = SPI_BaudRatePrescaler_32;
    1a26:	fee45703          	lhu	a4,-18(s0)
    1a2a:	47fd                	li	a5,31
    1a2c:	00e7f763          	bgeu	a5,a4,1a3a <spi_init+0x1b4>
G:/WWW_Project/MSR_Project/WCH_Header_Car/libraries/zf_driver/zf_driver_spi.c:136 (discriminator 1)
    1a30:	02000793          	li	a5,32
    1a34:	fef41723          	sh	a5,-18(s0)
    1a38:	a8a1                	j	1a90 <spi_init+0x20a>
G:/WWW_Project/MSR_Project/WCH_Header_Car/libraries/zf_driver/zf_driver_spi.c:137
    else if(psc >= 16)  psc = SPI_BaudRatePrescaler_16;
    1a3a:	fee45703          	lhu	a4,-18(s0)
    1a3e:	47bd                	li	a5,15
    1a40:	00e7f663          	bgeu	a5,a4,1a4c <spi_init+0x1c6>
G:/WWW_Project/MSR_Project/WCH_Header_Car/libraries/zf_driver/zf_driver_spi.c:137 (discriminator 1)
    1a44:	47e1                	li	a5,24
    1a46:	fef41723          	sh	a5,-18(s0)
    1a4a:	a099                	j	1a90 <spi_init+0x20a>
G:/WWW_Project/MSR_Project/WCH_Header_Car/libraries/zf_driver/zf_driver_spi.c:138
    else if(psc >= 8)   psc = SPI_BaudRatePrescaler_8;
    1a4c:	fee45703          	lhu	a4,-18(s0)
    1a50:	479d                	li	a5,7
    1a52:	00e7f663          	bgeu	a5,a4,1a5e <spi_init+0x1d8>
G:/WWW_Project/MSR_Project/WCH_Header_Car/libraries/zf_driver/zf_driver_spi.c:138 (discriminator 1)
    1a56:	47c1                	li	a5,16
    1a58:	fef41723          	sh	a5,-18(s0)
    1a5c:	a815                	j	1a90 <spi_init+0x20a>
G:/WWW_Project/MSR_Project/WCH_Header_Car/libraries/zf_driver/zf_driver_spi.c:139
    else if(psc >= 4)   psc = SPI_BaudRatePrescaler_4;
    1a5e:	fee45703          	lhu	a4,-18(s0)
    1a62:	478d                	li	a5,3
    1a64:	00e7f663          	bgeu	a5,a4,1a70 <spi_init+0x1ea>
G:/WWW_Project/MSR_Project/WCH_Header_Car/libraries/zf_driver/zf_driver_spi.c:139 (discriminator 1)
    1a68:	47a1                	li	a5,8
    1a6a:	fef41723          	sh	a5,-18(s0)
    1a6e:	a00d                	j	1a90 <spi_init+0x20a>
G:/WWW_Project/MSR_Project/WCH_Header_Car/libraries/zf_driver/zf_driver_spi.c:140
    else if(psc >= 2)   psc = SPI_BaudRatePrescaler_2;
    1a70:	fee45703          	lhu	a4,-18(s0)
    1a74:	4785                	li	a5,1
    1a76:	00e7f563          	bgeu	a5,a4,1a80 <spi_init+0x1fa>
G:/WWW_Project/MSR_Project/WCH_Header_Car/libraries/zf_driver/zf_driver_spi.c:140 (discriminator 1)
    1a7a:	fe041723          	sh	zero,-18(s0)
    1a7e:	a809                	j	1a90 <spi_init+0x20a>
G:/WWW_Project/MSR_Project/WCH_Header_Car/libraries/zf_driver/zf_driver_spi.c:141
    else zf_assert(0);
    1a80:	08d00613          	li	a2,141
    1a84:	67b5                	lui	a5,0xd
    1a86:	fd478593          	addi	a1,a5,-44 # cfd4 <_sbrk+0xf2>
