:100000006F50E023130000001300000013000000F5
:100010001300000013000000130000001300000094
:100020001300000013000000130000001300000084
:08003000130000007300100032
:100038000000000000000000164F0000264F0000DE
:1000480000000000845100000000000000000000D3
:1000580086510000885100000000000000000000E8
:100068008A510000000000008C51000000000000D0
:100078008E510000905100009251000094510000F0
:1000880096510000985100007E4B0000A24B0000E2
:10009800C64B0000EA4B00000E4C0000A4510000C3
:1000A800A6510000A8510000AA510000AC51000060
:1000B800AE510000B0510000B2510000B451000030
:1000C800B6510000B8510000BA510000324C00008F
:1000D800BE5100004E4D0000C2510000C451000046
:1000E8007E4D0000A64D0000D64D0000CC5100000A
:1000F800CE510000D0510000D2510000D451000070
:10010800D651000076490000AA490000FC490000C9
:10011800BA4C0000E0510000E2510000E451000038
:100128008E4E0000E8510000EA510000EC5100003A
:10013800EE510000F0510000064E0000F45100009E
:10014800304A0000644A0000364E00005E4E00004F
:10015800FE5100000052000002520000045200004C
:1001680006520000085200000A5200000C5200001B
:100178000E5200001052000012520000A86B00003E
:100188001652000018520000404B0000944A00002C
:10019800C84A0000144B000022520000BE4E000066
:1001A80026520000285200002A520000EE4E00009D
:1001B8002E5200003052000032520000345200002B
:1001C80036520000385200003A5200003C520000FB
:1001D8000000000000000000000000000000000017
:1001E8000000000000000000000000000000000007
:0801F8000000000000000000FF
:10020000737504308280B76200009382820873A005
:10021000023082803D432A876373C3029377F700DD
:10022000BDEFADE5937606FF3D8ABA960CC34CC38D
:100230000CC74CC74107E36BD7FE11E28280B306BF
:10024000C3408A069702000096966780A60023079F
:10025000B700A306B7002306B700A305B700230520
:10026000B700A304B7002304B700A303B700230318
:10027000B700A302B7002302B700A301B700230110
:10028000B700A300B7002300B700828093F5F50FF5
:1002900093968500D58D93960501D58D61B793967C
:1002A00027009702000096968682E78086FA96805D
:1002B000C1171D8F3E96E374C3F8A5B7011106CE92
:1002C00022CC00102326A4FE8327C4FE81EB8146A6
:1002D000014681450145EF0010059DAA0327C4FE94
:1002E00085476319F7008146014681450545EF00C2
:1002F0009003B9AA0327C4FE89476319F700814612
:10030000014681450945EF00100299A20327C4FE6A
:100310008D476319F7008146014681450D45EF0081
:1003200090003DA20327C4FE91476319F700814660
:10033000014681451145EF00007F19AA0327C4FE3D
:1003400095476319F7008146014681451545EF0041
:10035000807DFDA80327C4FE99476319F7008146F5
:10036000014681451945EF00007CDDA00327C4FE4E
:100370009D476319F7008146014681451D45EF0001
:10038000807AF9A00327C4FEA147631AF7008146CB
:100390000146814513050002EF00E07855A80327C8
:1003A000C4FEA547631AF70081460146814513053F
:1003B0001002EF00407769A80327C4FEA947631A1B
:1003C000F70081460146814513050004EF00A07542
:1003D00041A00327C4FEAD47631AF70081460146DA
:1003E000814513051004EF0000749DA00327C4FE8F
:1003F000B147631AF7008146014681451305200481
:10040000EF006072B1A00327C4FEB547631AF7007E
:1004100081460146814513053004EF00C0700DA8E8
:100420000327C4FEB947631AF70081460146814598
:1004300013054004EF00206F21A80327C4FEBD4729
:100440006318F70081460146814513055004E12DEC
:100450000100F240624405618280397106DE22DCCF
:1004600080002326A4FC0325C4FC893D8545130593
:100470000020EF50F0230145EF50606EB727014098
:1004800013850740EF50E003232804FC232A04FCD3
:10049000232C04FCB7070E00232EF4FC232004FEBB
:1004A00085472302F4FE930704FDBE85B72701406C
:1004B00013850740EF50E0068545B72701401385B7
:1004C0000740EF5020168145B727014013850740AC
:1004D000EF506023B727014013850740EF506018A5
:1004E0000100B727014013850740EF50A019AA87E4
:1004F000EDFBB727014013850740EF50A01B01001B
:10050000B727014013850740EF50E01CAA87EDFB99
:100510000100F250625421618280011122CE00104C
:100520002324A4FE2326B4FEB7F700E023A007008F
:10053000B7F700E08146014794C7D8C7B7F700E096
:10054000054798C30100B7F700E003A8C7009C4720
:100550000327C4FEC286636CD7000327C4FEC2868D
:10056000E313D7FE032784FE6363F700E9BF0100AE
:10057000724405618280011106CE22CC0010AA8E41
:100580002E8E32833685BA853E86C2864687F687AA
:10059000A307F4FEF2872307F4FE9A87A306F4FE6E
:1005A000AA872306F4FEAE87A305F4FEB2872305CF
:1005B000F4FEB687A304F4FEBA872304F4FE83474F
:1005C000F4FE93068004014681453E85A92B8347AE
:1005D000E4FE93068004014681453E85A9238347B6
:1005E000D4FE93068004014681453E852D2B83472A
:1005F000C4FE93068004014681453E852D23834732
:10060000B4FE93068004014681453E85292B83472D
:10061000A4FE93068004014681453E852923834735
:1006200094FE93068004014681453E85ED2983476B
:1006300084FE93068004014681453E85ED21834773
:10064000440093068004014681453E85E92983479D
:10065000040093068004014681453E85E9218347D5
:10066000840093068004014681453E856D29010082
:10067000F240624405618280011106CE22CC001056
:100680002326A4FE2324B4FEB28736872313F4FE68
:10069000BA872312F4FE85450965EF50007DB70740
:1006A000055083C7070013F7F70FB70705501377F7
:1006B000F7FC1377F70F2380E700B707055083C7D0
:1006C000070013F7F70FB7070550136727041377D1
:1006D000F70F2380E700B707055083C7170013F70C
:1006E000F70FB7070550659B1377F70FA380E70057
:1006F000B7070550035744FE2392E700B70705509C
:10070000035764FE2393E700B70705500327C4FE91
:1007100098C7B7070550032784FED8C7B707055009
:1007200083C7170013F7F70FB70705501377F703C1
:100730001377F70FA380E70037070550B707055079
:10074000034717001377F70FA380E700B70705509B
:1007500083C7170013F7F70FB70705501367070193
:100760001377F70FA380E700B707055083C727006B
:1007700013F7F70FB7070550136747001377F70F05
:100780002381E700B707055083C7170013F7F70F5A
:10079000B7070550136717001377F70FA380E7001B
:1007A000B707055083C7070013F7F70FB7070550C2
:1007B000136717001377F70F2380E7008D451305A4
:1007C0006005EF40801313056005EF40400F010006
:1007D000F240624405618280011106CE22CC0010F5
:1007E0002326A4FE2324B4FE9306800401468145FB
:1007F0000325C4FE0D2E9306800401468145032582
:1008000084FE15260100F2406244056182800111D8
:1008100006CE22CC00102326A4FEB70700201387A3
:1008200007278327C4FEBA9703C707009307F00F73
:100830006311F702B5670327C4FE0A0793870770A1
:10084000BA979C4383D74702C207C183C207C187B7
:10085000B9A8B7070020138707278327C4FEBA97D4
:1008600083C707003E854124AA8785C3B567032750
:10087000C4FE0A0793870770BA979C4383D7470241
:10088000C207C183C207C1871DA0B5670327C4FE85
:100890000A0793870770BA979C4383D74702C2071A
:1008A000C183B307F040C207C183C207C1873E8539
:1008B000F240624405618280011122CE001023269D
:1008C000A4FEB5670327C4FE0A0793870770BA978B
:1008D0009C43239207020100724405618280797172
:1008E00006D622D40018232EA4FC232CB4FC232AE1
:1008F000C4FC91450325C4FDEF10E02EAA873E8776
:100900001306D007B567938587F03A85EF30C0317D
:100910000325C4FDEF10A032832784FD13F7F70FE2
:10092000832744FD93F7F70FBE853A8575358327F6
:1009300084FD13F7F70FB707002093860727832757
:10094000C4FDB6972380E700832784FD13D7870073
:100950008547631AF7008545B70716001385070C0E
:10096000EF50200C01A2832784FD13D78700C547D1
:10097000631AF7008545B707180013850730EF5055
:10098000400ACDA0832784FD13D787009307100268
:10099000631AF7008545B7171A00138507C0EF5093
:1009A0004008C9A0832784FD13D78700930720023E
:1009B000631AF7008545B7171A0013850780EF50B3
:1009C00040064DA0832784FD13D7870093071003AB
:1009D0006317F70085450565EF50A00461A08327E4
:1009E00084FD13D7870093071007631BF700B70731
:1009F0000140D84FB707014013674700D8CF9DA0EB
:100A0000832784FD13D7870093071008631BF70023
:100A1000B7070140D84FB707014013670701D8CF88
:100A200091A0832784FD13D7870093071009631BC8
:100A3000F700B7070140D84FB70701401367070415
:100A4000D8CF0DA0832784FD13D7870093072009F3
:100A5000631AF700B7070140D84FB7070140136783
:100A60000702D8CF85450545EF508044930744FEE3
:100A70003E85EF50D009231204FEFD572314F4FEE7
:100A8000231504FE231304FE230604FEB567032783
:100A9000C4FD0A0793870770BA979C433E87930764
:100AA00044FEBE853A85EF50A06EB5670327C4FDAE
:100AB0000A0793870770BA979C43930500063E8503
:100AC000EF503015B5670327C4FD0A0793870770F9
:100AD000BA979C4385453E85EF5030070100B250E0
:100AE000225445618280011122CE00102326A4FEEB
:100AF0008327C4FE958313F77700B5670A079387AA
:100B0000076EBA979C439C470327C4FE7D8B85469E
:100B10003397E600F98F99C3854711A081473E8539
:100B2000724405618280797106D622D40018232E82
:100B3000A4FC232CB4FC232AC4FC2328D4FC832744
:100B4000C4FD958393F7F70F9D8BA307F4FE8327CE
:100B5000C4FD93F7F70FBD8B2307F4FE0327C4FDF5
:100B60009307F00F6305F7140327C4FD9307F00FF5
:100B70006301F7148347F4FE91E785451145EF5073
:100B8000203341A00347F4FE85476317F7008545EE
:100B90002145EF50E031B5A00347F4FE89476317C4
:100BA000F70085454145EF50A030A1A80347F4FE6A
:100BB0008D476318F700854513050002EF50402F5D
:100BC00089A00347F4FE91476318F7008545130594
:100BD0000004EF50E02D35A00347F4FE954763185D
:100BE000F700854513050008EF50802C19A803472E
:100BF000F4FE99476317F700854513050010EF5081
:100C0000202B8347E4FE0547B317F700C207C183D3
:100C10002310F4FE032784FD85476317F70283271B
:100C200004FDC207C183A183C207C18389E78D4741
:100C30002322F4FE11A8832704FDC207C183A183E8
:100C4000C207C1832322F4FE832704FDC207C183A8
:100C500093F7F70F2324F4FE0347F4FEB5670A0762
:100C60009387076EBA979C433E87930704FEBE8521
:100C70003A85EF40F034032784FD8547631CF70273
:100C80000347F4FEB5670A079387076EBA979C433C
:100C9000BE868347E4FE0547B317F700C207C1834A
:100CA000032644FDBE853685EF40305421A0010067
:100CB00011A00100B2502254456182801D7186CE80
:100CC000A2CC80102326A4FA2324B4FAB56703AE7D
:100CD000C7FA1387C7FA032347001387C7FA832885
:100CE00087001387C7FA0328C7001387C7FA084B82
:100CF0001387C7FA4C4B1387C7FA104F1387C7FAED
:100D0000544F1387C7FA18539387C7FADC5323222B
:100D1000C4FD232464FC232614FD232804FD232A78
:100D2000A4FC232CB4FC232EC4FC2320D4FE2322B9
:100D3000E4FE2324F4FE85450325C4FAEF00B06ADF
:100D4000AA873E8713065002B5679385C7F53A8593
:100D5000EF20906D832784FAB337F00093F7F70FF5
:100D60003E8713066002B5679385C7F53A85EF2085
:100D7000B06B832784FABD832317F4FE8357E4FE08
:100D800085073E87832784FAB3D7E7022316F4FE4C
:100D90000325C4FAEF00B06A8357C4FE231EF4FA99
:100DA0008357E4FE231CF4FA231F04FA231D04FADC
:100DB000230004FCB5670327C4FA0A07938707706A
:100DC000BA979C433E87930784FBBE853A85EF50D4
:100DD000203CB5670327C4FA0A0793870770BA97C0
:100DE0009C43054685453E85EF50A05BB5670327CC
:100DF000C4FA0A0793870770BA979C4385453E85D6
:100E0000EF5060718327C4FA93F7F70F8A0713072F
:100E100004FFBA9783A747FD8D453E85EF30F02D3F
:100E20008327C4FA8A07130704FFBA9783A747FDED
:100E30003E85EF30D028B5670327C4FA0A079387A9
:100E40000770BA979C4385453E85EF5000500100DE
:100E5000F640664425618280797122D60018232EDF
:100E6000A4FC8327C4FD2326F4FE01008327C4FECF
:100E70001387F7FF2326E4FEF5FB0100325445619A
:100E80008280797106D622D400182326A4FEAE876C
:100E90002322C4FE2320D4FE232EE4FCA305F4FE6B
:100EA0008327C4FE032704FE98C38327C4FE0327B9
:100EB000C4FDD8C38327C4FE0347B4FE2384E700E0
:100EC0008327C4FE032744FED8C7C146054685458F
:100ED000032504FE8939D146054685450325C4FD11
:100EE00099310100B250225445618280011106CE31
:100EF00022CC00102326A4FE8327C4FE9C43BD8B76
:100F00000547B317F70093960701C1828327C4FEF4
:100F10009C4313D75700B5670A079387076EBA97A4
:100F20009C43368798CB8327C4FEDC43BD8B0547A3
:100F3000B317F70093960701C1828327C4FEDC43F1
:100F400013D75700B5670A079387076EBA979C4374
:100F5000368798CB8327C4FEDC473E85F53D832743
:100F6000C4FEDC43BD8B0547B317F700939607011A
:100F7000C1828327C4FEDC4313D75700B5670A0735
:100F80009387076EBA979C433687D8CB8327C4FED6
:100F9000DC473E85D1358327C4FE9C43BD8B054786
:100FA000B317F70093960701C1828327C4FE9C43C1
:100FB00013D75700B5670A079387076EBA979C4304
:100FC0003687D8CB0100F24062440561828001116E
:100FD00006CE22CC00102326A4FE8327C4FEDC43C9
:100FE000BD8B0547B317F70093960701C18283278E
:100FF000C4FEDC4313D75700B5670A079387076E13
:10100000BA979C433687D8CB8327C4FE9C43BD8BBD
:101010000547B317F70093960701C1828327C4FEE3
:101020009C4313D75700B5670A079387076EBA9793
:101030009C433687D8CB8327C4FEDC473E85293DB9
:101040008327C4FE9C43BD8B0547B317F7009396D7
:101050000701C1828327C4FE9C4313D75700B5679D
:101060000A079387076EBA979C43368798CB8327E6
:10107000C4FEDC473E85CD338327C4FEDC43BD8BF5
:101080000547B317F70093960701C1828327C4FE73
:10109000DC4313D75700B5670A079387076EBA97E3
:1010A0009C43368798CB8327C4FEDC473E856D334F
:1010B0000100F240624405618280011106CE22CC1B
:1010C00000102326A4FEAE87A305F4FE8327C4FEEA
:1010D0009C43BD8B0547B317F70093960701C18268
:1010E0008327C4FE9C4313D75700B5670A0793872D
:1010F000076EBA979C433687D8CB8327C4FEDC475C
:101100003E85993B8347B4FE8DCB8327C4FEDC43E9
:10111000BD8B0547B317F70093960701C18283275C
:10112000C4FEDC4313D75700B5670A079387076EE1
:10113000BA979C43368798CB05A88327C4FEDC4327
:10114000BD8B0547B317F70093960701C18283272C
:10115000C4FEDC4313D75700B5670A079387076EB1
:10116000BA979C433687D8CB8327C4FE9C43BD8B5C
:101170000547B317F70093960701C1828327C4FE82
:101180009C4313D75700B5670A079387076EBA9732
:101190009C43368798CB8327C4FEDC473E856D3958
:1011A0008327C4FE9C43BD8B0547B317F700939676
:1011B0000701C1828327C4FE9C4313D75700B5673C
:1011C0000A079387076EBA979C433687D8CB832745
:1011D000C4FEDC473E8549310100F24062440561AE
:1011E0008280797106D622D40018232EA4FCA3078E
:1011F00004FE8327C4FD9C43BD8B0547B317F7004E
:1012000093960701C1828327C4FD9C4313D75700DF
:10121000B5670A079387076EBA979C433687D8CB82
:101220008327C4FDDC473E8505398327C4FD9C43E5
:10123000BD8B0547B317F70093960701C18283273B
:10124000C4FD9C4313D75700B5670A079387076E01
:10125000BA979C43368798CB8327C4FDDC473E85ED
:10126000E53E8327C4FDDC433E85EFF0DF87AA8798
:1012700081C78547A307F4FE8327C4FD9C43BD8B2C
:101280000547B317F70093960701C1828327C4FD72
:101290009C4313D75700B5670A079387076EBA9721
:1012A0009C433687D8CB8327C4FDDC473E856D360B
:1012B0008347F4FE3E85B2502254456182807971A5
:1012C00006D622D40018232EA4FCAE87A30DF4FC6E
:1012D000A147A307F4FECDA08307B4FD63DA07029C
:1012E0008327C4FDDC43BD8B0547B317F7009396F6
:1012F0000701C1828327C4FDDC4313D75700B567BC
:101300000A079387076EBA979C43368798CB05A840
:101310008327C4FDDC43BD8B0547B317F7009396C5
:101320000701C1828327C4FDDC4313D75700B5678B
:101330000A079387076EBA979C433687D8CB8347B3
:10134000B4FD8607A30DF4FC8327C4FDDC473E856E
:1013500021368327C4FD9C43BD8B0547B317F70097
:1013600093960701C1828327C4FD9C4313D757007E
:10137000B5670A079387076EBA979C43368798CB61
:101380008327C4FDDC473E85C13C8327C4FD9C43C5
:10139000BD8B0547B317F70093960701C1828327DA
:1013A000C4FD9C4313D75700B5670A079387076EA0
:1013B000BA979C433687D8CB8347F4FE1387F7FF51
:1013C000A307E4FE91FB0325C4FD213DAA873E87C8
:1013D00085476314F700814711A085473E85B250C9
:1013E000225445618280797106D622D40018232EBA
:1013F000A4FCAE87A30DF4FCA30704FEA1472307BA
:10140000F4FE8327C4FD9C43BD8B0547B317F7004B
:1014100093960701C1828327C4FD9C4313D75700CD
:10142000B5670A079387076EBA979C433687D8CB70
:101430008327C4FDDC473E8505348327C4FDDC4398
:10144000BD8B0547B317F70093960701C182832729
:10145000C4FDDC4313D75700B5670A079387076EAF
:10146000BA979C43368798CB65A08327C4FDDC4799
:101470003E85EFF07F9E8327C4FD9C43BD8B0547CF
:10148000B317F70093960701C1828327C4FD9C43DD
:1014900013D75700B5670A079387076EBA979C431F
:1014A0003687D8CB8327C4FDDC473E85EFF0DF9A33
:1014B0008327C4FD9C43BD8B0547B317F700939664
:1014C0000701C1828327C4FD9C4313D75700B5672A
:1014D0000A079387076EBA979C43368798CB832772
:1014E000C4FDDC473E85EFF03F978347F4FE860757
:1014F000A307F4FE8327C4FDDC433E85EFF0AFDE97
:10150000AA8799C78347F4FE93E71700A307F4FE61
:101510008347E4FE1387F7FF2307E4FEB9F7832729
:10152000C4FD9C43BD8B0547B317F7009396070195
:10153000C1828327C4FD9C4313D75700B5670A07B0
:101540009387076EBA979C433687D8CB8327C4FD11
:10155000DC473E85EFF05F908347B4FDBE850325F1
:10156000C4FDA13E8347F4FE3E85B250225445613E
:101570008280011106CE22CC00102326A4FEAE8765
:101580003287A305F4FEBA872305F4FE0325C4FEC3
:10159000EFF0DF958327C4FE83C78700860793F7A4
:1015A000F70FBE850325C4FE193B8347B4FEBE85F5
:1015B0000325C4FE29338347A4FEBE850325C4FE4C
:1015C000FD390325C4FEEFF09FA00100F240624404
:1015D00005618280797106D622D40018232EA4FCDE
:1015E000AE87A30DF4FCA30704FE0325C4FDEFF0B2
:1015F000FF8F8327C4FD83C78700860793F7F70F04
:10160000BE850325C4FD65398347B4FDBE8503252A
:10161000C4FD75310325C4FDEFF05F8D8327C4FD44
:1016200083C787008607E207E18793E71700E20791
:10163000E18793F7F70FBE850325C4FD4931854542
:101640000325C4FD4D33AA87A307F4FE0325C4FD7B
:10165000EFF0FF978347F4FE3E85B2502254456178
:101660008280011106CE22CC00102326A4FE232462
:10167000B4FE2322C4FE2320D4FE8327C4FE89EBBC
:1016800093068031054685451545EFF0CFC961A029
:101690000327C4FEC147631BF7009306803105464C
:1016A000854513053002EFF00FC8B5A00327C4FE2F
:1016B00093070002631BF7009306803105468545BA
:1016C0001305D002EFF02FC6B9A00327C4FE93077D
:1016D0000003631BF700930680310546854513051B
:1016E0003002EFF04FC405A80327C4FE930700049F
:1016F000631BF70093068031054685451305A0045A
:10170000EFF06FC209A813069002B567938547FDF5
:101710000145EF206051032784FE8947631AF700D3
:1017200093068031054685451D45EFF0CFBF61A08A
:10173000032784FEC947631BF700930680310546E3
:10174000854513055002EFF00FBEB5A0032784FEB8
:1017500093072002631BF7009306803105468545F9
:101760001305F002EFF02FBCB9A0032784FE930706
:101770002003631BF700930680310546854513055A
:101780005002EFF04FBA05A8032784FE9307200408
:10179000631BF70093068031054685451305C00499
:1017A000EFF06FB809A813060003B567938547FDEE
:1017B0000145EF206047032744FE8547631AF70081
:1017C00093064030054681451945EFF0CFB579A81D
:1017D000032744FEC547631BF700930640300546C8
:1017E000814513054002EFF00FB449A0032744FEE2
:1017F00093071002631BF7009306403005468145AE
:101800001305E002EFF02FB295A0032744FE9307E3
:101810001004631BF700930640300546814513050D
:10182000B004EFF04FB099A0032744FE93071003D4
:10183000631BF700930640300546814513054002BF
:10184000EFF06FAE25A0032744FE9307F00F631758
:10185000F7009307F00F2322F4FE09A81306800374
:10186000B567938547FD0145EF20003C93060031A5
:1018700001468545032504FEEFF0EFAA0100F24082
:101880006244056182805D7186C6A2C480082326F9
:10189000A4FC2324B4FC2322C4FC2320D4FC232E48
:1018A000E4FA232CF4FA232A04FB231704FEB56779
:1018B0000327C4FC0A079387476FBA979C433E856A
:1018C000EF40807085450545EF40805E032704FCAE
:1018D000C1476311F7020327C4FBC947631CF70024
:1018E000032784FBC5476317F70085450545EF408F
:1018F000401315A8032704FC930700046315F7029F
:101900000327C4FB93072004631FF700032784FB0E
:10191000930710046319F7008545B7172000138556
:101920000710EF4000108327C4FC91E7854505654B
:10193000EF40005825A00327C4FC85476317F70034
:1019400085451165EF40205B11A80327C4FC89473A
:101950006316F70085452165EF40E059832644FB77
:10196000032684FB8325C4FB032504FCDD39231EE9
:1019700004FC93074010231FF4FC231004FE0327EC
:1019800084FC85476305F702832784FC81CF032706
:1019900084FC89476303F702032784FC8D476304B3
:1019A000F7020DA8231104FE231204FE25A0231123
:1019B00004FE85472312F4FE31A889472311F4FE63
:1019C000231204FE01A889472311F4FE8547231240
:1019D000F4FE010003A74187832744FCB357F702B5
:1019E0002317F4FE0357E4FE9307F00F63F7E700B5
:1019F000930780032317F4FE61A80357E4FE9307BF
:101A0000F00763F7E700930700032317F4FE49A0EC
:101A10000357E4FE9307F00363F7E70093078002A0
:101A20002317F4FEB5A00357E4FEFD4763F7E70074
:101A3000930700022317F4FEA1A80357E4FEBD4755
:101A400063F6E700E1472317F4FE99A00357E4FE8D
:101A50009D4763F6E700C1472317F4FE15A8035717
:101A6000E4FE8D4763F6E700A1472317F4FE0DA0BF
:101A70000357E4FE854763F5E700231704FE09A832
:101A80001306D008B567938547FD0145EF20C019BF
:101A90008357E4FE2314F4FE930700202313F4FE7F
:101AA000231504FE9D472316F4FEB5670327C4FCE7
:101AB0000A079387476FBA979C433E879307C4FDF5
:101AC000BE853A85EF40A057B5670327C4FC0A07D7
:101AD0009387476FBA979C4385453E85EF40A06545
:101AE0000100B640264461618280011122CE0010BF
:101AF0002326A4FEAE87A305F4FEB5670327C4FE24
:101B00000A079387476FBA979C433E878347B4FE83
:101B1000C207C1832316F7000100B5670327C4FE7F
:101B20000A079387476FBA979C4383D78700C207FA
:101B3000C18393F70708F5F30100724405618280C1
:101B4000011122CE00102326A4FEAE872315F4FE39
:101B50008357A4FEA183C207C18393F6F70FB5672D
:101B60000327C4FE0A079387476FBA979C433E87B3
:101B700093970601C1832316F7000100B567032779
:101B8000C4FE0A079387476FBA979C4383D78700A1
:101B9000C207C18393F70708F5F38357A4FE93F6B2
:101BA000F70FB5670327C4FE0A079387476FBA97F5
:101BB0009C433E8793970601C1832316F7000100DB
:101BC000B5670327C4FE0A079387476FBA979C43FC
:101BD00083D78700C207C18393F70708F5F3010095
:101BE000724405618280011122CE00102326A4FEDA
:101BF0002324B4FE0327C4FE0A079387818ABA9779
:101C00009C4381EF0327C4FE0A079387818ABA9712
:101C1000032784FE98C3854739A80327C4FE0A0713
:101C20009387818ABA979C43032784FE6314F70045
:101C3000854711A081473E8572440561828001116C
:101C400006CE22CC00102326A4FE8327C4FE81EBFF
:101C50008545856713850780EF4080256DA803279C
:101C6000C4FE85476317F70085450545EF40A0286A
:101C70005DA00327C4FE89476317F7008545094522
:101C8000EF40602749A80327C4FE8D476317F7007C
:101C900085451145EF402026BDA80327C4FE914786
:101CA0006317F70085452145EF40E024ADA00327E9
:101CB000C4FE95476317F70085454145EF40A023D3
:101CC00099A80327C4FE99476318F70085451305B3
:101CD0000002EF40402281A00327C4FE9D47631706
:101CE000F70085450965EF40A01C35A00327C4FE19
:101CF000A1476318F700854537050800EF40401BF2
:101D000019A80327C4FEA5476317F70085453705C3
:101D10001000EF40E0190100F2406244056182804A
:101D2000011106CE22CC00102326A4FE2324B4FEEB
:101D30008327C4FE81EBE146014685452545EFE05A
:101D40009FDEC9AA0327C4FE8947631AF700E1464C
:101D50000146854513056002EFE0FFDC65AA032715
:101D6000C4FEC1476319F700E146014685450945B0
:101D7000EFE07FDB45A20327C4FEC947631AF700E3
:101D8000E1460146854513055006EFE0DFD959A22B
:101D90000327C4FE93070002631AF700E1460146D9
:101DA00085451305A002EFE01FD8ADA20327C4FEAE
:101DB00093072002631AF700E146014685451305A3
:101DC000A004EFE05FD6B9A20327C4FE9307400248
:101DD000631AF700E1460146854513058006EFE0EA
:101DE0009FD40DAA0327C4FE93070004631AF700CB
:101DF000E146014685451305A004EFE0DFD219AAAC
:101E00000327C4FE93072004631AF700E146014646
:101E1000854513050002EFE01FD1EDA80327C4FE9E
:101E200093070005631AF700E1460146854513054F
:101E3000C004EFE05FCFF9A80327C4FE9307200595
:101E4000631AF700E1460146854513058008EFE077
:101E50009FCDC9A00327C4FE93070006631AF700AD
:101E6000E1460146854513050004EFE0DFCB5DA0A8
:101E70000327C4FE93072006631AF700E1460146D4
:101E8000854513050004EFE01FCA69A00327C4FEBF
:101E900093070007631AF700E146014685451305DD
:101EA0002004EFE05FC8BDA00327C4FE930720070E
:101EB0006319F700E146014685451945EFE0BFC6C5
:101EC00091A80327C4FE93074007631AF700E14671
:101ED000014685451305C008EFE0FFC425A8032788
:101EE000C4FE93070008631AF700E14601468545E2
:101EF00013054004EFE03FC331A80327C4FE930756
:101F000020086319F700E146014685451305E008FE
:101F1000EFE07FC1032784FE8547631AF70093062D
:101F20008004014681452945EFE0FFBFD5AA03277C
:101F300084FE8D47631BF7009306800401468145AC
:101F400013057002EFE03FBEE1AA032784FEC547F8
:101F5000631AF70093068004014681450D45EFE0C2
:101F60009FBC7DAA032784FECD47631BF700930621
:101F700080040146814513056006EFE0DFBA4DA2FB
:101F8000032784FE93071002631BF7009306800467
:101F9000014681451305B002EFE0FFB851A20327C7
:101FA00084FE93073002631BF7009306800401460A
:101FB00081451305B004EFE01FB79DA2032784FEFF
:101FC00093075002631BF700930680040146814586
:101FD00013059006EFE03FB5A1A2032784FE930707
:101FE0001004631BF7009306800401468145130526
:101FF000B004EFE05FB32DA2032784FE9307300403
:10200000631BF70093068004014681451305100207
:10201000EFE07FB131A2032784FE93071005631B15
:10202000F700930680040146814513052006EFE082
:102030009FAFFDA0032784FE93073005631BF700C5
:10204000930680040146814513059008EFE0BFAD7B
:10205000C1A8032784FE93071006631BF7009306AD
:1020600080040146814513051004EFE0DFAB4DA865
:10207000032784FE93073006631BF7009306800452
:10208000014681451305B008EFE0FFA951A80327D9
:1020900084FE93071007631BF70093068004014634
:1020A000814513053004EFE01FA89DA8032784FE97
:1020B00093073007631AF7009306800401468145B1
:1020C0001D45EFE05FA6A9A8032784FE93075007EC
:1020D000631BF70093068004014681451305D00871
:1020E000EFE07FA435A8032784FE93071008631B45
:1020F000F700930680040146814513055004EFE084
:102100009FA239A8032784FE93073008631AF700BB
:1021100093068004014681451305F008EFE0BFA057
:102120000100F240624405618280011122CE00105C
:102130002326A4FEAE87A305F4FE0100B56703279E
:10214000C4FE0A0793878772BA979C4383D7070018
:10215000C207C18393F70708F5D3B5670327C4FE09
:102160000A0793878772BA979C433E878347B4FEDA
:10217000C207C1832312F700010072440561828007
:10218000011106CE22CC00102326A4FE2324B4FE87
:102190002322C4FE29A8832784FE13871700232443
:1021A000E4FE83C70700BE850325C4FEBD3F832729
:1021B00044FE1387F7FF2322E4FEF1FF0100F24003
:1021C000624405618280011106CE22CC00102326D4
:1021D000A4FEAE87A305F4FEB5670327C4FE0A0775
:1021E00093878772BA979C433E878347B4FE3E86A7
:1021F000930550523A85EF40205EB7E700E09386A2
:1022000001830327C4FE369703470700BA9723804C
:1022100007408347B4FE81CF138701838327C4FE21
:10222000BA9783C707003E85EF20606919A8138716
:1022300001838327C4FEBA9783C707003E85EF203A
:10224000E0690100F240624405618280011122CE02
:1022500000102326A4FE2324B4FEB5670327C4FE82
:102260000A0793878772BA979C4383D70700C207F0
:10227000C18393F707028DC7B5670327C4FE0A071A
:1022800093878772BA979C4383D74700C207C1835D
:1022900013F7F70F832784FE2380E700854711A0FB
:1022A00081473E85724405618280797106D622D4C9
:1022B0000018232EA4FC232CB4FC232AC4FC2328BE
:1022C000D4FC85450545EF30B03E832504FD03254C
:1022D00044FDEFF0FFA4032744FD8947631CF7008A
:1022E000032704FD8D476317F70085451145EF303F
:1022F000407395A2032744FDC947631CF7000327D9
:1023000004FDCD476317F70085452145EF30607127
:1023100099A2032744FD930720026310F7020327C5
:1023200004FD93073002631AF7008545B7071400D0
:1023300013850701EF30E06E39AA032744FD9307A8
:1023400040026310F702032704FD93075002631A4B
:10235000F7008545B707140013850703EF30606C5D
:10236000DDA8032744FD93072004631DF70003271E
:1023700004FD930730046317F70085450565EF30CA
:10238000406AD1A8032744FD930720056310F70294
:10239000032704FD93073005631AF7008545B70747
:1023A000200013851700EF30C06775A0032744FD98
:1023B000930720066310F702032704FD93073006F6
:1023C000631AF7008545B717008013850780EF3043
:1023D000406551A0032744FD930720076312F702CD
:1023E000032704FD93073007631CF700B70701407C
:1023F000D44FB707014037074000558FD8CFA1A869
:10240000032744FD930740076312F702032704FDE7
:1024100093075007631CF700B7070140D44FB70775
:10242000014037078000558FD8CF35A0032744FDE2
:10243000930720086311F702032704FD9307300870
:10244000631BF700B7070140D44FB70701403707B8
:102450000002558FD8CF8327C4FD91E785451165CC
:10246000EF30102569A80327C4FD85476318F700DE
:10247000854537050200EF30102851A00327C4FD21
:1024800089476318F700854537050400EF30B0260B
:10249000BDA00327C4FD8D476318F70085453705A8
:1024A0000800EF305025A1A80327C4FD9147631809
:1024B000F700854537051000EF30F02389A003278A
:1024C000C4FD95476318F700854513050004EF30F8
:1024D000902235A00327C4FD99476318F70085456E
:1024E00013050008EF30302119A80327C4FD9D47CC
:1024F0006317F700854513050010EF30D01F8327C1
:1025000084FD2320F4FE231204FE231304FE23146F
:1025100004FE231604FEB1472315F4FEB567032716
:10252000C4FD0A0793878772BA979C433E87930737
:1025300004FEBE853A85EF40E000B5670327C4FD81
:102540000A0793878772BA979C4385453E85EF407B
:10255000A0220100B250225445618280411106C67A
:1025600022C40008938501840545CD310546938535
:1025700001841385018DEF10B01503A741848547B1
:102580006314F70683C7118493F7F70F13871700B7
:102590009376F70FA380D1843E879387418E3E9731
:1025A000814613864184BA851385018DEF1010236F
:1025B00083C7118413F7F70F8D4763F7E70283C7CB
:1025C000118493F7F70F1387C7FF9387418EBA974C
:1025D0001146BE85B56713854702EF802037AA876D
:1025E00081E7094723A2E1840100B240224441016E
:1025F0008280411106C622C4000893858184194552
:10260000EFF0DFC405469385818413854190EF1078
:10261000300C03A7C18485476314F70683C79184F0
:1026200093F7F70F138717009376F70FA384D184DE
:102630003E87938781913E9781461386C184BA85F0
:1026400013854190EF10901983C7918413F7F70F0A
:102650008D4763F7E70283C7918493F7F70F1387DA
:10266000C7FF93878191BA971146BE85B5671385D9
:102670004728EF80A02DAA8781E7094723A6E18498
:102680000100B240224441018280411106C622C4A9
:10269000000803A7818689476301F70203A78186A3
:1026A0008D476315F700EF00D07C01A803A7818652
:1026B00091476314F700EF1080150100B2402244E7
:1026C00041018280411106C622C4000803A7818609
:1026D00091476315F700EF10E01901A803A7818661
:1026E0008D476314F700EF00307F0100B2402244B1
:1026F00041018280011106CE22CC0010AA87A307D7
:10270000F4FEB5679387076EDC433E8785471CCB95
:10271000B5679387076EDC433E8785475CCBB5671B
:102720009387076E9C473E87930700025CCB8347E5
:10273000F4FEBE850545EFF04FBBB5679387076E86
:102740009C473E87930700021CCBB5679387076EB3
:10275000DC433E8785471CCBB5679387076EDC4318
:102760003E8785475CCB0100F24062440561828070
:10277000011106CE22CC0010AA8736872317F4FE5B
:10278000AE872316F4FEB2872315F4FEBA8723140E
:10279000F4FE83C70181C207C1830357E4FEB33748
:1027A000F70093F7F70F3E8713062005B56793856B
:1027B00047503A85EF10404783C71181C207C18354
:1027C0000357C4FEB337F70093F7F70F3E8713069E
:1027D0003005B567938547503A85EF10E04483C7CD
:1027E0000181C207C1830357A4FEB337F70093F7F3
:1027F000F70F3E8713064005B567938547503A8526
:10280000EF10804283C71181C207C183035784FE42
:10281000B337F70093F7F70F3E8713065005B567F8
:10282000938547503A85EF10204083A7C180BDE3D0
:102830001305A002C1358357E4FE93874703C207FF
:10284000C183BE850545EFF0AFAF8357A4FE9387E4
:102850004703C207C183BE850545EFF06FAE130580
:10286000B002493D8357C4FE93878702C207C183E4
:10287000BE850545EFF0CFAC835784FE9387870272
:10288000C207C183BE850545EFF08FAB1305C002BB
:10289000953581A203A7C18085476314F706130508
:1028A000A002893D8357E4FE93875703C207C18383
:1028B000BE850545EFF0CFA88357A4FE9387570345
:1028C000C207C183BE850545EFF08FA71305B0028F
:1028D00015358357C4FE93878702C207C183BE851F
:1028E0000545EFF0EFA5835784FE93878702C20763
:1028F000C183BE850545EFF0AFA41305C002DD3BE3
:10290000C9A803A7C18089476314F7061305A0026D
:10291000D5338357E4FE93878702C207C183BE8500
:102920000545EFF0EFA18357A4FE93878702C20706
:10293000C183BE850545EFF0AFA01305B0025D3B36
:102940008357C4FE93875703C207C183BE850545DD
:10295000EFF00F9F835784FE93875703C207C1830D
:10296000BE850545EFF0CF9D1305C002613395A0EC
:102970001305A00241338357E4FE93878702C20701
:10298000C183BE850545EFF0AF9B8357A4FE9387B7
:102990008702C207C183BE850545EFF06F9A130514
:1029A000B002893B8357C4FE93874703C207C183A4
:1029B000BE850545EFF0CF98835784FE9387470384
:1029C000C207C183BE850545EFF08F971305C0028E
:1029D00015330100F240624405618280797106D6A8
:1029E00022D44AD24ED052CE56CC5ACA5EC862C603
:1029F00066C4001883A7418713D617001308F00F89
:102A00009307F00F13072002930600028145054546
:102A1000EFE07FE7C1460146854513055004EFE02E
:102A20008F90C1460146854513054004EFE0AF8F06
:102A3000C1460146854513050002EFE0CF8EC14631
:102A4000054685451305F00FEFE0EF8D83A7C180A4
:102A50003E85412E03D7818083D7A180BE853A85EC
:102A6000D126B5679387076E9C473E87C1475CCBED
:102A700003A741878967938707F43357F7029307C2
:102A8000800CB307F7023E8C814C6285E685EFD05F
:102A9000DFA8B5679387076E9C473E87C1471CCB6D
:102AA00003A741878967938707F43357F702930792
:102AB0004006B307F7023E8B814B5A85DE85EFD087
:102AC000DFA513056003EFF0FFC203A74187896705
:102AD000938707F43357F70293074006B307F702CB
:102AE0003E8A814A5285D685EFD03FA383A7C18015
:102AF00091E781450545EFE05FFF25A803A7C18069
:102B000085476318F7009305000C0545EFE0FFFDCE
:102B10000DA003A7C18089476318F700930500073C
:102B20000545EFE09FFC31A09305000A0545EFE065
:102B3000DFFB1305A003EFF0FFBB95450545EFE074
:102B4000DFFA1305200BEFF0FFBAB1450545EFE0C2
:102B5000DFF9B1450545EFE05FF981450545EFE057
:102B6000DFF8930530030545EFE03FF893053003A8
:102B70000545EFE09FF71305700BEFF0BFB7930526
:102B800050030545EFE07FF61305B00BEFF09FB65D
:102B9000930570030545EFE05FF51305000CEFF0BA
:102BA0007FB59305C0020545EFE03FF41305200C07
:102BB000EFF05FB485450545EFE03FF31305300CBA
:102BC000EFF05FB3C9450545EFE03FF21305400C58
:102BD000EFF05FB2930500020545EFE01FF113052A
:102BE000600CEFF03FB1BD450545EFE01FF0130568
:102BF000000DEFF03FB09305400A0545EFE0FFEE12
:102C00009305100A0545EFE05FEE1305000EEFF0A7
:102C10007FAE9305000D0545EFE03FED914505457D
:102C2000EFE0BFECB5450545EFE03FECC545054598
:102C3000EFE0BFEBCD450545EFE03FEB9305B0027C
:102C40000545EFE09FEA9305F0030545EFE0FFE956
:102C5000930540050545EFE05FE99305C004054590
:102C6000EFE0BFE8E1450545EFE03FE8B545054544
:102C7000EFE0BFE7AD450545EFE03FE7FD45054522
:102C8000EFE0BFE6930530020545EFE01FE61305D0
:102C9000100EEFF03FA69305000D0545EFE0FFE4B1
:102CA00091450545EFE07FE4B1450545EFE0FFE3E1
:102CB000C5450545EFE07FE3CD450545EFE0FFE283
:102CC0009305C0020545EFE05FE29305F00305457B
:102CD000EFE0BFE1930540040545EFE01FE19305F8
:102CE00010050545EFE07FE09305F0020545EFE0B4
:102CF000DFDFFD450545EFE05FDFFD450545EFE022
:102D0000DFDE930500020545EFE03FDE930530026C
:102D10000545EFE09FDD13051002EFF0BF9D45452F
:102D2000EFF05F9D03A741878967938707F43357C7
:102D3000F702BA879207998F8E073E8981494A85A3
:102D4000CE85EFD08FFD13059002EFF0BF9A83D7A9
:102D5000A1803E8531280100B25022541259825977
:102D6000724AE24A524BC24B324CA24C45618280BD
:102D7000797106D622D40018AA87231FF4FC83C7D2
:102D800001813E8783C71181B307F7022326F4FE32
:102D900083C70181C207C183FD17139707014183D0
:102DA00083C71181C207C183FD17C207C183BE86D5
:102DB0003A8681450145EFF0BF9B21A88357E4FD8A
:102DC000BE850545EFE0DFD78327C4FEFD17232628
:102DD000F4FE8327C4FEFDF30100B2502254456186
:102DE0008280011122CE00102326A4FE0327C4FEF8
:102DF00023A6E1800327C4FE854763EAE7001307A3
:102E000070F82388E1804157A388E18001A84157E9
:102E10002388E180130770F8A388E18001007244E1
:102E200005618280011122CE0010AA872E87231708
:102E3000F4FEBA872316F4FE0357E4FE2394E180E0
:102E40000357C4FE2395E18001007244056182802E
:102E5000797106D622D40018AA87AE863287231F3E
:102E6000F4FCB687231EF4FCBA87A30DF4FC83C7D9
:102E70000181C207C1830357E4FDB337F70093F71D
:102E8000F70F3E871306E013B567938547503A85E1
:102E9000EF00905983C71181C207C1830357C4FD56
:102EA000B337F70093F7F70F3E871306F013B567B4
:102EB000938547503A85EF003057A30704FE5DA87D
:102EC0008347F4FE1397070141838357C4FDBA97E4
:102ED00093950701C1818357E4FD9D071396070170
:102EE00041828347F4FE1397070141838357C4FD52
:102EF000BA971397070141838357E4FDBA863E854D
:102F0000EFF01F878307B4FD938607FE8347F4FE27
:102F100035679206130787743697BA9783C70700F9
:102F2000A306F4FE230704FE25A88347D4FE858B61
:102F300081CB83D78180BE850545EFE07FC039A076
:102F400083D7A180BE850545EFE09FBF8347D4FEB0
:102F50008583A306F4FE8347E4FE85072307F4FE7A
:102F60000347E4FE9D47E3F2E7FC8347F4FE850751
:102F7000A307F4FE0347F4FEBD47E3F3E7F40100C3
:102F8000B250225445618280797106D622D400184D
:102F9000AA872E87232CC4FC231FF4FCBA87231E88
:102FA000F4FC83C70181C207C1830357E4FDB33733
:102FB000F70093F7F70F3E871306D015B567938593
:102FC00047503A85EF00504683C71181C207C1833D
:102FD0000357C4FDB337F70093F7F70F3E87130687
:102FE000E015B567938547503A85EF00F043231706
:102FF00004FE81A08357E4FE8E07139707014183E7
:103000008357E4FDBA9793960701C1828357E4FE84
:10301000032784FDBA97038707008357C4FD3A86C8
:10302000BE853685EFF0DFE28357E4FE8507231780
:10303000F4FE8357E4FE032784FDBA9783870700D5
:10304000D5FB0100B2502254456182805D7186C675
:10305000A2C480082328C4FA232AD4FABA863E8759
:10306000AA87231FF4FAAE87231EF4FAB687A30DAE
:10307000F4FABA87230DF4FA83C70181C207C1832A
:103080000357E4FBB337F70093F7F70F3E871306B8
:10309000F021B567938547503A85EF00F03883C734
:1030A0001181C207C1830357C4FBB337F70093F7FD
:1030B000F70F3E8713060022B567938547503A8580
:1030C000EF0090360347A4FB994763F5E700994763
:1030D000230DF4FA0347B4FBA94763F5E700A947BA
:1030E000A30DF4FA01468146032504FB832544FB26
:1030F000EF50300BAA8763D20702130784FC032624
:1031000004FB832644FBB5679385C7553A85EF10CA
:10311000001AAA87A307F4FE3DA0930784FC138737
:103120001700032604FB832644FBB5679385C75528
:103130003A85EF10C017AA87A307F4FE8347F4FE71
:103140008507A307F4FE8347F4FEE51793F7F70F0F
:103150002306F4FE0347C4FE8347B4FBB307F740DE
:1031600093F7F70FFD1793F7F70F2307F4FE0347C5
:10317000C4FE8347A4FBBA9793F7F70F850793F72D
:10318000F70FA306F4FE25A88307D4FE130704FF58
:10319000BA9713070002238CE7FC8307D4FE93F74A
:1031A000F70F850793F7F70FA306F4FE8307E4FEF6
:1031B00093F7F70F850793F7F70F2307F4FE8307BD
:1031C000E4FEE3C307FC01468146032504FB832597
:1031D00044FBEF50007DAA8763DC07008307E4FE11
:1031E000130704FFBA971307D002238CE7FC11A83A
:1031F0008307E4FE130704FFBA9713070002238C2A
:10320000E7FC8307D4FE130704FFBA97238C07FC5F
:10321000930684FC0357C4FB8357E4FB3686BA85C8
:103220003E85EFF07FD60100B64026446161828082
:10323000011106CE22CC4ACA4EC80010A30704FED4
:103240009307F00F2316F4FE01469305B00613858D
:103250008193EFE00FB21D46E54513858193EFE0C2
:103260004FB1B9A08357C4FEC207C187C207C1834B
:10327000FD17C207C183C207C1872316F4FEE545C7
:1032800013858193EFE00FB5AA87A307F4FE03A788
:1032900041878967938707F43357F702BA878A070C
:1032A000BA9786073E8981494A85CE85EFD0EFA639
:1032B0000347F4FE9D476307F7008357C4FEC20728
:1032C000C187CDF38357C4FEC207C18763D407000B
:1032D000854711A081473E85F24062445249C24968
:1032E00005618280411106C622C44AC24EC0000850
:1032F000130750029306300213064006930580061A
:1033000013858193EFD0FFB703A741878967938720
:1033100007F43357F70293074006B307F7023E89D5
:1033200081494A85CE85EFD04F9FEFF07FF0AA8785
:1033300091CF9306F004B56713860756B56793855A
:10334000475B0145EF00B0208547B9A801469305CA
:10335000B00613858193EFE0CFA11D46E5451385A7
:103360008193EFE00FA11146E94513858193EFE0CA
:103370004FA06146ED4513858193EFE08F9F414655
:10338000F14513858193EFE0CF9E01469305A0069A
:1033900013858193EFE0EF9D094693057003138534
:1033A0008193EFE00F9D81473E85B2402244124950
:1033B000824941018280397106DE22DC4ADA4ED828
:1033C00052D656D45AD25ED080002326A4FC93074E
:1033D0000008231BF4FC238E0184231F04FC61A03E
:1033E000930750FA230CF4FC8357E4FD8A07032764
:1033F000C4FCBA978397070093F7F70FA30CF4FC6C
:103400008357E4FD8A070327C4FCBA9783972700F4
:10341000231EF4FC8357C4FDA183C207C18393F725
:10342000F70F230DF4FC8357C4FD93F7F70FA30D9B
:10343000F4FC930784FD1146BE851145EFE05FD48F
:1034400003A741878967938707F4B357F702860775
:103450003E8B814B5A85DE85EFD02F8C8357E4FD60
:103460008507231FF4FC0357E4FDA547E3FAE7F6BD
:1034700031A803A741878967938707F4B357F702F9
:103480003E8A814A5285D685EFD02F8983C7C18570
:1034900093F7F70F8DE3835764FDC207C187139736
:1034A000070141837D174207418342074187231B60
:1034B000E4FCE340F0FC93070008231BF4FC238E9C
:1034C000018431A803A741878967938707F4B3571D
:1034D000F7023E8981494A85CE85EFD00F849387D4
:1034E000818503C717009307F00F631AF7009387CE
:1034F000818503C727009307F00F6302F702835704
:1035000064FDC207C1871397070141837D174207F6
:10351000418342074187231BE4FCE345F0FA8357CC
:1035200064FDC207C1876344F000854711A081474D
:103530003E85F25062545259C259325AA25A125B15
:10354000825B21618280797106D622D44AD24ED024
:103550000018232EA4FC930700082313F4FE23175E
:1035600004FEDDA8930750FA2304F4FEC557A30414
:10357000F4FE8357E4FE8A070327C4FDBA978397B6
:1035800007002316F4FE8357C4FEA183C207C1833C
:1035900093F7F70F2305F4FE8357C4FE93F7F70F55
:1035A000A305F4FE930784FE1146BE851145EFE0A6
:1035B0003FBD930700082313F4FE31A803A74187FA
:1035C0008967938707F4B357F7023E8981494A8593
:1035D000CE85EFC09FF483C7C18593F7F70F8DE3C6
:1035E000835764FEC207C1871397070141837D1784
:1035F00042074183420741872313E4FEE340F0FC86
:10360000835764FEC207C1876347F0008357E4FE17
:1036100099E3854781A8238E01849387818583C799
:103620001700A20793960701C1869387818583C7F8
:1036300027001397070141878357E4FE8A07032673
:10364000C4FDB297558F420741872391E700835706
:10365000E4FE85072317F4FE0357E4FEA147E3F3D6
:10366000E7F081473E85B250225412598259456194
:103670008280411106C622C4000883C7B1853E87F7
:1036800093878185BA97BE851145EFE03FBCAA8735
:1036900081CB83C7B185850713F7F70FA38DE1842D
:1036A00003C7B1858547631AF70003C78185930770
:1036B000500A6304F700A38D018403C7B1858D47C9
:1036C0006317F700A38D01840547238EE184010071
:1036D000B240224441018280411122C6000803A762
:1036E0000185B707055098C70547238AE184B707C6
:1036F000055083C7070013F7F70FB7070550136787
:1037000017001377F70F2380E700010032444101CF
:103710008280011106CE22CC00100D45492A930665
:103720001005130600058967938507581145EFE0DA
:10373000DFB785451145EFE01FA90145EF10601F78
:10374000238E0184B707002013858702EFF0BFDFC7
:10375000AA8791CB1306E014B5679385075D0145F1
:10376000E121854745A0238E0184B70700201385FA
:103770000700EFF05FC4AA8791CB13065015B56719
:103780009385075D01454D218547ADA8238E0184B2
:10379000B707002013858702EFF0FFDAAA8791CBE5
:1037A0001306D015B5679385075D0145B529854793
:1037B00091A8EF10201A91473EC495473EC2994701
:1037C0003EC093089002130880029307600213071B
:1037D000B0049306900413068004A9452545EFC064
:1037E0009FD9370700201307873B23A8E18403A74D
:1037F0000185854699671386078281453A85EFC022
:10380000BFE781473E85F2406244056182804111F5
:1038100006C622C4000883C731863E879387018687
:10382000BA97BE851145EFE07FA2AA8781CB83C7F7
:103830003186850713F7F70FA381E18603C7318629
:103840008547631AF70003C701869307500A63048C
:10385000F700A381018603C731868D476317F70000
:10386000A381018605472382E1860100B2402244FC
:1038700041018280411122C6000803A70185B707D4
:10388000055098C70547A382E186B707055083C74F
:10389000070013F7F70FB7070550136717001377E3
:1038A000F70F2380E70001003244410182800111BB
:1038B00022CE00102326A4FE0327C4FE23A4E18603
:1038C0000100724405618280411106C622C40008CD
:1038D000938501870545EFE07F970546938501872E
:1038E000B7670020138587BDE5230100B24022445D
:1038F00041018280011106CE22CC00102326A4FEB5
:103900000327C4FE23AAE18619280325C4FE5920F3
:10391000EF1040010100F2406244056182804111D4
:1039200022C60008B71702409843B7170240136732
:10393000170098C3B7170240D443B71702403707A0
:10394000FFF8758FD8C3B71702409443B7170240EA
:103950003707F7FE7D17758F98C3B717024094435A
:10396000B71702403707FCFF7D17758F98C3B7174D
:103970000240D443B7170240370781FF7D17758F88
:10398000D8C3B717024037079F0098C701003244D9
:1039900041018280797122D60018232EA4FC2326AF
:1039A00004FE232404FEB71702409443B7170240D5
:1039B0004167558F98C3B71702409843B707020075
:1039C000F98F2324F4FE8327C4FE85072326F4FE03
:1039D000832784FE99E70327C4FE93070050E31C66
:1039E000F7FCB71702409843B7070200F98F89C761
:1039F00085472324F4FE19A0232404FE032784FE14
:103A000085476315F71EB72702409843B727024042
:103A10001367070198C3B72702409843B7270240AE
:103A2000719B98C3B727024094438327C4FD138733
:103A3000F7FFB7376E0193870760B357F70213F7A5
:103A40007700B7270240558F98C337170240B71742
:103A500002405843D8C337170240B71702405843B3
:103A6000D8C337170240B71702405843D8C30327BB
:103A7000C4FDB7177A0093870720631BF702B717B7
:103A80000240D843B7170240719BD8C3B717024012
:103A9000D843B717024013671700D8C30100B71700
:103AA0000240DC4313F7C7009147E31AF7FE81A2F7
:103AB000B7170240D443B71702403707C1FF7D173D
:103AC000758FD8C30327C4FDB74795089387074070
:103AD000631BF700B7170240D443B7170240416792
:103AE000558FD8C355A80327C4FDB7172707938759
:103AF00007E0631CF700B7170240D443B717024032
:103B000037073900558FD8C341A80327C4FDB7E74D
:103B1000B80593870780631CF700B7170240D443AA
:103B2000B717024037072900558FD8C3B5A0032720
:103B3000C4FDB7A74A0493870720631CF700B71793
:103B40000240D443B717024037071D00558FD8C332
:103B5000A1A00327C4FDB777DC02938707C0631CCD
:103B6000F700B7170240D443B717024037071100D8
:103B7000558FD8C315A00327C4FDB7376E019387AF
:103B80000760631BF700B7170240D443B717024022
:103B900037070500558FD8C3B71702409443B717AE
:103BA000024037070001558F98C30100B717024044
:103BB0009843B7070002F98FF5DBB7170240D843E7
:103BC000B7170240719BD8C3B7170240D843B71745
:103BD000024013672700D8C30100B7170240DC4337
:103BE00013F7C700A147E31AF7FE11A001A0325452
:103BF00045618280411106C622C400089306100266
:103C000013060002F167938507200945EFE0EFE90D
:103C100085450945EFE02FDB0547238CE186010050
:103C2000B240224441018280397106DE22DC4ADA48
:103C30004ED852D656D45AD25ED062CE66CC8000D0
:103C4000AA872324B4FC2322C4FCA307F4FC8347E3
:103C5000F4FC6391070E83C7818791CB032644FC54
:103C6000832584FCB56713858762EF60F048EF0019
:103C7000704EC1460546854513055008EFC0BFEAA2
:103C800003A741878967938707F43357F7029307A0
:103C90004006B307F7023E8C814C6285E685EFC093
:103CA000DF87C1460546854513056008EFC0BFE7BD
:103CB00003A741878967938707F43357F702930770
:103CC0004006B307F7023E8B814B5A85DE85EFC075
:103CD000DF84C1460146854513055008EFC0BFE4A7
:103CE00003A741878967938707F43357F702930740
:103CF0004006B307F7023E8A814A5285D685EFC057
:103D0000DF81C1460146854513056008EFC0BFE16C
:103D100003A741878967938707F43357F70293070F
:103D20004006B307F7023E8981494A85CE85EFC038
:103D3000CFFE81B70100F25062545259C259325A33
:103D4000A25A125B825B724CE24C216182800111AB
:103D500006CE22CC0010AA872324B4FE2322C4FE60
:103D60002320D4FEA307F4FE8347F4FE85E383C734
:103D7000818791CF832684FE032604FE832544FE9B
:103D8000B56713858764EF60303711A00100F240FA
:103D9000624405618280797106D622D40018232EF0
:103DA000A4FC232CB4FC232AC4FC232604FEA9A0D3
:103DB0000100B567938787729C47930500043E8591
:103DC000EF20B030AA87F5D7B567938787729C47F5
:103DD000BE86832784FD13871700232CE4FC83878A
:103DE0000700C207C183BE853685EF20302B8327AD
:103DF000C4FE85072326F4FE0327C4FE832744FD63
:103E0000E348F7FA832744FD3E85B25022544561CA
:103E10008280011122CE00102326A4FE2324B4FEAA
:103E20008327C4FED843832784FE3E978327C4FE9E
:103E3000D8C319A88327C4FED8438327C4FE9C4B4C
:103E40001D8F8327C4FED8C38327C4FE984B8327C6
:103E5000C4FEDC43E3F0E7FE0100724405618280AA
:103E6000011122CE00102326A4FE2324B4FE8327B2
:103E7000C4FE9847832784FE3E978327C4FE98C7D5
:103E800019A88327C4FE98478327C4FE9C4B1D8F27
:103E90008327C4FE98C78327C4FE984B8327C4FE9C
:103EA0009C47E3F0E7FE0100724405618280011146
:103EB00022CE00102326A4FE8327C4FE984B83271E
:103EC000C4FEDC47B307F7403E857244056182803B
:103ED000797106D622D40018232EA4FC232CB4FC1E
:103EE000232AC4FC8327C4FDDC47032744FD6371F8
:103EF000F70EEF0030268327C4FD984B8327C4FDBF
:103F0000DC43B307F7402326F4FE032744FD832751
:103F1000C4FE63FDE7068327C4FD98438327C4FDE1
:103F2000DC43BA970326C4FE832584FD3E85EF500B
:103F3000F0718325C4FE0325C4FDEFF09FED032738
:103F400084FD8327C4FEBA97232CF4FC8327C4FD89
:103F500098438327C4FDDC43B306F700032744FDE1
:103F60008327C4FEB307F7403E86832584FD36854C
:103F7000EF50D06D032744FD8327C4FEB307F740FD
:103F8000BE850325C4FDEFF0DFE82DA08327C4FD27
:103F900098438327C4FDDC43BA97032644FD832559
:103FA00084FD3E85EF50906A832544FD0325C4FDC2
:103FB000EFF03FE68327C4FDD847832744FD1D8FDC
:103FC0008327C4FDD8C70145EF00B016814711A073
:103FD00089473E85B250225445618280797106D668
:103FE00022D426D20018232EA4FC232CB4FC232A8E
:103FF000C4FC2328D4FCA30704FE832744FD844388
:104000000325C4FDEFF0BFEAAA8763FF970083276B
:10401000C4FD984B8327C4FDDC471D8F832744FDD7
:1040200098C38547A307F4FE8327C4FD984B8327D5
:10403000C4FD9C47B307F7402324F4FE832744FDC7
:104040009C43032784FE6366F702832784FDBDC774
:104050008327C4FD98438327C4FD9C473E9783274D
:1040600044FD9C433E86BA85032584FDEF50105ED7
:10407000B1A0832784FDB9C38327C4FD9843832758
:10408000C4FD9C47BA97032684FEBE85032584FDA4
:10409000EF50D05B032784FD832784FEB306F7002F
:1040A0008327C4FD8C43832744FD9843832784FEE4
:1040B000B307F7403E863685EF505059832704FDFD
:1040C00085EBEF003009832744FD9C43BE85032523
:1040D000C4FDEFF0FFD88327C4FDD847832744FDF4
:1040E0009C433E978327C4FDD8C70145EF00700469
:1040F0008347F4FE99C38D4711A081473E85B25096
:104100002254925445618280797122D60018232E60
:10411000A4FC232CB4FCB2873687A30BF4FCBA872B
:10412000230BF4FCA30304FE230304FE834774FD66
:10413000A5CB8327C4FD2326F4FE8327C4FE63D8C2
:1041400007008327C4FEB307F0402326F4FE83470D
:1041500064FD0327C4FEB367F70293F7F70F938755
:10416000070393F7F70F139787016187832784FD70
:104170002380E700834764FD0327C4FEB347F702AB
:104180002326F4FE834764FE85072303F4FE83277A
:10419000C4FEC9C3832784FD8507232CF4FC45BFD7
:1041A0008327C4FD2324F4FE834764FD032784FE94
:1041B000B377F702A303F4FE034774FEA54763F940
:1041C000E700834774FE93877703A303F4FE39A0C7
:1041D000834774FE93870703A303F4FE030774FE6B
:1041E000832784FD2380E700834764FD032784FE43
:1041F000B357F7022324F4FE834764FE85072303A5
:10420000F4FE832784FE89CB832784FD8507232C36
:10421000F4FC59BF010011A00100834764FE3E85F4
:10422000325445618280797122D60018232EA4FC75
:10423000232CB4FC232604FE85A0032784FD8327BA
:10424000C4FEB307F740FD170327C4FDBA9783C721
:104250000700A305F4FE0327C4FD8327C4FE3E9791
:10426000832684FD8327C4FEB387F640FD1783268B
:10427000C4FDB697030707002380E7000327C4FDAA
:104280008327C4FEBA970347B4FE2380E700832741
:10429000C4FE85072326F4FE832784FD8583032738
:1042A000C4FEE36CF7F801003254456182807171FD
:1042B00006C722C50009232EA4F6232CB4F610C489
:1042C00054C418C85CC8232C0401232E14012326CF
:1042D00004FE93070402A1172326F4FA2DAB8327CB
:1042E00084F783C70700A301F4FE030734FE930796
:1042F00050026319F74E832784F78507232CF4F6C1
:10430000832784F7838707009387B7FD130730055A
:10431000636DF74E13972700B967938787D3BA97D2
:104320009C4382878327C4FA138747002326E4FA35
:104330009C432301F4FE8327C4F7034724FE238014
:10434000E7008327C4F78507232EF4F68327C4FEEE
:1043500085072326F4FE5DA98327C4FA1387470047
:104360002326E4FA9C43232EF4FC8327C4FD130781
:1043700084F8A9460546BA853E85EFF0FFD8AA879E
:10438000A305F4FE8327C4FD63D007028347B4FE70
:10439000130704FFBA971307D002238CE7F883476B
:1043A000B4FE8507A305F4FE0347B4FE930784F823
:1043B000BA853E85EFF03FE70347B4FE930784F8E4
:1043C0003A86BE850325C4F7EF5050288347B4FED4
:1043D0000327C4F7BA97232EF4F68347B4FE0327C6
:1043E000C4FEBA972326F4FE15A18327C4FA9D07BD
:1043F000E19B138787002326E4FA03A847009C4328
:104400002328F4FC232A04FD032504FD832544FD11
:10441000EF50E023AA873E87930784F8A946054614
:10442000BE853A85EFF05FCEAA872305F4FE0146EC
:104430008146032504FD832544FDEF408056AA876D
:1044400063D007028347A4FE130704FFBA9713073C
:10445000D002238CE7F88347A4FE85072305F4FEEA
:104460000347A4FE930784F8BA853E85EFF0BFDBCF
:104470000347A4FE930784F83A86BE850325C4F754
:10448000EF50D01C8347A4FE0327C4F7BA97232E0E
:10449000F4F68347A4FE0327C4FEBA972326F4FE4E
:1044A000032504FD832544FDEF50601AAA873E854D
:1044B000EF506020AA872E883E86C286032504FD21
:1044C000832544FDEF40D024AA872E883E85C285EF
:1044D000B56703A6876783A6C767EF40E057AA873B
:1044E0002E882328F4FC232A04FD01468146032557
:1044F00004FD832544FDEF404039AA878DC703257D
:1045000004FD832544FDEF508014AA873E8793075E
:1045100084F8A9460546BE853A85EFF0FFBEAA8716
:104520002305F4FE99A893070003A306F4F8830774
:10453000D4F82306F4F88307C4F8A305F4F8830736
:10454000B4F82305F4F88307A4F8A304F4F8830768
:1045500094F82304F4F899472305F4FE39A8834717
:10456000A4FE130704FFBA9713070003238CE7F890
:104570008347A4FE85072305F4FE0347A4FE954761
:10458000E3FFE7FC8347A4FE130704FFBA97130772
:10459000E002238CE7F88347A4FE85072305F4FE99
:1045A0000347A4FE930784F8BA853E85EFF0BFC7A2
:1045B0000347A4FE930784F83A86BE850325C4F713
:1045C000EF50D0088347A4FE0327C4FEBA972326E2
:1045D000F4FE2DAC8327C4FA138747002326E4FAA0
:1045E0009C432326F4FC930784F8A9460146BE8524
:1045F0000325C4FCEFF05FB1AA87A305F4FC0347D1
:10460000B4FC930784F8BA853E85EFF0DFC1034719
:10461000B4FC930784F83A86BE850325C4F7EF50AF
:10462000F0028347B4FC0327C4F7BA97232EF4F6AD
:104630008347B4FC0327C4FEBA972326F4FEF9A2ED
:104640008327C4FA138747002326E4FA9C432322D6
:10465000F4FC930784F8A1460146BE85032544FC7B
:10466000EFF09FAAAA87A301F4FC034734FC930749
:1046700084F8BA853E85EFF01FBB034734FC9307EF
:1046800084F83A86BE850325C4F7EF50207C834723
:1046900034FC0327C4F7BA97232EF4F6834734FC7F
:1046A0000327C4FEBA972326F4FE8DA28327C4FAFB
:1046B000138747002326E4FA9C43232EF4FA93073A
:1046C00084F8C1460146BE850325C4FBEFF0DFA395
:1046D000AA87A30DF4FA0347B4FB930784F8BA85BD
:1046E0003E85EFF05FB40347B4FB930784F83A8646
:1046F000BE850325C4F7EF5060758347B4FB0327DD
:10470000C4F7BA97232EF4F68347B4FB0327C4FEFD
:10471000BA972326F4FEDDA88327C4FA138747003F
:104720002326E4FA9C432322F4FE05A8832744FEB3
:10473000038707008327C4F72380E7008327C4F794
:104740008507232EF4F68327C4FE85072326F4FE6F
:10475000832744FE85072322F4FE832744FE8387B4
:104760000700E9F765A08327C4FA138747002326CB
:10477000E4FA9C43232AF4FA930784F8C1460146DD
:10478000BE85032544FBEFF03F98AA87A309F4FAFE
:10479000930784F8A1453E85EFF0FFA8930784F8BE
:1047A0002146BE850325C4F7EF50406A8327C4F72E
:1047B000A107232EF4F68327C4FEA1072326F4FEC7
:1047C000B1A08327C4F7130750022380E700832793
:1047D000C4F78507232EF4F68327C4FE8507232616
:1047E000F4FE2DA0832784F7038707008327C4F7EF
:1047F0002380E7008327C4F78507232EF4F6832759
:10480000C4FE85072326F4FE11A00100832784F748
:104810008507232CF4F6832784F783870700E3902A
:1048200007AC8327C4FE3E85BA402A444D6182808E
:10483000011122CE00102326A4FE8327C4FEFD8B87
:104840000547B316F70037E700E08327C4FE9583DA
:10485000938707048A07BA9794C3010072440561DD
:104860008280011122CE00102326A4FE8327C4FEDD
:10487000FD8B0547B316F70037E700E08327C4FE3A
:104880009583938707068A07BA9794C301007244F9
:1048900005618280011122CE00102326A4FEAE877E
:1048A000A305F4FE37E700E08327C4FEBA97034769
:1048B000B4FE2380E740010072440561828001114B
:1048C00006CE22CC00102326A4FE0325C4FEEFF062
:1048D0003FF60100F240624405618280011106CE7C
:1048E00022CC00102326A4FE0325C4FEEFF07FF7A0
:1048F0000100F240624405618280011106CE22CCA3
:1049000000102326A4FEAE87A305F4FE8347B4FE61
:10491000BE850325C4FEEFF0FFF70100F2406244BC
:1049200005618280411122C6000801003244410124
:104930008280011106CE22CC0010AA87A307F4FEC4
:104940008347F4FE99E3EFB01F8C0100F24062440C
:1049500005618280011106CE22CC0010EFB05F8A83
:10496000EF20D06B2326A4FE8327C4FE3E85F240B1
:10497000624405618280411122C6000893055052AD
:10498000B747014013850780EF109078AA8789CB3D
:1049900093055052B747014013850780EF20600709
:1049A00001003244410173002030411122C6000849
:1049B00093055052B747004013850740EF105075DC
:1049C000AA8785CB03A7C18685476315F700EFE06B
:1049D000BFEF01A803A7C18689476314F700EFD092
:1049E000FFB793055052B747004013850740EF20AB
:1049F000400201003244410173002030411122C6BF
:104A0000000893055052B757004013850780EF10F8
:104A10003070AA8789CB93055052B7570040138551
:104A20000780EF10107F01003244410173002030F5
:104A3000411122C6000893055052B7570040138514
:104A400007C0EF10F06CAA8789CB93055052B75777
:104A50000040138507C0EF10D07B010032444101B4
:104A600073002030411122C600089305505237557B
:104A70000040EF10F069AA8789CBEFD01FC19305E2
:104A8000505237550040EF10D078010032444101B8
:104A900073002030411122C6000893055052B727F9
:104AA000004013850780EF10B066AA8789CB930575
:104AB0005052B727004013850780EF109075010012
:104AC0003244410173002030411122C60008930591
:104AD0005052B7270040138507C0EF107063AA87B4
:104AE0008DC703A7C18685476309F70003A7C18661
:104AF00089476314F700EFD0DFAF93055052B72713
:104B00000040138507C0EF10D0700100324441010E
:104B100073002030411122C60008930550523725FA
:104B20000040EF10F05EAA8799C7930550523725D1
:104B30000040EF10106E010032444101730020303C
:104B4000411122C60008B707055083C7070193F734
:104B5000F70F918B85C3EFD0FFB6B707055083C71A
:104B6000070113F7F70FB70705506D9B1377F70F82
:104B70002388E700010032444101730020304111D5
:104B800022C600080545EF00503C2A87854763157B
:104B9000F7000545EF00D0400100324441017300A9
:104BA0002030411122C600080945EF00103A2A873B
:104BB00085476315F7000945EF00903E0100324438
:104BC000410173002030411122C600081145EF0059
:104BD000D0372A8785476315F7001145EF00503C11
:104BE00001003244410173002030411122C6000807
:104BF0002145EF0090352A8785476315F700214549
:104C0000EF00103A0100324441017300203041119D
:104C100022C600084145EF0050332A8785476315B7
:104C2000F7004145EF00D0370100324441017300E5
:104C30002030411122C6000813050002EF00F030B9
:104C40002A8785476316F70013050002EF005035E9
:104C500013050004EF00702F2A8785476316F700BD
:104C600013050004EF00D03313050008EF00F02D0A
:104C70002A8785476316F70013050008EF005032B6
:104C800013050010EF00702C2A8785476316F70084
:104C900013050010EF00D03013050020EF00F02ABC
:104CA0002A8785476316F70013050020EF00502F71
:104CB00001003244410173002030411122C6000836
:104CC00013050040EF0070282A8785476316F70018
:104CD00013050040EF00D02C856713850780EF0097
:104CE000D0262A8785476317F700856713850780D5
:104CF000EF00102B0565EF0050252A8785476315C7
:104D0000F7000565EF00D0290965EF0010242A8718
:104D100085476315F7000965EF0090281165EF00DE
:104D2000D0222A8785476315F7001165EF005027C9
:104D30002165EF0090212A8785476315F7002165DB
:104D4000EF00102601003244410173002030411170
:104D500022C600088545B7370140138507C0EF100C
:104D60008074AA8781CB8545B7370140138507C07A
:104D7000EF10607A0100324441017300203041118C
:104D800022C60008854537050040EF10C071AA878C
:104D900091C7854537050040EF10E07701003244A8
:104DA000410173002030411122C600088545B70734
:104DB000004013850740EF10006FAA8781CB85451F
:104DC000B707004013850740EF10E074010032443C
:104DD000410173002030411122C600088545B717F4
:104DE000004013850780EF10006CAA8781CB8545B2
:104DF000B717004013850780EF10E07101003244BF
:104E0000410173002030411122C600088545B717C3
:104E10000040138507C0EF100069AA8781CB854544
:104E2000B7170040138507C0EF10E06E0100324451
:104E3000410173002030411122C600088545371515
:104E40000040EF104066AA8791C78545371500409E
:104E5000EF10606C010032444101730020304111B9
:104E600022C600088545B717004013850740EF109C
:104E70008063AA8781CB8545B7170040138507401B
:104E8000EF1060690100324441017300203041118C
:104E900022C600088545B737014013850740EF104B
:104EA0008060AA8781CB8545B737014013850740CD
:104EB000EF1060660100324441017300203041115F
:104EC00022C600088545B7570140138507C0EF107B
:104ED000805DAA8781CB8545B7570140138507C000
:104EE000EF10606301003244410173002030411132
:104EF00022C60008854537550140EF10C05AAA87E1
:104F000091C7854537550140EF10E06001003244FC
:104F1000410173002030411122C6000801003244D3
:104F2000410173002030411122C6000801A0411147
:104F300006C622C40008EFF0FFA1B7479508138505
:104F40000740EFE03F9BEFE0FFCAEF20D00EEFE01D
:104F50006FB9C1460546854513055008EFB0BFBC83
:104F6000EFE02FFBC1460546854513056008EFB00D
:104F70009FBBEF205030EFD07FA695450145EFB0A5
:104F8000FFD3A9450545EFB07FD3930540060945FA
:104F9000EFB0DFD20145EFF0DF990D45EF20301D76
:104FA0002A878547631CF70803A741828547630664
:104FB000F704054723A2E182C1671385F7FFEFD00D
:104FC0003FDBB5671386076881450145EFD0DFFBFE
:104FD000B5671386C76885450145EFD0FFFAB56709
:104FE0001386076989450145EFD01FFAB567138617
:104FF00047698D450145EFD03FF981450145EF20D7
:10500000502AAA873E85EF4050522A86AE868947AD
:10501000154781450145EFE06F8381450145EF204C
:105020007030AA873E85EF4050502A86AE86894769
:105030001547C1450145EFE06F8185B70D45EF206C
:1050400010132A878947631CF70803A74182854705
:105050006306F704054723A2E182C1671385F7FFC2
:10506000EFD01FD1B5671386076881450145EFD0A2
:10507000BFF1B5671386C76885450145EFD0DFF0FE
:10508000B5671386076989450145EFD0FFEFB5671E
:10509000138647698D450145EFD01FEF81450145D6
:1050A000EF203020AA873E85EF4030482A86AE8622
:1050B0008947154781450145EFD05FF98145014595
:1050C000EF205026AA873E85EF4030462A86AE86DE
:1050D00089471547C1450145EFD05FF77DBD0D45B7
:1050E000EF20F0082A878D47E319F7EA03A74182EA
:1050F00085476306F704054723A2E182C16713854C
:10510000F7FFEFD0FFC6B5671386076881450145F5
:10511000EFD09FE7B5671386C76885450145EFD097
:10512000BFE6B5671386076989450145EFD0DFE51E
:10513000B567138647698D450145EFD0FFE481458A
:105140000145EF201016AA873E85EF40103E2A86C3
:10515000AE868947154781450145EFD03FEF814530
:105160000145EF20301CAA873E85EF40103C2A867F
:10517000AE8689471547C1450145EFD03FED31BDAA
:1051800001A001A001A001A001A001A001A001A017
:1051900001A001A001A001A001A001A001A001A007
:1051A00001A001A001A001A001A001A001A001A0F7
:1051B00001A001A001A001A001A001A001A001A0E7
:1051C00001A001A001A001A001A001A001A001A0D7
:1051D00001A001A001A001A001A001A001A001A0C7
:1051E00001A001A001A001A001A001A001A001A0B7
:1051F00001A001A001A001A001A001A001A001A0A7
:1052000001A001A001A001A001A001A001A001A096
:1052100001A001A001A001A001A001A001A001A086
:1052200001A001A001A001A001A001A001A001A076
:1052300001A001A001A001A001A001A001A0739004
:10524000123497C1FF1F9381E18217B1002013012F
:1052500061DB179500001305253097B5FF1F938577
:1052600065DA1386018463FAC5008322050023A052
:10527000550011059105E3EAC5FE138501849715D4
:105280000020938525976377B5002320050011053D
:10529000E36DB5FEFD42739002BCFD427390428007
:1052A000B78200009382828873A0023097B2FFFF1A
:1052B0009382C2D893E2320073905230EF004001E3
:1052C000970200009382E2C673901234730020307C
:1052D000411106C622C40008B71702409843B71709
:1052E00002401367170098C3B7170240D443B7179B
:1052F00002403707FFF8758FD8C3B71702409443B1
:10530000B71702403707F7FE7D17758F98C3B71799
:1053100002409443B71702403707FCFF7D17758F93
:1053200098C3B7170240D443B7170240370781FF2D
:105330007D17758FD8C3B717024037079F0098C7EE
:1053400031200100B240224441018280411106C651
:1053500022C4000831200100B24022444101828071
:10536000011122CE0010232604FE232404FEB717C9
:1053700002409443B71702404167558F98C3B7174F
:1053800002409843B7070200F98F2324F4FE8327D5
:10539000C4FE85072326F4FE832784FE99E70327AE
:1053A000C4FE93070050E31CF7FCB7170240984374
:1053B000B7070200F98F89C785472324F4FE19A097
:1053C000232404FE032784FE85476318F70EB727BE
:1053D00002409843B72702401367070198C3B727D5
:1053E00002409843B7270240719B98C3B7270240F9
:1053F0009843B72702401367270098C33717024026
:10540000B71702405843D8C337170240B7170240B6
:105410005843D8C337170240B71702405843D8C380
:10542000B7170240D443B71702403707C1FF7D17B3
:10543000758FD8C3B7F7FF1F9387C77098439167DD
:10544000F98F99EBB7170240D443B71702403707DB
:105450003D00558FD8C309A8B7170240D443B717EA
:1054600002404167558FD8C3B71702409443B7171E
:10547000024037070001558F98C30100B71702405B
:105480009843B7070002F98FF5DBB7170240D843FE
:10549000B7170240719BD8C3B7170240D843B7175C
:1054A000024013672700D8C30100B7170240DC434E
:1054B00013F7C700A147E31AF7FE01007244056124
:1054C0008280011106CE22CC00102326A4FE0327E1
:1054D000C4FEB727014093870740631DF700854549
:1054E00013050020EF009025814513050020EF00F3
:1054F000F0241DA00327C4FEB7370140938707801F
:10550000631CF700854513050040EF0030238145FB
:1055100013050040EF0090220100F2406244056153
:105520008280797122D60018232EA4FC232CB4FC8F
:10553000232604FEA30504FE8327C4FDDC432326A3
:10554000F4FE0327C4FEB707F1E09387F7EFF98F66
:105550002326F4FE832784FD9843832784FD9C4FF4
:105560005D8F832784FDDC4F5D8F832784FDDC43C3
:10557000A207D98F0327C4FED98F2326F4FE8327E1
:10558000C4FD0327C4FED8C38327C4FD9C4723263C
:10559000F4FE0327C4FEB7F7F1FF9387D77FF98F97
:1055A0002326F4FE832784FD984B832784FDDC4764
:1055B0005D8F832784FD9C478607D98F0327C4FE10
:1055C000D98F2326F4FE8327C4FD0327C4FE98C782
:1055D0008327C4FDDC572326F4FE0327C4FEB70748
:1055E00010FFFD17F98F2326F4FE832784FD83C760
:1055F0004701FD1713F7F70F8347B4FED98FA305B3
:10560000F4FE8347B4FED2070327C4FED98F2326B6
:10561000F4FE8327C4FD0327C4FED8D7010032540B
:1056200045618280011122CE00102326A4FE23248E
:10563000B4FE832784FE91CB8327C4FE9C4713E7E7
:1056400017008327C4FE98C709A88327C4FE9C4778
:1056500013F7E7FF8327C4FE98C701007244056172
:105660008280011122CE00102326A4FE8327C4FECF
:105670009C4713E787008327C4FE98C70100724444
:1056800005618280797122D60018232EA4FC23267E
:1056900004FE8327C4FD9C47A18B89C78547232629
:1056A000F4FE19A0232604FE8327C4FE3E8532544F
:1056B00045618280011122CE00102326A4FE83279B
:1056C000C4FE9C4713E747008327C4FE98C7010028
:1056D000724405618280797122D60018232EA4FCC1
:1056E000232604FE8327C4FD9C47918B89C78547E9
:1056F0002326F4FE19A0232604FE8327C4FE3E853C
:10570000325445618280011122CE00102326A4FE6E
:105710002324B4FE832784FE99CB8327C4FED84379
:10572000B70700045D8F8327C4FED8C319A8832759
:10573000C4FED843B70700FCFD177D8F8327C4FE46
:10574000D8C30100724405618280797122D60018A5
:10575000232EA4FC232604FE232404FEB7070140C5
:10576000938707409C430327C4FDF98F2324F4FE4D
:10577000B707014093870740D84B8327C4FDF98FB3
:1057800081CB832784FE89C785472326F4FE19A091
:10579000232604FE8327C4FE3E8532544561828061
:1057A000011122CE00102326A4FEB70701409387E3
:1057B00007400327C4FED8CB0100724405618280F4
:1057C000397122DE80002326A4FC2324B4FC232686
:1057D00004FE232004FE232404FE232E04FC2322A3
:1057E00004FE232C04FC832784FC9C47BD8B2326CA
:1057F000F4FE832784FC9C47C18B89CB832784FCE0
:10580000DC430327C4FED98F2326F4FE832784FCC0
:1058100083D7070093F7F70FF1CF8327C4FC9C438E
:105820002322F4FE232404FE65A8832784FE054773
:10583000B317F700232EF4FC832784FC83D70700DB
:105840003E878327C4FDF98F2320F4FE032704FE3F
:105850008327C4FD6311F708832784FE8A07232E5C
:10586000F4FC8327C4FD3D47B317F700232CF4FC59
:10587000832784FD93C7F7FF032744FEF98F232274
:10588000F4FE8327C4FD0327C4FEB317F7000327E4
:1058900044FED98F2322F4FE832784FC9847930784
:1058A0008002631BF700832784FE05473317F70048
:1058B0008327C4FCD8CB05A0832784FC9847930793
:1058C0008004631AF700832784FE05473317F70027
:1058D0008327C4FC98CB832784FE85072324F4FE0A
:1058E000032784FE9D47E3F2E7F48327C4FC0327E4
:1058F00044FE98C3832784FC03D707009307F00F67
:1059000063F1E70E8327C4FCDC432322F4FE232447
:1059100004FE75A8832784FEA1070547B317F70087
:10592000232EF4FC832784FC83D707003E8783273C
:10593000C4FDF98F2320F4FE032704FE8327C4FD52
:105940006312F708832784FE8A07232EF4FC83273B
:10595000C4FD3D47B317F700232CF4FC832784FDD7
:1059600093C7F7FF032744FEF98F2322F4FE832712
:10597000C4FD0327C4FEB317F700032744FED98FE5
:105980002322F4FE832784FC984793078002631B3D
:10599000F700832784FEA10705473317F700832705
:1059A000C4FCD8CB832784FC984793078004631BEF
:1059B000F700832784FEA10705473317F7008327E5
:1059C000C4FC98CB832784FE85072324F4FE032799
:1059D00084FE9D47E3F0E7F48327C4FC032744FEDD
:1059E000D8C30100725421618280011122CE0010BF
:1059F0002326A4FEAE872322C4FE2315F4FE8327AC
:105A000044FE99C70357A4FE8327C4FE98CB31A058
:105A10000357A4FE8327C4FED8CB0100724405615E
:105A20008280797122D60018232EA4FC232CB4FC8A
:105A3000232404FE232204FE232604FE232004FE46
:105A40008327C4FD63D80700B7070140DC4F232636
:105A5000F4FE31A0B7070140DC432326F4FE832780
:105A6000C4FDC183BD8B2320F4FE0327C4FDC167A1
:105A7000FD17F98F2324F4FE0327C4FDB707300078
:105A80007D8FB70730006315F7020327C4FEB70701
:105A900000F1FD17F98F2326F4FEB7070140D44328
:105AA000B7070140370700F17D17758FD8C3ADA048
:105AB0000327C4FDB7071000F98F8DCB832704FEA1
:105AC0000D47B317F7002322F4FE832744FE93C744
:105AD000F7FF0327C4FEF98F2326F4FE0327C4FE35
:105AE000B707000FD98F2326F4FE3DA08327C4FDFE
:105AF000D5839207032784FEB317F70093C7F7FFF8
:105B00000327C4FEF98F2326F4FE0327C4FEB7073C
:105B1000000FD98F2326F4FE832784FD91CF83279E
:105B2000C4FDD5839207032784FEB317F70003272C
:105B3000C4FED98F2326F4FE8327C4FD63D8070053
:105B4000B70701400327C4FED8CF31A0B7070140F3
:105B50000327C4FED8C301003254456182807971A5
:105B600022D60018232EA4FC232604FEB7170240D9
:105B7000DC432326F4FE0327C4FED177FD17F98FFB
:105B80002326F4FE0327C4FE8327C4FDD98F2326D2
:105B9000F4FEB71702400327C4FED8C301003254F5
:105BA00045618280397122DE80002326A4FC2322F5
:105BB00004FE232604FE232004FE232E04FC2324BB
:105BC00004FEB7170240DC43B18B2322F4FE032707
:105BD00044FE91476303F702032744FEA14763068F
:105BE000F702832744FE639907148327C4FC371701
:105BF0007A001307072098C389AA8327C4FC3717A4
:105C00007A001307072098C389A2B7170240D84328
:105C1000B7073C00F98F2326F4FEB7170240D8439C
:105C2000C167F98F2320F4FE8327C4FEC983890747
:105C30002326F4FEB7F7FF1F9387C7709843916739
:105C4000F98F91EB0327C4FEC5476319F704C947D1
:105C50002326F4FEA1A00327C4FE89476315F7009D
:105C6000C9472326F4FE0327C4FEBD476318F70087
:105C7000B5472326F4FE85472324F4FE0327C4FEFC
:105C8000C1476315F700BD472326F4FE0327C4FE72
:105C9000C5476315F700C1472326F4FE832704FE9A
:105CA000A1E3B7470240938707809C43C18B89CF0C
:105CB0000327C4FEB7177A00938707203307F7023C
:105CC0008327C4FC98C399A80327C4FEB7173D00D7
:105CD000938707903307F7028327C4FC98C33DA836
:105CE000B7170240D843B7070200F98F89CF0327BF
:105CF000C4FEB7173D00938707903307F702832749
:105D0000C4FC98C321A80327C4FEB7177A00938761
:105D100007203307F7028327C4FC98C3032784FEB8
:105D200085476313F7028327C4FC9C4313D71700EE
:105D30008327C4FC98C309A88327C4FC37177A00BB
:105D40001307072098C311A00100B7170240DC43D6
:105D500093F7070F2322F4FE832744FE9183232227
:105D6000F4FEB70700201387C704832744FEBA97C1
:105D700083C7070093F7F70F232EF4FC8327C4FC97
:105D800098438327C4FD3357F7008327C4FCD8C347
:105D9000B7170240DC4393F707702322F4FE8327F2
:105DA00044FEA1832322F4FEB70700201387C70413
:105DB000832744FEBA9783C7070093F7F70F232E74
:105DC000F4FC8327C4FCD8438327C4FD3357F70072
:105DD0008327C4FC98C7B7170240D84391679387BD
:105DE0000780F98F2322F4FE832744FEAD8323220C
:105DF000F4FEB70700201387C704832744FEBA9731
:105E000083C7070093F7F70F232EF4FC8327C4FC06
:105E1000D8438327C4FD3357F7008327C4FCD8C772
:105E2000B7170240D843B167F98F2322F4FE8327C6
:105E300044FEB9832322F4FE13874181832744FE65
:105E4000BA9783C7070093F7F70F232EF4FC832735
:105E5000C4FCD8478327C4FD3357F7028327C4FC0B
:105E600098CB0100725421618280011122CE001072
:105E70002326A4FE2324B4FE832784FE99CBB717E0
:105E80000240D44BB71702400327C4FE558FD8CB2E
:105E900021A8B7170240D44B8327C4FE13C7F7FFCE
:105EA000B7170240758FD8CB01007244056182801C
:105EB000011122CE00102326A4FE2324B4FE832742
:105EC00084FE99CBB7170240944FB71702400327BF
:105ED000C4FE558F98CF21A8B7170240944F83274F
:105EE000C4FE13C7F7FFB7170240758F98CF0100A4
:105EF000724405618280011122CE00102326A4FE87
:105F00002324B4FE832784FE99CBB7170240D44FD5
:105F1000B71702400327C4FE558FD8CF21A8B71763
:105F20000240D44F8327C4FE13C7F7FFB7170240C0
:105F3000758FD8CF0100724405618280011122CE95
:105F400000102326A4FE2324B4FE832784FE99CBCD
:105F5000B7170240D447B71702400327C4FE558F36
:105F6000D8C721A8B7170240D4478327C4FE13C758
:105F7000F7FFB7170240758FD8C70100724405615B
:105F80008280011122CE00102326A4FE2324B4FE19
:105F9000832784FE99CBB7170240944BB717024072
:105FA0000327C4FE558F98CB21A8B7170240944B06
:105FB0008327C4FE13C7F7FFB7170240758F98CB2E
:105FC0000100724405618280011106CE22CC0010CE
:105FD0002326A4FE0327C4FEB7370140631BF70046
:105FE00085450565EFF09FF581450565EFF01FF5E7
:105FF00091A00327C4FEB747004093870780631B27
:10600000F70085451165EFF0DFF781451165EFF089
:106010005FF70DA00327C4FEB7470040938707C072
:10602000631AF70085452165EFF0BFF581452165CD
:10603000EFF03FF50100F240624405618280797122
:1060400022D60018232EA4FC232CB4FC231704FE14
:106050008327C4FD83D707002317F4FE0357E4FE0C
:106060008D6793870704F98F2317F4FE832784FD38
:1060700003D70700832784FD83D72700D98F139781
:1060800007014183832784FD83D74700D98F139766
:1060900007014183832784FD83D76700D98F139736
:1060A00007014183832784FD83D78700D98F139706
:1060B00007014183832784FD83D7A700D98F1397D6
:1060C00007014183832784FD83D7C700D98F1397A6
:1060D00007014183832784FD83D7E700D98F139776
:1060E000070141838357E4FED98F2317F4FE8327EA
:1060F000C4FD0357E4FE2390E7008327C4FD83D744
:10610000C701139707014183FD779387F77FF98FC5
:106110001397070141838327C4FD239EE70083274C
:1061200084FD03D707018327C4FD2398E7000100FE
:10613000325445618280011122CE00102326A4FE34
:106140002324B4FE832784FE8DC38327C4FE83D714
:106150000700C207C18393E7070413970701418330
:106160008327C4FE2390E70005A08327C4FE83D7BE
:106170000700C207C18393F7F7FB13970701418319
:106180008327C4FE2390E7000100724405618280EA
:10619000797122D60018232EA4FC232CB4FC2317DB
:1061A00004FE8327C4FD83D707002317F4FE0327CB
:1061B000C4FDB7370140938707C06306F70603277E
:1061C000C4FDB70700406300F7060327C4FDB70707
:1061D0000040938707406308F7040327C4FDB717FF
:1061E0000040938707806300F7040327C4FDB717B7
:1061F0000040938707C06308F7020327C4FDB73741
:106200000140938707406300F7020327C4FDB75797
:106210000140938707C06308F7000327C4FDB75701
:1062200001406311F7028357E4FE93F7F7F8231751
:10623000F4FE832784FD03D727008357E4FED98F1C
:106240002317F4FE0327C4FDB71700406309F702C4
:106250000327C4FDB7170040938707406301F70287
:106260008357E4FE93F7F7CF2317F4FE832784FDCB
:1062700003D767008357E4FED98F2317F4FE8327E3
:10628000C4FD0357E4FE2390E700832784FD03D772
:1062900047008327C4FD2396E702832784FD03D7A5
:1062A00007008327C4FD2394E7020327C4FDB73703
:1062B0000140938707C06308F7020327C4FDB7377F
:1062C0000140938707406300F7020327C4FDB757D7
:1062D0000140938707C06308F7000327C4FDB75741
:1062E0000140631DF700832784FD83C78700139750
:1062F000070141838327C4FD2398E7028327C4FD58
:106300000547239AE700010032544561828001115C
:1063100022CE00102326A4FE8327C4FE7D5723929D
:10632000E7008327C4FE239007008327C4FE23933E
:1063300007008327C4FE239107008327C4FE23841C
:1063400007000100724405618280011122CE001015
:106350002326A4FE2324B4FE832784FE8DC3832733
:10636000C4FE83D70700C207C18393E717001397C2
:10637000070141838327C4FE2390E70039A88327C0
:10638000C4FE83D70700C207C183F99B1397070197
:1063900041838327C4FE2390E70001007244056116
:1063A0008280011122CE00102326A4FEAE87232274
:1063B000C4FE2315F4FE832744FE9DC38327C4FE39
:1063C00083D7C7001397070141838357A4FED98F52
:1063D0001397070141838327C4FE2396E70035A066
:1063E0008327C4FE83D7C7001397070141838357D0
:1063F000A4FE93C7F7FFC207C183F98F1397070164
:1064000041838327C4FE2396E7000100724405619F
:106410008280011106CE22CC00102326A4FEAE8776
:106420002315F4FE8357A4FEBE850325C4FE2D204C
:106430008327C4FE83D78700C207C18393E7770011
:106440001397070141838327C4FE2394E7000100CB
:10645000F240624405618280797122D60018232EB1
:10646000A4FCAE87231DF4FC231704FE8327C4FD80
:1064700083D787002317F4FE8357E4FE93F7F7F8DA
:106480002317F4FE0357E4FE8357A4FDD98F231787
:10649000F4FE8327C4FD0357E4FE2394E7000100C4
:1064A000325445618280797122D60018232EA4FCD3
:1064B000AE87231DF4FC232604FE231504FE2314BB
:1064C00004FE8327C4FD83D7070113970701418387
:1064D0008357A4FDF98F2315F4FE8327C4FD83D7CA
:1064E000C7001397070141838357A4FDF98F231435
:1064F000F4FE8357A4FE81CB835784FE89C785476A
:106500002326F4FE19A0232604FE8327C4FE3E851D
:10651000325445618280011122CE00102326A4FE50
:10652000AE872315F4FE8357A4FE93C7F7FF139796
:10653000070141838327C4FE2398E70001007244CA
:10654000056182805D7186C6A2C48008232EA4FAEC
:10655000232CB4FA232604FE232404FE232204FE63
:10656000232004FE232E04FC8327C4FB232EF4FCEB
:106570008327C4FB83D70701C207C1832326F4FE08
:106580000327C4FEB567FD17F98F2326F4FE832782
:1065900084FB83D767003E878327C4FED98F2326D9
:1065A000F4FE8327C4FE1397070141838327C4FBAE
:1065B0002398E7008327C4FB83D7C700C207C183A2
:1065C0002326F4FE0327C4FEBD679387379FF98F08
:1065D0002326F4FE832784FB03D74700832784FB0D
:1065E00083D78700D98F139707014183832784FBC3
:1065F00083D7A700D98FC207C1833E878327C4FEF4
:10660000D98F2326F4FE8327C4FE13970701418305
:106610008327C4FB2396E7008327C4FB83D7470166
:10662000C207C1832326F4FE0327C4FEC1679387F4
:10663000F7CFF98F2326F4FE832784FB83D7C70087
:106640003E878327C4FED98F2326F4FE8327C4FE0A
:106650001397070141838327C4FB239AE70093071D
:1066600084FC3E85EFF00FD40327C4FDB7470140FB
:10667000938707806317F700832744FD2324F4FEE4
:1066800029A0832704FD2324F4FE8327C4FB83D79A
:10669000C700C207C183C207C18763D207020327AD
:1066A00084FEBA878607BA978E073E97832784FBB6
:1066B0009C438607B357F7022322F4FE05A0032765
:1066C00084FEBA878607BA978E073E97832784FB96
:1066D0009C438A07B357F7022322F4FE032744FEA4
:1066E00093074006B357F70292072326F4FE832749
:1066F000C4FE13D7470093074006B307F7020327EA
:1067000044FEB307F7402320F4FE8327C4FB83D75E
:10671000C700C207C183C207C18763D207028327AC
:1067200004FE8E071387270393074006B357F7022B
:106730009D8B0327C4FED98F2326F4FE05A0832753
:1067400004FE92071387270393074006B357F70207
:10675000BD8B0327C4FED98F2326F4FE8327C4FEF6
:106760001397070141838327C4FB2394E7000100AB
:10677000B640264461618280011122CE001023269A
:10678000A4FE2324B4FE832784FE95C38327C4FE7E
:1067900083D7C7001397070141838967D98F139760
:1067A000070141838327C4FE2396E70015A08327B2
:1067B000C4FE83D7C700139707014183F977FD17FC
:1067C000F98F1397070141838327C4FE2396E700BF
:1067D0000100724405618280797122D60018232E4F
:1067E000A4FCAE87232AC4FC231DF4FC232404FE4E
:1067F000232204FE232004FE232604FE8327C4FD57
:106800002326F4FE8357A4FD93F7F70F958393F7A0
:10681000F70F2324F4FE8357A4FDFD8B2322F4FEFF
:10682000832744FE0547B317F7002320F4FE032710
:1068300084FE85476318F7008327C4FEB10723262B
:10684000F4FE0DA0032784FE89476318F700832711
:10685000C4FEC1072326F4FE31A08327C4FED1075E
:106860002326F4FE832744FD99CB8327C4FE94435B
:106870008327C4FE032704FE558F98C321A88327CE
:10688000C4FE9443832704FE13C7F7FF8327C4FE87
:10689000758F98C30100325445618280011122CE68
:1068A00000102326A4FEAE872315F4FE8357A4FE12
:1068B00093F7F71F1397070141838327C4FE2392A1
:1068C000E7000100724405618280797122D60018C8
:1068D000232EA4FCAE87231DF4FC232604FE83276D
:1068E000C4FD83D707001397070141838357A4FD95
:1068F000F98FC207C18389C785472326F4FE19A0F3
:10690000232604FE8327C4FE3E85325445618280DF
:10691000797122D60018232EA4FCAE87231DF4FC27
:10692000232204FE232604FE232004FE232404FE47
:106930008357A4FD93F7F70F958393F7F70F232061
:10694000F4FE8357A4FDFD8B2326F4FE8327C4FEAB
:106950000547B317F7002326F4FE032704FE8547F7
:10696000631FF7008327C4FD83D7C700C207C18315
:106970003E878327C4FEF98F2326F4FE3DA8032714
:1069800004FE8947631FF7008327C4FD83D70701EF
:10699000C207C1833E878327C4FEF98F2326F4FEF6
:1069A00029A88327C4FD83D74701C207C1833E8737
:1069B0008327C4FEF98F2326F4FE8357A4FDA18309
:1069C000C207C1832322F4FE832744FE0547B31781
:1069D000F7002322F4FE8327C4FD83D70700C207F4
:1069E000C1833E87832744FEF98F2322F4FE832749
:1069F000C4FE81CB832744FE89C785472324F4FE48
:106A000019A0232404FE832784FE3E853254456169
:106A10008280797122D60018232EA4FCAE87231D14
:106A2000F4FC231704FE231604FE8357A4FDA18360
:106A30002317F4FE8357E4FE0547B317F700231628
:106A4000F4FE8357C4FE93C7F7FF139707014183F2
:106A50008327C4FD2390E700010032544561828002
:106A6000011122CE0010AA87A307F4FEB707005039
:106A70000347F4FE42074183239AE702B707005019
:106A800083C7670313F7F70FB7070050719B13779E
:106A9000F70F238BE7020100724405618280011128
:106AA00022CE0010AA87A307F4FEB70700500347C1
:106AB000F4FE42074183239CE702B707005083C7D7
:106AC000A70313F7F70FB7070050719B1377F70F62
:106AD000238DE7020100724405618280797106D638
:106AE00022D40018AA87A30FF4FCA30704FE15A85C
:106AF00003A781888347F4FEBA9703C7070083A6DC
:106B000081888347F4FE93870704B6971347F7FFFE
:106B10001377F70F2380E7008347F4FE8507A30769
:106B2000F4FE0347F4FE8347F4FDE363F7FC834779
:106B3000F4FD3E85EFF0DFF20100B25022544561D2
:106B40008280797106D622D40018AA87A30FF4FC9C
:106B5000A30704FE15A803A7C1888347F4FEBA97CC
:106B600003C7070083A6C1888347F4FE9387070401
:106B7000B6971347F7FF1377F70F2380E700834794
:106B8000F4FE8507A307F4FE0347F4FE8347F4FDF4
:106B9000E363F7FC8347F4FD3E85EFF05FF001000F
:106BA000B250225445618280011122CE0010230789
:106BB00004FEB707005083C76700A306F4FE8347AF
:106BC000D4FE898BE381073CB707005083C7770069
:106BD00093F7F70F93F707034147E38BE7384147F4
:106BE0006346F700E38E07206F00D03813070002DA
:106BF000E386E70413070003E39EE736B707005078
:106C000019472389E702B70700501147A389E70214
:106C100083A7418803C7670083C77700A207D98F7E
:106C2000139707014183239DE18883A7418803C708
:106C30001700238CE18883A7418883C707002306B8
:106C4000F4FEA30704FE230704FE83A7418883C73D
:106C5000070093F70706638B071283C7818993F7B1
:106C6000F70F93F70702D5C383C7818993F7F70F0F
:106C700013071002638BE700130720026389E708FC
:106C8000130700026387E708ADA81387C18123A813
:106C9000E1889D47A307F4FE83D7A18913970701D5
:106CA00041839D4763E9E70083D7A189C207C18378
:106CB00093F7F70F11A0A147A307F4FE03A741889C
:106CC00083A701898346F4FE3686BE853A85EF3078
:106CD000E01783D7A1891397070141838347F4FE07
:106CE000C207C183B307F740139707014183239D70
:106CF000E18803A701898347F4FE3E9723A8E18832
:106D000011A8FD572307F4FE31A0010021A00100C6
:106D100011A001000347E4FE9307F00F6303F76837
:106D20008347F4FE13970701418383D7A189C207E4
:106D3000C1836379F7008347F4FE1397070141830A
:106D4000239DE18883D741891397070141839D479C
:106D500063E9E70083D74189C207C18393F7F70F3F
:106D600011A0A147A307F4FE83A701890347F4FEFE
:106D70003A86BE851385C187EF30400D03A7018990
:106D80008347F4FE3E9723A8E18821AD83C781891C
:106D900093F7F70F2D47636BF75E13972700B967DB
:106DA000938747F3BA979C43828783A7418803C799
:106DB000270083C73700A207D98FC207C183A183E9
:106DC000C207C183130720026365F71213972700D8
:106DD000B967938747F6BA979C4382873967130749
:106DE00087E823A8E188C947A307F4FE39A23967D9
:106DF0001307C7E923A8E18893073004A307F4FE2B
:106E0000EDA883A7418803C7270083C73700A207DF
:106E1000D98FC207C18393F7F70F05476386E7024F
:106E200005476344F70089CB99A809476387E702C0
:106E30000D47638DE702A1A01387818323A8E18812
:106E40009147A307F4FE81A03967130747EF23A8F2
:106E5000E188B947A307F4FE3DA03967130747F05F
:106E600023A8E188B147A307F4FE31A839671307C7
:106E700007F123A8E188D947A307F4FE29A0FD570D
:106E80002307F4FE010095A83967130707EE23A82E
:106E9000E188D147A307F4FE8DA03967130787F275
:106EA00023A8E188A947A307F4FE81A883C78181AD
:106EB00093F7F70F9DE713061004B9679385E7E989
:106EC000B70700201385E705EF205078370700202B
:106ED0001307C70523A8E18893073004A307F4FE2E
:106EE00029A8FD572307F4FE09A8FD572307F4FE40
:106EF00029A0FD572307F4FE01008347F4FE1397F2
:106F00000701418383D7A189C207C1836379F70051
:106F10008347F4FE139707014183239DE18883D7BC
:106F2000A1891397070141839D4763E9E70083D750
:106F3000A189C207C18393F7F70F11A0A147A30747
:106F4000F4FE03A7418883A701898346F4FE3686B1
:106F5000BE853A85EF20906F03A701898347F4FE31
:106F60003E9723A8E18835A983A7418803C7270056
:106F700083C73700A207D98FC207C18393F7F70FE2
:106F8000139707014183239DE18821A983A74188A5
:106F900003C771891377F70F2380E70083D7A1898F
:106FA000139707014183854763F6E73E0547239D15
:106FB000E188CDA683A7418803C7270083C7370090
:106FC000A207D98FC207C18313F7F70FA38BE188FC
:106FD000C9AE83A7418883C7070013F7F701894724
:106FE000631FF70C83A7418803C7470083C7570077
:106FF000A207D98FC207C18393F7F70F09476388A8
:10700000E70409476346F70005476387E7085DA083
:1070100013071008638BE70413072008639CE70835
:10702000B707005083C7A70393F7F70FE207E1877D
:10703000E19BE207E18793E72700139787016187C8
:10704000B70700501377F70F238DE702ADA8B707F6
:10705000005083C7B70313F7F70FB7070050619BC2
:107060001377F70FA38DE702B9A8B707005083C7BE
:10707000670393F7F70FE207E187E19BE207E187F8
:1070800093E72700139787016187B70700501377AD
:10709000F70F238BE70205A8B707005083C77703D4
:1070A00013F7F70FB7070050619B1377F70FA38B08
:1070B000E70211A8FD572307F4FE010029A0FD57A0
:1070C0002307F4FEF9ACF1AC9387C18783C70700AF
:1070D000FD8BA1E39387C18703C7270083C73700D0
:1070E000A207D98F1397070141838547631FF700D4
:1070F0009307000A93F7070289C70547238BE188A6
:107100004DA4FD572307F4FE69ACFD572307F4FE99
:1071100049AC9387C18783C7070013F7F7018947F5
:10712000631CF7109387C18703C7270083C7370005
:10713000A207D98FC207C183E5EF9387C18703C731
:10714000470083C75700A207D98FC207C18393F7AF
:10715000F70F09476387E70409476346F7000547C8
:10716000638DE708C9A0130710086382E7061307B9
:107170002008639AE70AB707005083C7A70393F76D
:10718000F70F37070050F19B93F7F70F230DF70226
:107190003707005093E7370093F7F70F230DF702F7
:1071A00045A0B707005083C7B70393F7F70F37071A
:1071B0000050F19B93F7F70FA30DF702370700502C
:1071C00093E7370093F7F70FA30DF70295A8B707DA
:1071D000005083C7670393F7F70F37070050F19B01
:1071E00093F7F70F230BF7023707005093E73700A9
:1071F00093F7F70F230BF702A1A0B707005083C73F
:10720000770393F7F70F37070050F19B93F7F70FCA
:10721000A30BF7023707005093E7370093F7F70FF8
:10722000A30BF70231A8FD572307F4FE010009A8BC
:10723000FD572307F4FEB5A2FD572307F4FE95A2E0
:107240008DA283A741882380070083D7A189139744
:1072500007014183854763F1E7140547239DE188D2
:1072600025AA238E018683D741891397070141837D
:10727000854763F5E7120547239AE18805A2238E27
:1072800001869387C187A38007009387C18703C7BF
:10729000470083C75700A207D98F1397070141837F
:1072A000930710086311F702B707005083C76703FD
:1072B00093F7F70F13F737008D47631DF70A05475C
:1072C000238EE18645A89387C18703C7470083C7FC
:1072D0005700A207D98F1397070141838547631190
:1072E000F702B707005083C7770393F7F70F13F739
:1072F00037008D476310F7080547238EE1869DA868
:107300009387C18703C7470083C75700A207D98F58
:10731000139707014183930720086311F702B7070A
:10732000005083C7A70393F7F70F13F737008D4774
:107330006312F7040547238EE1862DA89387C18742
:1073400003C7470083C75700A207D98F13970701C8
:10735000418389476310F702B707005083C7B7031B
:1073600093F7F70F13F737008D476315F7000547BD
:10737000238EE18683D7418913970701418389478B
:1073800063F0E7020947239AE18819A8FD5723070C
:10739000F4FE01A8010031A0010021A0010011A00C
:1073A00001000347E4FE9307F00F631DF700B707E2
:1073B00000501D472389E702B70700501D47A389E6
:1073C000E70265AE8307C4FE63D5070483D7A189AE
:1073D000139707014183A14763E9E70083D7A18998
:1073E000C207C18393F7F70F11A0A147A307F4FECB
:1073F00083D7A1891397070141838347F4FEC2070E
:10740000C183B307F740139707014183239DE188A8
:1074100019A0A30704FEB70700500347F4FE420774
:1074200041832398E702B707005011472389E702F9
:10743000B70700501147A389E70281A6B70700509C
:1074400083C7770093F7F70F93F7F703130710023B
:107450006385E71213072002638DE7141307000208
:10746000639EE71883C7818993F7F70F15476380F9
:10747000E70A19476394E70E83D7A1891397070199
:1074800041839D4763E9E70083D7A189C207C18390
:1074900093F7F70F11A0A147A307F4FE03A74188B4
:1074A00083A701898346F4FE3686BE853A85EF20A0
:1074B000F01983D7A1891397070141838347F4FE0D
:1074C000C207C183B307F740139707014183239D88
:1074D000E18803A701898347F4FE3E9723A8E1884A
:1074E000B70700500347F4FE420741832398E702A1
:1074F000B707005083C7270313F7F70FB7070050EC
:10750000134747001377F70F2389E702B5A0B707A2
:10751000005083C7370093F7F70FE207E18793F72F
:1075200007F813978701618783D7A189C207C183B1
:10753000E207E187D98F139787016187B70700506A
:107540001377F70FA381E700B70700500947238996
:10755000E702B7070050A389070239A8B707005010
:1075600023980702B707005009472389E702B707A6
:107570000050A3890702010059A0B707005083C734
:10758000670313F7F70FB7070050719B1377F70FD7
:10759000238BE702B707005083C7670313F7F70F82
:1075A000B7070050134747001377F70F238BE70205
:1075B000B9A0B707005083C7A70313F7F70FB707A2
:1075C0000050134747001377F70F238DE702B707E3
:1075D000005083C7A70393F7F70FE207E187F19BFA
:1075E000E207E18793E72700139787016187B707D1
:1075F00000501377F70F238DE70211A00100B5AA01
:10760000B707005083C7770093F7F70F93F7F70397
:1076100005476387E70C09476386E710639E0714F5
:1076200083C7818993F7F70F3E879307000263139F
:10763000F70A83A7418883C7070085E383A74188AA
:1076400083C7170099EB83A7418883C7270091E779
:1076500083A7418883C737009DCF83A7418883C70D
:1076600037001397870183A7418883C72700C20784
:107670005D8F83A7418883C71700A207D98F03A70F
:10768000418803470700D98FBE85B5671385876991
:10769000EF3080263DA883A7418883C76700BE8559
:1076A000B5671385876AEF30202583A7418883C794
:1076B0004700BE85B5671385876BEF30E02383A74E
:1076C000418883C75700BE85B5671385876CEF3047
:1076D000A0220100B70700509C47A307F4FE41A871
:1076E000B707005083C7770093F7F70F93F70704A6
:1076F000A5CFB707005083C7770313F7F70FB70776
:107700000050134747001377F70FA38BE702B70723
:1077100000509C47A307F4FE8347F4FE3E85EFF03C
:10772000EFBB99A0B707005083C7770093F7F70F17
:1077300093F7070485CFB707005083C7B70313F744
:10774000F70FB7070050134747001377F70FA38DC4
:10775000E702B70700509C47A307F4FE8347F4FEF7
:107760003E85EFF00FBE19A0010039A0010029A04D
:10777000010021A0010011A00100B7070050094736
:107780002383E70079A08347D4FE858BB9CFB70761
:107790000050A3810700B7070050A3890702B7076D
:1077A0000050A38B0702B7070050A38D0702B7074D
:1077B000005009472389E702B70700500947238B88
:1077C000E702B70700500947238DE702B7070050CB
:1077D00083C7670013F7F70FB70700501367170049
:1077E0001377F70F2383E7002DA08347D4FE918BF7
:1077F00099CBB707005083C75700B7070050114710
:107800002383E70039A0B70700500347D4FE238342
:10781000E70001007244056173002030011122CE9F
:107820000010F32700302326F4FE8327C4FE3E8594
:10783000724405618280411106C622C40008930685
:1078400080140546814513055006EF90CFAD930691
:1078500080140546814513054006EF90CFAC930692
:1078600080140546814513053006EF90CFAB930693
:1078700080140546814513051006EF90CFAA9306A4
:1078800080140546814513056006EF90CFA9930645
:107890008014054681452D45EF90EFA8930680148E
:1078A0000546814513053002EF90EFA7930680143B
:1078B0000546814513057006EF90EFA69306100666
:1078C00013060006F167938507201545EFA0FF9D7D
:1078D000C54641468967938507580545EFA0FF9C3B
:1078E0009306100713060007896793850758194503
:1078F000EFA0BF9B1D45EF805FB60100B240224460
:1079000041018280011106CE22CC4ACA4EC8001025
:107910002326A4FE0325C4FEEF90EF9CAA87A1E3D3
:1079200003A741878967938707F43357F702BA871C
:107930009207998F3E8981494A85CE85EF80FFBDA8
:107940000325C4FEEF902F9AAA8791EB010003252F
:10795000C4FEEF904F99AA87FDDB854711A08147B0
:107960003E85F24062445249C2490561828001115C
:1079700006CE22CC00102326A4FE13055006EFF0FD
:107980007FF8AA8799C783A781821387F7FF23A46B
:10799000E18213054006EFF0FFF6AA8799C783A797
:1079A00081821387170023A4E18283A781820327A2
:1079B000C4FE6355F700054723A4E18283A78182B3
:1079C0006346F0000327C4FE23A4E18283A78182DB
:1079D0003E85F240624405618280797106D622D4E8
:1079E0000018232EA4FC231704FE8327C4FD99EB63
:1079F0000D45EF80DFE1AA872317F4FE0D45EF80E8
:107A0000BFEB21A80327C4FD85476318F7000D4588
:107A1000EF80FFDFAA872317F4FE8317E4FE3E857D
:107A2000B250225445618280797106D622D4001862
:107A3000232EA4FC231704FE8327C4FD99EB0145E4
:107A4000EF80FFDCAA872317F4FE0145EF80DFE615
:107A500021A80327C4FD85476318F7000145EF807F
:107A60001FDBAA872317F4FE8317E4FE3E85B2507E
:107A7000225445618280411106C622C40008254671
:107A8000A1450145EF80BFE51306D0068D679385BC
:107A9000C7160D45EF80BFE40100B240224441010A
:107AA0008280797106D622D40018232EA4FC232CC0
:107AB000B4FC930700002326F4FE832784FD85EFA2
:107AC0000325C4FDEFF07FF1AA873E85EF208019E2
:107AD0002A87B56783A5C76D3A85EF10B06FAA876F
:107AE0003E87B56783A5C76D3A85EF10D043AA8757
:107AF0002326F4FE0DA0032784FD8547631DF700B0
:107B00000325C4FDEFF07FEDAA873E85EF208015A9
:107B1000AA872326F4FE8327C4FE3E85B250225452
:107B200045618280797106D622D40018232EA4FCE8
:107B3000232CB4FC930700002326F4FE832784FD46
:107B400085EF0325C4FDEFF03FEEAA873E85EF20C9
:107B500060112A87B56783A5C76D3A85EF109067D6
:107B6000AA873E87B56783A5C76D3A85EF10B03BFE
:107B7000AA872326F4FE0DA0032784FD8547631DF5
:107B8000F7000325C4FDEFF03FEAAA873E85EF200A
:107B9000600DAA872326F4FE8327C4FE3E85B250DB
:107BA0002254456182803708100001117D18337717
:107BB000B80026CA3378D80093D4450113D34601C0
:107BC000131E37004EC61357D5010E089357D60122
:107BD00093F4F47F1373F37F06CE22CC4AC893D973
:107BE000F50193DEF6013367C701131F350033E853
:107BF0000701931F3600338E64406380D9196356A2
:107C0000C0136304031CB70680009307F07F33683A
:107C1000D800638FF4369307800363C0C735FD47F0
:107C200063CDC747130500023305C541B3D7CF0164
:107C3000B316A8003399AF00DD8E33392001B35756
:107C4000C80133E926011D8F33092F41B3372F01B6
:107C50003306F7409317860063D407243707800064
:107C60007D173374E600630C042C2285EF20A016E8
:107C7000130785FF93070002998FB357F900331656
:107C8000E400D18F3319E9006341972A3305974007
:107C9000130615007D47634DC73813070002118F87
:107CA000B356C9003319E9003397E700558F3339CC
:107CB00020013369270133D6C700814493777900C7
:107CC00081CF1377F90091476308F7001307490044
:107CD000333927014A963A899317860063D6071CE1
:107CE000138514009307F07FCE856304F520B70752
:107CF00080FFFD17F18F9398D70113593900A6071C
:107D0000B3E82801B1831375F57F9396C700520538
:107D1000F2406244B182FE05C98ECD8ED244424902
:107D2000B2494685B68505618280631E0E0A1383BB
:107D300014001373E37F63170322B367E701B3688B
:107D4000F801639D041A638707406386084433097A
:107D5000FF41B307074133362F013386C7409317DE
:107D6000860063D6074C3389EF41B307E84033B64A
:107D70002F013386C740F68991B76350C00F630067
:107D8000030CB70680009307F07F3368D800638A3E
:107D9000F43A9307800363CBC713FD4763DFC7350E
:107DA00013090EFE93070002B3562801630AFE0072
:107DB000130900043309C94133192801B3EF2F0116
:107DC0003339F0013369D90031A2B367F801638A0E
:107DD000071C9307FEFF638C07389306F07F630947
:107DE000DE1A3E8E0DBDB305934063910422B36746
:107DF000E701638707329387F5FF638107449306A2
:107E0000F07F638CD520BE859307800363CCB72AAF
:107E1000FD4763CFB73C930700028D8F3319F700FE
:107E2000B356BF00B317FF003369D900B337F00072
:107E30003357B7003369F9003308E84041ACB36702
:107E4000F801638007349307FEFF638A07209306D7
:107E5000F07F6308DE2E3E8E2DBF631E0E149386C8
:107E6000140093F7E67F63910734B367E7016395E6
:107E7000042C6380073EB367F801638E0730330933
:107E8000FF01B3070701333FE9013386E701931789
:107E9000860063D70700B70780FFFD177D8E8544F6
:107EA00093777900E39F07E09317D6019358390041
:107EB000B3E8F800935736001307F07F638DE404AE
:107EC000B207B18313F5F47FCE8581B53369F8012C
:107ED000333920017A99B337E9013386E7009317E4
:107EE0008600E3DF07FA85049307F07F6396F418B2
:107EF000CE851305F07F8147814801BDC1EB6384C6
:107F0000083A931636009317D8018D82B3E8D7004C
:107F1000F68993573800B3E7F800F9DB814513057C
:107F2000F07FB70708008148CDB3370680FF7D1684
:107F30007D8E93777900998CE39507D8B5B74A85FC
:107F4000EF10706913078501FD47E3D5E7D21306EB
:107F500085FFB317C900014905BB3369F8013339FF
:107F60002001DDB13309FF413306074133342F01CE
:107F7000330486409317840063CD0724B3688900D7
:107F8000E39308CE8147814981441DBFE39808F8F7
:107F90000E059317D7010D81B3E8A700935737005B
:107FA0009DBF0E059317D7010D81B3E8A700F2849A
:107FB0009357370011B73305934063820412B70615
:107FC00080009307F07F558F630DF32E9307800396
:107FD00063CBA720FD4763C3A72A93070002898FBD
:107FE0003319F700B356AF00B317FF003369D90058
:107FF000B337F0003357A7003369F9003A987E99F8
:10800000B337F901338607019A84D1BDB7068000E2
:108010009307F07F558FE319F3DE931736008D83B6
:108020009318D801B3E81701F68993573800E5B5DE
:10803000130715FE9306000233D7E700630AD60044
:10804000930600043386C6403396C7003369C900DF
:10805000333920013369E9000146814491B5330980
:10806000FF01B30707013336E9013E9693178600F7
:108070008544E3D707E28944B70780FFFD17F18FF6
:108080001357190013791900336927019398F701E1
:1080900033E9280113D6170015B113090EFE930713
:1080A0000002B3562801630AFE00130900043309D5
:1080B000C94133192801B3EF2F013339F001336976
:1080C000D90059B63369E7013339200133892F418B
:1080D000B3B72F013306F8409A84F689A5BEB3677B
:1080E000E701638207189307F5FF6384071C930673
:1080F000F07F6304D5123E85D1BD93070002B3879C
:10810000C741B316F8003399FF0033D6CF01D18EA3
:1081100033392001B357C80133E926013E975DBBCF
:10812000931736008D839318D801B3E81701AE84F6
:1081300093573800F68949B3EDC33369F801E31F5B
:1081400009DC0E059317D7010D81B368F50093572D
:108150003700D1B36381080E931636009317D80108
:108160008D82B3E8D700F6899357380091BB330965
:10817000FF41B3070741333F2F013386E741854471
:10818000D1BC0E059317D7010D81B368F500F284B9
:108190009357370015B30E059317D7010D81B3E838
:1081A000A7009357370029BB9307F07FE382F6D4EB
:1081B0003309FF013336E901B3070701B2979398FA
:1081C000F7011359190033E9280113D61700B684B3
:1081D000C1B93389EF413307E84033B62F01330487
:1081E000C740F68949B43369E7013339200101BD3D
:1081F000938705FE93060002B357F700638AD50004
:1082000093060004B385B6403317B700336FEF0011
:108210003339E0013369F90055BD931736008D837A
:108220009318D801B3E8170193573800EDB1B3683C
:10823000C900E39708C68147814959B13389EF41A5
:10824000B307E84033B62F013386C740F68985442B
:1082500011B4931636009317D8018D82B3E8D70076
:1082600093573800B1B9931636009317D8018D8211
:10827000B3E8D700AA84935738003DB9930705FEA9
:1082800093060002B357F700630AD5009306000473
:108290003385A6403317A700336FEF003339E00171
:1082A0003369F900A9BB81451305F07FB7070800C2
:1082B000A9BC3309FF01B30707013336F9013E9624
:1082C00075B3931636009317D8018D82B3E8D700A3
:1082D0009357380089B1397193D7450122DC4AD8C8
:1082E00056D22A891394C50006DE26DA4ED652D419
:1082F0005AD05ECE13F5F77F318093DAF501630B28
:1083000005109307F07F630BF514135AD9010E047F
:1083100033648A00370A8000336A4401131B390032
:10832000930415C00144814B13D846011399C6002C
:108330001378F87FB2881359C90093D9F601630EF8
:1083400008089307F07F6300F8041357D6010E095D
:1083500033692701130818C0B70780003367F90095
:1083600093183600B38404418145BD4733C83A01B0
:1083700063E4871A976700009387C7C70A043E948F
:1083800010403E9602863367C900938414806312BE
:1083900007101364240081488945C1BF1306F07F8C
:1083A00081470147B207F25062545206B1837E08FA
:1083B000D18FB3E70701D2544259B259225A925A87
:1083C000025BF24B3A85BE8521618280014813062B
:1083D000F07FB70708000147F1B73367C9004DC701
:1083E000630809304A8532C4EF10F01E2246130795
:1083F00055FFF547930685FF998F3319D900B35779
:10840000F60033E72701B318D60026959304353FCD
:108410008145A1BF336A240163030A0636C632C40C
:108420006306042A2285EF10101B2246B246AA8456
:10843000130755FF754A138B84FF330AEA40331440
:108440006401335A4901336A8A00331B69011305F9
:10845000D0C0B30495400144814BF9B5336A24017F
:1084600063180A002144014B9304F07F894B6DBDD2
:10847000228A4A8B31449304F07F8D4B75B51144A9
:10848000014B8144854B4DB51364140081488545EB
:10849000E9BD136434004A878D45C1BD630A052ECA
:1084A0008547898F9306800363DDF6320146814755
:1084B0000147CDBDCE868947638DF53A8D47E38769
:1084C000F5F085473688E383F5FE1385F43FE357DF
:1084D000A0FC93F778006396072893D6380093178B
:1084E000770063D80700B70700FFFD177D8F13855E
:1084F00004409307E07FE3C3A7EA1316D70193175D
:108500009700B1833367D6001376F57F61BDD686B9
:108510005287DA88DE8545B763614723630DEA2019
:10852000DA86FD145284014B9317870013D3880118
:108530003363F300935E0301B357D403131F0301A6
:10854000135F0F0193D50601139E88003374D40383
:108550003307FF024204C18D63FBE5009A95138641
:10856000F7FF63EE652663FCE526F9179A95998D6A
:1085700033D7D503C206C182B3F5D5033306EF0264
:10858000C205D58D63FBC5009A959306F7FF63E698
:10859000652463F4C52479179A95C20741645D8FF9
:1085A0009307F4FF3375F70093580701935F0E01AB
:1085B000B377FE00B302F502B386C540B383F80279
:1085C00093D502013386AF021E962E963385F803AB
:1085D000637376002295C168FD18935506013376C2
:1085E00016014206B3F81201AA95469663E6B61242
:1085F0006382B6123306CB408D8E333BCB00338B78
:1086000066411385F43F630C6317B358DB0393553E
:108610000601337BDB03B3061F03420B33EB65011B
:10862000637BDB001A9B9385F8FF636D6B20637B94
:10863000DB20F9181A9B330BDB40B356DB034206F1
:108640004182337BDB03330FDF02420B336666016B
:10865000637BE6011A969385F6FF6367661E637572
:10866000E61FF9161A96C208B3E8D80093950801D8
:1086700093D20801C181B38EF5023306E641B3857A
:10868000BF0293D60E01B387F202BE95AE96B38FAA
:108690005F0263F4F600C167BE9FC165FD1593D705
:1086A0000601ED8EC206B3FEBE00BE9FF696637F46
:1086B000F6091A969387F8FF6369661A6368F619D4
:1086C000630FF61BBE8893E8180011B54A85EF10BA
:1086D000807013075501F145930405022246B24606
:1086E000E3DAE5D4130485FF331A8900014B85B31F
:1086F000328532C4EF10206E13075501F146AA8768
:10870000224613050502E3D6E6CEE1173317F6003D
:108710008148E5B9E370CBEE729B3335CB011A95F6
:10872000AA961305F7FF6378D30263E6B610638257
:10873000D5102A87C1B5E3651BDF93551B0093163F
:10874000FA0113541A00CD8E7E0BF9BBE31DF6F728
:10875000E38F06D6B9BFE31ED3FCE378CBFD2A87AF
:1087600051BD93F7F8009146E389D7D693B7C8FF78
:108770009386480093C717008D823E978DB381463C
:108780008547E34CA0FEFD58E31C05D0930410C0C0
:1087900085471385E441B316A70033D6F800339517
:1087A000A800D18E3335A000C98E13F6760033575A
:1087B000F70001CE93F7F60011466388C700938750
:1087C0004600B3B6D7003697BE869317870063D8A6
:1087D0000704054681470147F1B636877DBBB2875E
:1087E00079B3FD46E3D7F6FA0556098E93060002E3
:1087F0003356C7006388D7009387E443B317F70065
:10880000B3E8F800B3361001D18E13F67600814735
:1088100001CE93F7F60011460147E392C7FA93178A
:1088200097001316D701B18313D73600518F014635
:1088300095BEE370CBF0729B3335CB011A95791757
:10884000AA964DBBAE88C5BBAE8631BD93171E0040
:1088500033BEC70172931A96F9183E8EE315F6E7F8
:10886000E307DEC693E818009DB1BE88E30AF6FF71
:1088700099BD36881306F07F8147014725B6E36727
:10888000DEFCBE88E310DEFE99B113D74501B707C1
:108890001000FD1713D846011377F77F9308F07F78
:1088A00033FEB700AA8EF58FFD81328F1378F87FE3
:1088B000FD82630B1701054363061801631407016A
:1088C000630DFE001A858280B368AE000543E39B0A
:1088D00008FEE319E8FED18FF5F70543E394EEFFB8
:1088E0000143E381D5FE054371FF3365AE003333A9
:1088F000A000C9BF13D74501B7071000FD1713D853
:1089000046011377F77F9308F07F33F3B7002A8E81
:10891000F58FFD81B28E1378F87FFD82630817030F
:10892000630018030DEBB368A300631408005D8EA9
:1089300029CA638508046388D502054595ED8280C0
:10894000B3E8C700E38008FE795582803365A30051
:1089500065FD630CE802631408005D8E79DEE39E1A
:10896000D5FCE34CE8FC63480701E3E867FC6303DC
:10897000F302637FF30081E57D558280F5DE0545D6
:1089800082800145E39B08FA82805D8E69DA6DBFC3
:1089900001458280E3E3CEFB0145E372DEFBE5F1B6
:1089A000E1BF13D74501B7071000FD1713D84601E3
:1089B0001377F77F9308F07F33FEB700AA8EF58F09
:1089C000FD81328F1378F87FFD82630E1703630DEC
:1089D000180129E3B368AE00631F08005D8E01EE45
:1089E0000143638C080421A8B3E8C70009436396D8
:1089F00008046DD305A0638408046385D50205438C
:108A00008DCD7D531DA8B368AE000943639708025E
:108A1000630AE802631408005D8E75D2E391D5FE07
:108A2000E34FE8FC63490701E3EBC7FD630FFE007A
:108A300001436374FE00F1D505431A858280EDFE83
:108A40007D53E5BF5D8E79DACDBFE36ADFFB01437D
:108A5000E3F5EEFFF5F175B739714AD813D9450141
:108A60004ED652D456D29399C50006DE22DC26DAC1
:108A70005AD05ECE1379F97F2A8A93D9C90093DA46
:108A8000F501630D090E9307F07F6306F91813547F
:108A9000D5018E09B36934013704800033E48900BD
:108AA00093143500130919C08149814B13D746012E
:108AB000139AC6001377F77FB285135ACA0013DBE7
:108AC000F601630B07109307F07F6303F7049357D6
:108AD000D6010E0A33EA4701130717C0B707800013
:108AE000B367FA00931536003A99814833C76A0193
:108AF000BD463A851308190063E83617175600007B
:108B0000130646538A09B29983A60900B296828653
:108B1000B367CA001309F97F6399071293E9290023
:108B200081458948E1B701479307F07F3704080082
:108B300081443204D20731807E075D8C598CA28536
:108B4000F250625426854259D254B259225A925A4E
:108B5000025BF24B216182805A853E84AE84C68BD3
:108B60008947638DFB0E8D47E38FFBFA85472A8784
:108B7000639EFB3881470144814465BF33E4A9000B
:108B800061C036C632C4638C092A4E85EF10A0241A
:108B90002246B246AA87130755FF7544938487FF80
:108BA000198CB399990033548A0033643401B31497
:108BB0009A0013D746011309D0C0139AC600137741
:108BC000F77F3309F9408149814BB285135ACA00B6
:108BD00013DBF601E31907EEB367CA00B1C7630FF1
:108BE0000A22528532C4EF10001F22462A879306BC
:108BF00055FFF547930587FF958F331ABA00B35792
:108C0000F600B3E74701B315B6003309E94013098D
:108C1000D9C08148E1BD33E4A90001ECA1498144F8
:108C20001309F07F894B59B593E9190081458548AF
:108C300075BD4E84AA84B1491309F07F8D4BBDB533
:108C4000914981440149854B95B593E93900D28713
:108C50008D4869BD89475685E397FBF02A879307BE
:108C6000F07F01448144F1B5C16E1386FEFF93D6B7
:108C7000040113DE0501F18CF18D338695023383F7
:108C8000B6029358060133059E021A95AA98B3823C
:108C9000C60363F36800F692C16F1383FFFF33F5D9
:108CA000670093D30701B3F76800C2073373660008
:108CB0003E933306950293D80801B387A602135F4B
:108CC0000601B3849302BE94FA94B38E760263F3E2
:108CD000F400FE9E416A9307FAFF935F0401B376A6
:108CE000F400B3F9F4007D8EC1803384D502C2094B
:108CF000338FD401B299CE98B307DE02935E04019C
:108D0000B385BF02AE97BE9E330EFE0363F3BE0073
:108D1000529EC1679385F7FF33F6BE006D8C420605
:108D2000229693DE0E01B305D502769E3385AF02FF
:108D300013D40501B386D302AA96A296B38FF30388
:108D400063F3A600BE9F41657D15B3F7A600C20779
:108D50006D8DAA97B3855800B3B93501FA97B295CE
:108D60003384370133B6C500B30EC4013385CE005A
:108D700033343401B3B7E701C18F33BECE0113D40E
:108D800006013336C5003E943366CE0093949500B9
:108D900032947E94B3E46400260493567501B33490
:108DA0009000DD8193179500CD8C558CDD8C931749
:108DB000740063DB070093D7140085889316F401D1
:108DC000DD8CD58C058042899307F93F6359F00803
:108DD00093F6740081CE93F6F40011466388C600C2
:108DE00093864400B3B496002694B6849316740018
:108DF00063D80600B70700FFFD177D8C9307094075
:108E00009306E07F63CFF60E93D634009314D4011B
:108E10002604D58C318093F7F77F21BB328532C48D
:108E2000EF00707B93065501F147130705022246B8
:108E3000E3D1D7DC6115B317A6008145F9B3EF0084
:108E4000907913075501F145930705022246B24672
:108E5000E3D5E5D461153314AA00814499BB854656
:108E60009D8EB1E71309E941B3972401B3D4D4002F
:108E700033192401B337F000B3649900DD8C93F704
:108E80007400B356D40081CF93F7F4001146638881
:108E9000C70093874400B3B49700A696BE84939707
:108EA000860063D8070485470144814459B11306FD
:108EB0008003E341D6CC7D46E356D6FA0556B30788
:108EC000F640930500023356F4006387B600130999
:108ED000E943B3172401DD8CB3349000D18C93F6B1
:108EE0007400014499CA93F7F40011468146E39255
:108EF000C7FA139496003180F6068D80D58C814791
:108F00000DB99307F07F0144814425B142896DBDBD
:108F1000370710007D1701113373B70093D846014E
:108F2000758F935ED60122CC26CA0E0393D44501D9
:108F30009357D5010E0706CE4AC84EC693F8F87F60
:108F4000130EF07F33E7EE0093F4F47F13D4F501B2
:108F500033E36700131F3500FD82931E36006380E4
:108F6000C81993C61600B38514416305D412635122
:108F7000B018638B081AB70780005D8F6381C459EE
:108F80009307800363C4B734FD4763C5B7489307AD
:108F900000028D8FB3D9BE003318F700B39EFE00D8
:108FA000336838013357B700B339D001336838011B
:108FB0003303E340B3090F41B3373F013306F340B6
:108FC0009317860063D30724370980007D1933790E
:108FD0002601630F092C4A85EF00F05F130785FF18
:108FE00093070002998FB3D7F9003316E900D18FA8
:108FF000B399E9006344972A058F13061700FD46CD
:1090000063C5C63A13070002118FB3D6C90033985F
:10901000E9003397E700558F33380001B369070142
:1090200033D6C700814493F7790081CF93F6F900D6
:1090300091476388F6009386490033B8360142961B
:10904000B6899317860063D6071C1387140093070D
:10905000F07F05886306F720B70780FFFD17F18FC3
:109060001398D70193D93900A60733683801B18323
:109070001377F77F9396C7005207B1827E04D98E8B
:10908000C18EF2406244D2444249B2494285B6851B
:10909000056182806356B00A638A0812B7078000B0
:1090A0005D8F6387C42D9307800363C7B718FD479F
:1090B00063D2B73C138805FE93070002B35907013A
:1090C000638AF50093070004B385B7403317B700F0
:1090D000B3EEEE003338D0013368380195A2B367A0
:1090E000D7019385148099E393C61600630AD404CC
:1090F000D1E19387140093F7E77F6399071EB36765
:10910000E3013368D701639204166382073C631658
:109110000842131835009316D3011358380033E86A
:1091200006019357330019A2B367D7016385071A65
:109130009387F5FF638B073A638CC523BE8589B59A
:109140006399051C9386140093F7E67FC1EFB3671C
:10915000E30163900436638D0744B367D7016394DA
:1091600007460E051318D3010D813368A8009357E5
:1091700033006DA8B385984063970420B367E3017B
:10918000638D07309387F5FF638907401305F07FF0
:109190006383A520BE859307800363C2B72AFD477A
:1091A00063C8B73C930700028D8F3318F300335622
:1091B000BF00B317FF003368C800B339F000335362
:1091C000B3003368380133076740B5ACB367D701E4
:1091D000638307109387F5FF638F071E6380C52F96
:1091E000BE85D1B59307F07F638BF606FA9E33B642
:1091F000EE01B307E300B2971398F70193DE1E0068
:10920000B369D80113D61700B68493F77900E39FAA
:1092100007E09317D60113D839003368F800A68504
:10922000935736001307F07F6380E506B207B183DA
:1092300013F7F57F05883DBD3367D7013338E0006C
:10924000B309E801B3B7E9013386670093178600D5
:10925000E3DD07FA85049307F07F639CF418058823
:109260001307F07F8147014831B56391071063010F
:10927000083C131836009317D70113583800336889
:10928000F800368493573700B367F800E9DB0144F0
:109290001307F07FB70708000148E9BB370680FFD6
:1092A0007D167D8E93F77900998CE39107D895B759
:1092B0004E85EF00503213078501FD47E3D2E7D218
:1092C000130685FFB397C90081492DB33368D701D1
:1092D00033380001C5B1131835009317D301135863
:1092E00038003368F800935733002DBFB309DF41CE
:1092F0003309E34033363F013309C94093178900EE
:1093000063CA072033E82901E31508CC81470144EB
:1093100031BFB385984063810414B706800093077A
:10932000F07F3363D3006381F8209307800363CC1D
:10933000B722FD4763C9B72C930700028D8F3318FE
:10934000F300B356BF00B317FF003368D800B3393A
:10935000F0003353B300336838011A97B309D801CA
:10936000B3B7D9013386E700C684CDB5E31108F25F
:10937000131835009317D301135838003368F800D9
:109380009357330011B7370580009307F07F33639D
:10939000A300E392F8E00E061318D7010D8233689C
:1093A000C800935737003684C5B5051793060002E9
:1093B00033D7E700630AD600930600043386C6401D
:1093C0003396C700B3E9C90033383001B369E80008
:1093D000014681441DBDB309DF01B307E30033BF7C
:1093E000E9013386E701931786008544E3DF07E050
:1093F0008944B70780FFFD17F18F13D7190013F8C1
:109400001900336807019399F701B3E9090113D6ED
:10941000170011B9138805FE93070002B35907011D
:10942000638AF50093070004B385B7403317B7008C
:10943000B3EEEE003338D00133683801A5BE336394
:10944000E30133386000B3890E41B3B73E01330600
:10945000F740C6843684ADB6B367E3016387071867
:109460009387F5FF638C071C9306F07F638ED50A04
:10947000BE8565BD930700028D8FB3D9BE0033183A
:10948000F700B39EFE00336838013357B700B33995
:10949000D001336838013A9365B313183600931737
:1094A000D7011358380033E8070136849357370043
:1094B00095BBBDCB3367D701E31B07DC0E05131843
:1094C000D3010D813368A8009357330075BBE30FB8
:1094D00008E2131836009317D70113583800336881
:1094E000F80036849357370091B3B309DF41B307CF
:1094F000E340333F3F013386E7418544D1B413183D
:1095000035009316D3011358380033E806019357FA
:1095100033009DBBB389EE413306674033B93E014A
:1095200033092641368475B40E061318D7010D820F
:109530003368C8009357370081BBB309DF41B307D5
:10954000E34033363F013386C7409317860063D725
:10955000070AB389EE41B3076740B3BE3E013386C5
:10956000D7413684C9B43363E30133386000FDB3B7
:10957000138805FE93070002B3590301638AF500BF
:1095800093070004B385B7403313B300336F6F0004
:109590003338E001336838017DB5B389EE41B30754
:1095A0006740B3BE3E013386D7413684854409BC4B
:1095B000131836009317D701135838003368F80092
:1095C00093573700A5B1B309DF01B307E30033BFF9
:1095D000E9013386E70193178600E3D807C2B7078E
:1095E00080FFFD177D8E85440DB10E061318D7013F
:1095F0000D823368C800935737002DB133E8C90096
:10960000E30608D019B1138805FE93070002B35989
:109610000301638AF50093070004B385B740331351
:10962000B300336F6F003338E001336838013DB366
:1096300001441307F07FB70708002DBCB309DF0111
:10964000B307E300B3BED9013386D70169BB93D713
:109650004501B70610001387F6FF93F7F77F13064F
:10966000E03F6D8FFD81635CF6001306D041635AC5
:10967000F600370500801345F5FF2E9582800145E1
:109680008280130630431D8E7D48558F635DC80070
:1096900093063041B387F640B357F7003305F040E7
:1096A000E5F13E8582809387D7BEB317F700335527
:1096B000C500C98FE5B7411106C622C426C205CD33
:1096C0009357F541B3C4A7009D8C2A842685212792
:1096D0009306E041898EA9477D8093F6F67F63CD9E
:1096E000A7022D47098FB3D7E4005505B207B394FD
:1096F000A400B18329A00144814681478144B20777
:10970000D206B1837E04D58FC18FB2402244268514
:10971000BE859244410182805515B397A400B207DB
:10972000B1838144E9BF3971935775014AD856D244
:109730005ECE931A95001359F50106DE22DC26DA77
:109740004ED652D45AD093F7F70F93DA9A00CA8BB9
:10975000638207121307F00F6384E7128E0A37073C
:109760000004B3EAEA00138A17F80144014B93D7C7
:1097700075019394950093F7F70FA58093D9F501A0
:10978000FDC71307F00F6387E7028E04938717F86E
:1097900037070004D98C330AFA408146558C175795
:1097A00000001307278D0A043A941C4033493901FD
:1097B000BA978287130A1AF0F9E88946558C175729
:1097C00000001307278F0A043A941C4033493901DB
:1097D000BA97828701491307F00FB7074000139526
:1097E0009700F25062549317770125817E095D8DB1
:1097F00033652501D2544259B259225A925A025B1A
:10980000F24B216182801307F00F8147C9BFA68AFE
:10981000CE8B368B89476309FB1A8D47E30CFBFA25
:1098200085476308FB0A1307FA0713F91B00635502
:10983000E01293F77A0099C793F7FA009146638391
:10984000D700910A93974A0063D90700B70700F839
:10985000FD17B3FAFA0013070A089307E00FE3C4F1
:10986000E7FA93976A00A5831377F70F8DBFB1E4EA
:109870008546A9B763940A021144014A054BC5BD48
:1098800063990A002144130AF00F094BCDB58D46A8
:1098900031B73144130AF00F0D4BD1BD56852EC69A
:1098A0001D2B9307B5FFB39AFA009307A0F8338AEC
:1098B000A7400144014BB2455DBD2685292B130706
:1098C000B5FFB307AA00B394E400138A6707814683
:1098D000F1B513F91B000147814711B74166139594
:1098E00054007D1693570501698E63FA9A0AB3D521
:1098F000FA027D1AD68601473388C502B3F6F6020E
:10990000C206558F637B07012A979386F5FF63682C
:10991000A70A6376070BF9152A9733070741B35651
:10992000F7023377F702B38AC6029317070163FB86
:109930005701AA971387F6FF63E1A70863FF57074C
:10994000F916AA97C205B38A5741D58DB33A50018B
:10995000B3EA5501CA8BC1BD8546998E11C76D46C4
:1099600001478147E34DD6E6130AEA09339A4A01D3
:10997000B3D7DA00B33A4001B3E7570113F77700E2
:1099800019C713F7F70091466303D70091071397A0
:109990005700634807029A07A583014789B593D604
:1099A0001A00B3D5F6021397FA0141833388C50232
:1099B000B1B7CE8B368B814AB1BDBA8661B7B68559
:1099C000A9BF0547814721BD13F91B001307F00FFD
:1099D000814731B5797122D4135475014ECE52CCE2
:1099E0009319950006D626D24AD056CA5AC813747F
:1099F000F40F93D99900135AF50169C49307F00F36
:109A00006308F40E9397390037070004B3E9E700C1
:109A1000130414F88144014B13D77501939A9500F0
:109A20001377F70F93DA9A0013D9F50145CF93070F
:109A3000F00F630CF7028E0A130717F8B70700043C
:109A4000B3EAFA003A94014633452A01BD47AA8693
:109A50009305140063E09710174700001307876908
:109A60008A04BA949C40BA9782871304F40F6396D1
:109A70000A0C93E424000946C1BF01451307F00F07
:109A8000B7074000B2502254A6075E07A5837E05A3
:109A9000D98F92540259F249624AD24A424B5D8DA3
:109AA00045618280CA86D689328B8947630FFB085D
:109AB0008D47E304FBFC854736856310FB1A01479D
:109AC0008147C9B7639D090413D77501939A95001F
:109AD0001377F70F91440144054B93DA9A0013D999
:109AE000F50131F7639D0A0093E414000546A9BF10
:109AF00063920902A1441304F00F094B31BF56854C
:109B0000D92C9307B5FF098CB39AFA001304A4F873
:109B100001461DBFB1441304F00F0D4BF5BD4E853A
:109B20002EC6552C9307B5FF1304A0F8B399F9007E
:109B3000098C8144014BB245C5B593E434000D4610
:109B400021B78947D286E315FBF636851307F00F58
:109B500081470DBF41639306F3FF13D6090193D8E4
:109B60000A01B3F7D900B3FADA0033885703B3898F
:109B7000F80213570801B30A5603D6994E973306D5
:109B80001603637357011A96C167FD17B376F70082
:109B90003378F800C206C29693996600935707017E
:109BA000B3393001E982B2979A07B3E6D900B3E935
:109BB000D7009397490063D9070013D7190093F78B
:109BC0001900B369F7002E841307F4076350E0040B
:109BD00093F7790099C793F7F90091466383D7000B
:109BE00091099397490063D90700B70700F8FD175B
:109BF000B3F9F900130704089307E00F63CBE704F8
:109C000093976900A5831377F70FADBD8547B3869A
:109C1000E74011C76D4601478147E345D6E6130784
:109C2000E4093397E9003337E000B3D7D900D98F7F
:109C300013F7770019C713F7F70091466303D700AE
:109C4000910713975700634C07009A07A5830147B4
:109C500015BD1307F00F814735B52E84B5B70547FD
:109C600081470DB5411106C622C426C20DCD9357BA
:109C7000F54133C4A7001D8CAA842285A92A930725
:109C8000E0093387A74093076009FD8063CCE702B2
:109C9000A1469377F70F63D5A60061153314A4008E
:109CA0002604258021A081448147014426041355C0
:109CB0009400B2402244DE07FE045D8D458D92443F
:109CC000410182809307900963DDE7009307B501A6
:109CD0009546B317F400898E3354D400B337F0009F
:109CE0005D8C954763D6A7009307B5FF3314F40046
:109CF000B70600FCFD16937774003376D40085C355
:109D00009377F4009145638CB700110693175600C2
:109D100063D707009307F009758E3387A7401314A4
:109D2000660025809377F70F51B7135775011377A6
:109D3000F70F41119307170022C426C21314950090
:109D400006C693F7E70F25809354F50185C793570F
:109D50003400130707387604B2075207B18313950E
:109D6000F401D98FC98FB240228522449244BE8526
:109D70004101828005EB39C42285B128A94763C619
:109D8000A7042D47098F930755013357E400331477
:109D9000F4009317C70013079038098FB183137726
:109DA000F77F5DBF01CC13573400B7070800D98F88
:109DB000B2077604B1831307F07F79BF1307F07FF2
:109DC000814759BF0147814741BF130755FF3317EB
:109DD000E40001447DBFC167637EF5029307F00F85
:109DE0001307000263ECA7009747000093878734AE
:109DF000AA9703C507003305A740828021819747B2
:109E0000000093872733AA9703C5070061473305EE
:109E1000A7408280B7070001636EF5006181974714
:109E2000000093872731AA9703C507002147330510
:109E3000A74082804181974700009387A72FAA9768
:109E400003C5070041473305A7408280B3C7A5007B
:109E50008D8B3307C50081E78D4763EEC700AA8766
:109E60006370E50A83C6050085078505A38FD7FEC5
:109E7000E3EAE7FE828093763500AA8791CA83C61B
:109E8000050085078505A38FD7FE93F63700FDB73C
:109E90009376C7FF138606FE63F0C70683A305000B
:109EA00083A2450083AF850003AFC50083AE0501E3
:109EB00003AE450103A3850183A8C501938545022F
:109EC00023A0770003A8C5FF23A2570023A4F7010E
:109ED00023A6E70123A8D70123AAC70123AC670063
:109EE00023AE17019387470223AE07FF75B7904152
:109EF0009107910523AEC7FEE3EBD7FEE3E4E7F657
:109F00008280797122D44AD052CC56CA5AC806D619
:109F100026D24ECE3A8AAE8A32843689428B0147A7
:109F200063580600370700803344C7001307D00288
:109F30002380E70093F4F8FD930760048D4663885F
:109F4000F4009307500489466393F4000509DA8707
:109F50009308C100130881004A87D6852286EF0046
:109F6000D05293077004AA896396F400137A1A00FA
:109F7000630A0A0493076004338A29016397F40291
:109F800003C7090093070003631EF70001468146DB
:109F90005685A285EFE07F8F11C58547338927411C
:109FA00023202B0183270B003E9A014681465685CC
:109FB000A285EFE09F8D11E152C613070003B2475F
:109FC00063E24703B2474257B2502254B387374146
:109FD0001CC34E8592540259F249624AD24A424BFE
:109FE000456182809386170036C62380E700C1BF93
:109FF0002300C500130725009307B00263D60500B0
:10A00000B305B0409307D002A300F500A54763DA7B
:10A01000B70441119307F100BE88294813033006A5
:10A02000B3E605031386F7FF93860603A38FD7FED7
:10A03000B3C60503634DB30093860603F917A30F58
:10A04000D6FE63E917013305A74041018280B2873C
:10A05000B685F9B7850783C6F7FF0507A30FD7FEB7
:10A06000CDB793070003130745009385050323012C
:10A07000F500A301B5003305A740828019713ACEDF
:10A0800086DEA2DCA6DA2E84CAD8CED6D2D4B68991
:10A09000DAD0DECEE2CC3289D6D2E6CAEAC8EEC643
:10A0A000AA84EF10F03D832B05005E85EF00F008D9
:10A0B000032B0400724702DC93760B102A8C034AB0
:10A0C00084011C43F1CA9386470014C39C430810C3
:10A0D00098433AD0D8433AD298473AD4DC473ED650
:10A0E000EF20503928C46CC4832CC40417470000E7
:10A0F00013074714832A8404032D0700832D470088
:10A1000093971C0085836A86EE865685BE853ECE73
:10A11000EF20102C41EDF2476A86EE865685BE850B
:10A12000EFE03F886354A008014681465685E685E6
:10A13000EFE03F87635605009307D002A301F404C4
:10A1400093077004974A0000938A4A0F63F6470109
:10A15000974A0000938ACA0E137BBBFF8D472320CA
:10A1600064011CC8014B4E87CA867018A2852685DB
:10A17000C12EFD5C631E95157D55F6506654D65470
:10A180004659B659265A965A065BF64B664CD64C3B
:10A19000464DB64D096182809D07E19B93868700FD
:10A1A00014C39843DC4338C47CC43DBF5686E6865E
:10A1B0005685E685EF20D02111CD93077004974A8C
:10A1C0000000938A2A08E3F947F9974A0000938A26
:10A1D000AA0759B75C407D57137DFA0D6395E708D0
:10A1E00099475CC0544013670B403C18D6853EC06D
:10A1F00018C09307310302C2D28813084103668650
:10A200002685EFF01FD093077004AA8AD255631BEE
:10A21000FD00F55763C5F5005C4063D8B708791AAF
:10A22000137AFA0F9307500663E64705FD15528629
:10A23000130504052EDAEFF0BFDB625785462A8B43
:10A24000B307A7001CC863C5E6001840058B19C3F7
:10A2500085071CC883473103E38707F09307D002C3
:10A26000A301F40409B713077004E31DEDF6BDFB69
:10A27000854785BF93076006631BFA025C40635BFA
:10A28000B0000CC881E71840058B09CF8507AE9751
:10A290001CC809A889E718408546058B19C3938611
:10A2A000270014C82CCC014B75B7130A7006E2576F
:10A2B00063C9F5001C400CC8858BEDD7938715004A
:10A2C000C1BF05476344B00009470D8FBA97C9B7AE
:10A2D0001C4013F7074015E314485686CA852685A7
:10A2E0008299E30B95E91C40898B63960724F2570A
:10A2F0004844E354F5E83E8549B513075006637BAF
:10A30000471928446C4401468146EFE00FD839E9EB
:10A31000854617460000130666F3CA85268582998E
:10A32000E30C95E55257E2576345F7001C40858BD7
:10A33000DDDBE2865E86CA8526858299FD57E30DC0
:10A34000F5E2014A930AA4017D5BE257FD17E35C45
:10A35000FAF885465686CA8526858299E30E65E118
:10A36000050AE5B7D2576346F00685461746000052
:10A370001306C6EDCA8526858299E30F95DFD2576D
:10A380006257D98F81E71C40858BB1DFE2865E86FC
:10A39000CA8526858299FD57E300F5DE014A130B35
:10A3A000A401FD5BD257B307F040634BFA00E256BD
:10A3B0005686CA8526858299FD57E316F5F26DBB50
:10A3C00085465A86CA8526858299E30775DB050A84
:10A3D000D1BF3C4C625A63D347013E8A635A400165
:10A3E000D2865686CA8526858299FD57E306F5D81A
:10A3F000814C130DA401FD5D09A885466A86CA85B6
:10A4000026858299E30AB5D7850C032B8405D2876C
:10A4100063530A008147B307FB40E3C0FCFE525779
:10A42000E257634DF7021C40858B8DEBE257525784
:10A43000338AE7406344EB00338A6741635B400142
:10A44000D28633866A01CA8526858299FD57E3053F
:10A45000F5D2814A130BA401FD5B15A0E2865E864E
:10A46000CA8526858299FD57E312F5FC31B38546EE
:10A470005A86CA8526858299E30075D1850A525786
:10A48000E257998F528763530A000147998FE3C0BF
:10A49000FAFE91BDE25605476344D700858BB5C7E8
:10A4A00085465686CA85268582997D5AE30645CD1E
:10A4B000E2865E86CA8526858299E30F45CB2844CD
:10A4C0006C4401468146EFE04FBC1DC9E25613863D
:10A4D0001A00CA85FD1626858299E30F45C9DA86DA
:10A4E00013060405F9B585465686CA8526858299E0
:10A4F000E30475C9050AE257FD17E346FAFEC5B73E
:10A50000014A930AA401FD5BFDB785465686CA85BC
:10A5100026858299E31595FD85B185465686CA85BF
:10A5200026858299E30A65C5050A5C447257998FAE
:10A53000E345FAFE6DBB014A930A94017D5BF5B7D2
:10A54000797156CA9C49BA8A984522D426D24ECEF1
:10A5500052CC06D64AD05AC85EC6AA892E84B28486
:10A56000368A63D3E700BA879CC00347340419C313
:10A5700085079CC01C4093F7070281C79C40890750
:10A580009CC00329040013796900631A0900130BA6
:10A590009401FD5B5C449840998F634CF9041C4026
:10A5A0008346340493F70702B336D000A5EB1306B5
:10A5B0003404D2854E85829AFD576303F5041C400E
:10A5C00011469840998B544481446397C700B384E3
:10A5D000E64063D3040081441C4418486354F700E8
:10A5E000998FBE94014969047D5B639824050145F8
:10A5F00009A885465A86D2854E85829A631E7501C2
:10A600007D55B250225492540259F249624AD24ABC
:10A61000424BB24B456182800509ADBF3307D40080
:10A6200013060003A301C7040347540493871600CD
:10A63000A2978906A381E7049DBF85462286D2851D
:10A640004E85829AE30E65FB050945B7797122D4E0
:10A6500026D24AD04ECE06D652CC56CA5AC8B68951
:10A6600083C68501930790063289AA842E841386B7
:10A670003504638DF60263E2D7069307800563898C
:10A68000F61863EDD7006382062293073004638FC8
:10A69000F60A930A24042301D404D1A093073006B8
:10A6A0006386F60A93074006E395F6FE1C400843CE
:10A6B00093F6070893054500CDC61C410CC363D82B
:10A6C00007001307D002B307F040A301E404974644
:10A6D00000009386E6B7294775A8930700076385AE
:10A6E000F61663E5D7029307E006638CF618930726
:10A6F000F006E390F6FA0C401C4313F805081385A6
:10A7000047006308080608C39C4395A893075007B1
:10A71000E383F6FE93078007638CF61293073007F6
:10A72000E399F6F61C43D04181459386470014C354
:10A7300083AA07005685EF10A06601C53305554171
:10A7400048C05C401CC8A301040471A81C43930AC0
:10A750002404938647009C4314C32301F4048547D3
:10A76000D5B793F607041C410CC3B1DAC207C18701
:10A77000B9B793F5050408C3C1D983D707001307F8
:10A78000F0066388E60E97460000938666AC29477C
:10A79000A30104044C400CC463C5050008406D9936
:10A7A00008C099E3B28A91CDB28AB3F5E702FD1AE7
:10A7B000B69583C505002380BA00B3D5E70263F0E0
:10A7C000E70CA147631EF7001C40858B91CB5840D6
:10A7D0001C4863C7E70093070003A38FFAFEFD1A26
:10A7E0003306564110C84E87CA867000A28526855A
:10A7F000EFF01FD57D5A631E450B7D55B250225494
:10A8000092540259F249624AD24A424B45618280CF
:10A81000A382D50497460000938686A30C40084384
:10A8200013F805081C411105630D080208C313F74E
:10A83000150001C793E505020CC04147B1FB0C4070
:10A8400093F5F5FD0CC0A9B79C4193E707029CC1A5
:10A8500093078007A302F40497460000938686A01E
:10A8600075BF13F8050408C3E30308FCC207C183DE
:10A870007DBF974600009386A69D214711BFAE87F6
:10A880002DB794411C43CC4913F8060813854700A3
:10A890006306080008C39C438CC301A808C393F651
:10A8A00006049C43F5DA2390B70023280400B28AFB
:10A8B0001DBF14485686CA8526858299E30F45F345
:10A8C0001C40898B8DE7B2474844E359F5F23E8539
:10A8D00035B785465686CA8526858299E30F65F188
:10A8E000050A5C443247998FE345FAFEE9BF014A05
:10A8F000930A94017D5BF5B739713EDA2ED232D4DA
:10A9000036D63AD842DC46DE9387C18222CC8043D9
:10A9100026CA06CEAA8411C41C4C81E72285EF10FA
:10A92000A01E0C4454102686228536C6EF10D0583F
:10A93000F2406244D24421618280AA87850703C71E
:10A94000F7FF6DFF3385A7407D15828005C67D1614
:10A950000147B307E500B386E50083C7070083C658
:10A9600006006396D7006304C7000507FDF333852F
:10A97000D740828001458280011122CC26CA4AC874
:10A9800006CE4EC6AA842E89328409C51C4D99E391
:10A99000EF108017974700009387C795631BF40655
:10A9A000C0401C4C1CC48357C400A18BD9C31C4895
:10A9B000C9C31C4808409379F90F1379F90F1D8D0D
:10A9C0005C486347F500A2852685EF10C00135E598
:10A9D0001C440505FD171CC41C401387170018C034
:10A9E000238037015C486389A7008357C400858BA7
:10A9F00089CBA9476317F900A2852685EF00B07EB1
:10AA00000DEDF24062444A85D2444249B2490561A3
:10AA10008280974700009387E78F6314F400804497
:10AA200049B7974700009387E78AE31CF4F6C044D0
:10AA30008DBFA285268521202DDD7D59D9B74111F5
:10AA40009387C18226C2844322C44AC006C62A898B
:10AA50002E8491C49C4C81E72685EF10E00A97472D
:10AA6000000093872789631CF402C0400317C400C9
:10AA700093170701C18393F68700BDEE93F6070194
:10AA80009DEEA5472320F900136707042316E40071
:10AA90007D55B24022449244024941018280974749
:10AAA0000000938727876314F4008044C1B7974759
:10AAB000000093872782E31BF4FAC04445BF918BC3
:10AAC00095C74C5891C9930744046385F5004A859E
:10AAD000EF109020232A04028357C400232204008D
:10AAE00093F7B7FD2316F4001C481CC08357C4001D
:10AAF00093E787002316F4001C4889EF8357C400AE
:10AB00001307002093F707286386E700A2854A858C
:10AB1000EF10201E8357C40013F7170005C75C48C9
:10AB200023240400B307F0401CCC1C480145B5F3B6
:10AB30008317C40013F7070829DF93E707042316D8
:10AB4000F400B9B7898B014791E3584818C4F1BFA5
:10AB5000011122CC1C49804906CE26CA4AC84EC6DD
:10AB600052C456C263C187127D14131824009389FE
:10AB70004501338A0901130945014A9883270A00D0
:10AB8000032708008507B354F7026366F706C16818
:10AB90004E834A8E814E014FFD1811030326C3FFD9
:10ABA000110E33771601418233079702330696025E
:10ABB000769793560701B3771701B307FF40369690
:10ABC0008326CEFF935E06013376160133F7160116
:10ABD000BA97C18213D70741918EBA9613DF064107
:10ABE000B3F71701C206D58F232EFEFEE3776AFA6C
:10ABF00083270800BDCBAA8AEF10206C63490504A7
:10AC000041668504CA8501457D16910903A8C9FFDF
:10AC100098419105B376C800158DB376C700AA9602
:10AC2000935707011358080113D70641B38707410B
:10AC3000BA9713D50741F18EC207D58F23AEF5FE23
:10AC4000E3753AFD93172400CA9798431DC72685DC
:10AC5000F2406244D2444249B249224A924A0561D2
:10AC600082808327080089E77D147118E36B09FF50
:10AC700000C951B7984309E77D14F117E36CF9FE59
:10AC800023A88A00E9B70145E1B775713ED85C5148
:10AC900022C526C34AC1CEDED2DCE2D406C7D6DA4C
:10ACA000DAD8DED6E6D2EAD0EECE36C23AC646CA08
:10ACB000AA842E843289C2892E8A328C89EF41453A
:10ACC000EF10400DC8D023220500232405002320C7
:10ACD000050023260500DC508C4389CDD8438547E9
:10ACE0002685B397E7009CC5D8C1EF108015DC50CE
:10ACF00023A00700635309048547131C190023A0F0
:10AD0000F900135C1C00B707F07F3377FC00631475
:10AD1000F70642578967320C9387F770135CCC00B3
:10AD20001CC3336C8C00E3050C32D24791EB973790
:10AD300000009387E7593EC039A823A00900E1B776
:10AD4000973700009387C7583EC097370000938716
:10AD5000575852471CC3BA402A4402459A440A49EC
:10AD6000F659665AD65A465BB65B265C965C065D1B
:10AD7000F64D49618280014681462285E28522CED8
:10AD800062D4EFD09FB005E1425785471CC3973787
:10AD900000009387A74B3EC0D247D5DF973700000E
:10ADA0009387D74A7DB7B800F4006286A2852685CE
:10ADB00013594C01EF10A0621379F97FAA89A64AB2
:10ADC000630D0910A2577245130919C09395C70066
:10ADD000B181B707F03FDD8D02DC97370000938724
:10ADE000E7499043D443EFE0AF9297370000938751
:10ADF00067499043D443EFD03FC69737000093870D
:10AE0000E7489043D443EFC01FDA2A8B4A85AE8BC4
:10AE1000EFE07F8A973700009387C7479043D4437A
:10AE2000EFD09FC32A86AE865A85DE85EFC0BFD796
:10AE30002A8BAE8BEFE0BF812A84014681465A857A
:10AE4000DE85EFD01FB6635B05002285EFE0BF868D
:10AE50005A86DE86EFD07FA311C17D140547D947FE
:10AE60003AD663E3870213173400973700009387BD
:10AE7000E74EBA979043D4437245A255EFD07FB2C4
:10AE8000635305007D1402D633892A41930BF9FFE1
:10AE9000014B63D60B00054B330B2B41814B634EAB
:10AEA0000406A29B22CC814A1247A54763E5E7141A
:10AEB0009547854C63D6E7009307C7FF3EC2814C98
:10AEC00012478D47630EF71063CFE704894702C826
:10AED000630DF70685473EC88DA0364993070002EB
:10AEE00056991307294363D5E70213050004198D0A
:10AEF000930729413315AC003354F400418DEF1012
:10AF0000F050B70710FEBE9585477D193EDCF1B5C0
:10AF10003385E7403315A400DDB7330B8B40B30A0C
:10AF2000804002CC51B712479147630EF7000547A6
:10AF30003AC8124795476306F70AFD573EC4FD5DC0
:10AF4000C94702C619A885473EC8B2476348F00AF8
:10AF5000854705473EC4854D3AC603A944021147BB
:10AF600023220900930647018325490063FCD70883
:10AF70002685EF009064DC502320A9009C433EC04E
:10AF8000B94763E6B71D63840C1C635E800A937740
:10AF9000F40013973700935C444097370000938781
:10AFA000E73BBA9793F60C0198430949DC4385C601
:10AFB000973600009386063890527245D452A255B7
:10AFC0003AD03ED2EFD02FB10257925793FCFC00FB
:10AFD0002A8A2E8C0D49173D0000130DAD3589A826
:10AFE00002C8B247A2973EC4938D1700EE87E3468E
:10AFF000B0F785479DB7854C02C2E9BDB2473EC454
:10B00000BE8DA1BF85052322B9000607A1BF93F617
:10B010001C0081CE03260D0083264D003A85BE8597
:10B02000EFD09FA305092A87AE8793DC1C40210D32
:10B03000E39F0CFC3A86BE865285E285EFD0AFA92D
:10B040002A8A2E8C81A0094915CCB30C804093F735
:10B05000FC00139737009737000093872730BA9783
:10B060009043D4437245A25593DC4C40173D0000F9
:10B07000130D4D2CEFD05F9E2A8A2E8C8147639C46
:10B080000C12DDFFB2576387071417370000130750
:10B09000E720104354435285E28552D0EFD07F9091
:10B0A000635A0512638B0D12A2476350F00A1737DB
:10B0B00000001307271F8257104354433E85E28543
:10B0C000EFD09F99A247130DF4FF2A8A2E8C050911
:10B0D00062874A853EDE52DABA8C3AD0EFE0AFDDC5
:10B0E000525802573709C0FC4286BA86EFD0DF9625
:10B0F000973600009386861B9042D442528CEFC054
:10B100009FAAF2572A8A2E99E1EF9737000093877A
:10B11000671A525802579043D4434285BA85EFD0FC
:10B120003FDF5286CA862A8CAE8CEFD0AFFC634AD2
:10B13000A054B7070080B3C727015286BE86628538
:10B14000E685EFD01F86634B0552724A225CB647F4
:10B1500063C7073039476344873013173400973784
:10B1600000009387A71FBA9703AB070083AB470084
:10B17000B24763D207206340B02163910D509737E7
:10B180000000938727139043D4435A85DE85EFD080
:10B19000BF8C5286E286EFD0EFF5814A01496357B2
:10B1A000054A824702470504138A170093071003D4
:10B1B0002300F70045A113F71C0009CB03260D005F
:10B1C00083264D000509EFD03F89854793DC1C405D
:10B1D000210D75B5228DEE87E5BD228D8147CDBD50
:10B1E0009386F7FF1396360097360000938606176E
:10B1F000B2968842CC428246B6973EDAC247E9C34D
:10B20000973700009387870B2A86AE868843CC4306
:10B210004ADE52D0EFD02F8C0258725717390000F7
:10B22000130949084286BA86EFD09FCE024A2AD037
:10B230002ED2E6856285EFE08FC12ADEEFE0AFC750
:10B240002A86AE866285E685EFD09FCCF2572A8C9F
:10B25000AE8C2A86AE8602559255050A938707035F
:10B26000A30FFAFEEFD00FE96348A00E9737000056
:10B270009387C7028843CC436286E686EFD05FC9D6
:10B280002A86AE8602559255EFD0CFE66342A018CB
:10B29000D257E30CFAEA0326090083264900025537
:10B2A0009255EFD06FFB03260900832649002AD070
:10B2B0002ED26285E685EFD02FFA2A8CAE8C95BF10
:10B2C0005286CA86EFD04FF9525A02492AD02ED25E
:10B2D000E6856285EFE0AFB72ADEEFE0CFBD2A86D4
:10B2E000AE866285E685EFD0BFC27257D257050998
:10B2F00013070703A30FE9FE2A8CAE8C6312F9062D
:10B3000017390000130989FB032609008326490029
:10B3100002559255EFC03F892A86AE866285E68542
:10B32000EFD04FDD6346A00E02569256032509006A
:10B3300083254900EFD0DFBD2A86AE866285E6858B
:10B34000EFD02FE693070003E35105E00347FAFF30
:10B350009306FAFF6304F7006A8459A8368AFDB79A
:10B3600097370000938707F49043D443EFD0CFEE94
:10B370002A8CAE8CB1BFE287BE8C8247528C973A42
:10B380000000938A2AF213891700BE9D5A86DE8632
:10B390006285E685EFC03FF4EFE06FAB2A8DEFE00A
:10B3A0008FB15A86DE86EFD02FEB2A86AE86628575
:10B3B000E685EFD0FFB593070D03A30FF9FE2A86AC
:10B3C000AE864A8A639E2D07EFC0EFFD5A86DE8661
:10B3D0002A8CAE8CEFD00FD2634BA0025A86DE8649
:10B3E0006285E685EFD06FCA01E593771D0085E39E
:10B3F000CE852685EF00F024C25723000A000504FD
:10B4000080C3D247E389079423A04701A9B2228DC4
:10B41000130790038346FAFF9307FAFF639AE60047
:10B420008246639DF60013070003050D2380E600A6
:10B4300003C7070005072380E70039BF3E8AD9BF4D
:10B4400003A60A0083A64A000509EFD0EFE00146F3
:10B4500081462A8CAE8CEFD04FC30DF951BF4247C5
:10B4600063000710924605476345D70C62579387E0
:10B47000374309E7264793076003998F568DDA8C87
:10B48000854526853E9BBE9BEF0070342A89635E0E
:10B490009001635C7001E68763D39B01DE87330B09
:10B4A000FB40B38CFC40B38BFB4063800A04C24773
:10B4B000C5CF6354A003CA856A862685EF0030474E
:10B4C0004E86AA852A892685EF0030322ACECE857F
:10B4D0002685EF001017F247BE893386AA4111C6B0
:10B4E000CE852685EF00B044AA8985452685EF00E4
:10B4F000102EE247AA8A635BF0063E86AA8526855F
:10B50000EF00F04212478547AA8A014D63C8E7065B
:10B51000014D63120A069317CC00528DA9EFB705AF
:10B52000F07F337CBC0063080C04050B850B054DD4
:10B5300099A0138DFDFF63CAAA01338DAA4163DE72
:10B540000D00B30CBB41814725BFE247B30A5D4103
:10B55000D6973ECCEA8A014DDDB7DA8CEE870DB77F
:10B56000568DDA8C014925B756869DBF124785470F
:10B57000014DE3DFE7F8E247054589CF83A70A01DC
:10B580008D078A07D697C843EF007019930700020A
:10B590003385A7405E957D8951C193070002898F4D
:10B5A0001147635AF706F1473385A7402A9BAA9CA7
:10B5B000AA9B63586001CE855A862685EF0010430A
:10B5C000AA8963587001D6855E862685EF001042F1
:10B5D000AA8AB257B1C7D6854E85EF00104E635187
:10B5E0000504CE85814629462685EF00D009C2474D
:10B5F0007D14AA89638C0726CA858146294626853B
:10B60000EF007008A2472A896345F008124789476E
:10B6100063D1E70829A8E38EE7F83E85710579B77D
:10B620006345B0071247894763D1E7066EC4A24756
:10B6300091EFD685814615462685EF00D004AA8A6B
:10B64000AA854E85EF007047E34DA0B4B247024A89
:10B6500013C4F7FF014BD6852685EF00807EE309F2
:10B6600009D863080B0063062B01DA852685EF00F5
:10B67000407DCA852685EF00C07C9DBB814A01497B
:10B68000F1B76A84814A014929BEC2476EC4638604
:10B69000071E63589001CA8566862685EF0010351F
:10B6A0002A894A8563060D02832549002685EF0015
:10B6B000C070032609012A8B9305C90009060A06F2
:10B6C0003105EFE0AFF80546DA852685EF00103248
:10B6D000824722474A8B138C1700BA973EC693774E
:10B6E0001A002A893EC4D6854E85EFF06FC6DA85EA
:10B6F0002A8D930D05034E85EF00303C4A86AA8BB8
:10B70000D6852685EF00903E5045930CFCFF2A8A93
:10B71000054711E6AA854E85EF00303A2A87D28583
:10B7200026853AC8EF00E07192474247628AB3E645
:10B73000E700A247DD8E81EE130790036388ED04D6
:10B7400063547001930D1D032380BC0129B763CAA4
:10B750000B009247B3EB7701A247B3EBFB00639575
:10B760000B04E353E0FECE8505462685EF00102846
:10B77000D685AA89EF0070346346A00071F513F7EF
:10B780001D0079D313079003E39EEDFA930790030E
:10B790002380FC00930690038347FAFF1307FAFF08
:10B7A000638CD708850745A0635BE000130790030F
:10B7B000E38EEDFC93871D002380FC0069BDB2473A
:10B7C000A30FBCFF63818705CE8581462946268568
:10B7D000EF00606BAA8981462946DA8526856318C1
:10B7E0002B01EF00406A2A8B2A89050CEDBDEF0082
:10B7F0008069CA852A8B814629462685EF00A06884
:10B800002A89E5B7014BCE8505462685EF00101E37
:10B81000D685AA89EF00702AE34EA0F601E593F7DA
:10B820001D00ADFB930700030347FAFF9306FAFFE1
:10B83000E313F7E2368ACDBF82476399E7000247F8
:10B840000504930710032300F70031B53A8AA9B71E
:10B850005247973700009387E7A63EC0973700000E
:10B860009387C7A6631707CE6FF0EFCEA247634654
:10B87000F00012478947E3CCE7DA024AD6854E85C5
:10B88000EFF00FAD8247050A930D05033307FA4029
:10B89000A247A30FBAFFE357F7F6CE8581462946A4
:10B8A0002685D523AA89D9BF83D7C500011122CC0B
:10B8B00026CA06CE4AC84EC613F78700AA842E842D
:10B8C00079EFD841634DE000B841634AE00001459B
:10B8D000F2406244D2444249B249056182805854E0
:10B8E0007DD703A904009396370123A0040063DEEB
:10B8F000060670488357C400918B99C75C401D8E23
:10B900005C5899C33C401D8E5C540C508146268582
:10B910008297FD570357C400631DF5009440F54717
:10B9200063E9D706B70740208507B3D7D700858BD3
:10B93000ADC31C48232204001CC09317370163D8F1
:10B940000700FD576314F5009C4091E368C84C580C
:10B9500023A02401ADDD930744046385F50026850B
:10B96000EF009037232A04029DB70C50014685460C
:10B9700026850297FD572A86E31EF5F69C40BDDB1F
:10B9800075476385E70059476394E70423A02401C2
:10B990003DBF136707042316E4007D5515BF83A937
:10B9A0000501E38609F203A905008D8B23A035016B
:10B9B00033093941014791E3D84918C4E35920F1CB
:10B9C0001C540C50CA864E86268582976349A00077
:10B9D0008357C40093E707042316F4007DBFAA9998
:10B9E0003309A940E1BF9C49A5C3011122CC06CE71
:10B9F0002A8411C51C4D81E72EC63922B2459737DE
:10BA000000009387278F639CF5004C408397C50007
:10BA10009DC722856244F24005616FF0FFE89737C9
:10BA200000009387278F6394F5000C44C5B79737C0
:10BA300000009387278AE39BF5FC4C44C1BFF2408A
:10BA4000624401450561828001458280411122C422
:10BA500006C62A842316B5002317C5002320050037
:10BA600023220500232405002322050623280500A0
:10BA7000232A0500232C0500214681451305C50511
:10BA8000EF404FF997170000938747F05CD0971766
:10BA900000009387A7F21CD4971700009387E7F65E
:10BAA0005CD4971700009387A7F900D01CD8B24048
:10BAB00022444101828097050000938505F399AAED
:10BAC000411126C2130680069384F5FFB384C40295
:10BAD0004AC02E8922C406C693854407EF00102A67
:10BAE0002A8401CD2320050023222501310508C425
:10BAF000138684068145EF40EFF12285B24022444F
:10BB000092440249410182801C4DA5E7411106C6BD
:10BB100022C497070000938747FA1CD59387C183F7
:10BB20009C432324050423260504232805046314C9
:10BB3000F50085471CCD2A84352848C022851D285C
:10BB400008C42285052848C4484001469145EFF0C5
:10BB5000FFEF08440546A545EFF05FEF484409466E
:10BB6000C945EFF0BFEE85471CCCB24022444101ED
:10BB70008280828041119387C18326C284434AC058
:10BB800006C69C4C22C42A8981E72685EFF0DFF7A0
:10BB9000938484048044DC40FD1763D607009C40F6
:10BBA000B9CF8440C5BF0317C40039E7C177850703
:10BBB000232204062320040023220400232404005B
:10BBC0005CC423280400232A0400232C04002146FB
:10BBD00081451305C405EF40EFE3232A0402232C1B
:10BBE000040223240404232604042285B2402244B0
:10BBF00092440249410182801304840671BF914539
:10BC00004A85EFF0FFEB88C049FDB1472320F900DA
:10BC10000144E1BF797122D44AD052CC56CA5AC8E5
:10BC20005EC606D626D24ECE2A8AAE8A1304850474
:10BC30000149054BFD5B09ECB25022544A859254F0
:10BC40000259F249624AD24A424BB24B4561828064
:10BC5000044483294400FD1963D409000040E1BF76
:10BC600083D7C400637BFB008397E400638777017D
:10BC7000A6855285829A3369A90093848406E1BF20
:10BC80009387C1829C43885309E51745FF1F13051D
:10BC900065471305050F82801971A6DAAE84839576
:10BCA000E500A2DC86DE328463DC050083D7C400B5
:10BCB00023A0060093F7070885E7930700401DA01F
:10BCC000300836C6EF00505EB246E34105FE7247CB
:10BCD000BD67F98F7977BA9793B717009CC2F1BF08
:10BCE000930700041CC0F6506654D6540145096100
:10BCF000828083D7C500011122CC06CE26CA4AC84D
:10BD0000898B2E8489CF930774041CC01CC8854777
:10BD10005CC8F2406244D2444249056182807400AA
:10BD20003000AA84EFF05FF7A2452A892685EF004C
:10BD3000F00401ED8317C40013F7072079FBF19B92
:10BD400093E727002316F4007DBF97070000938731
:10BD5000C7D69CD48357C40008C008C893E7070817
:10BD60002316F400A2475CC8B24791CF8315E400C4
:10BD70002685EF00905601C98357C400F19B93E7D5
:10BD800017002316F4008357C4003369F900231603
:10BD9000240141B79387C182AA8588436F00007E42
:10BDA00093F5F50F2A966314C500014582808347F9
:10BDB0000500E38DB7FE0505FDB75C51411122C4B6
:10BDC0004AC006C626C22A842E8989EF4145EFF073
:10BDD0007FFC48D0232205002324050023200500F2
:10BDE000232605004450DC4495C75850931729007A
:10BDF0005847BA9788431DED8544B39424011386B0
:10BE000054000A06854522856D2511CD2322250182
:10BE100004C51DA01306100291452285592D5C50C2
:10BE2000C8C4DC47F9F30145B240224492440249B8
:10BE300041018280184198C323280500232605006C
:10BE4000E5B75C51011122CC06CE2A8499EF414519
:10BE50002EC6EFF03FF4B24548D02322050023243C
:10BE60000500232005002326050091C95450DC411C
:10BE700013972700DC46BA97984398C18CC3F240C9
:10BE800062440561828079714ECEAA89416522D4CF
:10BE900026D22E84844906D64AD0D10501487D1584
:10BEA0009C419105050833F7A7003307C702C183FA
:10BEB000B387C702369793560701698FB69793D613
:10BEC0000701C207BA9723AEF5FEE34B98FCA1C267
:10BED0001C4463C7F4024C404E8536C68505EFF01E
:10BEE000DFED10489305C4002A8909060A063105CA
:10BEF000EFD0DFF5A2854E85EFF0BFF4B2464A845D
:10BF0000938744008A07A297D4C3850404C8228576
:10BF1000B250225492540259F249456182804177CD
:10BF2000698FAA87014519E3C2074145370700FF1A
:10BF30007D8F19E32105A207370700F07D8F19E3F4
:10BF400011059207370700C07D8F19E309058A079D
:10BF500063C907001397170005056344070013051D
:10BF6000000282801C4113F777000DC393F617007F
:10BF7000014799E613F7270011C785831CC10547C0
:10BF80003A85828089831CC10947DDBF93960701EA
:10BF9000C182014799E2C183414793F6F70F99E2C5
:10BFA0002107A18393F6F70099E21107918393F695
:10BFB000370099E20907898393F6170081E68583A4
:10BFC000050799C31CC16DBF1307000255BF41117E
:10BFD00022C42E84854506C6EFF03FDE40C9B2403C
:10BFE0002244054718C94101828098491C4A797149
:10BFF00026D206D622D44AD04ECEAE846354F70061
:10C00000B2842E8683A90401032906019C44CC40F6
:10C010003384290163D38700850532C6EFF0FFD949
:10C02000324613084501131324004293C28763ED7F
:10C03000670293854401939829005106131E290035
:10C04000C166AE98329EFD166364C60363568000D7
:10C05000711383270300F1CB00C9B25022549254CC
:10C060000259F2494561828023A007009107C1B7B8
:10C07000832F0600B3FFDF00638A0F04428FAE8276
:10C08000814403A7020083230F00110FB37ED70062
:10C09000B38EFE03B3F7D30093D303019102BE9E88
:10C0A00093570701B387F703A69E13D70E01B3FE7C
:10C0B000DE009E97BA9793D40701C207B3E7D70172
:10C0C000232EFFFEE3EF12FB23209F008352260066
:10C0D000638A020483270800C28E2E8F814F0327B4
:10C0E0000F0083D32E00F58F758F33075702910E03
:10C0F000110F1E977E97931F0701B3E7FF0023AE32
:10C10000FEFE8357EFFF83AF0E004183B3875702D4
:10C11000B3FFDF00FE97BA9793DF0701E3611FFDCE
:10C1200023A0FE001106110805B77D1405B7011103
:10C1300026CA4AC84EC606CE22CC52C493773600D1
:10C140002A89B284AE8989CFFD171727000013070B
:10C15000672D8A07BA9790438146EFF0DFD2AA890C
:10C160008984A5CC8327490291EF4145EFF09FC216
:10C170002322A902232205002324050023200500F1
:10C1800023260500032A490203248A0019E893059F
:10C1900010274A85EFF0BFE32324AA002A84232036
:10C1A000050093F7140081CFCE8522864A85EFF0F3
:10C1B000DFE32A8ACE854A85EFF0BFC8D28985841D
:10C1C00089CC084009E92286A2854A85EFF0FFE183
:10C1D00008C0232005002A84E9B7F24062444E8556
:10C1E000D2444249B249224A05618280797126D2FD
:10C1F000AE844ECE83A9040122D4CC4113545640C0
:10C200009C44A2994AD056CA06D652CCAA8A13890F
:10C21000190063C42709568532C6EFF01FBA3246AB
:10C22000930745012A8ABE8601479106634A87061D
:10C2300063530400014494480A04338787008A0644
:10C24000938744017D8ABE9625C2130800023308F5
:10C25000C84081458843110791073315C500C98D32
:10C26000232EB7FE83A5C7FFB3D50501E3E4D7FEB0
:10C270000CC399C1138929007D1923282A015685E9
:10C28000A685EFF01FBCB250225452859254025939
:10C29000F249624AD24A456182808505860795BF88
:10C2A00023AE06FE050751B7910703A6C7FF110786
:10C2B000232EC7FEE3EAD7FEC1B71C499849998FE0
:10C2C0008DE30A075105D105B306E500BA95F116CD
:10C2D000F115904298416308E600FD576363E6005C
:10C2E00085473E858280E364D5FEE5BF011126CAFD
:10C2F000AE844EC6B285AA89268522CC06CE4AC80F
:10C300003284EFF09FFB05E181454E85EFF0FFAAF7
:10C3100085471CC9232A0500F2406244D2444249A1
:10C32000B24905618280054963460500A28701493B
:10C330002684BE844C404E85EFF03FA803230401C1
:10C3400083A8040113064401131E2300138844012B
:10C350008A08C16E23262501329EC29893064501A4
:10C36000014FFD1E1842832F08009106B375D701B7
:10C37000B3F7DF01FA959D8D93DF0F019357070106
:10C38000B387F74113D70541BA9713DF0741B3F5D8
:10C39000D501C207CD8F110823AEF6FE1106E36367
:10C3A00018FDC165FD156368C601F1169C4295C76D
:10C3B0002328650095B71C429106110633F7B70094
:10C3C0007A9713580741C183C29713DF07416D8FD6
:10C3D000C207D98F23AEF6FEF9B77D13F9B779718D
:10C3E00022D42E84854526D24AD0B2844ECE52CC59
:10C3F0003A8906D6368AEFF05F9C3707100093071C
:10C40000F7FFE58FD18093F4F47FAA89B5E03EC6AB
:10C410002DC4280022C4EFF0FFB4A24621CD32473C
:10C4200093070002898FB317F700D58F3357A70002
:10C4300023AAF9003AC6324423AC89003334800081
:10C44000050423A88900B9C49384D4BCAA94930793
:10C45000500323209A003385A7402320A900B2501F
:10C4600022544E8592540259F249624A45618280B3
:10C47000D98F71BF23AAD9007DBF6800EFF09FAEAE
:10C48000B24713050502054423AAF900854723A8EE
:10C49000F90055BF931724001305E5BCCE97232060
:10C4A000AA00884B1604EFF09FA7098C232089006F
:10C4B0007DB73386C502011122CC06CEB28532C6C5
:10C4C00075282A8409C532468145EF30BFD42285BC
:10C4D000F240624405618280CDC183A7C5FF41114E
:10C4E00022C406C626C21384C5FF63D307003E9448
:10C4F000AA8459259387C1899C4399EB2322040080
:10C5000023AE81882244B240268592444101B5A5DC
:10C51000637EF40014403307D4006396E700984329
:10C52000DC43369718C05CC0E1BFBA87D84319C353
:10C53000E37DE4FE94433386D700631F86001040FA
:10C54000B29694C33386D700E31EC7FA104358430C
:10C55000B29694C3D8C37DB76375C400B1479CC07D
:10C5600055B71040B306C4006316D70014435843B0
:10C57000B29614C058C0C0C371B78280011126CAD8
:10C5800093843500F19806CE22CC4AC84EC6A10449
:10C59000B14763F1F404B14463E0B4042A89E92BA0
:10C5A0009387C18998433A8431E09387018A9C43F9
:10C5B00091E781454A854D2623A0A18AA6854A8513
:10C5C000612EFD5963173507B1472320F9004A85CD
:10C5D0006D2329A0E3D204FCB1471CC10145F24000
:10C5E0006244D2444249B249056182801C40858F31
:10C5F00063CE0702AD4663F6F6001CC03E9404C04D
:10C6000031A05C406312870223AEF1884A85B523CE
:10C610001305B4009307440061993307F54061D3D3
:10C620003A94898F1CC065BF5CC3CDB72287404058
:10C63000A5BF130435007198E30385FCB305A4403E
:10C640004A85192EE31D35FB41B71C46FD171CC654
:10C6500063DA0700184E63C5E700A9476394F50045
:10C660006FE08FB11C422E851387170018C22380FC
:10C67000B7008280011122CC26CA4AC84EC652C4D5
:10C6800006CE2A89AE893284B304D6007D5A63145B
:10C690009400014511A8834504004E864A85EFF0B9
:10C6A000DFFA0504E31545FFF2406244D2444249F3
:10C6B000B249224A05618280357122CD26CB4AC912
:10C6C0004EC706CF52C556C35AC1DEDEE2DCE6DAFB
:10C6D000AA89AE843289368409C51C4D99E3EFF0EE
:10C6E000AFC2972700009387E7C0639DF40C83A433
:10C6F000490083D7C400A18BE5CB9C48F5C79307BD
:10C700000002A304F1029307000302D22305F10201
:10C7100022C6930B5002972A0000938A6AD1054CD7
:10C72000294B4A848347040099C36392770FB30C63
:10C730002441638E0C00E6864A86A6854E85EFF07E
:10C740007FF3FD576307F51E9256E69636D2834770
:10C7500004006380071EFD571309140002C802CEAF
:10C760003ECA02CCA309010482D4834509001546C0
:10C770005685EFF0EFE213041900C24759E913F7A9
:10C78000070109C713070002A309E10413F7870093
:10C7900009C71307B002A309E10483460900130780
:10C7A000A0026380E608F2474A8481462546034793
:10C7B000040093051400130707FD6379E60AB5CA60
:10C7C0003ECE85A8972700009387C7B46395F400F1
:10C7D00083A4890039BF972700009387A7AFE39A06
:10C7E000F4F083A4C90031B7A6854E85EFE02FA5EC
:10C7F00019D57D55FA406A44DA444A49BA492A4A69
:10C800009A4A0A4BF65B665CD65C0D618280050431
:10C8100011BF330555413315AC00C98F3EC822897D
:10C82000A9B7324793064700184336C66349070243
:10C830003ACE034704009307E002631FF70403475F
:10C8400014009307A002631BF702B2470904138781
:10C8500047009C433AC663C107023ECA35A8330766
:10C86000E04093E727003ACE3EC8E1B7B3876703BD
:10C8700085462E84BA9725BFFD57C5B7050402CA61
:10C88000814681472546034704009305140013079A
:10C8900007FD6378E606F1F2834504000D4617258F
:10C8A0000000130565B9EFF0AFCF11CD9727000059
:10C8B000938787B81D8D93070004B397A70042455F
:10C8C00005045D8D2AC8834504001946172500001C
:10C8D0001305C5B6130914002304B102EFF04FCCC1
:10C8E0002DC197D7FFFF9387A77995E74247B247B6
:10C8F0001377071009CF91073EC69257D2973ED2C1
:10C900000DB5B387670385462E84BA97ADBF9D07E3
:10C91000E19BA107D5B77800970600009386C6D59E
:10C9200026860C084E85EFD06FF5FD572A8AE31650
:10C93000F5FC83D7C40093F70704E39C07EA12557C
:10C9400055BD780097060000938606D326860C080E
:10C950004E85EFD0BFCFD1BF411122C42A842E858E
:10C960009797FF1F23A6072806C6A52BFD57631917
:10C97000F5009797FF1F9387A7279C4391C31CC07F
:10C98000B240224441018280411122C42E84839509
:10C99000E50006C6E522634905007C48AA977CC8E5
:10C9A000B2402244410182808357C4007D777D17C5
:10C9B000F98F2316F400EDB783D7C500011122CCFF
:10C9C00026CA4AC84EC606CE93F70710AA842E84FC
:10C9D0003289B68991C78395E5008946014635229B
:10C9E0008357C4007D777D17F98F2316F4008315D4
:10C9F000E4006244F240CE864A86B2494249268526
:10CA0000D24405613DA8411122C42E848395E500DE
:10CA100006C6E528FD570357C400631BF500FD77E4
:10CA2000FD17F98F2316F400B240224441018280A1
:10CA30008567D98F2316F40068C8FDB78395E50094
:10CA400025A8411122C42A842E85B285368697975F
:10CA5000FF1F23AF071806C6EF70EFB3FD5763192A
:10CA6000F5009797FF1F9387A7189C4391C31CC09D
:10CA7000B240224441018280411122C42A842E8581
:10CA80009797FF1F23A6071606C62121FD57631996
:10CA9000F5009797FF1F9387A7159C4391C31CC070
:10CAA000B240224441018280411122C42A842E8551
:10CAB000B2859797FF1F23AD071206C6DD26FD57E7
:10CAC0006319F5009797FF1F938787129C4391C3C3
:10CAD0001CC0B240224441018280411122C42A84F8
:10CAE0002E859797FF1F23A5071006C6D926FD5749
:10CAF0006319F5009797FF1F9387870F9C4391C396
:10CB00001CC0B240224441018280411122C42A84C7
:10CB10002E85B28536869797FF1F23AB070C06C676
:10CB20004D26FD576319F5009797FF1F9387470C14
:10CB30009C4391C31CC0B24022444101828085E1E4
:10CB400041116C00014511CA795581CA834706001D
:10CB50009CC1034506003335A00041018280014598
:10CB600019CA795589CA834706009CC10345060046
:10CB70003335A0008280828082808280411122C46D
:10CB80002A842E85B28536869797FF1F23A2070633
:10CB900006C68126FD576319F5009797FF1F9387F7
:10CBA00027059C4391C31CC0B240224441018280AE
:10CBB00091CD9307F00F63F7C7009307A0081CC13E
:10CBC0007D5582802380C500054582800145828095
:10CBD00013D74501B7071000FD171347F7FF13D808
:10CBE0004601FD8DF58F931657011378F87F99CA8A
:10CBF0001307F07F01456303E8008280D18F33354E
:10CC0000F0008280C98D0545E5D582801DCD41119A
:10CC100022C406C62A84EFD00F9C9306E041898E79
:10CC2000A94793F6F67F63DCA7025515B317A40056
:10CC3000B207B1830147B2402244B207D206B183A2
:10CC4000D58F3A85BE854101828081478146B207F2
:10CC5000D206B1830147D58F3A85BE8582802D47A4
:10CC6000098FB357E400B207130755013317E400E7
:10CC7000B183D1B70328C500184154410C45216543
:10CC80009307F5FF13560801139E35007D8E9358C8
:10CC9000D70193D7D601131308018E064111B3E7CC
:10CCA000C701B3E6160113530301131E370093089F
:10CCB00016007915F5810E033EC436C272C033F5F5
:10CCC000A8001358F801B3E5650005C9717713078B
:10CCD00007403A961307E07F635DC7041306F07FB1
:10CCE000014781473207520631837E08518F3367EF
:10CCF00007013E85BA8541018280D58FCD8FB3E78C
:10CD0000C70105E2F1CB8147954693D536001397CD
:10CD100097009396D701B3E7B60031831376F67F79
:10CD2000D1B7CDDF01481306F07F370708008147F0
:10CD300055BF6346C00A9307C0FC634FF60E9307C6
:10CD4000D0033386C7409357564037070800D98D24
:10CD5000139527000A8781462EC6B308A100110744
:10CD60007D8AB3E6C60163091701032E0700110788
:10CD7000B3E6C601E31B17FF0D471D8F79CA930861
:10CD80000101AA9883A808FF130E0002330ECE40BB
:10CD9000B398C801B3E6160175CB0A070A95B30E1E
:10CDA000E1008A880C41032345009108B3D5C500F2
:10CDB0003313C301B3E5650023AEB8FE1105E39359
:10CDC0001EFF9145B387F540B24508082A97B3D5B1
:10CDD000C5002328B7FE61A80146014721B7139774
:10CDE0004600139547003367C701F182F18392052E
:10CDF0003337E000C98ECD8FD98E13F7760011C777
:10CE000013F7F6009145631CB702370780007D8F4A
:10CE1000E30D07EE05061307F07FE301E6EC3707A5
:10CE200080FF7D177D8F9317D7018D82260713769C
:10CE3000F67FD58F31837DB585468147014613B78F
:10CE4000C6FF13471700BA973707800091067D8FFA
:10CE5000C1B78A85B388A50083A808009105050697
:10CE600023AE15FFE358C7FE1147B307F7408A0703
:10CE70008A97180823A007009107E39DE7FE024761
:10CE8000B336D0009247D98E014685BF854701470A
:10CE90002DBF930780051797FF1F232BF7D47D55D0
:10CEA0008280930780051797FF1F2323F7D47D55B2
:10CEB0008280930780051797FF1F232BF7D2014528
:10CEC0008280930780051797FF1F2323F7D27D5594
:10CED0008280930780051797FF1F232BF7D07D557E
:10CEE00082809387418A9C4391C73E9523A2A18A61
:10CEF0003E8582809797FF1F9387C7CF3E9523A2D9
:10CF0000A18A3E8582800000473A2F5757575F50CD
:10CF1000726F6A6563742F4D53525F50726F6A650A
:10CF200063742F5743485F4865616465725F43616E
:10CF3000722F6C69627261726965732F7A665F64C1
:10CF400072697665722F7A665F6472697665725F60
:10CF5000656E636F6465722E63000000473A2F5759
:10CF600057575F50726F6A6563742F4D53525F500D
:10CF7000726F6A6563742F5743485F4865616465E3
:10CF8000725F4361722F6C69627261726965732F9F
:10CF90007A665F6472697665722F7A665F64726919
:10CFA0007665725F7069742E6300000029000000CE
:10CFB0002C0000002D0000002E00000042000000A8
:10CFC00046000000470000003C0000005B0000003D
:10CFD0005F000000473A2F5757575F50726F6A65DE
:10CFE00063742F4D53525F50726F6A6563742F578D
:10CFF00043485F4865616465725F4361722F6C6985
:10D00000627261726965732F7A665F6472697665B0
:10D01000722F7A665F6472697665725F7370692ECB
:10D02000630000004F4B0D0A000000000D0A0000D5
:10D0300041542B003D00000041542E2E2E000000D4
:10D0400041542B455849540041542B5245534554A3
:10D050000000000041542B4D41433F0054504C0010
:10D06000424C454D4F44450041542B424C4553548E
:10D07000413F00006368393134315F310000000006
:10D080004E414D4500000000504E414D450000000E
:10D090004F464600504153454E0000004F4E0000A1
:10D0A0003030303030300000504153530000000029
:10D0B00037453A37443A31393A32363A33423A33DD
:10D0C000382C30303030303000000000434F4E41BB
:10D0D0004444000041542B43434144443F0000007A
:10D0E000434F4E4E000000004F4E2C300000000019
:10D0F0005253534900000000473A2F5757575F508B
:10D10000726F6A6563742F4D53525F50726F6A6518
:10D1100063742F5743485F4865616465725F43617C
:10D12000722F6C69627261726965732F7A665F64CF
:10D1300065766963652F7A665F6465766963655FA6
:10D14000626C7565746F6F74685F63683931343110
:10D150002E63000043483931343120656E746572A6
:10D160005F61745F6D6F6465206661696C65000066
:10D17000434839313431206765745F636F6E6E6583
:10D1800063745F6D6163206661696C650000000017
:10D1900043483931343120657869745F61745F6D5B
:10D1A0006F6465206661696C650000004348393131
:10D1B0003431207365745F6D6F6465206661696CDE
:10D1C00065000000434839313431206765745F6D74
:10D1D00061635F61646472657373206661696C6525
:10D1E00000000000434839313431207265736574A2
:10D1F000206661696C6500004348393134206D6FE9
:10D200006465207365745F74785F706F77657220F2
:10D2100061636B2E000000004348393134312064D3
:10D22000656661756C745F636F6E6E6563742066AE
:10D2300061696C6500000000434839313431206376
:10D240006F6E6E656374206661696C650000000036
:10D2500043483931343120636F6E6E6563742066E4
:10D2600061696C652E000000434839313431206516
:10D270007869745F61745F6D6F6465206661696C65
:10D28000652E00004F4B0D0A000000000D0A000043
:10D2900041542B003D00000041542E2E2E00000072
:10D2A00041542B455849540041542B524553455441
:10D2B0000000000041542B4D41433F0054504C00AE
:10D2C000424C454D4F44450041542B424C4553542C
:10D2D000413F00006368393134315F3100000000A4
:10D2E0004E414D4500000000504E414D45000000AC
:10D2F0004F464600504153454E0000004F4E00003F
:10D3000030303030303000005041535300000000C6
:10D3100046303A37383A31393A32363A33423A338C
:10D32000382C30303030303000000000434F4E4158
:10D330004444000041542B43434144443F00000017
:10D34000434F4E4E000000004F4E2C3000000000B6
:10D350005253534900000000473A2F5757575F5028
:10D36000726F6A6563742F4D53525F50726F6A65B6
:10D3700063742F5743485F4865616465725F43611A
:10D38000722F6C69627261726965732F7A665F646D
:10D3900065766963652F7A665F6465766963655F44
:10D3A000626C7565746F6F74685F636839313431AE
:10D3B0005F6368322E6300004348393134312065A1
:10D3C0006E7465725F61745F6D6F6465206661691C
:10D3D0006C650000434839313431206765745F6300
:10D3E0006F6E6E6563745F6D6163206661696C6505
:10D3F0000000000037453A37443A31393A32363A7C
:10D4000033423A33382C30303030303000000000B6
:10D4100043483931343120657869745F61745F6DD8
:10D420006F6465206661696C6500000043483931AE
:10D430003431207365745F6D6F6465206661696C5B
:10D4400065000000434839313431206765745F6DF1
:10D4500061635F61646472657373206661696C65A2
:10D46000000000004348393134312072657365741F
:10D47000206661696C6500004348393134206D6F66
:10D480006465207365745F74785F706F7765722070
:10D4900061636B2E00000000434839313431206451
:10D4A000656661756C745F636F6E6E65637420662C
:10D4B00061696C65000000004348393134312063F4
:10D4C0006F6E6E656374206661696C6500000000B4
:10D4D00043483931343120636F6E6E656374206662
:10D4E00061696C652E000000434839313431206594
:10D4F0007869745F61745F6D6F6465206661696CE3
:10D50000652E0000473A2F5757575F50726F6A6574
:10D5100063742F4D53525F50726F6A6563742F5757
:10D5200043485F4865616465725F4361722F6C694F
:10D53000627261726965732F7A665F64657669638A
:10D54000652F7A665F6465766963655F69707331BC
:10D5500031342E63000000002564000025660000C1
:10D56000473A2F5757575F50726F6A6563742F4D54
:10D5700053525F50726F6A6563742F5743485F4818
:10D5800065616465725F4361722F6C69627261727A
:10D590006965732F7A665F6465766963652F7A665D
:10D5A0005F6465766963655F6D7075363035302E02
:10D5B000630000004D5055363035302073656C6681
:10D5C00020636865636B206572726F722E000000C5
:10D5D000473A2F5757575F50726F6A6563742F4DE4
:10D5E00053525F50726F6A6563742F5743485F48A8
:10D5F00065616465725F4361722F6C69627261720A
:10D600006965732F7A665F6465766963652F7A66EC
:10D610005F6465766963655F6D7439763033785F12
:10D620006476702E63000000417373657274206528
:10D6300072726F7220696E202573206C696E65208E
:10D6400025642E0D0A0000004C6F67206D65737312
:10D650006167652066726F6D202573206C696E6549
:10D66000202564203A222573222E0D0A0000000096
:10D6700000002041000000000000000080842E41D6
:10D680004144435F446174613A00000041313A0013
:10D6900041323A0041333A000A42617564205261D6
:10D6A0007465203D202564000A64617461426974D8
:10D6B000203D2025640000000A73746F7042697475
:10D6C000203D2025640000000A706172697479545D
:10D6D000797065203D202564000000000000C842EC
:10D6E00000080140000C01400010014000140140FE
:10D6F000001801400030014000380040003C00406C
:10D70000002C0140000000400004004000080040E0
:10D71000000C0040001000400014004000340140A4
:10D72000004C0140005001400038014000440040DE
:10D7300000480040004C00400050004000180040ED
:10D74000001C00400020004000000000000000001D
:10D7500000000000000000000000000808080808A1
:10D7600008080000080800000048242412000000F7
:10D7700000000000000000000000004848487E242F
:10D7800024247E24242400000000103C5252121C49
:10D7900030505052523C1010000000222515150D3B
:10D7A0002A585454522200000000000C1212120A8F
:10D7B00076252919916E000000060404020000007D
:10D7C00000000000000000000040201010080808C1
:10D7D000080808101020400000020408081010106B
:10D7E00010101008080402000000000008086B1C5C
:10D7F0001C6B080800000000000000000010101062
:10D80000FE101010000000000000000000000000EA
:10D8100000000000060404020000000000000000F8
:10D820007E0000000000000000000000000000007A
:10D83000000000000606000000004020202010101C
:10D8400008080804040202000000001824424242B2
:10D850004242424224180000000000101C10101028
:10D8600010101010107C00000000003C42424240AA
:10D8700020100804427E00000000003C424240208C
:10D8800018204042423C0000000000203030282494
:10D890002422FE2020F800000000007E0202021E6A
:10D8A00022404042221C0000000000182402023ADC
:10D8B00046424242443800000000007E42202010D0
:10D8C00010080808080800000000003C42424224FA
:10D8D00018244242423C00000000001C2242424206
:10D8E000625C40402418000000000000000018188E
:10D8F00000000000181800000000000000000008F0
:10D900000000000000080808000000402010080483
:10D9100002040810204000000000000000007E000B
:10D92000007E00000000000000000002040810203B
:10D9300040201008040200000000003C4242462043
:10D9400010101000181800000000001C225A555535
:10D950005555553A423C00000000000808181414C0
:10D96000243C224242E700000000001F2222221E27
:10D9700022424242221F00000000007C424201017C
:10D9800001010142221C00000000001F224242420D
:10D9900042424242221F00000000003F4212121E7B
:10D9A00012120242423F00000000003F4212121ECB
:10D9B00012120202020700000000003C22220101B4
:10D9C00001712122221C0000000000E74242424275
:10D9D0007E42424242E700000000003E080808087C
:10D9E00008080808083E00000000007C1010101015
:10D9F000101010101010110F0000007722120A0EE4
:10DA00000A1212222277000000000007020202021E
:10DA100002020202427F00000000007736363636EE
:10DA2000362A2A2A2A6B0000000000E346464A4AAA
:10DA300052525262624700000000001C22414141E4
:10DA400041414141221C00000000003F424242424D
:10DA50003E020202020700000000001C2241414178
:10DA60004141414D321C60000000003F4242423EB5
:10DA70001212222242C700000000007C424202042F
:10DA800018204042423E00000000007F490808087C
:10DA900008080808081C0000000000E74242424253
:10DAA00042424242423C0000000000E7424222243F
:10DAB00024141418080800000000006B2A2A2A2ADF
:10DAC0002A36141414140000000000E7422424181D
:10DAD0001818242442E700000000007722221414C2
:10DAE00008080808081C00000000007E2120101013
:10DAF00008040442423F00000078080808080808AB
:10DB0000080808080808780000000204040408084F
:10DB10000810102020204040001E1010101010107F
:10DB20001010101010101E0000182400000000003B
:10DB300000000000000000000000000000000000E5
:10DB400000000000000000FF0006080000000000C8
:10DB50000000000000000000000000000000001CA9
:10DB600022302C22326C0000000000000302021A56
:10DB700026424242261A0000000000000000003841
:10DB80004402020244380000000000006040407C73
:10DB90004242424262DC0000000000000000003C03
:10DBA00042427E02423C0000000000003048083E35
:10DBB00008080808083E0000000000000000007C83
:10DBC00022221C023C42423C000000000302023AB6
:10DBD0004642424242E700000000000C0C00000EEA
:10DBE00008080808083E0000000000303000003837
:10DBF000202020202020221E0000000003020272AC
:10DC0000120A0E1222770000000000080E08080811
:10DC100008080808083E0000000000000000007F1F
:10DC20009292929292B70000000000000000003B28
:10DC30004642424242E70000000000000000003C73
:10DC400042424242423C0000000000000000001B33
:10DC500026424242261A0207000000000000005837
:10DC600064424242645840E0000000000000007737
:10DC70004C040404041F0000000000000000007CAD
:10DC800042023C40423E0000000000000008083E06
:10DC90000808080848300000000000000000006389
:10DCA0004242424262DC00000000000000000077B7
:10DCB000222214140808000000000000000000DB0D
:10DCC00091525A2A24240000000000000000006E37
:10DCD000241818182476000000000000000000E757
:10DCE0004224241818080806000000000000007EE6
:10DCF00022100808447E000000C0202020202020A0
:10DD0000102020202020C000101010101010101023
:10DD10001010101010101010000304040404040468
:10DD20000804040404040300045A20000000000056
:10DD30000000000000000000C24700000A48000088
:10DD40000A4800000A4800000A4800000A4800008B
:10DD50000A4800000A4800000A4800000A4800007B
:10DD60000A4800000A4800000A4800000A4800006B
:10DD70000A4800000A4800000A4800000A4800005B
:10DD80000A4800000A4800000A4800000A4800004B
:10DD90000A4800000A4800000A4800000A4800003B
:10DDA0000A4800000A4800000A4800000A4800002B
:10DDB0000A4800000A4800000A480000EA43000040
:10DDC0000A4800000A4800000A4800000A4800000B
:10DDD0000A4800000A4800000A4800000A480000FB
:10DDE0000A4800000A4800000A4800000A480000EB
:10DDF0000A4800000A4800000A4800000A480000DB
:10DE00000A480000AC4600000A4800000A4800002A
:10DE10000A4800000A4800000A4800000A480000BA
:10DE20000A4800000A4800000A4800000A480000AA
:10DE300024430000584300000A480000EA43000061
:10DE40000A4800000A480000584300000A48000041
:10DE50000A4800000A4800000A4800000A4800007A
:10DE600040460000664700000A4800000A480000DB
:10DE7000184700000A480000D44500000A48000086
:10DE80000A480000AC46000012010002020000082F
:10DE9000861A225700010102030100000902430013
:10DEA000020100A032090400000102020100052461
:10DEB00000100105240100000424020205240600CC
:10DEC00001070581034000FF09040100020A000068
:10DED0000007050202400000070582024000000022
:10DEE000140332003000310037002D0032002D00C5
:10DEF000320035000E037700630068002E006300D7
:10DF00006E0000000C03430048003300300037006F
:10DF10001603300031003200330034003500360083
:10DF200037003800390000000A060002FF00FF40F9
:10DF3000010000007E720000D26F00008C730000B0
:10DF4000C87000008C730000686F0000AA6D0000AC
:10DF50008C7300008C6F0000B46F000042720000F0
:10DF600062720000F26E0000DC6D0000EE6D0000D9
:10DF7000026E0000F26E0000F26E00009A6E000069
:10DF8000AC6E0000F26E0000F26E0000F26E000057
:10DF9000F26E0000F26E0000F26E0000F26E000001
:10DFA000EA6E0000F26E0000F26E0000F26E0000F9
:10DFB000F26E0000F26E0000F26E0000F26E0000E1
:10DFC000F26E0000F26E0000F26E0000F26E0000D1
:10DFD000F26E0000F26E0000F26E0000F26E0000C1
:10DFE000F26E0000F26E0000F26E0000886E00001B
:10DFF00028A5FFFFACA3FFFFBCA4FFFFC4A4FFFF45
:10E00000BCA4FFFFDCA3FFFFBCA4FFFFC4A4FFFF71
:10E01000ACA3FFFFACA3FFFFDCA3FFFFC4A4FFFF83
:10E020001EA5FFFF1EA5FFFF1EA5FFFFDCA3FFFF30
:10E0300038ACFFFF2AABFFFF2AABFFFF28ABFFFF87
:10E0400030ABFFFF30ABFFFFF6AAFFFF28ABFFFFAF
:10E0500030ABFFFFF6AAFFFF30ABFFFF28ABFFFF9F
:10E0600024ACFFFF24ACFFFF24ACFFFFF6AAFFFFA8
:10E070006CB8FFFF96B7FFFF66B8FFFF9EB7FFFFC4
:10E0800066B8FFFF64B7FFFF66B8FFFF9EB7FFFFEC
:10E0900096B7FFFF96B7FFFF64B7FFFF9EB7FFFF7E
:10E0A000A4B7FFFFA4B7FFFFA4B7FFFF64B7FFFF4C
:10E0B00056B7FFFF56B7FFFF26B8FFFF02B9FFFFB5
:10E0C00026B8FFFF24B7FFFF26B8FFFF02B9FFFF06
:10E0D00056B7FFFF56B7FFFF24B7FFFF02B9FFFF98
:10E0E00064B7FFFF64B7FFFF64B7FFFF24B7FFFF0C
:10E0F00064BAFFFFB6B9FFFFB6B9FFFFB4B9FFFFBF
:10E10000BAB9FFFFBAB9FFFF8AB9FFFFB4B9FFFF81
:10E11000BAB9FFFF8AB9FFFFBAB9FFFFB4B9FFFF71
:10E1200052BAFFFF52BAFFFF52BAFFFF8AB9FFFF90
:10E1300000010202030303030404040404040404AE
:10E14000050505050505050505050505050505057F
:10E15000060606060606060606060606060606065F
:10E16000060606060606060606060606060606064F
:10E17000070707070707070707070707070707072F
:10E18000070707070707070707070707070707071F
:10E19000070707070707070707070707070707070F
:10E1A00007070707070707070707070707070707FF
:10E1B00008080808080808080808080808080808DF
:10E1C00008080808080808080808080808080808CF
:10E1D00008080808080808080808080808080808BF
:10E1E00008080808080808080808080808080808AF
:10E1F000080808080808080808080808080808089F
:10E20000080808080808080808080808080808088E
:10E21000080808080808080808080808080808087E
:10E22000080808080808080808080808080808086E
:10E23000FFFFFFFFFFFFEF7F494E4600696E66005C
:10E240004E414E006E616E003000000030313233BE
:10E2500034353637383941424344454600000000E2
:10E26000303132333435363738396162636465664C
:10E270000000000000000000000000000000F83F67
:10E2800061436F63A787D23FB3C8608B288AC63FBC
:10E29000FB799F501344D33F000000000000F03F83
:10E2A00000000000000024400000000000001C40AE
:10E2B0000000000000001440000000000000E03FEB
:10E2C000496E66696E697479000000004E614E0007
:10E2D000000000000000000000000000000000003E
:10E2E000000000000000000000000000000000002E
:10E2F000000000000000000000000000000000001E
:10E30000000000000000000000000000000000000D
:10E3100000000000000000000000000000000000FD
:10E3200000000000000000000000000000000000ED
:10E330000080E03779C34143176E05B5B5B8934601
:10E34000F5F93FE9034F384D321D30F94877825ACD
:10E350003CBF737FDD4F1575000000000000F03FEB
:10E3600000000000000024400000000000005940B0
:10E370000000000000408F40000000000088C34003
:10E3800000000000006AF8400000000080842E4178
:10E3900000000000D01263410000000084D79741C4
:10E3A0000000000065CDCD41000000205FA00242CA
:10E3B000000000E876483742000000A2941A6D423F
:10E3C000000040E59C30A2420000901EC4BCD64232
:10E3D00000003426F56B0C430080E03779C34143DD
:10E3E00000A0D8855734764300C84E676DC1AB4353
:10E3F000003D9160E458E143408CB5781DAF154471
:10E4000050EFE2D6E41A4B4492D54D06CFF080444B
:10E41000F64AE1C7022DB544B49DD9794378EA4460
:10E4200005000000190000007D000000232D302BA6
:10E4300020000000686C4C00656667454647000098
:10E4400043000000504F5349580000002E000000C8
:10E4500000202020202020202020282828282820B4
:10E4600020202020202020202020202020202020AC
:10E470002088101010101010101010101010101014
:10E480001004040404040404040404101010101004
:10E4900010104141414141410101010101010101CE
:10E4A0000101010101010101010101011010101020
:10E4B00010104242424242420202020202020202A0
:10E4C00002020202020202020202020210101010F4
:10E4D000200000000000000000000000000000001C
:10E4E000000000000000000000000000000000002C
:10E4F000000000000000000000000000000000001C
:10E50000000000000000000000000000000000000B
:10E5100000000000000000000000000000000000FB
:10E5200000000000000000000000000000000000EB
:10E5300000000000000000000000000000000000DB
:10E5400000000000000000000000000000000000CB
:04E5500000000000C7
:10E55400010000000200C201030032000400BC00FC
:10E5640005007800060000000700000008002000F5
:10E57400090001000000000001000000020000008A
:10E584000300000004000000050000000600000075
:10E59400070000000800000009000000000000005F
:10E5A4000102030401020304060708090907000025
:10E5B4000000000000000000000000000000000057
:10E5C4000000000000000000000000000000000047
:10E5D4000000000000000000000000000000000037
:10E5E4000000000000000000000000000000000027
:10E5F40000000000F0E2000010E30000D0E20000A0
:10E604000000000000000000000000000000000006
:10E6140000000000000000000000000000000000F6
:10E6240000000000000000000000000000000000E6
:10E6340000000000000000000000000000000000D6
:10E6440000000000000000000000000000000000C6
:10E654004300000000000000000000000000000073
:10E6640000000000000000000000000000000000A6
:10E674004300000000000000000000000000000053
:10E684000000000000000000000000000000000086
:10E694004300000000000000000000000000000033
:10E6A4000000000000000000000000000000000066
:10E6B4004300000000000000000000000000000013
:10E6C4000000000000000000000000000000000046
:10E6D40043000000000000000000000000000000F3
:10E6E4000000000000000000000000000000000026
:10E6F40043000000000000000000000000000000D3
:10E704000000000000000000000000000000000005
:10E7140043000000000000000000000000000000B2
:10E7240000000000000000000000000000000000E5
:10E73400B0CB00003ECB00000000000050E400001D
:10E744004CE400005CE200005CE200005CE20000DB
:10E754005CE200005CE200005CE200005CE20000BD
:10E764005CE200005CE20000FFFFFFFFFFFFFFFF31
:10E77400FFFFFFFFFFFF0000010041534349490031
:10E784000000000000000000000000000000000085
:10E79400000000000000000000004153434949000C
:10E7A4000000000000000000000000000000000065
:10E7B4000000000000000000000000000000000055
:10E7C400FFFFFFFFFFFFFFFF00F8FFFF0300000054
:10E7D400F0870000020406080100000000C20100E6
:10E7E40000000800FFFFFFFF01000000A000002060
:10E7F400353637444557585904030904A00000200E
:00000001FF
